{
	"contracts/REC20Stacking.sol": {
		"LPTokenWrapper": {
			"abi": [
				{
					"inputs": [
						{
							"internalType": "address",
							"name": "account",
							"type": "address"
						}
					],
					"name": "balanceOf",
					"outputs": [
						{
							"internalType": "uint256",
							"name": "",
							"type": "uint256"
						}
					],
					"stateMutability": "view",
					"type": "function"
				},
				{
					"inputs": [],
					"name": "lpt",
					"outputs": [
						{
							"internalType": "contract IERC20",
							"name": "",
							"type": "address"
						}
					],
					"stateMutability": "view",
					"type": "function"
				},
				{
					"inputs": [
						{
							"internalType": "uint256",
							"name": "amount",
							"type": "uint256"
						}
					],
					"name": "stake",
					"outputs": [],
					"stateMutability": "nonpayable",
					"type": "function"
				},
				{
					"inputs": [],
					"name": "totalSupply",
					"outputs": [
						{
							"internalType": "uint256",
							"name": "",
							"type": "uint256"
						}
					],
					"stateMutability": "view",
					"type": "function"
				},
				{
					"inputs": [
						{
							"internalType": "uint256",
							"name": "amount",
							"type": "uint256"
						}
					],
					"name": "withdraw",
					"outputs": [],
					"stateMutability": "nonpayable",
					"type": "function"
				}
			],
			"devdoc": {
				"kind": "dev",
				"methods": {
					"balanceOf(address)": {
						"details": "返回账户余额",
						"params": {
							"account": "账户地址"
						},
						"returns": {
							"_0": "余额"
						}
					},
					"stake(uint256)": {
						"details": "把shushi抵押到Boardroom",
						"params": {
							"amount": "质押数量"
						}
					},
					"totalSupply()": {
						"details": "返回总量",
						"returns": {
							"_0": "总量"
						}
					},
					"withdraw(uint256)": {
						"details": "赎回LPToken",
						"params": {
							"amount": "赎回数量"
						}
					}
				},
				"stateVariables": {
					"_balances": {
						"details": "余额映射"
					},
					"_totalSupply": {
						"details": "质押总量"
					}
				},
				"title": "LP质押合约",
				"version": 1
			},
			"evm": {
				"assembly": "    /* \"contracts/REC20Stacking.sol\":18842:20557  contract LPTokenWrapper {... */\n  mstore(0x40, 0x80)\n  callvalue\n  dup1\n  iszero\n  tag_1\n  jumpi\n  0x00\n  dup1\n  revert\ntag_1:\n  pop\n  dataSize(sub_0)\n  dup1\n  dataOffset(sub_0)\n  0x00\n  codecopy\n  0x00\n  return\nstop\n\nsub_0: assembly {\n        /* \"contracts/REC20Stacking.sol\":18842:20557  contract LPTokenWrapper {... */\n      mstore(0x40, 0x80)\n      callvalue\n      dup1\n      iszero\n      tag_1\n      jumpi\n      0x00\n      dup1\n      revert\n    tag_1:\n      pop\n      jumpi(tag_2, lt(calldatasize, 0x04))\n      shr(0xe0, calldataload(0x00))\n      dup1\n      0x18160ddd\n      eq\n      tag_3\n      jumpi\n      dup1\n      0x2e1a7d4d\n      eq\n      tag_4\n      jumpi\n      dup1\n      0x70a08231\n      eq\n      tag_5\n      jumpi\n      dup1\n      0xa694fc3a\n      eq\n      tag_6\n      jumpi\n      dup1\n      0xce5fc8d0\n      eq\n      tag_7\n      jumpi\n    tag_2:\n      0x00\n      dup1\n      revert\n        /* \"contracts/REC20Stacking.sol\":19205:19294  function totalSupply() public view returns (uint256) {... */\n    tag_3:\n      tag_8\n      tag_9\n      jump\t// in\n    tag_8:\n      mload(0x40)\n      tag_10\n      swap2\n      swap1\n      tag_11\n      jump\t// in\n    tag_10:\n      mload(0x40)\n      dup1\n      swap2\n      sub\n      swap1\n      return\n        /* \"contracts/REC20Stacking.sol\":20021:20555  function withdraw(uint256 amount) public virtual {... */\n    tag_4:\n      tag_12\n      0x04\n      dup1\n      calldatasize\n      sub\n      dup2\n      add\n      swap1\n      tag_13\n      swap2\n      swap1\n      tag_14\n      jump\t// in\n    tag_13:\n      tag_15\n      jump\t// in\n    tag_12:\n      stop\n        /* \"contracts/REC20Stacking.sol\":19404:19512  function balanceOf(address account) public view returns (uint256) {... */\n    tag_5:\n      tag_16\n      0x04\n      dup1\n      calldatasize\n      sub\n      dup2\n      add\n      swap1\n      tag_17\n      swap2\n      swap1\n      tag_18\n      jump\t// in\n    tag_17:\n      tag_19\n      jump\t// in\n    tag_16:\n      mload(0x40)\n      tag_20\n      swap2\n      swap1\n      tag_11\n      jump\t// in\n    tag_20:\n      mload(0x40)\n      dup1\n      swap2\n      sub\n      swap1\n      return\n        /* \"contracts/REC20Stacking.sol\":19608:19939  function stake(uint256 amount) public virtual {... */\n    tag_6:\n      tag_21\n      0x04\n      dup1\n      calldatasize\n      sub\n      dup2\n      add\n      swap1\n      tag_22\n      swap2\n      swap1\n      tag_14\n      jump\t// in\n    tag_22:\n      tag_23\n      jump\t// in\n    tag_21:\n      stop\n        /* \"contracts/REC20Stacking.sol\":18980:18997  IERC20 public lpt */\n    tag_7:\n      tag_24\n      tag_25\n      jump\t// in\n    tag_24:\n      mload(0x40)\n      tag_26\n      swap2\n      swap1\n      tag_27\n      jump\t// in\n    tag_26:\n      mload(0x40)\n      dup1\n      swap2\n      sub\n      swap1\n      return\n        /* \"contracts/REC20Stacking.sol\":19205:19294  function totalSupply() public view returns (uint256) {... */\n    tag_9:\n        /* \"contracts/REC20Stacking.sol\":19249:19256  uint256 */\n      0x00\n        /* \"contracts/REC20Stacking.sol\":19275:19287  _totalSupply */\n      sload(0x01)\n        /* \"contracts/REC20Stacking.sol\":19268:19287  return _totalSupply */\n      swap1\n      pop\n        /* \"contracts/REC20Stacking.sol\":19205:19294  function totalSupply() public view returns (uint256) {... */\n      swap1\n      jump\t// out\n        /* \"contracts/REC20Stacking.sol\":20021:20555  function withdraw(uint256 amount) public virtual {... */\n    tag_15:\n        /* \"contracts/REC20Stacking.sol\":20116:20137  uint256 directorShare */\n      0x00\n        /* \"contracts/REC20Stacking.sol\":20140:20149  _balances */\n      0x02\n        /* \"contracts/REC20Stacking.sol\":20140:20161  _balances[msg.sender] */\n      0x00\n        /* \"contracts/REC20Stacking.sol\":20150:20160  msg.sender */\n      caller\n        /* \"contracts/REC20Stacking.sol\":20140:20161  _balances[msg.sender] */\n      0xffffffffffffffffffffffffffffffffffffffff\n      and\n      0xffffffffffffffffffffffffffffffffffffffff\n      and\n      dup2\n      mstore\n      0x20\n      add\n      swap1\n      dup2\n      mstore\n      0x20\n      add\n      0x00\n      keccak256\n      sload\n        /* \"contracts/REC20Stacking.sol\":20116:20161  uint256 directorShare = _balances[msg.sender] */\n      swap1\n      pop\n        /* \"contracts/REC20Stacking.sol\":20247:20253  amount */\n      dup2\n        /* \"contracts/REC20Stacking.sol\":20230:20243  directorShare */\n      dup2\n        /* \"contracts/REC20Stacking.sol\":20230:20253  directorShare >= amount */\n      lt\n      iszero\n        /* \"contracts/REC20Stacking.sol\":20222:20301  require(directorShare >= amount, 'withdraw request greater than staked amount') */\n      tag_30\n      jumpi\n      mload(0x40)\n      0x08c379a000000000000000000000000000000000000000000000000000000000\n      dup2\n      mstore\n      0x04\n      add\n      tag_31\n      swap1\n      tag_32\n      jump\t// in\n    tag_31:\n      mload(0x40)\n      dup1\n      swap2\n      sub\n      swap1\n      revert\n    tag_30:\n        /* \"contracts/REC20Stacking.sol\":20350:20374  _totalSupply.sub(amount) */\n      tag_33\n        /* \"contracts/REC20Stacking.sol\":20367:20373  amount */\n      dup3\n        /* \"contracts/REC20Stacking.sol\":20350:20362  _totalSupply */\n      sload(0x01)\n        /* \"contracts/REC20Stacking.sol\":20350:20366  _totalSupply.sub */\n      tag_34\n      swap1\n        /* \"contracts/REC20Stacking.sol\":20350:20374  _totalSupply.sub(amount) */\n      swap2\n      swap1\n      0xffffffff\n      and\n      jump\t// in\n    tag_33:\n        /* \"contracts/REC20Stacking.sol\":20335:20347  _totalSupply */\n      0x01\n        /* \"contracts/REC20Stacking.sol\":20335:20374  _totalSupply = _totalSupply.sub(amount) */\n      dup2\n      swap1\n      sstore\n      pop\n        /* \"contracts/REC20Stacking.sol\":20432:20465  _balances[msg.sender].sub(amount) */\n      tag_35\n        /* \"contracts/REC20Stacking.sol\":20458:20464  amount */\n      dup3\n        /* \"contracts/REC20Stacking.sol\":20432:20441  _balances */\n      0x02\n        /* \"contracts/REC20Stacking.sol\":20432:20453  _balances[msg.sender] */\n      0x00\n        /* \"contracts/REC20Stacking.sol\":20442:20452  msg.sender */\n      caller\n        /* \"contracts/REC20Stacking.sol\":20432:20453  _balances[msg.sender] */\n      0xffffffffffffffffffffffffffffffffffffffff\n      and\n      0xffffffffffffffffffffffffffffffffffffffff\n      and\n      dup2\n      mstore\n      0x20\n      add\n      swap1\n      dup2\n      mstore\n      0x20\n      add\n      0x00\n      keccak256\n      sload\n        /* \"contracts/REC20Stacking.sol\":20432:20457  _balances[msg.sender].sub */\n      tag_34\n      swap1\n        /* \"contracts/REC20Stacking.sol\":20432:20465  _balances[msg.sender].sub(amount) */\n      swap2\n      swap1\n      0xffffffff\n      and\n      jump\t// in\n    tag_35:\n        /* \"contracts/REC20Stacking.sol\":20408:20417  _balances */\n      0x02\n        /* \"contracts/REC20Stacking.sol\":20408:20429  _balances[msg.sender] */\n      0x00\n        /* \"contracts/REC20Stacking.sol\":20418:20428  msg.sender */\n      caller\n        /* \"contracts/REC20Stacking.sol\":20408:20429  _balances[msg.sender] */\n      0xffffffffffffffffffffffffffffffffffffffff\n      and\n      0xffffffffffffffffffffffffffffffffffffffff\n      and\n      dup2\n      mstore\n      0x20\n      add\n      swap1\n      dup2\n      mstore\n      0x20\n      add\n      0x00\n      keccak256\n        /* \"contracts/REC20Stacking.sol\":20408:20465  _balances[msg.sender] = _balances[msg.sender].sub(amount) */\n      dup2\n      swap1\n      sstore\n      pop\n        /* \"contracts/REC20Stacking.sol\":20512:20548  lpt.safeTransfer(msg.sender, amount) */\n      tag_36\n        /* \"contracts/REC20Stacking.sol\":20529:20539  msg.sender */\n      caller\n        /* \"contracts/REC20Stacking.sol\":20541:20547  amount */\n      dup4\n        /* \"contracts/REC20Stacking.sol\":20512:20515  lpt */\n      0x00\n      dup1\n      sload\n      swap1\n      0x0100\n      exp\n      swap1\n      div\n      0xffffffffffffffffffffffffffffffffffffffff\n      and\n        /* \"contracts/REC20Stacking.sol\":20512:20528  lpt.safeTransfer */\n      0xffffffffffffffffffffffffffffffffffffffff\n      and\n      tag_37\n      swap1\n        /* \"contracts/REC20Stacking.sol\":20512:20548  lpt.safeTransfer(msg.sender, amount) */\n      swap3\n      swap2\n      swap1\n      0xffffffff\n      and\n      jump\t// in\n    tag_36:\n        /* \"contracts/REC20Stacking.sol\":20070:20555  {... */\n      pop\n        /* \"contracts/REC20Stacking.sol\":20021:20555  function withdraw(uint256 amount) public virtual {... */\n      pop\n      jump\t// out\n        /* \"contracts/REC20Stacking.sol\":19404:19512  function balanceOf(address account) public view returns (uint256) {... */\n    tag_19:\n        /* \"contracts/REC20Stacking.sol\":19461:19468  uint256 */\n      0x00\n        /* \"contracts/REC20Stacking.sol\":19487:19496  _balances */\n      0x02\n        /* \"contracts/REC20Stacking.sol\":19487:19505  _balances[account] */\n      0x00\n        /* \"contracts/REC20Stacking.sol\":19497:19504  account */\n      dup4\n        /* \"contracts/REC20Stacking.sol\":19487:19505  _balances[account] */\n      0xffffffffffffffffffffffffffffffffffffffff\n      and\n      0xffffffffffffffffffffffffffffffffffffffff\n      and\n      dup2\n      mstore\n      0x20\n      add\n      swap1\n      dup2\n      mstore\n      0x20\n      add\n      0x00\n      keccak256\n      sload\n        /* \"contracts/REC20Stacking.sol\":19480:19505  return _balances[account] */\n      swap1\n      pop\n        /* \"contracts/REC20Stacking.sol\":19404:19512  function balanceOf(address account) public view returns (uint256) {... */\n      swap2\n      swap1\n      pop\n      jump\t// out\n        /* \"contracts/REC20Stacking.sol\":19608:19939  function stake(uint256 amount) public virtual {... */\n    tag_23:\n        /* \"contracts/REC20Stacking.sol\":19703:19727  _totalSupply.add(amount) */\n      tag_40\n        /* \"contracts/REC20Stacking.sol\":19720:19726  amount */\n      dup2\n        /* \"contracts/REC20Stacking.sol\":19703:19715  _totalSupply */\n      sload(0x01)\n        /* \"contracts/REC20Stacking.sol\":19703:19719  _totalSupply.add */\n      tag_41\n      swap1\n        /* \"contracts/REC20Stacking.sol\":19703:19727  _totalSupply.add(amount) */\n      swap2\n      swap1\n      0xffffffff\n      and\n      jump\t// in\n    tag_40:\n        /* \"contracts/REC20Stacking.sol\":19688:19700  _totalSupply */\n      0x01\n        /* \"contracts/REC20Stacking.sol\":19688:19727  _totalSupply = _totalSupply.add(amount) */\n      dup2\n      swap1\n      sstore\n      pop\n        /* \"contracts/REC20Stacking.sol\":19791:19824  _balances[msg.sender].add(amount) */\n      tag_42\n        /* \"contracts/REC20Stacking.sol\":19817:19823  amount */\n      dup2\n        /* \"contracts/REC20Stacking.sol\":19791:19800  _balances */\n      0x02\n        /* \"contracts/REC20Stacking.sol\":19791:19812  _balances[msg.sender] */\n      0x00\n        /* \"contracts/REC20Stacking.sol\":19801:19811  msg.sender */\n      caller\n        /* \"contracts/REC20Stacking.sol\":19791:19812  _balances[msg.sender] */\n      0xffffffffffffffffffffffffffffffffffffffff\n      and\n      0xffffffffffffffffffffffffffffffffffffffff\n      and\n      dup2\n      mstore\n      0x20\n      add\n      swap1\n      dup2\n      mstore\n      0x20\n      add\n      0x00\n      keccak256\n      sload\n        /* \"contracts/REC20Stacking.sol\":19791:19816  _balances[msg.sender].add */\n      tag_41\n      swap1\n        /* \"contracts/REC20Stacking.sol\":19791:19824  _balances[msg.sender].add(amount) */\n      swap2\n      swap1\n      0xffffffff\n      and\n      jump\t// in\n    tag_42:\n        /* \"contracts/REC20Stacking.sol\":19767:19776  _balances */\n      0x02\n        /* \"contracts/REC20Stacking.sol\":19767:19788  _balances[msg.sender] */\n      0x00\n        /* \"contracts/REC20Stacking.sol\":19777:19787  msg.sender */\n      caller\n        /* \"contracts/REC20Stacking.sol\":19767:19788  _balances[msg.sender] */\n      0xffffffffffffffffffffffffffffffffffffffff\n      and\n      0xffffffffffffffffffffffffffffffffffffffff\n      and\n      dup2\n      mstore\n      0x20\n      add\n      swap1\n      dup2\n      mstore\n      0x20\n      add\n      0x00\n      keccak256\n        /* \"contracts/REC20Stacking.sol\":19767:19824  _balances[msg.sender] = _balances[msg.sender].add(amount) */\n      dup2\n      swap1\n      sstore\n      pop\n        /* \"contracts/REC20Stacking.sol\":19877:19932  lpt.safeTransferFrom(msg.sender, address(this), amount) */\n      tag_43\n        /* \"contracts/REC20Stacking.sol\":19898:19908  msg.sender */\n      caller\n        /* \"contracts/REC20Stacking.sol\":19918:19922  this */\n      address\n        /* \"contracts/REC20Stacking.sol\":19925:19931  amount */\n      dup4\n        /* \"contracts/REC20Stacking.sol\":19877:19880  lpt */\n      0x00\n      dup1\n      sload\n      swap1\n      0x0100\n      exp\n      swap1\n      div\n      0xffffffffffffffffffffffffffffffffffffffff\n      and\n        /* \"contracts/REC20Stacking.sol\":19877:19897  lpt.safeTransferFrom */\n      0xffffffffffffffffffffffffffffffffffffffff\n      and\n      tag_44\n      swap1\n        /* \"contracts/REC20Stacking.sol\":19877:19932  lpt.safeTransferFrom(msg.sender, address(this), amount) */\n      swap4\n      swap3\n      swap2\n      swap1\n      0xffffffff\n      and\n      jump\t// in\n    tag_43:\n        /* \"contracts/REC20Stacking.sol\":19608:19939  function stake(uint256 amount) public virtual {... */\n      pop\n      jump\t// out\n        /* \"contracts/REC20Stacking.sol\":18980:18997  IERC20 public lpt */\n    tag_25:\n      0x00\n      dup1\n      sload\n      swap1\n      0x0100\n      exp\n      swap1\n      div\n      0xffffffffffffffffffffffffffffffffffffffff\n      and\n      dup2\n      jump\t// out\n        /* \"contracts/REC20Stacking.sol\":3395:3529  function sub(uint256 a, uint256 b) internal pure returns (uint256) {... */\n    tag_34:\n        /* \"contracts/REC20Stacking.sol\":3453:3460  uint256 */\n      0x00\n        /* \"contracts/REC20Stacking.sol\":3479:3522  sub(a, b, \"SafeMath: subtraction overflow\") */\n      tag_46\n        /* \"contracts/REC20Stacking.sol\":3483:3484  a */\n      dup4\n        /* \"contracts/REC20Stacking.sol\":3486:3487  b */\n      dup4\n        /* \"contracts/REC20Stacking.sol\":3479:3522  sub(a, b, \"SafeMath: subtraction overflow\") */\n      mload(0x40)\n      dup1\n      0x40\n      add\n      0x40\n      mstore\n      dup1\n      0x1e\n      dup2\n      mstore\n      0x20\n      add\n      0x536166654d6174683a207375627472616374696f6e206f766572666c6f770000\n      dup2\n      mstore\n      pop\n        /* \"contracts/REC20Stacking.sol\":3479:3482  sub */\n      tag_47\n        /* \"contracts/REC20Stacking.sol\":3479:3522  sub(a, b, \"SafeMath: subtraction overflow\") */\n      jump\t// in\n    tag_46:\n        /* \"contracts/REC20Stacking.sol\":3472:3522  return sub(a, b, \"SafeMath: subtraction overflow\") */\n      swap1\n      pop\n        /* \"contracts/REC20Stacking.sol\":3395:3529  function sub(uint256 a, uint256 b) internal pure returns (uint256) {... */\n      swap3\n      swap2\n      pop\n      pop\n      jump\t// out\n        /* \"contracts/REC20Stacking.sol\":15791:15966  function safeTransfer(IERC20 token, address to, uint256 value) internal {... */\n    tag_37:\n        /* \"contracts/REC20Stacking.sol\":15873:15959  _callOptionalReturn(token, abi.encodeWithSelector(token.transfer.selector, to, value)) */\n      tag_49\n        /* \"contracts/REC20Stacking.sol\":15893:15898  token */\n      dup4\n        /* \"contracts/REC20Stacking.sol\":15923:15946  token.transfer.selector */\n      shl(0xe0, 0xa9059cbb)\n        /* \"contracts/REC20Stacking.sol\":15948:15950  to */\n      dup5\n        /* \"contracts/REC20Stacking.sol\":15952:15957  value */\n      dup5\n        /* \"contracts/REC20Stacking.sol\":15900:15958  abi.encodeWithSelector(token.transfer.selector, to, value) */\n      add(0x24, mload(0x40))\n      tag_50\n      swap3\n      swap2\n      swap1\n      tag_51\n      jump\t// in\n    tag_50:\n      mload(0x40)\n      0x20\n      dup2\n      dup4\n      sub\n      sub\n      dup2\n      mstore\n      swap1\n      0x40\n      mstore\n      swap1\n      not(0xffffffffffffffffffffffffffffffffffffffffffffffffffffffff)\n      and\n      0x20\n      dup3\n      add\n      dup1\n      mload\n      0xffffffffffffffffffffffffffffffffffffffffffffffffffffffff\n      dup4\n      dup2\n      dup4\n      and\n      or\n      dup4\n      mstore\n      pop\n      pop\n      pop\n      pop\n        /* \"contracts/REC20Stacking.sol\":15873:15892  _callOptionalReturn */\n      tag_52\n        /* \"contracts/REC20Stacking.sol\":15873:15959  _callOptionalReturn(token, abi.encodeWithSelector(token.transfer.selector, to, value)) */\n      jump\t// in\n    tag_49:\n        /* \"contracts/REC20Stacking.sol\":15791:15966  function safeTransfer(IERC20 token, address to, uint256 value) internal {... */\n      pop\n      pop\n      pop\n      jump\t// out\n        /* \"contracts/REC20Stacking.sol\":2948:3124  function add(uint256 a, uint256 b) internal pure returns (uint256) {... */\n    tag_41:\n        /* \"contracts/REC20Stacking.sol\":3006:3013  uint256 */\n      0x00\n        /* \"contracts/REC20Stacking.sol\":3025:3034  uint256 c */\n      dup1\n        /* \"contracts/REC20Stacking.sol\":3041:3042  b */\n      dup3\n        /* \"contracts/REC20Stacking.sol\":3037:3038  a */\n      dup5\n        /* \"contracts/REC20Stacking.sol\":3037:3042  a + b */\n      tag_54\n      swap2\n      swap1\n      tag_55\n      jump\t// in\n    tag_54:\n        /* \"contracts/REC20Stacking.sol\":3025:3042  uint256 c = a + b */\n      swap1\n      pop\n        /* \"contracts/REC20Stacking.sol\":3065:3066  a */\n      dup4\n        /* \"contracts/REC20Stacking.sol\":3060:3061  c */\n      dup2\n        /* \"contracts/REC20Stacking.sol\":3060:3066  c >= a */\n      lt\n      iszero\n        /* \"contracts/REC20Stacking.sol\":3052:3098  require(c >= a, \"SafeMath: addition overflow\") */\n      tag_56\n      jumpi\n      mload(0x40)\n      0x08c379a000000000000000000000000000000000000000000000000000000000\n      dup2\n      mstore\n      0x04\n      add\n      tag_57\n      swap1\n      tag_58\n      jump\t// in\n    tag_57:\n      mload(0x40)\n      dup1\n      swap2\n      sub\n      swap1\n      revert\n    tag_56:\n        /* \"contracts/REC20Stacking.sol\":3116:3117  c */\n      dup1\n        /* \"contracts/REC20Stacking.sol\":3109:3117  return c */\n      swap2\n      pop\n      pop\n        /* \"contracts/REC20Stacking.sol\":2948:3124  function add(uint256 a, uint256 b) internal pure returns (uint256) {... */\n      swap3\n      swap2\n      pop\n      pop\n      jump\t// out\n        /* \"contracts/REC20Stacking.sol\":15972:16175  function safeTransferFrom(IERC20 token, address from, address to, uint256 value) internal {... */\n    tag_44:\n        /* \"contracts/REC20Stacking.sol\":16072:16168  _callOptionalReturn(token, abi.encodeWithSelector(token.transferFrom.selector, from, to, value)) */\n      tag_60\n        /* \"contracts/REC20Stacking.sol\":16092:16097  token */\n      dup5\n        /* \"contracts/REC20Stacking.sol\":16122:16149  token.transferFrom.selector */\n      shl(0xe0, 0x23b872dd)\n        /* \"contracts/REC20Stacking.sol\":16151:16155  from */\n      dup6\n        /* \"contracts/REC20Stacking.sol\":16157:16159  to */\n      dup6\n        /* \"contracts/REC20Stacking.sol\":16161:16166  value */\n      dup6\n        /* \"contracts/REC20Stacking.sol\":16099:16167  abi.encodeWithSelector(token.transferFrom.selector, from, to, value) */\n      add(0x24, mload(0x40))\n      tag_61\n      swap4\n      swap3\n      swap2\n      swap1\n      tag_62\n      jump\t// in\n    tag_61:\n      mload(0x40)\n      0x20\n      dup2\n      dup4\n      sub\n      sub\n      dup2\n      mstore\n      swap1\n      0x40\n      mstore\n      swap1\n      not(0xffffffffffffffffffffffffffffffffffffffffffffffffffffffff)\n      and\n      0x20\n      dup3\n      add\n      dup1\n      mload\n      0xffffffffffffffffffffffffffffffffffffffffffffffffffffffff\n      dup4\n      dup2\n      dup4\n      and\n      or\n      dup4\n      mstore\n      pop\n      pop\n      pop\n      pop\n        /* \"contracts/REC20Stacking.sol\":16072:16091  _callOptionalReturn */\n      tag_52\n        /* \"contracts/REC20Stacking.sol\":16072:16168  _callOptionalReturn(token, abi.encodeWithSelector(token.transferFrom.selector, from, to, value)) */\n      jump\t// in\n    tag_60:\n        /* \"contracts/REC20Stacking.sol\":15972:16175  function safeTransferFrom(IERC20 token, address from, address to, uint256 value) internal {... */\n      pop\n      pop\n      pop\n      pop\n      jump\t// out\n        /* \"contracts/REC20Stacking.sol\":3820:4007  function sub(uint256 a, uint256 b, string memory errorMessage) internal pure returns (uint256) {... */\n    tag_47:\n        /* \"contracts/REC20Stacking.sol\":3906:3913  uint256 */\n      0x00\n        /* \"contracts/REC20Stacking.sol\":3938:3939  a */\n      dup4\n        /* \"contracts/REC20Stacking.sol\":3933:3934  b */\n      dup4\n        /* \"contracts/REC20Stacking.sol\":3933:3939  b <= a */\n      gt\n      iszero\n        /* \"contracts/REC20Stacking.sol\":3941:3953  errorMessage */\n      dup3\n        /* \"contracts/REC20Stacking.sol\":3925:3954  require(b <= a, errorMessage) */\n      swap1\n      tag_64\n      jumpi\n      mload(0x40)\n      0x08c379a000000000000000000000000000000000000000000000000000000000\n      dup2\n      mstore\n      0x04\n      add\n      tag_65\n      swap2\n      swap1\n      tag_66\n      jump\t// in\n    tag_65:\n      mload(0x40)\n      dup1\n      swap2\n      sub\n      swap1\n      revert\n    tag_64:\n      pop\n        /* \"contracts/REC20Stacking.sol\":3964:3973  uint256 c */\n      0x00\n        /* \"contracts/REC20Stacking.sol\":3980:3981  b */\n      dup4\n        /* \"contracts/REC20Stacking.sol\":3976:3977  a */\n      dup6\n        /* \"contracts/REC20Stacking.sol\":3976:3981  a - b */\n      tag_67\n      swap2\n      swap1\n      tag_68\n      jump\t// in\n    tag_67:\n        /* \"contracts/REC20Stacking.sol\":3964:3981  uint256 c = a - b */\n      swap1\n      pop\n        /* \"contracts/REC20Stacking.sol\":3999:4000  c */\n      dup1\n        /* \"contracts/REC20Stacking.sol\":3992:4000  return c */\n      swap2\n      pop\n      pop\n        /* \"contracts/REC20Stacking.sol\":3820:4007  function sub(uint256 a, uint256 b, string memory errorMessage) internal pure returns (uint256) {... */\n      swap4\n      swap3\n      pop\n      pop\n      pop\n      jump\t// out\n        /* \"contracts/REC20Stacking.sol\":18054:18805  function _callOptionalReturn(IERC20 token, bytes memory data) private {... */\n    tag_52:\n        /* \"contracts/REC20Stacking.sol\":18473:18496  bytes memory returndata */\n      0x00\n        /* \"contracts/REC20Stacking.sol\":18499:18568  address(token).functionCall(data, \"SafeERC20: low-level call failed\") */\n      tag_70\n        /* \"contracts/REC20Stacking.sol\":18527:18531  data */\n      dup3\n        /* \"contracts/REC20Stacking.sol\":18499:18568  address(token).functionCall(data, \"SafeERC20: low-level call failed\") */\n      mload(0x40)\n      dup1\n      0x40\n      add\n      0x40\n      mstore\n      dup1\n      0x20\n      dup2\n      mstore\n      0x20\n      add\n      0x5361666545524332303a206c6f772d6c6576656c2063616c6c206661696c6564\n      dup2\n      mstore\n      pop\n        /* \"contracts/REC20Stacking.sol\":18507:18512  token */\n      dup6\n        /* \"contracts/REC20Stacking.sol\":18499:18526  address(token).functionCall */\n      0xffffffffffffffffffffffffffffffffffffffff\n      and\n      tag_71\n      swap1\n        /* \"contracts/REC20Stacking.sol\":18499:18568  address(token).functionCall(data, \"SafeERC20: low-level call failed\") */\n      swap3\n      swap2\n      swap1\n      0xffffffff\n      and\n      jump\t// in\n    tag_70:\n        /* \"contracts/REC20Stacking.sol\":18473:18568  bytes memory returndata = address(token).functionCall(data, \"SafeERC20: low-level call failed\") */\n      swap1\n      pop\n        /* \"contracts/REC20Stacking.sol\":18602:18603  0 */\n      0x00\n        /* \"contracts/REC20Stacking.sol\":18582:18592  returndata */\n      dup2\n        /* \"contracts/REC20Stacking.sol\":18582:18599  returndata.length */\n      mload\n        /* \"contracts/REC20Stacking.sol\":18582:18603  returndata.length > 0 */\n      gt\n        /* \"contracts/REC20Stacking.sol\":18578:18799  if (returndata.length > 0) { // Return data is optional... */\n      iszero\n      tag_72\n      jumpi\n        /* \"contracts/REC20Stacking.sol\":18722:18732  returndata */\n      dup1\n        /* \"contracts/REC20Stacking.sol\":18711:18741  abi.decode(returndata, (bool)) */\n      dup1\n      0x20\n      add\n      swap1\n      mload\n      dup2\n      add\n      swap1\n      tag_73\n      swap2\n      swap1\n      tag_74\n      jump\t// in\n    tag_73:\n        /* \"contracts/REC20Stacking.sol\":18703:18788  require(abi.decode(returndata, (bool)), \"SafeERC20: ERC20 operation did not succeed\") */\n      tag_75\n      jumpi\n      mload(0x40)\n      0x08c379a000000000000000000000000000000000000000000000000000000000\n      dup2\n      mstore\n      0x04\n      add\n      tag_76\n      swap1\n      tag_77\n      jump\t// in\n    tag_76:\n      mload(0x40)\n      dup1\n      swap2\n      sub\n      swap1\n      revert\n    tag_75:\n        /* \"contracts/REC20Stacking.sol\":18578:18799  if (returndata.length > 0) { // Return data is optional... */\n    tag_72:\n        /* \"contracts/REC20Stacking.sol\":18124:18805  {... */\n      pop\n        /* \"contracts/REC20Stacking.sol\":18054:18805  function _callOptionalReturn(IERC20 token, bytes memory data) private {... */\n      pop\n      pop\n      jump\t// out\n        /* \"contracts/REC20Stacking.sol\":11391:11585  function functionCall(address target, bytes memory data, string memory errorMessage) internal returns (bytes memory) {... */\n    tag_71:\n        /* \"contracts/REC20Stacking.sol\":11494:11506  bytes memory */\n      0x60\n        /* \"contracts/REC20Stacking.sol\":11525:11578  _functionCallWithValue(target, data, 0, errorMessage) */\n      tag_79\n        /* \"contracts/REC20Stacking.sol\":11548:11554  target */\n      dup5\n        /* \"contracts/REC20Stacking.sol\":11556:11560  data */\n      dup5\n        /* \"contracts/REC20Stacking.sol\":11562:11563  0 */\n      0x00\n        /* \"contracts/REC20Stacking.sol\":11565:11577  errorMessage */\n      dup6\n        /* \"contracts/REC20Stacking.sol\":11525:11547  _functionCallWithValue */\n      tag_80\n        /* \"contracts/REC20Stacking.sol\":11525:11578  _functionCallWithValue(target, data, 0, errorMessage) */\n      jump\t// in\n    tag_79:\n        /* \"contracts/REC20Stacking.sol\":11518:11578  return _functionCallWithValue(target, data, 0, errorMessage) */\n      swap1\n      pop\n        /* \"contracts/REC20Stacking.sol\":11391:11585  function functionCall(address target, bytes memory data, string memory errorMessage) internal returns (bytes memory) {... */\n      swap4\n      swap3\n      pop\n      pop\n      pop\n      jump\t// out\n        /* \"contracts/REC20Stacking.sol\":12738:13696  function _functionCallWithValue(address target, bytes memory data, uint256 weiValue, string memory errorMessage) private returns (bytes memory) {... */\n    tag_80:\n        /* \"contracts/REC20Stacking.sol\":12868:12880  bytes memory */\n      0x60\n        /* \"contracts/REC20Stacking.sol\":12900:12918  isContract(target) */\n      tag_82\n        /* \"contracts/REC20Stacking.sol\":12911:12917  target */\n      dup6\n        /* \"contracts/REC20Stacking.sol\":12900:12910  isContract */\n      tag_83\n        /* \"contracts/REC20Stacking.sol\":12900:12918  isContract(target) */\n      jump\t// in\n    tag_82:\n        /* \"contracts/REC20Stacking.sol\":12892:12952  require(isContract(target), \"Address: call to non-contract\") */\n      tag_84\n      jumpi\n      mload(0x40)\n      0x08c379a000000000000000000000000000000000000000000000000000000000\n      dup2\n      mstore\n      0x04\n      add\n      tag_85\n      swap1\n      tag_86\n      jump\t// in\n    tag_85:\n      mload(0x40)\n      dup1\n      swap2\n      sub\n      swap1\n      revert\n    tag_84:\n        /* \"contracts/REC20Stacking.sol\":13023:13035  bool success */\n      0x00\n        /* \"contracts/REC20Stacking.sol\":13037:13060  bytes memory returndata */\n      dup1\n        /* \"contracts/REC20Stacking.sol\":13064:13070  target */\n      dup7\n        /* \"contracts/REC20Stacking.sol\":13064:13075  target.call */\n      0xffffffffffffffffffffffffffffffffffffffff\n      and\n        /* \"contracts/REC20Stacking.sol\":13084:13092  weiValue */\n      dup6\n        /* \"contracts/REC20Stacking.sol\":13095:13099  data */\n      dup8\n        /* \"contracts/REC20Stacking.sol\":13064:13100  target.call{ value: weiValue }(data) */\n      mload(0x40)\n      tag_87\n      swap2\n      swap1\n      tag_88\n      jump\t// in\n    tag_87:\n      0x00\n      mload(0x40)\n      dup1\n      dup4\n      sub\n      dup2\n      dup6\n      dup8\n      gas\n      call\n      swap3\n      pop\n      pop\n      pop\n      returndatasize\n      dup1\n      0x00\n      dup2\n      eq\n      tag_91\n      jumpi\n      mload(0x40)\n      swap2\n      pop\n      and(add(returndatasize, 0x3f), not(0x1f))\n      dup3\n      add\n      0x40\n      mstore\n      returndatasize\n      dup3\n      mstore\n      returndatasize\n      0x00\n      0x20\n      dup5\n      add\n      returndatacopy\n      jump(tag_90)\n    tag_91:\n      0x60\n      swap2\n      pop\n    tag_90:\n      pop\n        /* \"contracts/REC20Stacking.sol\":13022:13100  (bool success, bytes memory returndata) = target.call{ value: weiValue }(data) */\n      swap2\n      pop\n      swap2\n      pop\n        /* \"contracts/REC20Stacking.sol\":13114:13121  success */\n      dup2\n        /* \"contracts/REC20Stacking.sol\":13110:13690  if (success) {... */\n      iszero\n      tag_92\n      jumpi\n        /* \"contracts/REC20Stacking.sol\":13144:13154  returndata */\n      dup1\n        /* \"contracts/REC20Stacking.sol\":13137:13154  return returndata */\n      swap3\n      pop\n      pop\n      pop\n      jump(tag_81)\n        /* \"contracts/REC20Stacking.sol\":13110:13690  if (success) {... */\n    tag_92:\n        /* \"contracts/REC20Stacking.sol\":13275:13276  0 */\n      0x00\n        /* \"contracts/REC20Stacking.sol\":13255:13265  returndata */\n      dup2\n        /* \"contracts/REC20Stacking.sol\":13255:13272  returndata.length */\n      mload\n        /* \"contracts/REC20Stacking.sol\":13255:13276  returndata.length > 0 */\n      gt\n        /* \"contracts/REC20Stacking.sol\":13251:13680  if (returndata.length > 0) {... */\n      iszero\n      tag_94\n      jumpi\n        /* \"contracts/REC20Stacking.sol\":13513:13523  returndata */\n      dup1\n        /* \"contracts/REC20Stacking.sol\":13507:13524  mload(returndata) */\n      mload\n        /* \"contracts/REC20Stacking.sol\":13573:13588  returndata_size */\n      dup1\n        /* \"contracts/REC20Stacking.sol\":13560:13570  returndata */\n      dup3\n        /* \"contracts/REC20Stacking.sol\":13556:13558  32 */\n      0x20\n        /* \"contracts/REC20Stacking.sol\":13552:13571  add(32, returndata) */\n      add\n        /* \"contracts/REC20Stacking.sol\":13545:13589  revert(add(32, returndata), returndata_size) */\n      revert\n        /* \"contracts/REC20Stacking.sol\":13251:13680  if (returndata.length > 0) {... */\n    tag_94:\n        /* \"contracts/REC20Stacking.sol\":13652:13664  errorMessage */\n      dup4\n        /* \"contracts/REC20Stacking.sol\":13645:13665  revert(errorMessage) */\n      mload(0x40)\n      0x08c379a000000000000000000000000000000000000000000000000000000000\n      dup2\n      mstore\n      0x04\n      add\n      tag_96\n      swap2\n      swap1\n      tag_66\n      jump\t// in\n    tag_96:\n      mload(0x40)\n      dup1\n      swap2\n      sub\n      swap1\n      revert\n        /* \"contracts/REC20Stacking.sol\":12738:13696  function _functionCallWithValue(address target, bytes memory data, uint256 weiValue, string memory errorMessage) private returns (bytes memory) {... */\n    tag_81:\n      swap5\n      swap4\n      pop\n      pop\n      pop\n      pop\n      jump\t// out\n        /* \"contracts/REC20Stacking.sol\":8536:8949  function isContract(address account) internal view returns (bool) {... */\n    tag_83:\n        /* \"contracts/REC20Stacking.sol\":8596:8600  bool */\n      0x00\n        /* \"contracts/REC20Stacking.sol\":8799:8811  uint256 size */\n      dup1\n        /* \"contracts/REC20Stacking.sol\":8908:8915  account */\n      dup3\n        /* \"contracts/REC20Stacking.sol\":8896:8916  extcodesize(account) */\n      extcodesize\n        /* \"contracts/REC20Stacking.sol\":8888:8916  size := extcodesize(account) */\n      swap1\n      pop\n        /* \"contracts/REC20Stacking.sol\":8941:8942  0 */\n      0x00\n        /* \"contracts/REC20Stacking.sol\":8934:8938  size */\n      dup2\n        /* \"contracts/REC20Stacking.sol\":8934:8942  size > 0 */\n      gt\n        /* \"contracts/REC20Stacking.sol\":8927:8942  return size > 0 */\n      swap2\n      pop\n      pop\n        /* \"contracts/REC20Stacking.sol\":8536:8949  function isContract(address account) internal view returns (bool) {... */\n      swap2\n      swap1\n      pop\n      jump\t// out\n        /* \"#utility.yul\":7:84   */\n    tag_98:\n        /* \"#utility.yul\":44:51   */\n      0x00\n        /* \"#utility.yul\":73:78   */\n      dup2\n        /* \"#utility.yul\":62:78   */\n      swap1\n      pop\n        /* \"#utility.yul\":7:84   */\n      swap2\n      swap1\n      pop\n      jump\t// out\n        /* \"#utility.yul\":90:208   */\n    tag_99:\n        /* \"#utility.yul\":177:201   */\n      tag_138\n        /* \"#utility.yul\":195:200   */\n      dup2\n        /* \"#utility.yul\":177:201   */\n      tag_98\n      jump\t// in\n    tag_138:\n        /* \"#utility.yul\":172:175   */\n      dup3\n        /* \"#utility.yul\":165:202   */\n      mstore\n        /* \"#utility.yul\":90:208   */\n      pop\n      pop\n      jump\t// out\n        /* \"#utility.yul\":214:436   */\n    tag_11:\n        /* \"#utility.yul\":307:311   */\n      0x00\n        /* \"#utility.yul\":345:347   */\n      0x20\n        /* \"#utility.yul\":334:343   */\n      dup3\n        /* \"#utility.yul\":330:348   */\n      add\n        /* \"#utility.yul\":322:348   */\n      swap1\n      pop\n        /* \"#utility.yul\":358:429   */\n      tag_140\n        /* \"#utility.yul\":426:427   */\n      0x00\n        /* \"#utility.yul\":415:424   */\n      dup4\n        /* \"#utility.yul\":411:428   */\n      add\n        /* \"#utility.yul\":402:408   */\n      dup5\n        /* \"#utility.yul\":358:429   */\n      tag_99\n      jump\t// in\n    tag_140:\n        /* \"#utility.yul\":214:436   */\n      swap3\n      swap2\n      pop\n      pop\n      jump\t// out\n        /* \"#utility.yul\":523:640   */\n    tag_101:\n        /* \"#utility.yul\":632:633   */\n      0x00\n        /* \"#utility.yul\":629:630   */\n      dup1\n        /* \"#utility.yul\":622:634   */\n      revert\n        /* \"#utility.yul\":769:891   */\n    tag_103:\n        /* \"#utility.yul\":842:866   */\n      tag_145\n        /* \"#utility.yul\":860:865   */\n      dup2\n        /* \"#utility.yul\":842:866   */\n      tag_98\n      jump\t// in\n    tag_145:\n        /* \"#utility.yul\":835:840   */\n      dup2\n        /* \"#utility.yul\":832:867   */\n      eq\n        /* \"#utility.yul\":822:885   */\n      tag_146\n      jumpi\n        /* \"#utility.yul\":881:882   */\n      0x00\n        /* \"#utility.yul\":878:879   */\n      dup1\n        /* \"#utility.yul\":871:883   */\n      revert\n        /* \"#utility.yul\":822:885   */\n    tag_146:\n        /* \"#utility.yul\":769:891   */\n      pop\n      jump\t// out\n        /* \"#utility.yul\":897:1036   */\n    tag_104:\n        /* \"#utility.yul\":943:948   */\n      0x00\n        /* \"#utility.yul\":981:987   */\n      dup2\n        /* \"#utility.yul\":968:988   */\n      calldataload\n        /* \"#utility.yul\":959:988   */\n      swap1\n      pop\n        /* \"#utility.yul\":997:1030   */\n      tag_148\n        /* \"#utility.yul\":1024:1029   */\n      dup2\n        /* \"#utility.yul\":997:1030   */\n      tag_103\n      jump\t// in\n    tag_148:\n        /* \"#utility.yul\":897:1036   */\n      swap3\n      swap2\n      pop\n      pop\n      jump\t// out\n        /* \"#utility.yul\":1042:1371   */\n    tag_14:\n        /* \"#utility.yul\":1101:1107   */\n      0x00\n        /* \"#utility.yul\":1150:1152   */\n      0x20\n        /* \"#utility.yul\":1138:1147   */\n      dup3\n        /* \"#utility.yul\":1129:1136   */\n      dup5\n        /* \"#utility.yul\":1125:1148   */\n      sub\n        /* \"#utility.yul\":1121:1153   */\n      slt\n        /* \"#utility.yul\":1118:1237   */\n      iszero\n      tag_150\n      jumpi\n        /* \"#utility.yul\":1156:1235   */\n      tag_151\n      tag_101\n      jump\t// in\n    tag_151:\n        /* \"#utility.yul\":1118:1237   */\n    tag_150:\n        /* \"#utility.yul\":1276:1277   */\n      0x00\n        /* \"#utility.yul\":1301:1354   */\n      tag_152\n        /* \"#utility.yul\":1346:1353   */\n      dup5\n        /* \"#utility.yul\":1337:1343   */\n      dup3\n        /* \"#utility.yul\":1326:1335   */\n      dup6\n        /* \"#utility.yul\":1322:1344   */\n      add\n        /* \"#utility.yul\":1301:1354   */\n      tag_104\n      jump\t// in\n    tag_152:\n        /* \"#utility.yul\":1291:1354   */\n      swap2\n      pop\n        /* \"#utility.yul\":1247:1364   */\n      pop\n        /* \"#utility.yul\":1042:1371   */\n      swap3\n      swap2\n      pop\n      pop\n      jump\t// out\n        /* \"#utility.yul\":1377:1503   */\n    tag_105:\n        /* \"#utility.yul\":1414:1421   */\n      0x00\n        /* \"#utility.yul\":1454:1496   */\n      0xffffffffffffffffffffffffffffffffffffffff\n        /* \"#utility.yul\":1447:1452   */\n      dup3\n        /* \"#utility.yul\":1443:1497   */\n      and\n        /* \"#utility.yul\":1432:1497   */\n      swap1\n      pop\n        /* \"#utility.yul\":1377:1503   */\n      swap2\n      swap1\n      pop\n      jump\t// out\n        /* \"#utility.yul\":1509:1605   */\n    tag_106:\n        /* \"#utility.yul\":1546:1553   */\n      0x00\n        /* \"#utility.yul\":1575:1599   */\n      tag_155\n        /* \"#utility.yul\":1593:1598   */\n      dup3\n        /* \"#utility.yul\":1575:1599   */\n      tag_105\n      jump\t// in\n    tag_155:\n        /* \"#utility.yul\":1564:1599   */\n      swap1\n      pop\n        /* \"#utility.yul\":1509:1605   */\n      swap2\n      swap1\n      pop\n      jump\t// out\n        /* \"#utility.yul\":1611:1733   */\n    tag_107:\n        /* \"#utility.yul\":1684:1708   */\n      tag_157\n        /* \"#utility.yul\":1702:1707   */\n      dup2\n        /* \"#utility.yul\":1684:1708   */\n      tag_106\n      jump\t// in\n    tag_157:\n        /* \"#utility.yul\":1677:1682   */\n      dup2\n        /* \"#utility.yul\":1674:1709   */\n      eq\n        /* \"#utility.yul\":1664:1727   */\n      tag_158\n      jumpi\n        /* \"#utility.yul\":1723:1724   */\n      0x00\n        /* \"#utility.yul\":1720:1721   */\n      dup1\n        /* \"#utility.yul\":1713:1725   */\n      revert\n        /* \"#utility.yul\":1664:1727   */\n    tag_158:\n        /* \"#utility.yul\":1611:1733   */\n      pop\n      jump\t// out\n        /* \"#utility.yul\":1739:1878   */\n    tag_108:\n        /* \"#utility.yul\":1785:1790   */\n      0x00\n        /* \"#utility.yul\":1823:1829   */\n      dup2\n        /* \"#utility.yul\":1810:1830   */\n      calldataload\n        /* \"#utility.yul\":1801:1830   */\n      swap1\n      pop\n        /* \"#utility.yul\":1839:1872   */\n      tag_160\n        /* \"#utility.yul\":1866:1871   */\n      dup2\n        /* \"#utility.yul\":1839:1872   */\n      tag_107\n      jump\t// in\n    tag_160:\n        /* \"#utility.yul\":1739:1878   */\n      swap3\n      swap2\n      pop\n      pop\n      jump\t// out\n        /* \"#utility.yul\":1884:2213   */\n    tag_18:\n        /* \"#utility.yul\":1943:1949   */\n      0x00\n        /* \"#utility.yul\":1992:1994   */\n      0x20\n        /* \"#utility.yul\":1980:1989   */\n      dup3\n        /* \"#utility.yul\":1971:1978   */\n      dup5\n        /* \"#utility.yul\":1967:1990   */\n      sub\n        /* \"#utility.yul\":1963:1995   */\n      slt\n        /* \"#utility.yul\":1960:2079   */\n      iszero\n      tag_162\n      jumpi\n        /* \"#utility.yul\":1998:2077   */\n      tag_163\n      tag_101\n      jump\t// in\n    tag_163:\n        /* \"#utility.yul\":1960:2079   */\n    tag_162:\n        /* \"#utility.yul\":2118:2119   */\n      0x00\n        /* \"#utility.yul\":2143:2196   */\n      tag_164\n        /* \"#utility.yul\":2188:2195   */\n      dup5\n        /* \"#utility.yul\":2179:2185   */\n      dup3\n        /* \"#utility.yul\":2168:2177   */\n      dup6\n        /* \"#utility.yul\":2164:2186   */\n      add\n        /* \"#utility.yul\":2143:2196   */\n      tag_108\n      jump\t// in\n    tag_164:\n        /* \"#utility.yul\":2133:2196   */\n      swap2\n      pop\n        /* \"#utility.yul\":2089:2206   */\n      pop\n        /* \"#utility.yul\":1884:2213   */\n      swap3\n      swap2\n      pop\n      pop\n      jump\t// out\n        /* \"#utility.yul\":2219:2279   */\n    tag_109:\n        /* \"#utility.yul\":2247:2250   */\n      0x00\n        /* \"#utility.yul\":2268:2273   */\n      dup2\n        /* \"#utility.yul\":2261:2273   */\n      swap1\n      pop\n        /* \"#utility.yul\":2219:2279   */\n      swap2\n      swap1\n      pop\n      jump\t// out\n        /* \"#utility.yul\":2285:2427   */\n    tag_110:\n        /* \"#utility.yul\":2335:2344   */\n      0x00\n        /* \"#utility.yul\":2368:2421   */\n      tag_167\n        /* \"#utility.yul\":2386:2420   */\n      tag_168\n        /* \"#utility.yul\":2395:2419   */\n      tag_169\n        /* \"#utility.yul\":2413:2418   */\n      dup5\n        /* \"#utility.yul\":2395:2419   */\n      tag_105\n      jump\t// in\n    tag_169:\n        /* \"#utility.yul\":2386:2420   */\n      tag_109\n      jump\t// in\n    tag_168:\n        /* \"#utility.yul\":2368:2421   */\n      tag_105\n      jump\t// in\n    tag_167:\n        /* \"#utility.yul\":2355:2421   */\n      swap1\n      pop\n        /* \"#utility.yul\":2285:2427   */\n      swap2\n      swap1\n      pop\n      jump\t// out\n        /* \"#utility.yul\":2433:2559   */\n    tag_111:\n        /* \"#utility.yul\":2483:2492   */\n      0x00\n        /* \"#utility.yul\":2516:2553   */\n      tag_171\n        /* \"#utility.yul\":2547:2552   */\n      dup3\n        /* \"#utility.yul\":2516:2553   */\n      tag_110\n      jump\t// in\n    tag_171:\n        /* \"#utility.yul\":2503:2553   */\n      swap1\n      pop\n        /* \"#utility.yul\":2433:2559   */\n      swap2\n      swap1\n      pop\n      jump\t// out\n        /* \"#utility.yul\":2565:2704   */\n    tag_112:\n        /* \"#utility.yul\":2628:2637   */\n      0x00\n        /* \"#utility.yul\":2661:2698   */\n      tag_173\n        /* \"#utility.yul\":2692:2697   */\n      dup3\n        /* \"#utility.yul\":2661:2698   */\n      tag_111\n      jump\t// in\n    tag_173:\n        /* \"#utility.yul\":2648:2698   */\n      swap1\n      pop\n        /* \"#utility.yul\":2565:2704   */\n      swap2\n      swap1\n      pop\n      jump\t// out\n        /* \"#utility.yul\":2710:2867   */\n    tag_113:\n        /* \"#utility.yul\":2810:2860   */\n      tag_175\n        /* \"#utility.yul\":2854:2859   */\n      dup2\n        /* \"#utility.yul\":2810:2860   */\n      tag_112\n      jump\t// in\n    tag_175:\n        /* \"#utility.yul\":2805:2808   */\n      dup3\n        /* \"#utility.yul\":2798:2861   */\n      mstore\n        /* \"#utility.yul\":2710:2867   */\n      pop\n      pop\n      jump\t// out\n        /* \"#utility.yul\":2873:3121   */\n    tag_27:\n        /* \"#utility.yul\":2979:2983   */\n      0x00\n        /* \"#utility.yul\":3017:3019   */\n      0x20\n        /* \"#utility.yul\":3006:3015   */\n      dup3\n        /* \"#utility.yul\":3002:3020   */\n      add\n        /* \"#utility.yul\":2994:3020   */\n      swap1\n      pop\n        /* \"#utility.yul\":3030:3114   */\n      tag_177\n        /* \"#utility.yul\":3111:3112   */\n      0x00\n        /* \"#utility.yul\":3100:3109   */\n      dup4\n        /* \"#utility.yul\":3096:3113   */\n      add\n        /* \"#utility.yul\":3087:3093   */\n      dup5\n        /* \"#utility.yul\":3030:3114   */\n      tag_113\n      jump\t// in\n    tag_177:\n        /* \"#utility.yul\":2873:3121   */\n      swap3\n      swap2\n      pop\n      pop\n      jump\t// out\n        /* \"#utility.yul\":3127:3296   */\n    tag_114:\n        /* \"#utility.yul\":3211:3222   */\n      0x00\n        /* \"#utility.yul\":3245:3251   */\n      dup3\n        /* \"#utility.yul\":3240:3243   */\n      dup3\n        /* \"#utility.yul\":3233:3252   */\n      mstore\n        /* \"#utility.yul\":3285:3289   */\n      0x20\n        /* \"#utility.yul\":3280:3283   */\n      dup3\n        /* \"#utility.yul\":3276:3290   */\n      add\n        /* \"#utility.yul\":3261:3290   */\n      swap1\n      pop\n        /* \"#utility.yul\":3127:3296   */\n      swap3\n      swap2\n      pop\n      pop\n      jump\t// out\n        /* \"#utility.yul\":3302:3532   */\n    tag_115:\n        /* \"#utility.yul\":3442:3476   */\n      0x776974686472617720726571756573742067726561746572207468616e207374\n        /* \"#utility.yul\":3438:3439   */\n      0x00\n        /* \"#utility.yul\":3430:3436   */\n      dup3\n        /* \"#utility.yul\":3426:3440   */\n      add\n        /* \"#utility.yul\":3419:3477   */\n      mstore\n        /* \"#utility.yul\":3511:3524   */\n      0x616b656420616d6f756e74000000000000000000000000000000000000000000\n        /* \"#utility.yul\":3506:3508   */\n      0x20\n        /* \"#utility.yul\":3498:3504   */\n      dup3\n        /* \"#utility.yul\":3494:3509   */\n      add\n        /* \"#utility.yul\":3487:3525   */\n      mstore\n        /* \"#utility.yul\":3302:3532   */\n      pop\n      jump\t// out\n        /* \"#utility.yul\":3538:3904   */\n    tag_116:\n        /* \"#utility.yul\":3680:3683   */\n      0x00\n        /* \"#utility.yul\":3701:3768   */\n      tag_181\n        /* \"#utility.yul\":3765:3767   */\n      0x2b\n        /* \"#utility.yul\":3760:3763   */\n      dup4\n        /* \"#utility.yul\":3701:3768   */\n      tag_114\n      jump\t// in\n    tag_181:\n        /* \"#utility.yul\":3694:3768   */\n      swap2\n      pop\n        /* \"#utility.yul\":3777:3870   */\n      tag_182\n        /* \"#utility.yul\":3866:3869   */\n      dup3\n        /* \"#utility.yul\":3777:3870   */\n      tag_115\n      jump\t// in\n    tag_182:\n        /* \"#utility.yul\":3895:3897   */\n      0x40\n        /* \"#utility.yul\":3890:3893   */\n      dup3\n        /* \"#utility.yul\":3886:3898   */\n      add\n        /* \"#utility.yul\":3879:3898   */\n      swap1\n      pop\n        /* \"#utility.yul\":3538:3904   */\n      swap2\n      swap1\n      pop\n      jump\t// out\n        /* \"#utility.yul\":3910:4329   */\n    tag_32:\n        /* \"#utility.yul\":4076:4080   */\n      0x00\n        /* \"#utility.yul\":4114:4116   */\n      0x20\n        /* \"#utility.yul\":4103:4112   */\n      dup3\n        /* \"#utility.yul\":4099:4117   */\n      add\n        /* \"#utility.yul\":4091:4117   */\n      swap1\n      pop\n        /* \"#utility.yul\":4163:4172   */\n      dup2\n        /* \"#utility.yul\":4157:4161   */\n      dup2\n        /* \"#utility.yul\":4153:4173   */\n      sub\n        /* \"#utility.yul\":4149:4150   */\n      0x00\n        /* \"#utility.yul\":4138:4147   */\n      dup4\n        /* \"#utility.yul\":4134:4151   */\n      add\n        /* \"#utility.yul\":4127:4174   */\n      mstore\n        /* \"#utility.yul\":4191:4322   */\n      tag_184\n        /* \"#utility.yul\":4317:4321   */\n      dup2\n        /* \"#utility.yul\":4191:4322   */\n      tag_116\n      jump\t// in\n    tag_184:\n        /* \"#utility.yul\":4183:4322   */\n      swap1\n      pop\n        /* \"#utility.yul\":3910:4329   */\n      swap2\n      swap1\n      pop\n      jump\t// out\n        /* \"#utility.yul\":4335:4453   */\n    tag_117:\n        /* \"#utility.yul\":4422:4446   */\n      tag_186\n        /* \"#utility.yul\":4440:4445   */\n      dup2\n        /* \"#utility.yul\":4422:4446   */\n      tag_106\n      jump\t// in\n    tag_186:\n        /* \"#utility.yul\":4417:4420   */\n      dup3\n        /* \"#utility.yul\":4410:4447   */\n      mstore\n        /* \"#utility.yul\":4335:4453   */\n      pop\n      pop\n      jump\t// out\n        /* \"#utility.yul\":4459:4791   */\n    tag_51:\n        /* \"#utility.yul\":4580:4584   */\n      0x00\n        /* \"#utility.yul\":4618:4620   */\n      0x40\n        /* \"#utility.yul\":4607:4616   */\n      dup3\n        /* \"#utility.yul\":4603:4621   */\n      add\n        /* \"#utility.yul\":4595:4621   */\n      swap1\n      pop\n        /* \"#utility.yul\":4631:4702   */\n      tag_188\n        /* \"#utility.yul\":4699:4700   */\n      0x00\n        /* \"#utility.yul\":4688:4697   */\n      dup4\n        /* \"#utility.yul\":4684:4701   */\n      add\n        /* \"#utility.yul\":4675:4681   */\n      dup6\n        /* \"#utility.yul\":4631:4702   */\n      tag_117\n      jump\t// in\n    tag_188:\n        /* \"#utility.yul\":4712:4784   */\n      tag_189\n        /* \"#utility.yul\":4780:4782   */\n      0x20\n        /* \"#utility.yul\":4769:4778   */\n      dup4\n        /* \"#utility.yul\":4765:4783   */\n      add\n        /* \"#utility.yul\":4756:4762   */\n      dup5\n        /* \"#utility.yul\":4712:4784   */\n      tag_99\n      jump\t// in\n    tag_189:\n        /* \"#utility.yul\":4459:4791   */\n      swap4\n      swap3\n      pop\n      pop\n      pop\n      jump\t// out\n        /* \"#utility.yul\":4797:4977   */\n    tag_118:\n        /* \"#utility.yul\":4845:4922   */\n      0x4e487b7100000000000000000000000000000000000000000000000000000000\n        /* \"#utility.yul\":4842:4843   */\n      0x00\n        /* \"#utility.yul\":4835:4923   */\n      mstore\n        /* \"#utility.yul\":4942:4946   */\n      0x11\n        /* \"#utility.yul\":4939:4940   */\n      0x04\n        /* \"#utility.yul\":4932:4947   */\n      mstore\n        /* \"#utility.yul\":4966:4970   */\n      0x24\n        /* \"#utility.yul\":4963:4964   */\n      0x00\n        /* \"#utility.yul\":4956:4971   */\n      revert\n        /* \"#utility.yul\":4983:5174   */\n    tag_55:\n        /* \"#utility.yul\":5023:5026   */\n      0x00\n        /* \"#utility.yul\":5042:5062   */\n      tag_192\n        /* \"#utility.yul\":5060:5061   */\n      dup3\n        /* \"#utility.yul\":5042:5062   */\n      tag_98\n      jump\t// in\n    tag_192:\n        /* \"#utility.yul\":5037:5062   */\n      swap2\n      pop\n        /* \"#utility.yul\":5076:5096   */\n      tag_193\n        /* \"#utility.yul\":5094:5095   */\n      dup4\n        /* \"#utility.yul\":5076:5096   */\n      tag_98\n      jump\t// in\n    tag_193:\n        /* \"#utility.yul\":5071:5096   */\n      swap3\n      pop\n        /* \"#utility.yul\":5119:5120   */\n      dup3\n        /* \"#utility.yul\":5116:5117   */\n      dup3\n        /* \"#utility.yul\":5112:5121   */\n      add\n        /* \"#utility.yul\":5105:5121   */\n      swap1\n      pop\n        /* \"#utility.yul\":5140:5143   */\n      dup1\n        /* \"#utility.yul\":5137:5138   */\n      dup3\n        /* \"#utility.yul\":5134:5144   */\n      gt\n        /* \"#utility.yul\":5131:5167   */\n      iszero\n      tag_194\n      jumpi\n        /* \"#utility.yul\":5147:5165   */\n      tag_195\n      tag_118\n      jump\t// in\n    tag_195:\n        /* \"#utility.yul\":5131:5167   */\n    tag_194:\n        /* \"#utility.yul\":4983:5174   */\n      swap3\n      swap2\n      pop\n      pop\n      jump\t// out\n        /* \"#utility.yul\":5180:5357   */\n    tag_119:\n        /* \"#utility.yul\":5320:5349   */\n      0x536166654d6174683a206164646974696f6e206f766572666c6f770000000000\n        /* \"#utility.yul\":5316:5317   */\n      0x00\n        /* \"#utility.yul\":5308:5314   */\n      dup3\n        /* \"#utility.yul\":5304:5318   */\n      add\n        /* \"#utility.yul\":5297:5350   */\n      mstore\n        /* \"#utility.yul\":5180:5357   */\n      pop\n      jump\t// out\n        /* \"#utility.yul\":5363:5729   */\n    tag_120:\n        /* \"#utility.yul\":5505:5508   */\n      0x00\n        /* \"#utility.yul\":5526:5593   */\n      tag_198\n        /* \"#utility.yul\":5590:5592   */\n      0x1b\n        /* \"#utility.yul\":5585:5588   */\n      dup4\n        /* \"#utility.yul\":5526:5593   */\n      tag_114\n      jump\t// in\n    tag_198:\n        /* \"#utility.yul\":5519:5593   */\n      swap2\n      pop\n        /* \"#utility.yul\":5602:5695   */\n      tag_199\n        /* \"#utility.yul\":5691:5694   */\n      dup3\n        /* \"#utility.yul\":5602:5695   */\n      tag_119\n      jump\t// in\n    tag_199:\n        /* \"#utility.yul\":5720:5722   */\n      0x20\n        /* \"#utility.yul\":5715:5718   */\n      dup3\n        /* \"#utility.yul\":5711:5723   */\n      add\n        /* \"#utility.yul\":5704:5723   */\n      swap1\n      pop\n        /* \"#utility.yul\":5363:5729   */\n      swap2\n      swap1\n      pop\n      jump\t// out\n        /* \"#utility.yul\":5735:6154   */\n    tag_58:\n        /* \"#utility.yul\":5901:5905   */\n      0x00\n        /* \"#utility.yul\":5939:5941   */\n      0x20\n        /* \"#utility.yul\":5928:5937   */\n      dup3\n        /* \"#utility.yul\":5924:5942   */\n      add\n        /* \"#utility.yul\":5916:5942   */\n      swap1\n      pop\n        /* \"#utility.yul\":5988:5997   */\n      dup2\n        /* \"#utility.yul\":5982:5986   */\n      dup2\n        /* \"#utility.yul\":5978:5998   */\n      sub\n        /* \"#utility.yul\":5974:5975   */\n      0x00\n        /* \"#utility.yul\":5963:5972   */\n      dup4\n        /* \"#utility.yul\":5959:5976   */\n      add\n        /* \"#utility.yul\":5952:5999   */\n      mstore\n        /* \"#utility.yul\":6016:6147   */\n      tag_201\n        /* \"#utility.yul\":6142:6146   */\n      dup2\n        /* \"#utility.yul\":6016:6147   */\n      tag_120\n      jump\t// in\n    tag_201:\n        /* \"#utility.yul\":6008:6147   */\n      swap1\n      pop\n        /* \"#utility.yul\":5735:6154   */\n      swap2\n      swap1\n      pop\n      jump\t// out\n        /* \"#utility.yul\":6160:6602   */\n    tag_62:\n        /* \"#utility.yul\":6309:6313   */\n      0x00\n        /* \"#utility.yul\":6347:6349   */\n      0x60\n        /* \"#utility.yul\":6336:6345   */\n      dup3\n        /* \"#utility.yul\":6332:6350   */\n      add\n        /* \"#utility.yul\":6324:6350   */\n      swap1\n      pop\n        /* \"#utility.yul\":6360:6431   */\n      tag_203\n        /* \"#utility.yul\":6428:6429   */\n      0x00\n        /* \"#utility.yul\":6417:6426   */\n      dup4\n        /* \"#utility.yul\":6413:6430   */\n      add\n        /* \"#utility.yul\":6404:6410   */\n      dup7\n        /* \"#utility.yul\":6360:6431   */\n      tag_117\n      jump\t// in\n    tag_203:\n        /* \"#utility.yul\":6441:6513   */\n      tag_204\n        /* \"#utility.yul\":6509:6511   */\n      0x20\n        /* \"#utility.yul\":6498:6507   */\n      dup4\n        /* \"#utility.yul\":6494:6512   */\n      add\n        /* \"#utility.yul\":6485:6491   */\n      dup6\n        /* \"#utility.yul\":6441:6513   */\n      tag_117\n      jump\t// in\n    tag_204:\n        /* \"#utility.yul\":6523:6595   */\n      tag_205\n        /* \"#utility.yul\":6591:6593   */\n      0x40\n        /* \"#utility.yul\":6580:6589   */\n      dup4\n        /* \"#utility.yul\":6576:6594   */\n      add\n        /* \"#utility.yul\":6567:6573   */\n      dup5\n        /* \"#utility.yul\":6523:6595   */\n      tag_99\n      jump\t// in\n    tag_205:\n        /* \"#utility.yul\":6160:6602   */\n      swap5\n      swap4\n      pop\n      pop\n      pop\n      pop\n      jump\t// out\n        /* \"#utility.yul\":6608:6707   */\n    tag_121:\n        /* \"#utility.yul\":6660:6666   */\n      0x00\n        /* \"#utility.yul\":6694:6699   */\n      dup2\n        /* \"#utility.yul\":6688:6700   */\n      mload\n        /* \"#utility.yul\":6678:6700   */\n      swap1\n      pop\n        /* \"#utility.yul\":6608:6707   */\n      swap2\n      swap1\n      pop\n      jump\t// out\n        /* \"#utility.yul\":6713:6959   */\n    tag_122:\n        /* \"#utility.yul\":6794:6795   */\n      0x00\n        /* \"#utility.yul\":6804:6917   */\n    tag_208:\n        /* \"#utility.yul\":6818:6824   */\n      dup4\n        /* \"#utility.yul\":6815:6816   */\n      dup2\n        /* \"#utility.yul\":6812:6825   */\n      lt\n        /* \"#utility.yul\":6804:6917   */\n      iszero\n      tag_210\n      jumpi\n        /* \"#utility.yul\":6903:6904   */\n      dup1\n        /* \"#utility.yul\":6898:6901   */\n      dup3\n        /* \"#utility.yul\":6894:6905   */\n      add\n        /* \"#utility.yul\":6888:6906   */\n      mload\n        /* \"#utility.yul\":6884:6885   */\n      dup2\n        /* \"#utility.yul\":6879:6882   */\n      dup5\n        /* \"#utility.yul\":6875:6886   */\n      add\n        /* \"#utility.yul\":6868:6907   */\n      mstore\n        /* \"#utility.yul\":6840:6842   */\n      0x20\n        /* \"#utility.yul\":6837:6838   */\n      dup2\n        /* \"#utility.yul\":6833:6843   */\n      add\n        /* \"#utility.yul\":6828:6843   */\n      swap1\n      pop\n        /* \"#utility.yul\":6804:6917   */\n      jump(tag_208)\n    tag_210:\n        /* \"#utility.yul\":6951:6952   */\n      0x00\n        /* \"#utility.yul\":6942:6948   */\n      dup5\n        /* \"#utility.yul\":6937:6940   */\n      dup5\n        /* \"#utility.yul\":6933:6949   */\n      add\n        /* \"#utility.yul\":6926:6953   */\n      mstore\n        /* \"#utility.yul\":6775:6959   */\n      pop\n        /* \"#utility.yul\":6713:6959   */\n      pop\n      pop\n      pop\n      jump\t// out\n        /* \"#utility.yul\":6965:7067   */\n    tag_123:\n        /* \"#utility.yul\":7006:7012   */\n      0x00\n        /* \"#utility.yul\":7057:7059   */\n      0x1f\n        /* \"#utility.yul\":7053:7060   */\n      not\n        /* \"#utility.yul\":7048:7050   */\n      0x1f\n        /* \"#utility.yul\":7041:7046   */\n      dup4\n        /* \"#utility.yul\":7037:7051   */\n      add\n        /* \"#utility.yul\":7033:7061   */\n      and\n        /* \"#utility.yul\":7023:7061   */\n      swap1\n      pop\n        /* \"#utility.yul\":6965:7067   */\n      swap2\n      swap1\n      pop\n      jump\t// out\n        /* \"#utility.yul\":7073:7450   */\n    tag_124:\n        /* \"#utility.yul\":7161:7164   */\n      0x00\n        /* \"#utility.yul\":7189:7228   */\n      tag_213\n        /* \"#utility.yul\":7222:7227   */\n      dup3\n        /* \"#utility.yul\":7189:7228   */\n      tag_121\n      jump\t// in\n    tag_213:\n        /* \"#utility.yul\":7244:7315   */\n      tag_214\n        /* \"#utility.yul\":7308:7314   */\n      dup2\n        /* \"#utility.yul\":7303:7306   */\n      dup6\n        /* \"#utility.yul\":7244:7315   */\n      tag_114\n      jump\t// in\n    tag_214:\n        /* \"#utility.yul\":7237:7315   */\n      swap4\n      pop\n        /* \"#utility.yul\":7324:7389   */\n      tag_215\n        /* \"#utility.yul\":7382:7388   */\n      dup2\n        /* \"#utility.yul\":7377:7380   */\n      dup6\n        /* \"#utility.yul\":7370:7374   */\n      0x20\n        /* \"#utility.yul\":7363:7368   */\n      dup7\n        /* \"#utility.yul\":7359:7375   */\n      add\n        /* \"#utility.yul\":7324:7389   */\n      tag_122\n      jump\t// in\n    tag_215:\n        /* \"#utility.yul\":7414:7443   */\n      tag_216\n        /* \"#utility.yul\":7436:7442   */\n      dup2\n        /* \"#utility.yul\":7414:7443   */\n      tag_123\n      jump\t// in\n    tag_216:\n        /* \"#utility.yul\":7409:7412   */\n      dup5\n        /* \"#utility.yul\":7405:7444   */\n      add\n        /* \"#utility.yul\":7398:7444   */\n      swap2\n      pop\n        /* \"#utility.yul\":7165:7450   */\n      pop\n        /* \"#utility.yul\":7073:7450   */\n      swap3\n      swap2\n      pop\n      pop\n      jump\t// out\n        /* \"#utility.yul\":7456:7769   */\n    tag_66:\n        /* \"#utility.yul\":7569:7573   */\n      0x00\n        /* \"#utility.yul\":7607:7609   */\n      0x20\n        /* \"#utility.yul\":7596:7605   */\n      dup3\n        /* \"#utility.yul\":7592:7610   */\n      add\n        /* \"#utility.yul\":7584:7610   */\n      swap1\n      pop\n        /* \"#utility.yul\":7656:7665   */\n      dup2\n        /* \"#utility.yul\":7650:7654   */\n      dup2\n        /* \"#utility.yul\":7646:7666   */\n      sub\n        /* \"#utility.yul\":7642:7643   */\n      0x00\n        /* \"#utility.yul\":7631:7640   */\n      dup4\n        /* \"#utility.yul\":7627:7644   */\n      add\n        /* \"#utility.yul\":7620:7667   */\n      mstore\n        /* \"#utility.yul\":7684:7762   */\n      tag_218\n        /* \"#utility.yul\":7757:7761   */\n      dup2\n        /* \"#utility.yul\":7748:7754   */\n      dup5\n        /* \"#utility.yul\":7684:7762   */\n      tag_124\n      jump\t// in\n    tag_218:\n        /* \"#utility.yul\":7676:7762   */\n      swap1\n      pop\n        /* \"#utility.yul\":7456:7769   */\n      swap3\n      swap2\n      pop\n      pop\n      jump\t// out\n        /* \"#utility.yul\":7775:7969   */\n    tag_68:\n        /* \"#utility.yul\":7815:7819   */\n      0x00\n        /* \"#utility.yul\":7835:7855   */\n      tag_220\n        /* \"#utility.yul\":7853:7854   */\n      dup3\n        /* \"#utility.yul\":7835:7855   */\n      tag_98\n      jump\t// in\n    tag_220:\n        /* \"#utility.yul\":7830:7855   */\n      swap2\n      pop\n        /* \"#utility.yul\":7869:7889   */\n      tag_221\n        /* \"#utility.yul\":7887:7888   */\n      dup4\n        /* \"#utility.yul\":7869:7889   */\n      tag_98\n      jump\t// in\n    tag_221:\n        /* \"#utility.yul\":7864:7889   */\n      swap3\n      pop\n        /* \"#utility.yul\":7913:7914   */\n      dup3\n        /* \"#utility.yul\":7910:7911   */\n      dup3\n        /* \"#utility.yul\":7906:7915   */\n      sub\n        /* \"#utility.yul\":7898:7915   */\n      swap1\n      pop\n        /* \"#utility.yul\":7937:7938   */\n      dup2\n        /* \"#utility.yul\":7931:7935   */\n      dup2\n        /* \"#utility.yul\":7928:7939   */\n      gt\n        /* \"#utility.yul\":7925:7962   */\n      iszero\n      tag_222\n      jumpi\n        /* \"#utility.yul\":7942:7960   */\n      tag_223\n      tag_118\n      jump\t// in\n    tag_223:\n        /* \"#utility.yul\":7925:7962   */\n    tag_222:\n        /* \"#utility.yul\":7775:7969   */\n      swap3\n      swap2\n      pop\n      pop\n      jump\t// out\n        /* \"#utility.yul\":7975:8065   */\n    tag_125:\n        /* \"#utility.yul\":8009:8016   */\n      0x00\n        /* \"#utility.yul\":8052:8057   */\n      dup2\n        /* \"#utility.yul\":8045:8058   */\n      iszero\n        /* \"#utility.yul\":8038:8059   */\n      iszero\n        /* \"#utility.yul\":8027:8059   */\n      swap1\n      pop\n        /* \"#utility.yul\":7975:8065   */\n      swap2\n      swap1\n      pop\n      jump\t// out\n        /* \"#utility.yul\":8071:8187   */\n    tag_126:\n        /* \"#utility.yul\":8141:8162   */\n      tag_226\n        /* \"#utility.yul\":8156:8161   */\n      dup2\n        /* \"#utility.yul\":8141:8162   */\n      tag_125\n      jump\t// in\n    tag_226:\n        /* \"#utility.yul\":8134:8139   */\n      dup2\n        /* \"#utility.yul\":8131:8163   */\n      eq\n        /* \"#utility.yul\":8121:8181   */\n      tag_227\n      jumpi\n        /* \"#utility.yul\":8177:8178   */\n      0x00\n        /* \"#utility.yul\":8174:8175   */\n      dup1\n        /* \"#utility.yul\":8167:8179   */\n      revert\n        /* \"#utility.yul\":8121:8181   */\n    tag_227:\n        /* \"#utility.yul\":8071:8187   */\n      pop\n      jump\t// out\n        /* \"#utility.yul\":8193:8330   */\n    tag_127:\n        /* \"#utility.yul\":8247:8252   */\n      0x00\n        /* \"#utility.yul\":8278:8284   */\n      dup2\n        /* \"#utility.yul\":8272:8285   */\n      mload\n        /* \"#utility.yul\":8263:8285   */\n      swap1\n      pop\n        /* \"#utility.yul\":8294:8324   */\n      tag_229\n        /* \"#utility.yul\":8318:8323   */\n      dup2\n        /* \"#utility.yul\":8294:8324   */\n      tag_126\n      jump\t// in\n    tag_229:\n        /* \"#utility.yul\":8193:8330   */\n      swap3\n      swap2\n      pop\n      pop\n      jump\t// out\n        /* \"#utility.yul\":8336:8681   */\n    tag_74:\n        /* \"#utility.yul\":8403:8409   */\n      0x00\n        /* \"#utility.yul\":8452:8454   */\n      0x20\n        /* \"#utility.yul\":8440:8449   */\n      dup3\n        /* \"#utility.yul\":8431:8438   */\n      dup5\n        /* \"#utility.yul\":8427:8450   */\n      sub\n        /* \"#utility.yul\":8423:8455   */\n      slt\n        /* \"#utility.yul\":8420:8539   */\n      iszero\n      tag_231\n      jumpi\n        /* \"#utility.yul\":8458:8537   */\n      tag_232\n      tag_101\n      jump\t// in\n    tag_232:\n        /* \"#utility.yul\":8420:8539   */\n    tag_231:\n        /* \"#utility.yul\":8578:8579   */\n      0x00\n        /* \"#utility.yul\":8603:8664   */\n      tag_233\n        /* \"#utility.yul\":8656:8663   */\n      dup5\n        /* \"#utility.yul\":8647:8653   */\n      dup3\n        /* \"#utility.yul\":8636:8645   */\n      dup6\n        /* \"#utility.yul\":8632:8654   */\n      add\n        /* \"#utility.yul\":8603:8664   */\n      tag_127\n      jump\t// in\n    tag_233:\n        /* \"#utility.yul\":8593:8664   */\n      swap2\n      pop\n        /* \"#utility.yul\":8549:8674   */\n      pop\n        /* \"#utility.yul\":8336:8681   */\n      swap3\n      swap2\n      pop\n      pop\n      jump\t// out\n        /* \"#utility.yul\":8687:8916   */\n    tag_128:\n        /* \"#utility.yul\":8827:8861   */\n      0x5361666545524332303a204552433230206f7065726174696f6e20646964206e\n        /* \"#utility.yul\":8823:8824   */\n      0x00\n        /* \"#utility.yul\":8815:8821   */\n      dup3\n        /* \"#utility.yul\":8811:8825   */\n      add\n        /* \"#utility.yul\":8804:8862   */\n      mstore\n        /* \"#utility.yul\":8896:8908   */\n      0x6f74207375636365656400000000000000000000000000000000000000000000\n        /* \"#utility.yul\":8891:8893   */\n      0x20\n        /* \"#utility.yul\":8883:8889   */\n      dup3\n        /* \"#utility.yul\":8879:8894   */\n      add\n        /* \"#utility.yul\":8872:8909   */\n      mstore\n        /* \"#utility.yul\":8687:8916   */\n      pop\n      jump\t// out\n        /* \"#utility.yul\":8922:9288   */\n    tag_129:\n        /* \"#utility.yul\":9064:9067   */\n      0x00\n        /* \"#utility.yul\":9085:9152   */\n      tag_236\n        /* \"#utility.yul\":9149:9151   */\n      0x2a\n        /* \"#utility.yul\":9144:9147   */\n      dup4\n        /* \"#utility.yul\":9085:9152   */\n      tag_114\n      jump\t// in\n    tag_236:\n        /* \"#utility.yul\":9078:9152   */\n      swap2\n      pop\n        /* \"#utility.yul\":9161:9254   */\n      tag_237\n        /* \"#utility.yul\":9250:9253   */\n      dup3\n        /* \"#utility.yul\":9161:9254   */\n      tag_128\n      jump\t// in\n    tag_237:\n        /* \"#utility.yul\":9279:9281   */\n      0x40\n        /* \"#utility.yul\":9274:9277   */\n      dup3\n        /* \"#utility.yul\":9270:9282   */\n      add\n        /* \"#utility.yul\":9263:9282   */\n      swap1\n      pop\n        /* \"#utility.yul\":8922:9288   */\n      swap2\n      swap1\n      pop\n      jump\t// out\n        /* \"#utility.yul\":9294:9713   */\n    tag_77:\n        /* \"#utility.yul\":9460:9464   */\n      0x00\n        /* \"#utility.yul\":9498:9500   */\n      0x20\n        /* \"#utility.yul\":9487:9496   */\n      dup3\n        /* \"#utility.yul\":9483:9501   */\n      add\n        /* \"#utility.yul\":9475:9501   */\n      swap1\n      pop\n        /* \"#utility.yul\":9547:9556   */\n      dup2\n        /* \"#utility.yul\":9541:9545   */\n      dup2\n        /* \"#utility.yul\":9537:9557   */\n      sub\n        /* \"#utility.yul\":9533:9534   */\n      0x00\n        /* \"#utility.yul\":9522:9531   */\n      dup4\n        /* \"#utility.yul\":9518:9535   */\n      add\n        /* \"#utility.yul\":9511:9558   */\n      mstore\n        /* \"#utility.yul\":9575:9706   */\n      tag_239\n        /* \"#utility.yul\":9701:9705   */\n      dup2\n        /* \"#utility.yul\":9575:9706   */\n      tag_129\n      jump\t// in\n    tag_239:\n        /* \"#utility.yul\":9567:9706   */\n      swap1\n      pop\n        /* \"#utility.yul\":9294:9713   */\n      swap2\n      swap1\n      pop\n      jump\t// out\n        /* \"#utility.yul\":9719:9898   */\n    tag_130:\n        /* \"#utility.yul\":9859:9890   */\n      0x416464726573733a2063616c6c20746f206e6f6e2d636f6e7472616374000000\n        /* \"#utility.yul\":9855:9856   */\n      0x00\n        /* \"#utility.yul\":9847:9853   */\n      dup3\n        /* \"#utility.yul\":9843:9857   */\n      add\n        /* \"#utility.yul\":9836:9891   */\n      mstore\n        /* \"#utility.yul\":9719:9898   */\n      pop\n      jump\t// out\n        /* \"#utility.yul\":9904:10270   */\n    tag_131:\n        /* \"#utility.yul\":10046:10049   */\n      0x00\n        /* \"#utility.yul\":10067:10134   */\n      tag_242\n        /* \"#utility.yul\":10131:10133   */\n      0x1d\n        /* \"#utility.yul\":10126:10129   */\n      dup4\n        /* \"#utility.yul\":10067:10134   */\n      tag_114\n      jump\t// in\n    tag_242:\n        /* \"#utility.yul\":10060:10134   */\n      swap2\n      pop\n        /* \"#utility.yul\":10143:10236   */\n      tag_243\n        /* \"#utility.yul\":10232:10235   */\n      dup3\n        /* \"#utility.yul\":10143:10236   */\n      tag_130\n      jump\t// in\n    tag_243:\n        /* \"#utility.yul\":10261:10263   */\n      0x20\n        /* \"#utility.yul\":10256:10259   */\n      dup3\n        /* \"#utility.yul\":10252:10264   */\n      add\n        /* \"#utility.yul\":10245:10264   */\n      swap1\n      pop\n        /* \"#utility.yul\":9904:10270   */\n      swap2\n      swap1\n      pop\n      jump\t// out\n        /* \"#utility.yul\":10276:10695   */\n    tag_86:\n        /* \"#utility.yul\":10442:10446   */\n      0x00\n        /* \"#utility.yul\":10480:10482   */\n      0x20\n        /* \"#utility.yul\":10469:10478   */\n      dup3\n        /* \"#utility.yul\":10465:10483   */\n      add\n        /* \"#utility.yul\":10457:10483   */\n      swap1\n      pop\n        /* \"#utility.yul\":10529:10538   */\n      dup2\n        /* \"#utility.yul\":10523:10527   */\n      dup2\n        /* \"#utility.yul\":10519:10539   */\n      sub\n        /* \"#utility.yul\":10515:10516   */\n      0x00\n        /* \"#utility.yul\":10504:10513   */\n      dup4\n        /* \"#utility.yul\":10500:10517   */\n      add\n        /* \"#utility.yul\":10493:10540   */\n      mstore\n        /* \"#utility.yul\":10557:10688   */\n      tag_245\n        /* \"#utility.yul\":10683:10687   */\n      dup2\n        /* \"#utility.yul\":10557:10688   */\n      tag_131\n      jump\t// in\n    tag_245:\n        /* \"#utility.yul\":10549:10688   */\n      swap1\n      pop\n        /* \"#utility.yul\":10276:10695   */\n      swap2\n      swap1\n      pop\n      jump\t// out\n        /* \"#utility.yul\":10701:10799   */\n    tag_132:\n        /* \"#utility.yul\":10752:10758   */\n      0x00\n        /* \"#utility.yul\":10786:10791   */\n      dup2\n        /* \"#utility.yul\":10780:10792   */\n      mload\n        /* \"#utility.yul\":10770:10792   */\n      swap1\n      pop\n        /* \"#utility.yul\":10701:10799   */\n      swap2\n      swap1\n      pop\n      jump\t// out\n        /* \"#utility.yul\":10805:10952   */\n    tag_133:\n        /* \"#utility.yul\":10906:10917   */\n      0x00\n        /* \"#utility.yul\":10943:10946   */\n      dup2\n        /* \"#utility.yul\":10928:10946   */\n      swap1\n      pop\n        /* \"#utility.yul\":10805:10952   */\n      swap3\n      swap2\n      pop\n      pop\n      jump\t// out\n        /* \"#utility.yul\":10958:11344   */\n    tag_134:\n        /* \"#utility.yul\":11062:11065   */\n      0x00\n        /* \"#utility.yul\":11090:11128   */\n      tag_249\n        /* \"#utility.yul\":11122:11127   */\n      dup3\n        /* \"#utility.yul\":11090:11128   */\n      tag_132\n      jump\t// in\n    tag_249:\n        /* \"#utility.yul\":11144:11232   */\n      tag_250\n        /* \"#utility.yul\":11225:11231   */\n      dup2\n        /* \"#utility.yul\":11220:11223   */\n      dup6\n        /* \"#utility.yul\":11144:11232   */\n      tag_133\n      jump\t// in\n    tag_250:\n        /* \"#utility.yul\":11137:11232   */\n      swap4\n      pop\n        /* \"#utility.yul\":11241:11306   */\n      tag_251\n        /* \"#utility.yul\":11299:11305   */\n      dup2\n        /* \"#utility.yul\":11294:11297   */\n      dup6\n        /* \"#utility.yul\":11287:11291   */\n      0x20\n        /* \"#utility.yul\":11280:11285   */\n      dup7\n        /* \"#utility.yul\":11276:11292   */\n      add\n        /* \"#utility.yul\":11241:11306   */\n      tag_122\n      jump\t// in\n    tag_251:\n        /* \"#utility.yul\":11331:11337   */\n      dup1\n        /* \"#utility.yul\":11326:11329   */\n      dup5\n        /* \"#utility.yul\":11322:11338   */\n      add\n        /* \"#utility.yul\":11315:11338   */\n      swap2\n      pop\n        /* \"#utility.yul\":11066:11344   */\n      pop\n        /* \"#utility.yul\":10958:11344   */\n      swap3\n      swap2\n      pop\n      pop\n      jump\t// out\n        /* \"#utility.yul\":11350:11621   */\n    tag_88:\n        /* \"#utility.yul\":11480:11483   */\n      0x00\n        /* \"#utility.yul\":11502:11595   */\n      tag_253\n        /* \"#utility.yul\":11591:11594   */\n      dup3\n        /* \"#utility.yul\":11582:11588   */\n      dup5\n        /* \"#utility.yul\":11502:11595   */\n      tag_134\n      jump\t// in\n    tag_253:\n        /* \"#utility.yul\":11495:11595   */\n      swap2\n      pop\n        /* \"#utility.yul\":11612:11615   */\n      dup2\n        /* \"#utility.yul\":11605:11615   */\n      swap1\n      pop\n        /* \"#utility.yul\":11350:11621   */\n      swap3\n      swap2\n      pop\n      pop\n      jump\t// out\n\n    auxdata: 0xa2646970667358221220ca84e1f4fc59165cb3b38da29c2b26037f8f8e6956b454822fcb3c804e174bca64736f6c63430008120033\n}\n",
				"bytecode": {
					"linkReferences": {},
					"object": "608060405234801561001057600080fd5b50610e70806100206000396000f3fe608060405234801561001057600080fd5b50600436106100575760003560e01c806318160ddd1461005c5780632e1a7d4d1461007a57806370a0823114610096578063a694fc3a146100c6578063ce5fc8d0146100e2575b600080fd5b610064610100565b6040516100719190610845565b60405180910390f35b610094600480360381019061008f9190610891565b61010a565b005b6100b060048036038101906100ab919061091c565b610290565b6040516100bd9190610845565b60405180910390f35b6100e060048036038101906100db9190610891565b6102d9565b005b6100ea6103d9565b6040516100f791906109a8565b60405180910390f35b6000600154905090565b6000600260003373ffffffffffffffffffffffffffffffffffffffff1673ffffffffffffffffffffffffffffffffffffffff16815260200190815260200160002054905081811015610191576040517f08c379a000000000000000000000000000000000000000000000000000000000815260040161018890610a46565b60405180910390fd5b6101a6826001546103fd90919063ffffffff16565b6001819055506101fe82600260003373ffffffffffffffffffffffffffffffffffffffff1673ffffffffffffffffffffffffffffffffffffffff168152602001908152602001600020546103fd90919063ffffffff16565b600260003373ffffffffffffffffffffffffffffffffffffffff1673ffffffffffffffffffffffffffffffffffffffff1681526020019081526020016000208190555061028c338360008054906101000a900473ffffffffffffffffffffffffffffffffffffffff1673ffffffffffffffffffffffffffffffffffffffff166104479092919063ffffffff16565b5050565b6000600260008373ffffffffffffffffffffffffffffffffffffffff1673ffffffffffffffffffffffffffffffffffffffff168152602001908152602001600020549050919050565b6102ee816001546104cd90919063ffffffff16565b60018190555061034681600260003373ffffffffffffffffffffffffffffffffffffffff1673ffffffffffffffffffffffffffffffffffffffff168152602001908152602001600020546104cd90919063ffffffff16565b600260003373ffffffffffffffffffffffffffffffffffffffff1673ffffffffffffffffffffffffffffffffffffffff168152602001908152602001600020819055506103d633308360008054906101000a900473ffffffffffffffffffffffffffffffffffffffff1673ffffffffffffffffffffffffffffffffffffffff1661052b909392919063ffffffff16565b50565b60008054906101000a900473ffffffffffffffffffffffffffffffffffffffff1681565b600061043f83836040518060400160405280601e81526020017f536166654d6174683a207375627472616374696f6e206f766572666c6f7700008152506105b4565b905092915050565b6104c88363a9059cbb60e01b8484604051602401610466929190610a75565b604051602081830303815290604052907bffffffffffffffffffffffffffffffffffffffffffffffffffffffff19166020820180517bffffffffffffffffffffffffffffffffffffffffffffffffffffffff8381831617835250505050610618565b505050565b60008082846104dc9190610acd565b905083811015610521576040517f08c379a000000000000000000000000000000000000000000000000000000000815260040161051890610b4d565b60405180910390fd5b8091505092915050565b6105ae846323b872dd60e01b85858560405160240161054c93929190610b6d565b604051602081830303815290604052907bffffffffffffffffffffffffffffffffffffffffffffffffffffffff19166020820180517bffffffffffffffffffffffffffffffffffffffffffffffffffffffff8381831617835250505050610618565b50505050565b60008383111582906105fc576040517f08c379a00000000000000000000000000000000000000000000000000000000081526004016105f39190610c23565b60405180910390fd5b506000838561060b9190610c45565b9050809150509392505050565b600061067a826040518060400160405280602081526020017f5361666545524332303a206c6f772d6c6576656c2063616c6c206661696c65648152508573ffffffffffffffffffffffffffffffffffffffff166106df9092919063ffffffff16565b90506000815111156106da578080602001905181019061069a9190610cb1565b6106d9576040517f08c379a00000000000000000000000000000000000000000000000000000000081526004016106d090610d50565b60405180910390fd5b5b505050565b60606106ee84846000856106f7565b90509392505050565b606061070285610819565b610741576040517f08c379a000000000000000000000000000000000000000000000000000000000815260040161073890610dbc565b60405180910390fd5b6000808673ffffffffffffffffffffffffffffffffffffffff16858760405161076a9190610e23565b60006040518083038185875af1925050503d80600081146107a7576040519150601f19603f3d011682016040523d82523d6000602084013e6107ac565b606091505b509150915081156107c1578092505050610811565b6000815111156107d45780518082602001fd5b836040517f08c379a00000000000000000000000000000000000000000000000000000000081526004016108089190610c23565b60405180910390fd5b949350505050565b600080823b905060008111915050919050565b6000819050919050565b61083f8161082c565b82525050565b600060208201905061085a6000830184610836565b92915050565b600080fd5b61086e8161082c565b811461087957600080fd5b50565b60008135905061088b81610865565b92915050565b6000602082840312156108a7576108a6610860565b5b60006108b58482850161087c565b91505092915050565b600073ffffffffffffffffffffffffffffffffffffffff82169050919050565b60006108e9826108be565b9050919050565b6108f9816108de565b811461090457600080fd5b50565b600081359050610916816108f0565b92915050565b60006020828403121561093257610931610860565b5b600061094084828501610907565b91505092915050565b6000819050919050565b600061096e610969610964846108be565b610949565b6108be565b9050919050565b600061098082610953565b9050919050565b600061099282610975565b9050919050565b6109a281610987565b82525050565b60006020820190506109bd6000830184610999565b92915050565b600082825260208201905092915050565b7f776974686472617720726571756573742067726561746572207468616e20737460008201527f616b656420616d6f756e74000000000000000000000000000000000000000000602082015250565b6000610a30602b836109c3565b9150610a3b826109d4565b604082019050919050565b60006020820190508181036000830152610a5f81610a23565b9050919050565b610a6f816108de565b82525050565b6000604082019050610a8a6000830185610a66565b610a976020830184610836565b9392505050565b7f4e487b7100000000000000000000000000000000000000000000000000000000600052601160045260246000fd5b6000610ad88261082c565b9150610ae38361082c565b9250828201905080821115610afb57610afa610a9e565b5b92915050565b7f536166654d6174683a206164646974696f6e206f766572666c6f770000000000600082015250565b6000610b37601b836109c3565b9150610b4282610b01565b602082019050919050565b60006020820190508181036000830152610b6681610b2a565b9050919050565b6000606082019050610b826000830186610a66565b610b8f6020830185610a66565b610b9c6040830184610836565b949350505050565b600081519050919050565b60005b83811015610bcd578082015181840152602081019050610bb2565b60008484015250505050565b6000601f19601f8301169050919050565b6000610bf582610ba4565b610bff81856109c3565b9350610c0f818560208601610baf565b610c1881610bd9565b840191505092915050565b60006020820190508181036000830152610c3d8184610bea565b905092915050565b6000610c508261082c565b9150610c5b8361082c565b9250828203905081811115610c7357610c72610a9e565b5b92915050565b60008115159050919050565b610c8e81610c79565b8114610c9957600080fd5b50565b600081519050610cab81610c85565b92915050565b600060208284031215610cc757610cc6610860565b5b6000610cd584828501610c9c565b91505092915050565b7f5361666545524332303a204552433230206f7065726174696f6e20646964206e60008201527f6f74207375636365656400000000000000000000000000000000000000000000602082015250565b6000610d3a602a836109c3565b9150610d4582610cde565b604082019050919050565b60006020820190508181036000830152610d6981610d2d565b9050919050565b7f416464726573733a2063616c6c20746f206e6f6e2d636f6e7472616374000000600082015250565b6000610da6601d836109c3565b9150610db182610d70565b602082019050919050565b60006020820190508181036000830152610dd581610d99565b9050919050565b600081519050919050565b600081905092915050565b6000610dfd82610ddc565b610e078185610de7565b9350610e17818560208601610baf565b80840191505092915050565b6000610e2f8284610df2565b91508190509291505056fea2646970667358221220ca84e1f4fc59165cb3b38da29c2b26037f8f8e6956b454822fcb3c804e174bca64736f6c63430008120033",
					"opcodes": "PUSH1 0x80 PUSH1 0x40 MSTORE CALLVALUE DUP1 ISZERO PUSH2 0x10 JUMPI PUSH1 0x0 DUP1 REVERT JUMPDEST POP PUSH2 0xE70 DUP1 PUSH2 0x20 PUSH1 0x0 CODECOPY PUSH1 0x0 RETURN INVALID PUSH1 0x80 PUSH1 0x40 MSTORE CALLVALUE DUP1 ISZERO PUSH2 0x10 JUMPI PUSH1 0x0 DUP1 REVERT JUMPDEST POP PUSH1 0x4 CALLDATASIZE LT PUSH2 0x57 JUMPI PUSH1 0x0 CALLDATALOAD PUSH1 0xE0 SHR DUP1 PUSH4 0x18160DDD EQ PUSH2 0x5C JUMPI DUP1 PUSH4 0x2E1A7D4D EQ PUSH2 0x7A JUMPI DUP1 PUSH4 0x70A08231 EQ PUSH2 0x96 JUMPI DUP1 PUSH4 0xA694FC3A EQ PUSH2 0xC6 JUMPI DUP1 PUSH4 0xCE5FC8D0 EQ PUSH2 0xE2 JUMPI JUMPDEST PUSH1 0x0 DUP1 REVERT JUMPDEST PUSH2 0x64 PUSH2 0x100 JUMP JUMPDEST PUSH1 0x40 MLOAD PUSH2 0x71 SWAP2 SWAP1 PUSH2 0x845 JUMP JUMPDEST PUSH1 0x40 MLOAD DUP1 SWAP2 SUB SWAP1 RETURN JUMPDEST PUSH2 0x94 PUSH1 0x4 DUP1 CALLDATASIZE SUB DUP2 ADD SWAP1 PUSH2 0x8F SWAP2 SWAP1 PUSH2 0x891 JUMP JUMPDEST PUSH2 0x10A JUMP JUMPDEST STOP JUMPDEST PUSH2 0xB0 PUSH1 0x4 DUP1 CALLDATASIZE SUB DUP2 ADD SWAP1 PUSH2 0xAB SWAP2 SWAP1 PUSH2 0x91C JUMP JUMPDEST PUSH2 0x290 JUMP JUMPDEST PUSH1 0x40 MLOAD PUSH2 0xBD SWAP2 SWAP1 PUSH2 0x845 JUMP JUMPDEST PUSH1 0x40 MLOAD DUP1 SWAP2 SUB SWAP1 RETURN JUMPDEST PUSH2 0xE0 PUSH1 0x4 DUP1 CALLDATASIZE SUB DUP2 ADD SWAP1 PUSH2 0xDB SWAP2 SWAP1 PUSH2 0x891 JUMP JUMPDEST PUSH2 0x2D9 JUMP JUMPDEST STOP JUMPDEST PUSH2 0xEA PUSH2 0x3D9 JUMP JUMPDEST PUSH1 0x40 MLOAD PUSH2 0xF7 SWAP2 SWAP1 PUSH2 0x9A8 JUMP JUMPDEST PUSH1 0x40 MLOAD DUP1 SWAP2 SUB SWAP1 RETURN JUMPDEST PUSH1 0x0 PUSH1 0x1 SLOAD SWAP1 POP SWAP1 JUMP JUMPDEST PUSH1 0x0 PUSH1 0x2 PUSH1 0x0 CALLER PUSH20 0xFFFFFFFFFFFFFFFFFFFFFFFFFFFFFFFFFFFFFFFF AND PUSH20 0xFFFFFFFFFFFFFFFFFFFFFFFFFFFFFFFFFFFFFFFF AND DUP2 MSTORE PUSH1 0x20 ADD SWAP1 DUP2 MSTORE PUSH1 0x20 ADD PUSH1 0x0 KECCAK256 SLOAD SWAP1 POP DUP2 DUP2 LT ISZERO PUSH2 0x191 JUMPI PUSH1 0x40 MLOAD PUSH32 0x8C379A000000000000000000000000000000000000000000000000000000000 DUP2 MSTORE PUSH1 0x4 ADD PUSH2 0x188 SWAP1 PUSH2 0xA46 JUMP JUMPDEST PUSH1 0x40 MLOAD DUP1 SWAP2 SUB SWAP1 REVERT JUMPDEST PUSH2 0x1A6 DUP3 PUSH1 0x1 SLOAD PUSH2 0x3FD SWAP1 SWAP2 SWAP1 PUSH4 0xFFFFFFFF AND JUMP JUMPDEST PUSH1 0x1 DUP2 SWAP1 SSTORE POP PUSH2 0x1FE DUP3 PUSH1 0x2 PUSH1 0x0 CALLER PUSH20 0xFFFFFFFFFFFFFFFFFFFFFFFFFFFFFFFFFFFFFFFF AND PUSH20 0xFFFFFFFFFFFFFFFFFFFFFFFFFFFFFFFFFFFFFFFF AND DUP2 MSTORE PUSH1 0x20 ADD SWAP1 DUP2 MSTORE PUSH1 0x20 ADD PUSH1 0x0 KECCAK256 SLOAD PUSH2 0x3FD SWAP1 SWAP2 SWAP1 PUSH4 0xFFFFFFFF AND JUMP JUMPDEST PUSH1 0x2 PUSH1 0x0 CALLER PUSH20 0xFFFFFFFFFFFFFFFFFFFFFFFFFFFFFFFFFFFFFFFF AND PUSH20 0xFFFFFFFFFFFFFFFFFFFFFFFFFFFFFFFFFFFFFFFF AND DUP2 MSTORE PUSH1 0x20 ADD SWAP1 DUP2 MSTORE PUSH1 0x20 ADD PUSH1 0x0 KECCAK256 DUP2 SWAP1 SSTORE POP PUSH2 0x28C CALLER DUP4 PUSH1 0x0 DUP1 SLOAD SWAP1 PUSH2 0x100 EXP SWAP1 DIV PUSH20 0xFFFFFFFFFFFFFFFFFFFFFFFFFFFFFFFFFFFFFFFF AND PUSH20 0xFFFFFFFFFFFFFFFFFFFFFFFFFFFFFFFFFFFFFFFF AND PUSH2 0x447 SWAP1 SWAP3 SWAP2 SWAP1 PUSH4 0xFFFFFFFF AND JUMP JUMPDEST POP POP JUMP JUMPDEST PUSH1 0x0 PUSH1 0x2 PUSH1 0x0 DUP4 PUSH20 0xFFFFFFFFFFFFFFFFFFFFFFFFFFFFFFFFFFFFFFFF AND PUSH20 0xFFFFFFFFFFFFFFFFFFFFFFFFFFFFFFFFFFFFFFFF AND DUP2 MSTORE PUSH1 0x20 ADD SWAP1 DUP2 MSTORE PUSH1 0x20 ADD PUSH1 0x0 KECCAK256 SLOAD SWAP1 POP SWAP2 SWAP1 POP JUMP JUMPDEST PUSH2 0x2EE DUP2 PUSH1 0x1 SLOAD PUSH2 0x4CD SWAP1 SWAP2 SWAP1 PUSH4 0xFFFFFFFF AND JUMP JUMPDEST PUSH1 0x1 DUP2 SWAP1 SSTORE POP PUSH2 0x346 DUP2 PUSH1 0x2 PUSH1 0x0 CALLER PUSH20 0xFFFFFFFFFFFFFFFFFFFFFFFFFFFFFFFFFFFFFFFF AND PUSH20 0xFFFFFFFFFFFFFFFFFFFFFFFFFFFFFFFFFFFFFFFF AND DUP2 MSTORE PUSH1 0x20 ADD SWAP1 DUP2 MSTORE PUSH1 0x20 ADD PUSH1 0x0 KECCAK256 SLOAD PUSH2 0x4CD SWAP1 SWAP2 SWAP1 PUSH4 0xFFFFFFFF AND JUMP JUMPDEST PUSH1 0x2 PUSH1 0x0 CALLER PUSH20 0xFFFFFFFFFFFFFFFFFFFFFFFFFFFFFFFFFFFFFFFF AND PUSH20 0xFFFFFFFFFFFFFFFFFFFFFFFFFFFFFFFFFFFFFFFF AND DUP2 MSTORE PUSH1 0x20 ADD SWAP1 DUP2 MSTORE PUSH1 0x20 ADD PUSH1 0x0 KECCAK256 DUP2 SWAP1 SSTORE POP PUSH2 0x3D6 CALLER ADDRESS DUP4 PUSH1 0x0 DUP1 SLOAD SWAP1 PUSH2 0x100 EXP SWAP1 DIV PUSH20 0xFFFFFFFFFFFFFFFFFFFFFFFFFFFFFFFFFFFFFFFF AND PUSH20 0xFFFFFFFFFFFFFFFFFFFFFFFFFFFFFFFFFFFFFFFF AND PUSH2 0x52B SWAP1 SWAP4 SWAP3 SWAP2 SWAP1 PUSH4 0xFFFFFFFF AND JUMP JUMPDEST POP JUMP JUMPDEST PUSH1 0x0 DUP1 SLOAD SWAP1 PUSH2 0x100 EXP SWAP1 DIV PUSH20 0xFFFFFFFFFFFFFFFFFFFFFFFFFFFFFFFFFFFFFFFF AND DUP2 JUMP JUMPDEST PUSH1 0x0 PUSH2 0x43F DUP4 DUP4 PUSH1 0x40 MLOAD DUP1 PUSH1 0x40 ADD PUSH1 0x40 MSTORE DUP1 PUSH1 0x1E DUP2 MSTORE PUSH1 0x20 ADD PUSH32 0x536166654D6174683A207375627472616374696F6E206F766572666C6F770000 DUP2 MSTORE POP PUSH2 0x5B4 JUMP JUMPDEST SWAP1 POP SWAP3 SWAP2 POP POP JUMP JUMPDEST PUSH2 0x4C8 DUP4 PUSH4 0xA9059CBB PUSH1 0xE0 SHL DUP5 DUP5 PUSH1 0x40 MLOAD PUSH1 0x24 ADD PUSH2 0x466 SWAP3 SWAP2 SWAP1 PUSH2 0xA75 JUMP JUMPDEST PUSH1 0x40 MLOAD PUSH1 0x20 DUP2 DUP4 SUB SUB DUP2 MSTORE SWAP1 PUSH1 0x40 MSTORE SWAP1 PUSH28 0xFFFFFFFFFFFFFFFFFFFFFFFFFFFFFFFFFFFFFFFFFFFFFFFFFFFFFFFF NOT AND PUSH1 0x20 DUP3 ADD DUP1 MLOAD PUSH28 0xFFFFFFFFFFFFFFFFFFFFFFFFFFFFFFFFFFFFFFFFFFFFFFFFFFFFFFFF DUP4 DUP2 DUP4 AND OR DUP4 MSTORE POP POP POP POP PUSH2 0x618 JUMP JUMPDEST POP POP POP JUMP JUMPDEST PUSH1 0x0 DUP1 DUP3 DUP5 PUSH2 0x4DC SWAP2 SWAP1 PUSH2 0xACD JUMP JUMPDEST SWAP1 POP DUP4 DUP2 LT ISZERO PUSH2 0x521 JUMPI PUSH1 0x40 MLOAD PUSH32 0x8C379A000000000000000000000000000000000000000000000000000000000 DUP2 MSTORE PUSH1 0x4 ADD PUSH2 0x518 SWAP1 PUSH2 0xB4D JUMP JUMPDEST PUSH1 0x40 MLOAD DUP1 SWAP2 SUB SWAP1 REVERT JUMPDEST DUP1 SWAP2 POP POP SWAP3 SWAP2 POP POP JUMP JUMPDEST PUSH2 0x5AE DUP5 PUSH4 0x23B872DD PUSH1 0xE0 SHL DUP6 DUP6 DUP6 PUSH1 0x40 MLOAD PUSH1 0x24 ADD PUSH2 0x54C SWAP4 SWAP3 SWAP2 SWAP1 PUSH2 0xB6D JUMP JUMPDEST PUSH1 0x40 MLOAD PUSH1 0x20 DUP2 DUP4 SUB SUB DUP2 MSTORE SWAP1 PUSH1 0x40 MSTORE SWAP1 PUSH28 0xFFFFFFFFFFFFFFFFFFFFFFFFFFFFFFFFFFFFFFFFFFFFFFFFFFFFFFFF NOT AND PUSH1 0x20 DUP3 ADD DUP1 MLOAD PUSH28 0xFFFFFFFFFFFFFFFFFFFFFFFFFFFFFFFFFFFFFFFFFFFFFFFFFFFFFFFF DUP4 DUP2 DUP4 AND OR DUP4 MSTORE POP POP POP POP PUSH2 0x618 JUMP JUMPDEST POP POP POP POP JUMP JUMPDEST PUSH1 0x0 DUP4 DUP4 GT ISZERO DUP3 SWAP1 PUSH2 0x5FC JUMPI PUSH1 0x40 MLOAD PUSH32 0x8C379A000000000000000000000000000000000000000000000000000000000 DUP2 MSTORE PUSH1 0x4 ADD PUSH2 0x5F3 SWAP2 SWAP1 PUSH2 0xC23 JUMP JUMPDEST PUSH1 0x40 MLOAD DUP1 SWAP2 SUB SWAP1 REVERT JUMPDEST POP PUSH1 0x0 DUP4 DUP6 PUSH2 0x60B SWAP2 SWAP1 PUSH2 0xC45 JUMP JUMPDEST SWAP1 POP DUP1 SWAP2 POP POP SWAP4 SWAP3 POP POP POP JUMP JUMPDEST PUSH1 0x0 PUSH2 0x67A DUP3 PUSH1 0x40 MLOAD DUP1 PUSH1 0x40 ADD PUSH1 0x40 MSTORE DUP1 PUSH1 0x20 DUP2 MSTORE PUSH1 0x20 ADD PUSH32 0x5361666545524332303A206C6F772D6C6576656C2063616C6C206661696C6564 DUP2 MSTORE POP DUP6 PUSH20 0xFFFFFFFFFFFFFFFFFFFFFFFFFFFFFFFFFFFFFFFF AND PUSH2 0x6DF SWAP1 SWAP3 SWAP2 SWAP1 PUSH4 0xFFFFFFFF AND JUMP JUMPDEST SWAP1 POP PUSH1 0x0 DUP2 MLOAD GT ISZERO PUSH2 0x6DA JUMPI DUP1 DUP1 PUSH1 0x20 ADD SWAP1 MLOAD DUP2 ADD SWAP1 PUSH2 0x69A SWAP2 SWAP1 PUSH2 0xCB1 JUMP JUMPDEST PUSH2 0x6D9 JUMPI PUSH1 0x40 MLOAD PUSH32 0x8C379A000000000000000000000000000000000000000000000000000000000 DUP2 MSTORE PUSH1 0x4 ADD PUSH2 0x6D0 SWAP1 PUSH2 0xD50 JUMP JUMPDEST PUSH1 0x40 MLOAD DUP1 SWAP2 SUB SWAP1 REVERT JUMPDEST JUMPDEST POP POP POP JUMP JUMPDEST PUSH1 0x60 PUSH2 0x6EE DUP5 DUP5 PUSH1 0x0 DUP6 PUSH2 0x6F7 JUMP JUMPDEST SWAP1 POP SWAP4 SWAP3 POP POP POP JUMP JUMPDEST PUSH1 0x60 PUSH2 0x702 DUP6 PUSH2 0x819 JUMP JUMPDEST PUSH2 0x741 JUMPI PUSH1 0x40 MLOAD PUSH32 0x8C379A000000000000000000000000000000000000000000000000000000000 DUP2 MSTORE PUSH1 0x4 ADD PUSH2 0x738 SWAP1 PUSH2 0xDBC JUMP JUMPDEST PUSH1 0x40 MLOAD DUP1 SWAP2 SUB SWAP1 REVERT JUMPDEST PUSH1 0x0 DUP1 DUP7 PUSH20 0xFFFFFFFFFFFFFFFFFFFFFFFFFFFFFFFFFFFFFFFF AND DUP6 DUP8 PUSH1 0x40 MLOAD PUSH2 0x76A SWAP2 SWAP1 PUSH2 0xE23 JUMP JUMPDEST PUSH1 0x0 PUSH1 0x40 MLOAD DUP1 DUP4 SUB DUP2 DUP6 DUP8 GAS CALL SWAP3 POP POP POP RETURNDATASIZE DUP1 PUSH1 0x0 DUP2 EQ PUSH2 0x7A7 JUMPI PUSH1 0x40 MLOAD SWAP2 POP PUSH1 0x1F NOT PUSH1 0x3F RETURNDATASIZE ADD AND DUP3 ADD PUSH1 0x40 MSTORE RETURNDATASIZE DUP3 MSTORE RETURNDATASIZE PUSH1 0x0 PUSH1 0x20 DUP5 ADD RETURNDATACOPY PUSH2 0x7AC JUMP JUMPDEST PUSH1 0x60 SWAP2 POP JUMPDEST POP SWAP2 POP SWAP2 POP DUP2 ISZERO PUSH2 0x7C1 JUMPI DUP1 SWAP3 POP POP POP PUSH2 0x811 JUMP JUMPDEST PUSH1 0x0 DUP2 MLOAD GT ISZERO PUSH2 0x7D4 JUMPI DUP1 MLOAD DUP1 DUP3 PUSH1 0x20 ADD REVERT JUMPDEST DUP4 PUSH1 0x40 MLOAD PUSH32 0x8C379A000000000000000000000000000000000000000000000000000000000 DUP2 MSTORE PUSH1 0x4 ADD PUSH2 0x808 SWAP2 SWAP1 PUSH2 0xC23 JUMP JUMPDEST PUSH1 0x40 MLOAD DUP1 SWAP2 SUB SWAP1 REVERT JUMPDEST SWAP5 SWAP4 POP POP POP POP JUMP JUMPDEST PUSH1 0x0 DUP1 DUP3 EXTCODESIZE SWAP1 POP PUSH1 0x0 DUP2 GT SWAP2 POP POP SWAP2 SWAP1 POP JUMP JUMPDEST PUSH1 0x0 DUP2 SWAP1 POP SWAP2 SWAP1 POP JUMP JUMPDEST PUSH2 0x83F DUP2 PUSH2 0x82C JUMP JUMPDEST DUP3 MSTORE POP POP JUMP JUMPDEST PUSH1 0x0 PUSH1 0x20 DUP3 ADD SWAP1 POP PUSH2 0x85A PUSH1 0x0 DUP4 ADD DUP5 PUSH2 0x836 JUMP JUMPDEST SWAP3 SWAP2 POP POP JUMP JUMPDEST PUSH1 0x0 DUP1 REVERT JUMPDEST PUSH2 0x86E DUP2 PUSH2 0x82C JUMP JUMPDEST DUP2 EQ PUSH2 0x879 JUMPI PUSH1 0x0 DUP1 REVERT JUMPDEST POP JUMP JUMPDEST PUSH1 0x0 DUP2 CALLDATALOAD SWAP1 POP PUSH2 0x88B DUP2 PUSH2 0x865 JUMP JUMPDEST SWAP3 SWAP2 POP POP JUMP JUMPDEST PUSH1 0x0 PUSH1 0x20 DUP3 DUP5 SUB SLT ISZERO PUSH2 0x8A7 JUMPI PUSH2 0x8A6 PUSH2 0x860 JUMP JUMPDEST JUMPDEST PUSH1 0x0 PUSH2 0x8B5 DUP5 DUP3 DUP6 ADD PUSH2 0x87C JUMP JUMPDEST SWAP2 POP POP SWAP3 SWAP2 POP POP JUMP JUMPDEST PUSH1 0x0 PUSH20 0xFFFFFFFFFFFFFFFFFFFFFFFFFFFFFFFFFFFFFFFF DUP3 AND SWAP1 POP SWAP2 SWAP1 POP JUMP JUMPDEST PUSH1 0x0 PUSH2 0x8E9 DUP3 PUSH2 0x8BE JUMP JUMPDEST SWAP1 POP SWAP2 SWAP1 POP JUMP JUMPDEST PUSH2 0x8F9 DUP2 PUSH2 0x8DE JUMP JUMPDEST DUP2 EQ PUSH2 0x904 JUMPI PUSH1 0x0 DUP1 REVERT JUMPDEST POP JUMP JUMPDEST PUSH1 0x0 DUP2 CALLDATALOAD SWAP1 POP PUSH2 0x916 DUP2 PUSH2 0x8F0 JUMP JUMPDEST SWAP3 SWAP2 POP POP JUMP JUMPDEST PUSH1 0x0 PUSH1 0x20 DUP3 DUP5 SUB SLT ISZERO PUSH2 0x932 JUMPI PUSH2 0x931 PUSH2 0x860 JUMP JUMPDEST JUMPDEST PUSH1 0x0 PUSH2 0x940 DUP5 DUP3 DUP6 ADD PUSH2 0x907 JUMP JUMPDEST SWAP2 POP POP SWAP3 SWAP2 POP POP JUMP JUMPDEST PUSH1 0x0 DUP2 SWAP1 POP SWAP2 SWAP1 POP JUMP JUMPDEST PUSH1 0x0 PUSH2 0x96E PUSH2 0x969 PUSH2 0x964 DUP5 PUSH2 0x8BE JUMP JUMPDEST PUSH2 0x949 JUMP JUMPDEST PUSH2 0x8BE JUMP JUMPDEST SWAP1 POP SWAP2 SWAP1 POP JUMP JUMPDEST PUSH1 0x0 PUSH2 0x980 DUP3 PUSH2 0x953 JUMP JUMPDEST SWAP1 POP SWAP2 SWAP1 POP JUMP JUMPDEST PUSH1 0x0 PUSH2 0x992 DUP3 PUSH2 0x975 JUMP JUMPDEST SWAP1 POP SWAP2 SWAP1 POP JUMP JUMPDEST PUSH2 0x9A2 DUP2 PUSH2 0x987 JUMP JUMPDEST DUP3 MSTORE POP POP JUMP JUMPDEST PUSH1 0x0 PUSH1 0x20 DUP3 ADD SWAP1 POP PUSH2 0x9BD PUSH1 0x0 DUP4 ADD DUP5 PUSH2 0x999 JUMP JUMPDEST SWAP3 SWAP2 POP POP JUMP JUMPDEST PUSH1 0x0 DUP3 DUP3 MSTORE PUSH1 0x20 DUP3 ADD SWAP1 POP SWAP3 SWAP2 POP POP JUMP JUMPDEST PUSH32 0x776974686472617720726571756573742067726561746572207468616E207374 PUSH1 0x0 DUP3 ADD MSTORE PUSH32 0x616B656420616D6F756E74000000000000000000000000000000000000000000 PUSH1 0x20 DUP3 ADD MSTORE POP JUMP JUMPDEST PUSH1 0x0 PUSH2 0xA30 PUSH1 0x2B DUP4 PUSH2 0x9C3 JUMP JUMPDEST SWAP2 POP PUSH2 0xA3B DUP3 PUSH2 0x9D4 JUMP JUMPDEST PUSH1 0x40 DUP3 ADD SWAP1 POP SWAP2 SWAP1 POP JUMP JUMPDEST PUSH1 0x0 PUSH1 0x20 DUP3 ADD SWAP1 POP DUP2 DUP2 SUB PUSH1 0x0 DUP4 ADD MSTORE PUSH2 0xA5F DUP2 PUSH2 0xA23 JUMP JUMPDEST SWAP1 POP SWAP2 SWAP1 POP JUMP JUMPDEST PUSH2 0xA6F DUP2 PUSH2 0x8DE JUMP JUMPDEST DUP3 MSTORE POP POP JUMP JUMPDEST PUSH1 0x0 PUSH1 0x40 DUP3 ADD SWAP1 POP PUSH2 0xA8A PUSH1 0x0 DUP4 ADD DUP6 PUSH2 0xA66 JUMP JUMPDEST PUSH2 0xA97 PUSH1 0x20 DUP4 ADD DUP5 PUSH2 0x836 JUMP JUMPDEST SWAP4 SWAP3 POP POP POP JUMP JUMPDEST PUSH32 0x4E487B7100000000000000000000000000000000000000000000000000000000 PUSH1 0x0 MSTORE PUSH1 0x11 PUSH1 0x4 MSTORE PUSH1 0x24 PUSH1 0x0 REVERT JUMPDEST PUSH1 0x0 PUSH2 0xAD8 DUP3 PUSH2 0x82C JUMP JUMPDEST SWAP2 POP PUSH2 0xAE3 DUP4 PUSH2 0x82C JUMP JUMPDEST SWAP3 POP DUP3 DUP3 ADD SWAP1 POP DUP1 DUP3 GT ISZERO PUSH2 0xAFB JUMPI PUSH2 0xAFA PUSH2 0xA9E JUMP JUMPDEST JUMPDEST SWAP3 SWAP2 POP POP JUMP JUMPDEST PUSH32 0x536166654D6174683A206164646974696F6E206F766572666C6F770000000000 PUSH1 0x0 DUP3 ADD MSTORE POP JUMP JUMPDEST PUSH1 0x0 PUSH2 0xB37 PUSH1 0x1B DUP4 PUSH2 0x9C3 JUMP JUMPDEST SWAP2 POP PUSH2 0xB42 DUP3 PUSH2 0xB01 JUMP JUMPDEST PUSH1 0x20 DUP3 ADD SWAP1 POP SWAP2 SWAP1 POP JUMP JUMPDEST PUSH1 0x0 PUSH1 0x20 DUP3 ADD SWAP1 POP DUP2 DUP2 SUB PUSH1 0x0 DUP4 ADD MSTORE PUSH2 0xB66 DUP2 PUSH2 0xB2A JUMP JUMPDEST SWAP1 POP SWAP2 SWAP1 POP JUMP JUMPDEST PUSH1 0x0 PUSH1 0x60 DUP3 ADD SWAP1 POP PUSH2 0xB82 PUSH1 0x0 DUP4 ADD DUP7 PUSH2 0xA66 JUMP JUMPDEST PUSH2 0xB8F PUSH1 0x20 DUP4 ADD DUP6 PUSH2 0xA66 JUMP JUMPDEST PUSH2 0xB9C PUSH1 0x40 DUP4 ADD DUP5 PUSH2 0x836 JUMP JUMPDEST SWAP5 SWAP4 POP POP POP POP JUMP JUMPDEST PUSH1 0x0 DUP2 MLOAD SWAP1 POP SWAP2 SWAP1 POP JUMP JUMPDEST PUSH1 0x0 JUMPDEST DUP4 DUP2 LT ISZERO PUSH2 0xBCD JUMPI DUP1 DUP3 ADD MLOAD DUP2 DUP5 ADD MSTORE PUSH1 0x20 DUP2 ADD SWAP1 POP PUSH2 0xBB2 JUMP JUMPDEST PUSH1 0x0 DUP5 DUP5 ADD MSTORE POP POP POP POP JUMP JUMPDEST PUSH1 0x0 PUSH1 0x1F NOT PUSH1 0x1F DUP4 ADD AND SWAP1 POP SWAP2 SWAP1 POP JUMP JUMPDEST PUSH1 0x0 PUSH2 0xBF5 DUP3 PUSH2 0xBA4 JUMP JUMPDEST PUSH2 0xBFF DUP2 DUP6 PUSH2 0x9C3 JUMP JUMPDEST SWAP4 POP PUSH2 0xC0F DUP2 DUP6 PUSH1 0x20 DUP7 ADD PUSH2 0xBAF JUMP JUMPDEST PUSH2 0xC18 DUP2 PUSH2 0xBD9 JUMP JUMPDEST DUP5 ADD SWAP2 POP POP SWAP3 SWAP2 POP POP JUMP JUMPDEST PUSH1 0x0 PUSH1 0x20 DUP3 ADD SWAP1 POP DUP2 DUP2 SUB PUSH1 0x0 DUP4 ADD MSTORE PUSH2 0xC3D DUP2 DUP5 PUSH2 0xBEA JUMP JUMPDEST SWAP1 POP SWAP3 SWAP2 POP POP JUMP JUMPDEST PUSH1 0x0 PUSH2 0xC50 DUP3 PUSH2 0x82C JUMP JUMPDEST SWAP2 POP PUSH2 0xC5B DUP4 PUSH2 0x82C JUMP JUMPDEST SWAP3 POP DUP3 DUP3 SUB SWAP1 POP DUP2 DUP2 GT ISZERO PUSH2 0xC73 JUMPI PUSH2 0xC72 PUSH2 0xA9E JUMP JUMPDEST JUMPDEST SWAP3 SWAP2 POP POP JUMP JUMPDEST PUSH1 0x0 DUP2 ISZERO ISZERO SWAP1 POP SWAP2 SWAP1 POP JUMP JUMPDEST PUSH2 0xC8E DUP2 PUSH2 0xC79 JUMP JUMPDEST DUP2 EQ PUSH2 0xC99 JUMPI PUSH1 0x0 DUP1 REVERT JUMPDEST POP JUMP JUMPDEST PUSH1 0x0 DUP2 MLOAD SWAP1 POP PUSH2 0xCAB DUP2 PUSH2 0xC85 JUMP JUMPDEST SWAP3 SWAP2 POP POP JUMP JUMPDEST PUSH1 0x0 PUSH1 0x20 DUP3 DUP5 SUB SLT ISZERO PUSH2 0xCC7 JUMPI PUSH2 0xCC6 PUSH2 0x860 JUMP JUMPDEST JUMPDEST PUSH1 0x0 PUSH2 0xCD5 DUP5 DUP3 DUP6 ADD PUSH2 0xC9C JUMP JUMPDEST SWAP2 POP POP SWAP3 SWAP2 POP POP JUMP JUMPDEST PUSH32 0x5361666545524332303A204552433230206F7065726174696F6E20646964206E PUSH1 0x0 DUP3 ADD MSTORE PUSH32 0x6F74207375636365656400000000000000000000000000000000000000000000 PUSH1 0x20 DUP3 ADD MSTORE POP JUMP JUMPDEST PUSH1 0x0 PUSH2 0xD3A PUSH1 0x2A DUP4 PUSH2 0x9C3 JUMP JUMPDEST SWAP2 POP PUSH2 0xD45 DUP3 PUSH2 0xCDE JUMP JUMPDEST PUSH1 0x40 DUP3 ADD SWAP1 POP SWAP2 SWAP1 POP JUMP JUMPDEST PUSH1 0x0 PUSH1 0x20 DUP3 ADD SWAP1 POP DUP2 DUP2 SUB PUSH1 0x0 DUP4 ADD MSTORE PUSH2 0xD69 DUP2 PUSH2 0xD2D JUMP JUMPDEST SWAP1 POP SWAP2 SWAP1 POP JUMP JUMPDEST PUSH32 0x416464726573733A2063616C6C20746F206E6F6E2D636F6E7472616374000000 PUSH1 0x0 DUP3 ADD MSTORE POP JUMP JUMPDEST PUSH1 0x0 PUSH2 0xDA6 PUSH1 0x1D DUP4 PUSH2 0x9C3 JUMP JUMPDEST SWAP2 POP PUSH2 0xDB1 DUP3 PUSH2 0xD70 JUMP JUMPDEST PUSH1 0x20 DUP3 ADD SWAP1 POP SWAP2 SWAP1 POP JUMP JUMPDEST PUSH1 0x0 PUSH1 0x20 DUP3 ADD SWAP1 POP DUP2 DUP2 SUB PUSH1 0x0 DUP4 ADD MSTORE PUSH2 0xDD5 DUP2 PUSH2 0xD99 JUMP JUMPDEST SWAP1 POP SWAP2 SWAP1 POP JUMP JUMPDEST PUSH1 0x0 DUP2 MLOAD SWAP1 POP SWAP2 SWAP1 POP JUMP JUMPDEST PUSH1 0x0 DUP2 SWAP1 POP SWAP3 SWAP2 POP POP JUMP JUMPDEST PUSH1 0x0 PUSH2 0xDFD DUP3 PUSH2 0xDDC JUMP JUMPDEST PUSH2 0xE07 DUP2 DUP6 PUSH2 0xDE7 JUMP JUMPDEST SWAP4 POP PUSH2 0xE17 DUP2 DUP6 PUSH1 0x20 DUP7 ADD PUSH2 0xBAF JUMP JUMPDEST DUP1 DUP5 ADD SWAP2 POP POP SWAP3 SWAP2 POP POP JUMP JUMPDEST PUSH1 0x0 PUSH2 0xE2F DUP3 DUP5 PUSH2 0xDF2 JUMP JUMPDEST SWAP2 POP DUP2 SWAP1 POP SWAP3 SWAP2 POP POP JUMP INVALID LOG2 PUSH5 0x6970667358 0x22 SLT KECCAK256 0xCA DUP5 0xE1 DELEGATECALL 0xFC MSIZE AND 0x5C 0xB3 0xB3 DUP14 LOG2 SWAP13 0x2B 0x26 SUB PUSH32 0x8F8E6956B454822FCB3C804E174BCA64736F6C63430008120033000000000000 "
				},
				"gasEstimates": {
					"creation": {
						"codeDepositCost": "739200",
						"executionCost": "773",
						"totalCost": "739973"
					},
					"external": {
						"balanceOf(address)": "2863",
						"lpt()": "infinite",
						"stake(uint256)": "infinite",
						"totalSupply()": "2415",
						"withdraw(uint256)": "infinite"
					}
				},
				"methodIdentifiers": {
					"balanceOf(address)": "70a08231",
					"lpt()": "ce5fc8d0",
					"stake(uint256)": "a694fc3a",
					"totalSupply()": "18160ddd",
					"withdraw(uint256)": "2e1a7d4d"
				}
			},
			"storageLayout": {
				"storage": [
					{
						"astId": 882,
						"contract": "contracts/REC20Stacking.sol:LPTokenWrapper",
						"label": "lpt",
						"offset": 0,
						"slot": "0",
						"type": "t_contract(IERC20)76"
					},
					{
						"astId": 885,
						"contract": "contracts/REC20Stacking.sol:LPTokenWrapper",
						"label": "_totalSupply",
						"offset": 0,
						"slot": "1",
						"type": "t_uint256"
					},
					{
						"astId": 890,
						"contract": "contracts/REC20Stacking.sol:LPTokenWrapper",
						"label": "_balances",
						"offset": 0,
						"slot": "2",
						"type": "t_mapping(t_address,t_uint256)"
					}
				],
				"types": {
					"t_address": {
						"encoding": "inplace",
						"label": "address",
						"numberOfBytes": "20"
					},
					"t_contract(IERC20)76": {
						"encoding": "inplace",
						"label": "contract IERC20",
						"numberOfBytes": "20"
					},
					"t_mapping(t_address,t_uint256)": {
						"encoding": "mapping",
						"key": "t_address",
						"label": "mapping(address => uint256)",
						"numberOfBytes": "32",
						"value": "t_uint256"
					},
					"t_uint256": {
						"encoding": "inplace",
						"label": "uint256",
						"numberOfBytes": "32"
					}
				}
			},
			"userdoc": {
				"kind": "user",
				"methods": {
					"lpt()": {
						"notice": "GoCash LP Token合约地址"
					}
				},
				"version": 1
			}
		}
	}
}