{
	"contracts/REC20Stacking.sol": {
		"LPTokenPool": {
			"abi": [
				{
					"inputs": [
						{
							"internalType": "address",
							"name": "token_",
							"type": "address"
						},
						{
							"internalType": "address",
							"name": "lptoken_",
							"type": "address"
						},
						{
							"internalType": "uint256",
							"name": "starttime_",
							"type": "uint256"
						}
					],
					"stateMutability": "nonpayable",
					"type": "constructor"
				},
				{
					"anonymous": false,
					"inputs": [
						{
							"indexed": true,
							"internalType": "address",
							"name": "previousOwner",
							"type": "address"
						},
						{
							"indexed": true,
							"internalType": "address",
							"name": "newOwner",
							"type": "address"
						}
					],
					"name": "OwnershipTransferred",
					"type": "event"
				},
				{
					"anonymous": false,
					"inputs": [
						{
							"indexed": false,
							"internalType": "uint256",
							"name": "reward",
							"type": "uint256"
						}
					],
					"name": "RewardAdded",
					"type": "event"
				},
				{
					"anonymous": false,
					"inputs": [
						{
							"indexed": true,
							"internalType": "address",
							"name": "user",
							"type": "address"
						},
						{
							"indexed": false,
							"internalType": "uint256",
							"name": "reward",
							"type": "uint256"
						}
					],
					"name": "RewardPaid",
					"type": "event"
				},
				{
					"anonymous": false,
					"inputs": [
						{
							"indexed": true,
							"internalType": "address",
							"name": "user",
							"type": "address"
						},
						{
							"indexed": false,
							"internalType": "uint256",
							"name": "amount",
							"type": "uint256"
						}
					],
					"name": "Staked",
					"type": "event"
				},
				{
					"anonymous": false,
					"inputs": [
						{
							"indexed": true,
							"internalType": "address",
							"name": "user",
							"type": "address"
						},
						{
							"indexed": false,
							"internalType": "uint256",
							"name": "amount",
							"type": "uint256"
						}
					],
					"name": "Withdrawn",
					"type": "event"
				},
				{
					"inputs": [],
					"name": "DURATION",
					"outputs": [
						{
							"internalType": "uint256",
							"name": "",
							"type": "uint256"
						}
					],
					"stateMutability": "view",
					"type": "function"
				},
				{
					"inputs": [
						{
							"internalType": "address",
							"name": "account",
							"type": "address"
						}
					],
					"name": "balanceOf",
					"outputs": [
						{
							"internalType": "uint256",
							"name": "",
							"type": "uint256"
						}
					],
					"stateMutability": "view",
					"type": "function"
				},
				{
					"inputs": [
						{
							"internalType": "address",
							"name": "account",
							"type": "address"
						}
					],
					"name": "earned",
					"outputs": [
						{
							"internalType": "uint256",
							"name": "",
							"type": "uint256"
						}
					],
					"stateMutability": "view",
					"type": "function"
				},
				{
					"inputs": [],
					"name": "exit",
					"outputs": [],
					"stateMutability": "nonpayable",
					"type": "function"
				},
				{
					"inputs": [],
					"name": "getReward",
					"outputs": [],
					"stateMutability": "nonpayable",
					"type": "function"
				},
				{
					"inputs": [],
					"name": "lastTimeRewardApplicable",
					"outputs": [
						{
							"internalType": "uint256",
							"name": "",
							"type": "uint256"
						}
					],
					"stateMutability": "view",
					"type": "function"
				},
				{
					"inputs": [],
					"name": "lastUpdateTime",
					"outputs": [
						{
							"internalType": "uint256",
							"name": "",
							"type": "uint256"
						}
					],
					"stateMutability": "view",
					"type": "function"
				},
				{
					"inputs": [],
					"name": "lpt",
					"outputs": [
						{
							"internalType": "contract IERC20",
							"name": "",
							"type": "address"
						}
					],
					"stateMutability": "view",
					"type": "function"
				},
				{
					"inputs": [
						{
							"internalType": "uint256",
							"name": "reward",
							"type": "uint256"
						}
					],
					"name": "notifyRewardAmount",
					"outputs": [],
					"stateMutability": "nonpayable",
					"type": "function"
				},
				{
					"inputs": [],
					"name": "owner",
					"outputs": [
						{
							"internalType": "address",
							"name": "",
							"type": "address"
						}
					],
					"stateMutability": "view",
					"type": "function"
				},
				{
					"inputs": [],
					"name": "periodFinish",
					"outputs": [
						{
							"internalType": "uint256",
							"name": "",
							"type": "uint256"
						}
					],
					"stateMutability": "view",
					"type": "function"
				},
				{
					"inputs": [],
					"name": "renounceOwnership",
					"outputs": [],
					"stateMutability": "nonpayable",
					"type": "function"
				},
				{
					"inputs": [],
					"name": "rewardDistribution",
					"outputs": [
						{
							"internalType": "address",
							"name": "",
							"type": "address"
						}
					],
					"stateMutability": "view",
					"type": "function"
				},
				{
					"inputs": [],
					"name": "rewardPerToken",
					"outputs": [
						{
							"internalType": "uint256",
							"name": "",
							"type": "uint256"
						}
					],
					"stateMutability": "view",
					"type": "function"
				},
				{
					"inputs": [],
					"name": "rewardPerTokenStored",
					"outputs": [
						{
							"internalType": "uint256",
							"name": "",
							"type": "uint256"
						}
					],
					"stateMutability": "view",
					"type": "function"
				},
				{
					"inputs": [],
					"name": "rewardRate",
					"outputs": [
						{
							"internalType": "uint256",
							"name": "",
							"type": "uint256"
						}
					],
					"stateMutability": "view",
					"type": "function"
				},
				{
					"inputs": [
						{
							"internalType": "address",
							"name": "",
							"type": "address"
						}
					],
					"name": "rewards",
					"outputs": [
						{
							"internalType": "uint256",
							"name": "",
							"type": "uint256"
						}
					],
					"stateMutability": "view",
					"type": "function"
				},
				{
					"inputs": [
						{
							"internalType": "address",
							"name": "_rewardDistribution",
							"type": "address"
						}
					],
					"name": "setRewardDistribution",
					"outputs": [],
					"stateMutability": "nonpayable",
					"type": "function"
				},
				{
					"inputs": [
						{
							"internalType": "uint256",
							"name": "amount",
							"type": "uint256"
						}
					],
					"name": "stake",
					"outputs": [],
					"stateMutability": "nonpayable",
					"type": "function"
				},
				{
					"inputs": [],
					"name": "starttime",
					"outputs": [
						{
							"internalType": "uint256",
							"name": "",
							"type": "uint256"
						}
					],
					"stateMutability": "view",
					"type": "function"
				},
				{
					"inputs": [],
					"name": "token",
					"outputs": [
						{
							"internalType": "contract IERC20",
							"name": "",
							"type": "address"
						}
					],
					"stateMutability": "view",
					"type": "function"
				},
				{
					"inputs": [],
					"name": "totalSupply",
					"outputs": [
						{
							"internalType": "uint256",
							"name": "",
							"type": "uint256"
						}
					],
					"stateMutability": "view",
					"type": "function"
				},
				{
					"inputs": [
						{
							"internalType": "address",
							"name": "newOwner",
							"type": "address"
						}
					],
					"name": "transferOwnership",
					"outputs": [],
					"stateMutability": "nonpayable",
					"type": "function"
				},
				{
					"inputs": [
						{
							"internalType": "address",
							"name": "",
							"type": "address"
						}
					],
					"name": "userRewardPerTokenPaid",
					"outputs": [
						{
							"internalType": "uint256",
							"name": "",
							"type": "uint256"
						}
					],
					"stateMutability": "view",
					"type": "function"
				},
				{
					"inputs": [
						{
							"internalType": "uint256",
							"name": "amount",
							"type": "uint256"
						}
					],
					"name": "withdraw",
					"outputs": [],
					"stateMutability": "nonpayable",
					"type": "function"
				}
			],
			"devdoc": {
				"kind": "dev",
				"methods": {
					"balanceOf(address)": {
						"details": "返回账户余额",
						"params": {
							"account": "账户地址"
						},
						"returns": {
							"_0": "余额"
						}
					},
					"constructor": {
						"details": "构造函数",
						"params": {
							"lptoken_": "LPtoken地址",
							"starttime_": "开始时间",
							"token_": "token地址"
						}
					},
					"earned(address)": {
						"details": "用户已奖励的数量",
						"params": {
							"account": "用户地址"
						}
					},
					"exit()": {
						"details": "退出"
					},
					"getReward()": {
						"details": "获取奖励"
					},
					"lastTimeRewardApplicable()": {
						"details": "返回奖励的最后期限",
						"returns": {
							"_0": "最后期限"
						}
					},
					"notifyRewardAmount(uint256)": {
						"details": "通知奖励数量",
						"params": {
							"reward": "奖励数量"
						}
					},
					"owner()": {
						"details": "Returns the address of the current owner."
					},
					"renounceOwnership()": {
						"details": "Leaves the contract without owner. It will not be possible to call `onlyOwner` functions anymore. Can only be called by the current owner. NOTE: Renouncing ownership will leave the contract without an owner, thereby removing any functionality that is only available to the owner."
					},
					"rewardPerToken()": {
						"details": "每个质押Token的奖励",
						"returns": {
							"_0": "奖励数量"
						}
					},
					"stake(uint256)": {
						"details": "质押指定数量的token",
						"params": {
							"amount": "质押数量"
						}
					},
					"totalSupply()": {
						"details": "返回总量",
						"returns": {
							"_0": "总量"
						}
					},
					"transferOwnership(address)": {
						"details": "Transfers ownership of the contract to a new account (`newOwner`). Can only be called by the current owner."
					},
					"withdraw(uint256)": {
						"details": "提款指定数额的质押token",
						"params": {
							"amount": "质押数量"
						}
					}
				},
				"title": "LP Token矿池合约",
				"version": 1
			},
			"evm": {
				"assembly": "    /* \"contracts/REC20Stacking.sol\":23454:30487  contract LPTokenPool is LPTokenWrapper, IRewardDistributionRecipient {... */\n  mstore(0x40, 0x80)\n    /* \"contracts/REC20Stacking.sol\":23682:23690  180 days */\n  0xed4e00\n    /* \"contracts/REC20Stacking.sol\":23656:23690  uint256 public DURATION = 180 days */\n  0x06\n  sstore\n    /* \"contracts/REC20Stacking.sol\":23831:23832  0 */\n  0x00\n    /* \"contracts/REC20Stacking.sol\":23801:23832  uint256 public periodFinish = 0 */\n  0x08\n  sstore\n    /* \"contracts/REC20Stacking.sol\":23901:23902  0 */\n  0x00\n    /* \"contracts/REC20Stacking.sol\":23873:23902  uint256 public rewardRate = 0 */\n  0x09\n  sstore\n    /* \"contracts/REC20Stacking.sol\":24632:24808  constructor(address token_, address lptoken_, uint256 starttime_) public {... */\n  callvalue\n  dup1\n  iszero\n  tag_1\n  jumpi\n  0x00\n  dup1\n  revert\ntag_1:\n  pop\n  mload(0x40)\n  sub(codesize, bytecodeSize)\n  dup1\n  bytecodeSize\n  dup4\n  codecopy\n  dup2\n  dup2\n  add\n  0x40\n  mstore\n  dup2\n  add\n  swap1\n  tag_2\n  swap2\n  swap1\n  tag_3\n  jump\t// in\ntag_2:\n    /* \"contracts/REC20Stacking.sol\":14342:14359  address msgSender */\n  0x00\n    /* \"contracts/REC20Stacking.sol\":14362:14374  _msgSender() */\n  tag_7\n    /* \"contracts/REC20Stacking.sol\":14362:14372  _msgSender */\n  shl(0x20, tag_8)\n    /* \"contracts/REC20Stacking.sol\":14362:14374  _msgSender() */\n  0x20\n  shr\n  jump\t// in\ntag_7:\n    /* \"contracts/REC20Stacking.sol\":14342:14374  address msgSender = _msgSender() */\n  swap1\n  pop\n    /* \"contracts/REC20Stacking.sol\":14393:14402  msgSender */\n  dup1\n    /* \"contracts/REC20Stacking.sol\":14384:14390  _owner */\n  0x03\n  0x00\n    /* \"contracts/REC20Stacking.sol\":14384:14402  _owner = msgSender */\n  0x0100\n  exp\n  dup2\n  sload\n  dup2\n  0xffffffffffffffffffffffffffffffffffffffff\n  mul\n  not\n  and\n  swap1\n  dup4\n  0xffffffffffffffffffffffffffffffffffffffff\n  and\n  mul\n  or\n  swap1\n  sstore\n  pop\n    /* \"contracts/REC20Stacking.sol\":14450:14459  msgSender */\n  dup1\n    /* \"contracts/REC20Stacking.sol\":14417:14460  OwnershipTransferred(address(0), msgSender) */\n  0xffffffffffffffffffffffffffffffffffffffff\n  and\n    /* \"contracts/REC20Stacking.sol\":14446:14447  0 */\n  0x00\n    /* \"contracts/REC20Stacking.sol\":14417:14460  OwnershipTransferred(address(0), msgSender) */\n  0xffffffffffffffffffffffffffffffffffffffff\n  and\n  0x8be0079c531659141344cd1fd0a4f28419497f9722a3daafe3b4186f6b6457e0\n  mload(0x40)\n  mload(0x40)\n  dup1\n  swap2\n  sub\n  swap1\n  log3\n    /* \"contracts/REC20Stacking.sol\":14332:14467  {... */\n  pop\n    /* \"contracts/REC20Stacking.sol\":24730:24736  token_ */\n  dup3\n    /* \"contracts/REC20Stacking.sol\":24715:24720  token */\n  0x05\n  0x00\n    /* \"contracts/REC20Stacking.sol\":24715:24737  token = IERC20(token_) */\n  0x0100\n  exp\n  dup2\n  sload\n  dup2\n  0xffffffffffffffffffffffffffffffffffffffff\n  mul\n  not\n  and\n  swap1\n  dup4\n  0xffffffffffffffffffffffffffffffffffffffff\n  and\n  mul\n  or\n  swap1\n  sstore\n  pop\n    /* \"contracts/REC20Stacking.sol\":24760:24768  lptoken_ */\n  dup2\n    /* \"contracts/REC20Stacking.sol\":24747:24750  lpt */\n  0x00\n  dup1\n    /* \"contracts/REC20Stacking.sol\":24747:24769  lpt = IERC20(lptoken_) */\n  0x0100\n  exp\n  dup2\n  sload\n  dup2\n  0xffffffffffffffffffffffffffffffffffffffff\n  mul\n  not\n  and\n  swap1\n  dup4\n  0xffffffffffffffffffffffffffffffffffffffff\n  and\n  mul\n  or\n  swap1\n  sstore\n  pop\n    /* \"contracts/REC20Stacking.sol\":24791:24801  starttime_ */\n  dup1\n    /* \"contracts/REC20Stacking.sol\":24779:24788  starttime */\n  0x07\n    /* \"contracts/REC20Stacking.sol\":24779:24801  starttime = starttime_ */\n  dup2\n  swap1\n  sstore\n  pop\n    /* \"contracts/REC20Stacking.sol\":24632:24808  constructor(address token_, address lptoken_, uint256 starttime_) public {... */\n  pop\n  pop\n  pop\n    /* \"contracts/REC20Stacking.sol\":23454:30487  contract LPTokenPool is LPTokenWrapper, IRewardDistributionRecipient {... */\n  jump(tag_10)\n    /* \"contracts/REC20Stacking.sol\":13731:13827  function _msgSender() internal view virtual returns (address) {... */\ntag_8:\n    /* \"contracts/REC20Stacking.sol\":13784:13791  address */\n  0x00\n    /* \"contracts/REC20Stacking.sol\":13810:13820  msg.sender */\n  caller\n    /* \"contracts/REC20Stacking.sol\":13803:13820  return msg.sender */\n  swap1\n  pop\n    /* \"contracts/REC20Stacking.sol\":13731:13827  function _msgSender() internal view virtual returns (address) {... */\n  swap1\n  jump\t// out\n    /* \"#utility.yul\":88:205   */\ntag_13:\n    /* \"#utility.yul\":197:198   */\n  0x00\n    /* \"#utility.yul\":194:195   */\n  dup1\n    /* \"#utility.yul\":187:199   */\n  revert\n    /* \"#utility.yul\":334:460   */\ntag_15:\n    /* \"#utility.yul\":371:378   */\n  0x00\n    /* \"#utility.yul\":411:453   */\n  0xffffffffffffffffffffffffffffffffffffffff\n    /* \"#utility.yul\":404:409   */\n  dup3\n    /* \"#utility.yul\":400:454   */\n  and\n    /* \"#utility.yul\":389:454   */\n  swap1\n  pop\n    /* \"#utility.yul\":334:460   */\n  swap2\n  swap1\n  pop\n  jump\t// out\n    /* \"#utility.yul\":466:562   */\ntag_16:\n    /* \"#utility.yul\":503:510   */\n  0x00\n    /* \"#utility.yul\":532:556   */\n  tag_28\n    /* \"#utility.yul\":550:555   */\n  dup3\n    /* \"#utility.yul\":532:556   */\n  tag_15\n  jump\t// in\ntag_28:\n    /* \"#utility.yul\":521:556   */\n  swap1\n  pop\n    /* \"#utility.yul\":466:562   */\n  swap2\n  swap1\n  pop\n  jump\t// out\n    /* \"#utility.yul\":568:690   */\ntag_17:\n    /* \"#utility.yul\":641:665   */\n  tag_30\n    /* \"#utility.yul\":659:664   */\n  dup2\n    /* \"#utility.yul\":641:665   */\n  tag_16\n  jump\t// in\ntag_30:\n    /* \"#utility.yul\":634:639   */\n  dup2\n    /* \"#utility.yul\":631:666   */\n  eq\n    /* \"#utility.yul\":621:684   */\n  tag_31\n  jumpi\n    /* \"#utility.yul\":680:681   */\n  0x00\n    /* \"#utility.yul\":677:678   */\n  dup1\n    /* \"#utility.yul\":670:682   */\n  revert\n    /* \"#utility.yul\":621:684   */\ntag_31:\n    /* \"#utility.yul\":568:690   */\n  pop\n  jump\t// out\n    /* \"#utility.yul\":696:839   */\ntag_18:\n    /* \"#utility.yul\":753:758   */\n  0x00\n    /* \"#utility.yul\":784:790   */\n  dup2\n    /* \"#utility.yul\":778:791   */\n  mload\n    /* \"#utility.yul\":769:791   */\n  swap1\n  pop\n    /* \"#utility.yul\":800:833   */\n  tag_33\n    /* \"#utility.yul\":827:832   */\n  dup2\n    /* \"#utility.yul\":800:833   */\n  tag_17\n  jump\t// in\ntag_33:\n    /* \"#utility.yul\":696:839   */\n  swap3\n  swap2\n  pop\n  pop\n  jump\t// out\n    /* \"#utility.yul\":845:922   */\ntag_19:\n    /* \"#utility.yul\":882:889   */\n  0x00\n    /* \"#utility.yul\":911:916   */\n  dup2\n    /* \"#utility.yul\":900:916   */\n  swap1\n  pop\n    /* \"#utility.yul\":845:922   */\n  swap2\n  swap1\n  pop\n  jump\t// out\n    /* \"#utility.yul\":928:1050   */\ntag_20:\n    /* \"#utility.yul\":1001:1025   */\n  tag_36\n    /* \"#utility.yul\":1019:1024   */\n  dup2\n    /* \"#utility.yul\":1001:1025   */\n  tag_19\n  jump\t// in\ntag_36:\n    /* \"#utility.yul\":994:999   */\n  dup2\n    /* \"#utility.yul\":991:1026   */\n  eq\n    /* \"#utility.yul\":981:1044   */\n  tag_37\n  jumpi\n    /* \"#utility.yul\":1040:1041   */\n  0x00\n    /* \"#utility.yul\":1037:1038   */\n  dup1\n    /* \"#utility.yul\":1030:1042   */\n  revert\n    /* \"#utility.yul\":981:1044   */\ntag_37:\n    /* \"#utility.yul\":928:1050   */\n  pop\n  jump\t// out\n    /* \"#utility.yul\":1056:1199   */\ntag_21:\n    /* \"#utility.yul\":1113:1118   */\n  0x00\n    /* \"#utility.yul\":1144:1150   */\n  dup2\n    /* \"#utility.yul\":1138:1151   */\n  mload\n    /* \"#utility.yul\":1129:1151   */\n  swap1\n  pop\n    /* \"#utility.yul\":1160:1193   */\n  tag_39\n    /* \"#utility.yul\":1187:1192   */\n  dup2\n    /* \"#utility.yul\":1160:1193   */\n  tag_20\n  jump\t// in\ntag_39:\n    /* \"#utility.yul\":1056:1199   */\n  swap3\n  swap2\n  pop\n  pop\n  jump\t// out\n    /* \"#utility.yul\":1205:1868   */\ntag_3:\n    /* \"#utility.yul\":1293:1299   */\n  0x00\n    /* \"#utility.yul\":1301:1307   */\n  dup1\n    /* \"#utility.yul\":1309:1315   */\n  0x00\n    /* \"#utility.yul\":1358:1360   */\n  0x60\n    /* \"#utility.yul\":1346:1355   */\n  dup5\n    /* \"#utility.yul\":1337:1344   */\n  dup7\n    /* \"#utility.yul\":1333:1356   */\n  sub\n    /* \"#utility.yul\":1329:1361   */\n  slt\n    /* \"#utility.yul\":1326:1445   */\n  iszero\n  tag_41\n  jumpi\n    /* \"#utility.yul\":1364:1443   */\n  tag_42\n  tag_13\n  jump\t// in\ntag_42:\n    /* \"#utility.yul\":1326:1445   */\ntag_41:\n    /* \"#utility.yul\":1484:1485   */\n  0x00\n    /* \"#utility.yul\":1509:1573   */\n  tag_43\n    /* \"#utility.yul\":1565:1572   */\n  dup7\n    /* \"#utility.yul\":1556:1562   */\n  dup3\n    /* \"#utility.yul\":1545:1554   */\n  dup8\n    /* \"#utility.yul\":1541:1563   */\n  add\n    /* \"#utility.yul\":1509:1573   */\n  tag_18\n  jump\t// in\ntag_43:\n    /* \"#utility.yul\":1499:1573   */\n  swap4\n  pop\n    /* \"#utility.yul\":1455:1583   */\n  pop\n    /* \"#utility.yul\":1622:1624   */\n  0x20\n    /* \"#utility.yul\":1648:1712   */\n  tag_44\n    /* \"#utility.yul\":1704:1711   */\n  dup7\n    /* \"#utility.yul\":1695:1701   */\n  dup3\n    /* \"#utility.yul\":1684:1693   */\n  dup8\n    /* \"#utility.yul\":1680:1702   */\n  add\n    /* \"#utility.yul\":1648:1712   */\n  tag_18\n  jump\t// in\ntag_44:\n    /* \"#utility.yul\":1638:1712   */\n  swap3\n  pop\n    /* \"#utility.yul\":1593:1722   */\n  pop\n    /* \"#utility.yul\":1761:1763   */\n  0x40\n    /* \"#utility.yul\":1787:1851   */\n  tag_45\n    /* \"#utility.yul\":1843:1850   */\n  dup7\n    /* \"#utility.yul\":1834:1840   */\n  dup3\n    /* \"#utility.yul\":1823:1832   */\n  dup8\n    /* \"#utility.yul\":1819:1841   */\n  add\n    /* \"#utility.yul\":1787:1851   */\n  tag_21\n  jump\t// in\ntag_45:\n    /* \"#utility.yul\":1777:1851   */\n  swap2\n  pop\n    /* \"#utility.yul\":1732:1861   */\n  pop\n    /* \"#utility.yul\":1205:1868   */\n  swap3\n  pop\n  swap3\n  pop\n  swap3\n  jump\t// out\n    /* \"contracts/REC20Stacking.sol\":23454:30487  contract LPTokenPool is LPTokenWrapper, IRewardDistributionRecipient {... */\ntag_10:\n  dataSize(sub_0)\n  dup1\n  dataOffset(sub_0)\n  0x00\n  codecopy\n  0x00\n  return\nstop\n\nsub_0: assembly {\n        /* \"contracts/REC20Stacking.sol\":23454:30487  contract LPTokenPool is LPTokenWrapper, IRewardDistributionRecipient {... */\n      mstore(0x40, 0x80)\n      callvalue\n      dup1\n      iszero\n      tag_1\n      jumpi\n      0x00\n      dup1\n      revert\n    tag_1:\n      pop\n      jumpi(tag_2, lt(calldatasize, 0x04))\n      shr(0xe0, calldataload(0x00))\n      dup1\n      0x80faa57d\n      gt\n      tag_28\n      jumpi\n      dup1\n      0xcd3daf9d\n      gt\n      tag_29\n      jumpi\n      dup1\n      0xe9fad8ee\n      gt\n      tag_30\n      jumpi\n      dup1\n      0xe9fad8ee\n      eq\n      tag_24\n      jumpi\n      dup1\n      0xebe2b12b\n      eq\n      tag_25\n      jumpi\n      dup1\n      0xf2fde38b\n      eq\n      tag_26\n      jumpi\n      dup1\n      0xfc0c546a\n      eq\n      tag_27\n      jumpi\n      jump(tag_2)\n    tag_30:\n      dup1\n      0xcd3daf9d\n      eq\n      tag_21\n      jumpi\n      dup1\n      0xce5fc8d0\n      eq\n      tag_22\n      jumpi\n      dup1\n      0xdf136d65\n      eq\n      tag_23\n      jumpi\n      jump(tag_2)\n    tag_29:\n      dup1\n      0x80faa57d\n      eq\n      tag_15\n      jumpi\n      dup1\n      0x8b876347\n      eq\n      tag_16\n      jumpi\n      dup1\n      0x8da58897\n      eq\n      tag_17\n      jumpi\n      dup1\n      0x8da5cb5b\n      eq\n      tag_18\n      jumpi\n      dup1\n      0xa694fc3a\n      eq\n      tag_19\n      jumpi\n      dup1\n      0xc8f33c91\n      eq\n      tag_20\n      jumpi\n      jump(tag_2)\n    tag_28:\n      dup1\n      0x2e1a7d4d\n      gt\n      tag_31\n      jumpi\n      dup1\n      0x2e1a7d4d\n      eq\n      tag_9\n      jumpi\n      dup1\n      0x3c6b16ab\n      eq\n      tag_10\n      jumpi\n      dup1\n      0x3d18b912\n      eq\n      tag_11\n      jumpi\n      dup1\n      0x70a08231\n      eq\n      tag_12\n      jumpi\n      dup1\n      0x715018a6\n      eq\n      tag_13\n      jumpi\n      dup1\n      0x7b0a47ee\n      eq\n      tag_14\n      jumpi\n      jump(tag_2)\n    tag_31:\n      dup1\n      0x8cc262\n      eq\n      tag_3\n      jumpi\n      dup1\n      0x0700037d\n      eq\n      tag_4\n      jumpi\n      dup1\n      0x0d68b761\n      eq\n      tag_5\n      jumpi\n      dup1\n      0x101114cf\n      eq\n      tag_6\n      jumpi\n      dup1\n      0x18160ddd\n      eq\n      tag_7\n      jumpi\n      dup1\n      0x1be05289\n      eq\n      tag_8\n      jumpi\n    tag_2:\n      0x00\n      dup1\n      revert\n        /* \"contracts/REC20Stacking.sol\":26742:27146  function earned(address account) public view returns (uint256) {... */\n    tag_3:\n      tag_32\n      0x04\n      dup1\n      calldatasize\n      sub\n      dup2\n      add\n      swap1\n      tag_33\n      swap2\n      swap1\n      tag_34\n      jump\t// in\n    tag_33:\n      tag_35\n      jump\t// in\n    tag_32:\n      mload(0x40)\n      tag_36\n      swap2\n      swap1\n      tag_37\n      jump\t// in\n    tag_36:\n      mload(0x40)\n      dup1\n      swap2\n      sub\n      swap1\n      return\n        /* \"contracts/REC20Stacking.sol\":24219:24261  mapping(address => uint256) public rewards */\n    tag_4:\n      tag_38\n      0x04\n      dup1\n      calldatasize\n      sub\n      dup2\n      add\n      swap1\n      tag_39\n      swap2\n      swap1\n      tag_34\n      jump\t// in\n    tag_39:\n      tag_40\n      jump\t// in\n    tag_38:\n      mload(0x40)\n      tag_41\n      swap2\n      swap1\n      tag_37\n      jump\t// in\n    tag_41:\n      mload(0x40)\n      dup1\n      swap2\n      sub\n      swap1\n      return\n        /* \"contracts/REC20Stacking.sol\":20980:21152  function setRewardDistribution(address _rewardDistribution)... */\n    tag_5:\n      tag_42\n      0x04\n      dup1\n      calldatasize\n      sub\n      dup2\n      add\n      swap1\n      tag_43\n      swap2\n      swap1\n      tag_34\n      jump\t// in\n    tag_43:\n      tag_44\n      jump\t// in\n    tag_42:\n      stop\n        /* \"contracts/REC20Stacking.sol\":20691:20724  address public rewardDistribution */\n    tag_6:\n      tag_45\n      tag_46\n      jump\t// in\n    tag_45:\n      mload(0x40)\n      tag_47\n      swap2\n      swap1\n      tag_48\n      jump\t// in\n    tag_47:\n      mload(0x40)\n      dup1\n      swap2\n      sub\n      swap1\n      return\n        /* \"contracts/REC20Stacking.sol\":19205:19294  function totalSupply() public view returns (uint256) {... */\n    tag_7:\n      tag_49\n      tag_50\n      jump\t// in\n    tag_49:\n      mload(0x40)\n      tag_51\n      swap2\n      swap1\n      tag_37\n      jump\t// in\n    tag_51:\n      mload(0x40)\n      dup1\n      swap2\n      sub\n      swap1\n      return\n        /* \"contracts/REC20Stacking.sol\":23656:23690  uint256 public DURATION = 180 days */\n    tag_8:\n      tag_52\n      tag_53\n      jump\t// in\n    tag_52:\n      mload(0x40)\n      tag_54\n      swap2\n      swap1\n      tag_37\n      jump\t// in\n    tag_54:\n      mload(0x40)\n      dup1\n      swap2\n      sub\n      swap1\n      return\n        /* \"contracts/REC20Stacking.sol\":27750:28088  function withdraw(... */\n    tag_9:\n      tag_55\n      0x04\n      dup1\n      calldatasize\n      sub\n      dup2\n      add\n      swap1\n      tag_56\n      swap2\n      swap1\n      tag_57\n      jump\t// in\n    tag_56:\n      tag_58\n      jump\t// in\n    tag_55:\n      stop\n        /* \"contracts/REC20Stacking.sol\":28917:30485  function notifyRewardAmount(... */\n    tag_10:\n      tag_59\n      0x04\n      dup1\n      calldatasize\n      sub\n      dup2\n      add\n      swap1\n      tag_60\n      swap2\n      swap1\n      tag_57\n      jump\t// in\n    tag_60:\n      tag_61\n      jump\t// in\n    tag_59:\n      stop\n        /* \"contracts/REC20Stacking.sol\":28339:28830  function getReward() public updateReward(msg.sender) checkStart {... */\n    tag_11:\n      tag_62\n      tag_63\n      jump\t// in\n    tag_62:\n      stop\n        /* \"contracts/REC20Stacking.sol\":19404:19512  function balanceOf(address account) public view returns (uint256) {... */\n    tag_12:\n      tag_64\n      0x04\n      dup1\n      calldatasize\n      sub\n      dup2\n      add\n      swap1\n      tag_65\n      swap2\n      swap1\n      tag_34\n      jump\t// in\n    tag_65:\n      tag_66\n      jump\t// in\n    tag_64:\n      mload(0x40)\n      tag_67\n      swap2\n      swap1\n      tag_37\n      jump\t// in\n    tag_67:\n      mload(0x40)\n      dup1\n      swap2\n      sub\n      swap1\n      return\n        /* \"contracts/REC20Stacking.sol\":15166:15311  function renounceOwnership() public virtual onlyOwner {... */\n    tag_13:\n      tag_68\n      tag_69\n      jump\t// in\n    tag_68:\n      stop\n        /* \"contracts/REC20Stacking.sol\":23873:23902  uint256 public rewardRate = 0 */\n    tag_14:\n      tag_70\n      tag_71\n      jump\t// in\n    tag_70:\n      mload(0x40)\n      tag_72\n      swap2\n      swap1\n      tag_37\n      jump\t// in\n    tag_72:\n      mload(0x40)\n      dup1\n      swap2\n      sub\n      swap1\n      return\n        /* \"contracts/REC20Stacking.sol\":25835:26012  function lastTimeRewardApplicable() public view returns (uint256) {... */\n    tag_15:\n      tag_73\n      tag_74\n      jump\t// in\n    tag_73:\n      mload(0x40)\n      tag_75\n      swap2\n      swap1\n      tag_37\n      jump\t// in\n    tag_75:\n      mload(0x40)\n      dup1\n      swap2\n      sub\n      swap1\n      return\n        /* \"contracts/REC20Stacking.sol\":24109:24166  mapping(address => uint256) public userRewardPerTokenPaid */\n    tag_16:\n      tag_76\n      0x04\n      dup1\n      calldatasize\n      sub\n      dup2\n      add\n      swap1\n      tag_77\n      swap2\n      swap1\n      tag_34\n      jump\t// in\n    tag_77:\n      tag_78\n      jump\t// in\n    tag_76:\n      mload(0x40)\n      tag_79\n      swap2\n      swap1\n      tag_37\n      jump\t// in\n    tag_79:\n      mload(0x40)\n      dup1\n      swap2\n      sub\n      swap1\n      return\n        /* \"contracts/REC20Stacking.sol\":23725:23749  uint256 public starttime */\n    tag_17:\n      tag_80\n      tag_81\n      jump\t// in\n    tag_80:\n      mload(0x40)\n      tag_82\n      swap2\n      swap1\n      tag_37\n      jump\t// in\n    tag_82:\n      mload(0x40)\n      dup1\n      swap2\n      sub\n      swap1\n      return\n        /* \"contracts/REC20Stacking.sol\":14543:14620  function owner() public view returns (address) {... */\n    tag_18:\n      tag_83\n      tag_84\n      jump\t// in\n    tag_83:\n      mload(0x40)\n      tag_85\n      swap2\n      swap1\n      tag_48\n      jump\t// in\n    tag_85:\n      mload(0x40)\n      dup1\n      swap2\n      sub\n      swap1\n      return\n        /* \"contracts/REC20Stacking.sol\":27323:27649  function stake(... */\n    tag_19:\n      tag_86\n      0x04\n      dup1\n      calldatasize\n      sub\n      dup2\n      add\n      swap1\n      tag_87\n      swap2\n      swap1\n      tag_57\n      jump\t// in\n    tag_87:\n      tag_88\n      jump\t// in\n    tag_86:\n      stop\n        /* \"contracts/REC20Stacking.sol\":23943:23972  uint256 public lastUpdateTime */\n    tag_20:\n      tag_89\n      tag_90\n      jump\t// in\n    tag_89:\n      mload(0x40)\n      tag_91\n      swap2\n      swap1\n      tag_37\n      jump\t// in\n    tag_91:\n      mload(0x40)\n      dup1\n      swap2\n      sub\n      swap1\n      return\n        /* \"contracts/REC20Stacking.sol\":26101:26648  function rewardPerToken() public view returns (uint256) {... */\n    tag_21:\n      tag_92\n      tag_93\n      jump\t// in\n    tag_92:\n      mload(0x40)\n      tag_94\n      swap2\n      swap1\n      tag_37\n      jump\t// in\n    tag_94:\n      mload(0x40)\n      dup1\n      swap2\n      sub\n      swap1\n      return\n        /* \"contracts/REC20Stacking.sol\":18980:18997  IERC20 public lpt */\n    tag_22:\n      tag_95\n      tag_96\n      jump\t// in\n    tag_95:\n      mload(0x40)\n      tag_97\n      swap2\n      swap1\n      tag_98\n      jump\t// in\n    tag_97:\n      mload(0x40)\n      dup1\n      swap2\n      sub\n      swap1\n      return\n        /* \"contracts/REC20Stacking.sol\":24013:24048  uint256 public rewardPerTokenStored */\n    tag_23:\n      tag_99\n      tag_100\n      jump\t// in\n    tag_99:\n      mload(0x40)\n      tag_101\n      swap2\n      swap1\n      tag_37\n      jump\t// in\n    tag_101:\n      mload(0x40)\n      dup1\n      swap2\n      sub\n      swap1\n      return\n        /* \"contracts/REC20Stacking.sol\":28129:28292  function exit() external {... */\n    tag_24:\n      tag_102\n      tag_103\n      jump\t// in\n    tag_102:\n      stop\n        /* \"contracts/REC20Stacking.sol\":23801:23832  uint256 public periodFinish = 0 */\n    tag_25:\n      tag_104\n      tag_105\n      jump\t// in\n    tag_104:\n      mload(0x40)\n      tag_106\n      swap2\n      swap1\n      tag_37\n      jump\t// in\n    tag_106:\n      mload(0x40)\n      dup1\n      swap2\n      sub\n      swap1\n      return\n        /* \"contracts/REC20Stacking.sol\":15460:15700  function transferOwnership(address newOwner) public virtual onlyOwner {... */\n    tag_26:\n      tag_107\n      0x04\n      dup1\n      calldatasize\n      sub\n      dup2\n      add\n      swap1\n      tag_108\n      swap2\n      swap1\n      tag_34\n      jump\t// in\n    tag_108:\n      tag_109\n      jump\t// in\n    tag_107:\n      stop\n        /* \"contracts/REC20Stacking.sol\":23593:23612  IERC20 public token */\n    tag_27:\n      tag_110\n      tag_111\n      jump\t// in\n    tag_110:\n      mload(0x40)\n      tag_112\n      swap2\n      swap1\n      tag_98\n      jump\t// in\n    tag_112:\n      mload(0x40)\n      dup1\n      swap2\n      sub\n      swap1\n      return\n        /* \"contracts/REC20Stacking.sol\":26742:27146  function earned(address account) public view returns (uint256) {... */\n    tag_35:\n        /* \"contracts/REC20Stacking.sol\":26796:26803  uint256 */\n      0x00\n        /* \"contracts/REC20Stacking.sol\":26979:27139  balanceOf(account)... */\n      tag_114\n        /* \"contracts/REC20Stacking.sol\":27122:27129  rewards */\n      0x0d\n        /* \"contracts/REC20Stacking.sol\":27122:27138  rewards[account] */\n      0x00\n        /* \"contracts/REC20Stacking.sol\":27130:27137  account */\n      dup5\n        /* \"contracts/REC20Stacking.sol\":27122:27138  rewards[account] */\n      0xffffffffffffffffffffffffffffffffffffffff\n      and\n      0xffffffffffffffffffffffffffffffffffffffff\n      and\n      dup2\n      mstore\n      0x20\n      add\n      swap1\n      dup2\n      mstore\n      0x20\n      add\n      0x00\n      keccak256\n      sload\n        /* \"contracts/REC20Stacking.sol\":26979:27100  balanceOf(account)... */\n      tag_115\n        /* \"contracts/REC20Stacking.sol\":27095:27099  1e18 */\n      0x0de0b6b3a7640000\n        /* \"contracts/REC20Stacking.sol\":26979:27073  balanceOf(account)... */\n      tag_116\n        /* \"contracts/REC20Stacking.sol\":27019:27072  rewardPerToken().sub(userRewardPerTokenPaid[account]) */\n      tag_117\n        /* \"contracts/REC20Stacking.sol\":27040:27062  userRewardPerTokenPaid */\n      0x0c\n        /* \"contracts/REC20Stacking.sol\":27040:27071  userRewardPerTokenPaid[account] */\n      0x00\n        /* \"contracts/REC20Stacking.sol\":27063:27070  account */\n      dup10\n        /* \"contracts/REC20Stacking.sol\":27040:27071  userRewardPerTokenPaid[account] */\n      0xffffffffffffffffffffffffffffffffffffffff\n      and\n      0xffffffffffffffffffffffffffffffffffffffff\n      and\n      dup2\n      mstore\n      0x20\n      add\n      swap1\n      dup2\n      mstore\n      0x20\n      add\n      0x00\n      keccak256\n      sload\n        /* \"contracts/REC20Stacking.sol\":27019:27035  rewardPerToken() */\n      tag_118\n        /* \"contracts/REC20Stacking.sol\":27019:27033  rewardPerToken */\n      tag_93\n        /* \"contracts/REC20Stacking.sol\":27019:27035  rewardPerToken() */\n      jump\t// in\n    tag_118:\n        /* \"contracts/REC20Stacking.sol\":27019:27039  rewardPerToken().sub */\n      tag_119\n      swap1\n        /* \"contracts/REC20Stacking.sol\":27019:27072  rewardPerToken().sub(userRewardPerTokenPaid[account]) */\n      swap2\n      swap1\n      0xffffffff\n      and\n      jump\t// in\n    tag_117:\n        /* \"contracts/REC20Stacking.sol\":26979:26997  balanceOf(account) */\n      tag_120\n        /* \"contracts/REC20Stacking.sol\":26989:26996  account */\n      dup9\n        /* \"contracts/REC20Stacking.sol\":26979:26988  balanceOf */\n      tag_66\n        /* \"contracts/REC20Stacking.sol\":26979:26997  balanceOf(account) */\n      jump\t// in\n    tag_120:\n        /* \"contracts/REC20Stacking.sol\":26979:27018  balanceOf(account)... */\n      tag_121\n      swap1\n        /* \"contracts/REC20Stacking.sol\":26979:27073  balanceOf(account)... */\n      swap2\n      swap1\n      0xffffffff\n      and\n      jump\t// in\n    tag_116:\n        /* \"contracts/REC20Stacking.sol\":26979:27094  balanceOf(account)... */\n      tag_122\n      swap1\n        /* \"contracts/REC20Stacking.sol\":26979:27100  balanceOf(account)... */\n      swap2\n      swap1\n      0xffffffff\n      and\n      jump\t// in\n    tag_115:\n        /* \"contracts/REC20Stacking.sol\":26979:27121  balanceOf(account)... */\n      tag_123\n      swap1\n        /* \"contracts/REC20Stacking.sol\":26979:27139  balanceOf(account)... */\n      swap2\n      swap1\n      0xffffffff\n      and\n      jump\t// in\n    tag_114:\n        /* \"contracts/REC20Stacking.sol\":26960:27139  return... */\n      swap1\n      pop\n        /* \"contracts/REC20Stacking.sol\":26742:27146  function earned(address account) public view returns (uint256) {... */\n      swap2\n      swap1\n      pop\n      jump\t// out\n        /* \"contracts/REC20Stacking.sol\":24219:24261  mapping(address => uint256) public rewards */\n    tag_40:\n      mstore(0x20, 0x0d)\n      dup1\n      0x00\n      mstore\n      keccak256(0x00, 0x40)\n      0x00\n      swap2\n      pop\n      swap1\n      pop\n      sload\n      dup2\n      jump\t// out\n        /* \"contracts/REC20Stacking.sol\":20980:21152  function setRewardDistribution(address _rewardDistribution)... */\n    tag_44:\n        /* \"contracts/REC20Stacking.sol\":14757:14769  _msgSender() */\n      tag_125\n        /* \"contracts/REC20Stacking.sol\":14757:14767  _msgSender */\n      tag_126\n        /* \"contracts/REC20Stacking.sol\":14757:14769  _msgSender() */\n      jump\t// in\n    tag_125:\n        /* \"contracts/REC20Stacking.sol\":14747:14769  _owner == _msgSender() */\n      0xffffffffffffffffffffffffffffffffffffffff\n      and\n        /* \"contracts/REC20Stacking.sol\":14747:14753  _owner */\n      0x03\n      0x00\n      swap1\n      sload\n      swap1\n      0x0100\n      exp\n      swap1\n      div\n      0xffffffffffffffffffffffffffffffffffffffff\n      and\n        /* \"contracts/REC20Stacking.sol\":14747:14769  _owner == _msgSender() */\n      0xffffffffffffffffffffffffffffffffffffffff\n      and\n      eq\n        /* \"contracts/REC20Stacking.sol\":14739:14806  require(_owner == _msgSender(), \"Ownable: caller is not the owner\") */\n      tag_127\n      jumpi\n      mload(0x40)\n      0x08c379a000000000000000000000000000000000000000000000000000000000\n      dup2\n      mstore\n      0x04\n      add\n      tag_128\n      swap1\n      tag_129\n      jump\t// in\n    tag_128:\n      mload(0x40)\n      dup1\n      swap2\n      sub\n      swap1\n      revert\n    tag_127:\n        /* \"contracts/REC20Stacking.sol\":21126:21145  _rewardDistribution */\n      dup1\n        /* \"contracts/REC20Stacking.sol\":21105:21123  rewardDistribution */\n      0x04\n      0x00\n        /* \"contracts/REC20Stacking.sol\":21105:21145  rewardDistribution = _rewardDistribution */\n      0x0100\n      exp\n      dup2\n      sload\n      dup2\n      0xffffffffffffffffffffffffffffffffffffffff\n      mul\n      not\n      and\n      swap1\n      dup4\n      0xffffffffffffffffffffffffffffffffffffffff\n      and\n      mul\n      or\n      swap1\n      sstore\n      pop\n        /* \"contracts/REC20Stacking.sol\":20980:21152  function setRewardDistribution(address _rewardDistribution)... */\n      pop\n      jump\t// out\n        /* \"contracts/REC20Stacking.sol\":20691:20724  address public rewardDistribution */\n    tag_46:\n      0x04\n      0x00\n      swap1\n      sload\n      swap1\n      0x0100\n      exp\n      swap1\n      div\n      0xffffffffffffffffffffffffffffffffffffffff\n      and\n      dup2\n      jump\t// out\n        /* \"contracts/REC20Stacking.sol\":19205:19294  function totalSupply() public view returns (uint256) {... */\n    tag_50:\n        /* \"contracts/REC20Stacking.sol\":19249:19256  uint256 */\n      0x00\n        /* \"contracts/REC20Stacking.sol\":19275:19287  _totalSupply */\n      sload(0x01)\n        /* \"contracts/REC20Stacking.sol\":19268:19287  return _totalSupply */\n      swap1\n      pop\n        /* \"contracts/REC20Stacking.sol\":19205:19294  function totalSupply() public view returns (uint256) {... */\n      swap1\n      jump\t// out\n        /* \"contracts/REC20Stacking.sol\":23656:23690  uint256 public DURATION = 180 days */\n    tag_53:\n      sload(0x06)\n      dup2\n      jump\t// out\n        /* \"contracts/REC20Stacking.sol\":27750:28088  function withdraw(... */\n    tag_58:\n        /* \"contracts/REC20Stacking.sol\":27827:27837  msg.sender */\n      caller\n        /* \"contracts/REC20Stacking.sol\":25189:25205  rewardPerToken() */\n      tag_133\n        /* \"contracts/REC20Stacking.sol\":25189:25203  rewardPerToken */\n      tag_93\n        /* \"contracts/REC20Stacking.sol\":25189:25205  rewardPerToken() */\n      jump\t// in\n    tag_133:\n        /* \"contracts/REC20Stacking.sol\":25166:25186  rewardPerTokenStored */\n      0x0b\n        /* \"contracts/REC20Stacking.sol\":25166:25205  rewardPerTokenStored = rewardPerToken() */\n      dup2\n      swap1\n      sstore\n      pop\n        /* \"contracts/REC20Stacking.sol\":25295:25321  lastTimeRewardApplicable() */\n      tag_134\n        /* \"contracts/REC20Stacking.sol\":25295:25319  lastTimeRewardApplicable */\n      tag_74\n        /* \"contracts/REC20Stacking.sol\":25295:25321  lastTimeRewardApplicable() */\n      jump\t// in\n    tag_134:\n        /* \"contracts/REC20Stacking.sol\":25278:25292  lastUpdateTime */\n      0x0a\n        /* \"contracts/REC20Stacking.sol\":25278:25321  lastUpdateTime = lastTimeRewardApplicable() */\n      dup2\n      swap1\n      sstore\n      pop\n        /* \"contracts/REC20Stacking.sol\":25393:25394  0 */\n      0x00\n        /* \"contracts/REC20Stacking.sol\":25374:25395  account != address(0) */\n      0xffffffffffffffffffffffffffffffffffffffff\n      and\n        /* \"contracts/REC20Stacking.sol\":25374:25381  account */\n      dup2\n        /* \"contracts/REC20Stacking.sol\":25374:25395  account != address(0) */\n      0xffffffffffffffffffffffffffffffffffffffff\n      and\n      eq\n        /* \"contracts/REC20Stacking.sol\":25370:25663  if (account != address(0)) {... */\n      tag_135\n      jumpi\n        /* \"contracts/REC20Stacking.sol\":25497:25512  earned(account) */\n      tag_136\n        /* \"contracts/REC20Stacking.sol\":25504:25511  account */\n      dup2\n        /* \"contracts/REC20Stacking.sol\":25497:25503  earned */\n      tag_35\n        /* \"contracts/REC20Stacking.sol\":25497:25512  earned(account) */\n      jump\t// in\n    tag_136:\n        /* \"contracts/REC20Stacking.sol\":25478:25485  rewards */\n      0x0d\n        /* \"contracts/REC20Stacking.sol\":25478:25494  rewards[account] */\n      0x00\n        /* \"contracts/REC20Stacking.sol\":25486:25493  account */\n      dup4\n        /* \"contracts/REC20Stacking.sol\":25478:25494  rewards[account] */\n      0xffffffffffffffffffffffffffffffffffffffff\n      and\n      0xffffffffffffffffffffffffffffffffffffffff\n      and\n      dup2\n      mstore\n      0x20\n      add\n      swap1\n      dup2\n      mstore\n      0x20\n      add\n      0x00\n      keccak256\n        /* \"contracts/REC20Stacking.sol\":25478:25512  rewards[account] = earned(account) */\n      dup2\n      swap1\n      sstore\n      pop\n        /* \"contracts/REC20Stacking.sol\":25632:25652  rewardPerTokenStored */\n      sload(0x0b)\n        /* \"contracts/REC20Stacking.sol\":25598:25620  userRewardPerTokenPaid */\n      0x0c\n        /* \"contracts/REC20Stacking.sol\":25598:25629  userRewardPerTokenPaid[account] */\n      0x00\n        /* \"contracts/REC20Stacking.sol\":25621:25628  account */\n      dup4\n        /* \"contracts/REC20Stacking.sol\":25598:25629  userRewardPerTokenPaid[account] */\n      0xffffffffffffffffffffffffffffffffffffffff\n      and\n      0xffffffffffffffffffffffffffffffffffffffff\n      and\n      dup2\n      mstore\n      0x20\n      add\n      swap1\n      dup2\n      mstore\n      0x20\n      add\n      0x00\n      keccak256\n        /* \"contracts/REC20Stacking.sol\":25598:25652  userRewardPerTokenPaid[account] = rewardPerTokenStored */\n      dup2\n      swap1\n      sstore\n      pop\n        /* \"contracts/REC20Stacking.sol\":25370:25663  if (account != address(0)) {... */\n    tag_135:\n        /* \"contracts/REC20Stacking.sol\":24920:24929  starttime */\n      sload(0x07)\n        /* \"contracts/REC20Stacking.sol\":24901:24916  block.timestamp */\n      timestamp\n        /* \"contracts/REC20Stacking.sol\":24901:24929  block.timestamp >= starttime */\n      lt\n      iszero\n        /* \"contracts/REC20Stacking.sol\":24893:24961  require(block.timestamp >= starttime, 'LPTokenSharePool: not start') */\n      tag_138\n      jumpi\n      mload(0x40)\n      0x08c379a000000000000000000000000000000000000000000000000000000000\n      dup2\n      mstore\n      0x04\n      add\n      tag_139\n      swap1\n      tag_140\n      jump\t// in\n    tag_139:\n      mload(0x40)\n      dup1\n      swap2\n      sub\n      swap1\n      revert\n    tag_138:\n        /* \"contracts/REC20Stacking.sol\":27903:27904  0 */\n      0x00\n        /* \"contracts/REC20Stacking.sol\":27894:27900  amount */\n      dup3\n        /* \"contracts/REC20Stacking.sol\":27894:27904  amount > 0 */\n      gt\n        /* \"contracts/REC20Stacking.sol\":27886:27951  require(amount > 0, 'HUSDGOCLPTokenSharePool: Cannot withdraw 0') */\n      tag_142\n      jumpi\n      mload(0x40)\n      0x08c379a000000000000000000000000000000000000000000000000000000000\n      dup2\n      mstore\n      0x04\n      add\n      tag_143\n      swap1\n      tag_144\n      jump\t// in\n    tag_143:\n      mload(0x40)\n      dup1\n      swap2\n      sub\n      swap1\n      revert\n    tag_142:\n        /* \"contracts/REC20Stacking.sol\":27985:28007  super.withdraw(amount) */\n      tag_145\n        /* \"contracts/REC20Stacking.sol\":28000:28006  amount */\n      dup3\n        /* \"contracts/REC20Stacking.sol\":27985:27999  super.withdraw */\n      tag_146\n        /* \"contracts/REC20Stacking.sol\":27985:28007  super.withdraw(amount) */\n      jump\t// in\n    tag_145:\n        /* \"contracts/REC20Stacking.sol\":28062:28072  msg.sender */\n      caller\n        /* \"contracts/REC20Stacking.sol\":28052:28081  Withdrawn(msg.sender, amount) */\n      0xffffffffffffffffffffffffffffffffffffffff\n      and\n      0x7084f5476618d8e60b11ef0d7d3f06914655adb8793e28ff7f018d4c76d505d5\n        /* \"contracts/REC20Stacking.sol\":28074:28080  amount */\n      dup4\n        /* \"contracts/REC20Stacking.sol\":28052:28081  Withdrawn(msg.sender, amount) */\n      mload(0x40)\n      tag_147\n      swap2\n      swap1\n      tag_37\n      jump\t// in\n    tag_147:\n      mload(0x40)\n      dup1\n      swap2\n      sub\n      swap1\n      log2\n        /* \"contracts/REC20Stacking.sol\":27750:28088  function withdraw(... */\n      pop\n      pop\n      jump\t// out\n        /* \"contracts/REC20Stacking.sol\":28917:30485  function notifyRewardAmount(... */\n    tag_61:\n        /* \"contracts/REC20Stacking.sol\":20879:20897  rewardDistribution */\n      0x04\n      0x00\n      swap1\n      sload\n      swap1\n      0x0100\n      exp\n      swap1\n      div\n      0xffffffffffffffffffffffffffffffffffffffff\n      and\n        /* \"contracts/REC20Stacking.sol\":20863:20897  _msgSender() == rewardDistribution */\n      0xffffffffffffffffffffffffffffffffffffffff\n      and\n        /* \"contracts/REC20Stacking.sol\":20863:20875  _msgSender() */\n      tag_149\n        /* \"contracts/REC20Stacking.sol\":20863:20873  _msgSender */\n      tag_126\n        /* \"contracts/REC20Stacking.sol\":20863:20875  _msgSender() */\n      jump\t// in\n    tag_149:\n        /* \"contracts/REC20Stacking.sol\":20863:20897  _msgSender() == rewardDistribution */\n      0xffffffffffffffffffffffffffffffffffffffff\n      and\n      eq\n        /* \"contracts/REC20Stacking.sol\":20842:20956  require(... */\n      tag_150\n      jumpi\n      mload(0x40)\n      0x08c379a000000000000000000000000000000000000000000000000000000000\n      dup2\n      mstore\n      0x04\n      add\n      tag_151\n      swap1\n      tag_152\n      jump\t// in\n    tag_151:\n      mload(0x40)\n      dup1\n      swap2\n      sub\n      swap1\n      revert\n    tag_150:\n        /* \"contracts/REC20Stacking.sol\":29037:29038  0 */\n      0x00\n        /* \"contracts/REC20Stacking.sol\":25189:25205  rewardPerToken() */\n      tag_154\n        /* \"contracts/REC20Stacking.sol\":25189:25203  rewardPerToken */\n      tag_93\n        /* \"contracts/REC20Stacking.sol\":25189:25205  rewardPerToken() */\n      jump\t// in\n    tag_154:\n        /* \"contracts/REC20Stacking.sol\":25166:25186  rewardPerTokenStored */\n      0x0b\n        /* \"contracts/REC20Stacking.sol\":25166:25205  rewardPerTokenStored = rewardPerToken() */\n      dup2\n      swap1\n      sstore\n      pop\n        /* \"contracts/REC20Stacking.sol\":25295:25321  lastTimeRewardApplicable() */\n      tag_155\n        /* \"contracts/REC20Stacking.sol\":25295:25319  lastTimeRewardApplicable */\n      tag_74\n        /* \"contracts/REC20Stacking.sol\":25295:25321  lastTimeRewardApplicable() */\n      jump\t// in\n    tag_155:\n        /* \"contracts/REC20Stacking.sol\":25278:25292  lastUpdateTime */\n      0x0a\n        /* \"contracts/REC20Stacking.sol\":25278:25321  lastUpdateTime = lastTimeRewardApplicable() */\n      dup2\n      swap1\n      sstore\n      pop\n        /* \"contracts/REC20Stacking.sol\":25393:25394  0 */\n      0x00\n        /* \"contracts/REC20Stacking.sol\":25374:25395  account != address(0) */\n      0xffffffffffffffffffffffffffffffffffffffff\n      and\n        /* \"contracts/REC20Stacking.sol\":25374:25381  account */\n      dup2\n        /* \"contracts/REC20Stacking.sol\":25374:25395  account != address(0) */\n      0xffffffffffffffffffffffffffffffffffffffff\n      and\n      eq\n        /* \"contracts/REC20Stacking.sol\":25370:25663  if (account != address(0)) {... */\n      tag_156\n      jumpi\n        /* \"contracts/REC20Stacking.sol\":25497:25512  earned(account) */\n      tag_157\n        /* \"contracts/REC20Stacking.sol\":25504:25511  account */\n      dup2\n        /* \"contracts/REC20Stacking.sol\":25497:25503  earned */\n      tag_35\n        /* \"contracts/REC20Stacking.sol\":25497:25512  earned(account) */\n      jump\t// in\n    tag_157:\n        /* \"contracts/REC20Stacking.sol\":25478:25485  rewards */\n      0x0d\n        /* \"contracts/REC20Stacking.sol\":25478:25494  rewards[account] */\n      0x00\n        /* \"contracts/REC20Stacking.sol\":25486:25493  account */\n      dup4\n        /* \"contracts/REC20Stacking.sol\":25478:25494  rewards[account] */\n      0xffffffffffffffffffffffffffffffffffffffff\n      and\n      0xffffffffffffffffffffffffffffffffffffffff\n      and\n      dup2\n      mstore\n      0x20\n      add\n      swap1\n      dup2\n      mstore\n      0x20\n      add\n      0x00\n      keccak256\n        /* \"contracts/REC20Stacking.sol\":25478:25512  rewards[account] = earned(account) */\n      dup2\n      swap1\n      sstore\n      pop\n        /* \"contracts/REC20Stacking.sol\":25632:25652  rewardPerTokenStored */\n      sload(0x0b)\n        /* \"contracts/REC20Stacking.sol\":25598:25620  userRewardPerTokenPaid */\n      0x0c\n        /* \"contracts/REC20Stacking.sol\":25598:25629  userRewardPerTokenPaid[account] */\n      0x00\n        /* \"contracts/REC20Stacking.sol\":25621:25628  account */\n      dup4\n        /* \"contracts/REC20Stacking.sol\":25598:25629  userRewardPerTokenPaid[account] */\n      0xffffffffffffffffffffffffffffffffffffffff\n      and\n      0xffffffffffffffffffffffffffffffffffffffff\n      and\n      dup2\n      mstore\n      0x20\n      add\n      swap1\n      dup2\n      mstore\n      0x20\n      add\n      0x00\n      keccak256\n        /* \"contracts/REC20Stacking.sol\":25598:25652  userRewardPerTokenPaid[account] = rewardPerTokenStored */\n      dup2\n      swap1\n      sstore\n      pop\n        /* \"contracts/REC20Stacking.sol\":25370:25663  if (account != address(0)) {... */\n    tag_156:\n        /* \"contracts/REC20Stacking.sol\":29116:29125  starttime */\n      sload(0x07)\n        /* \"contracts/REC20Stacking.sol\":29098:29113  block.timestamp */\n      timestamp\n        /* \"contracts/REC20Stacking.sol\":29098:29125  block.timestamp > starttime */\n      gt\n        /* \"contracts/REC20Stacking.sol\":29094:30479  if (block.timestamp > starttime) {... */\n      iszero\n      tag_159\n      jumpi\n        /* \"contracts/REC20Stacking.sol\":29214:29226  periodFinish */\n      sload(0x08)\n        /* \"contracts/REC20Stacking.sol\":29195:29210  block.timestamp */\n      timestamp\n        /* \"contracts/REC20Stacking.sol\":29195:29226  block.timestamp >= periodFinish */\n      lt\n        /* \"contracts/REC20Stacking.sol\":29191:29800  if (block.timestamp >= periodFinish) {... */\n      tag_160\n      jumpi\n        /* \"contracts/REC20Stacking.sol\":29315:29335  reward.div(DURATION) */\n      tag_161\n        /* \"contracts/REC20Stacking.sol\":29326:29334  DURATION */\n      sload(0x06)\n        /* \"contracts/REC20Stacking.sol\":29315:29321  reward */\n      dup4\n        /* \"contracts/REC20Stacking.sol\":29315:29325  reward.div */\n      tag_122\n      swap1\n        /* \"contracts/REC20Stacking.sol\":29315:29335  reward.div(DURATION) */\n      swap2\n      swap1\n      0xffffffff\n      and\n      jump\t// in\n    tag_161:\n        /* \"contracts/REC20Stacking.sol\":29302:29312  rewardRate */\n      0x09\n        /* \"contracts/REC20Stacking.sol\":29302:29335  rewardRate = reward.div(DURATION) */\n      dup2\n      swap1\n      sstore\n      pop\n        /* \"contracts/REC20Stacking.sol\":29191:29800  if (block.timestamp >= periodFinish) {... */\n      jump(tag_162)\n    tag_160:\n        /* \"contracts/REC20Stacking.sol\":29436:29453  uint256 remaining */\n      0x00\n        /* \"contracts/REC20Stacking.sol\":29456:29489  periodFinish.sub(block.timestamp) */\n      tag_163\n        /* \"contracts/REC20Stacking.sol\":29473:29488  block.timestamp */\n      timestamp\n        /* \"contracts/REC20Stacking.sol\":29456:29468  periodFinish */\n      sload(0x08)\n        /* \"contracts/REC20Stacking.sol\":29456:29472  periodFinish.sub */\n      tag_119\n      swap1\n        /* \"contracts/REC20Stacking.sol\":29456:29489  periodFinish.sub(block.timestamp) */\n      swap2\n      swap1\n      0xffffffff\n      and\n      jump\t// in\n    tag_163:\n        /* \"contracts/REC20Stacking.sol\":29436:29489  uint256 remaining = periodFinish.sub(block.timestamp) */\n      swap1\n      pop\n        /* \"contracts/REC20Stacking.sol\":29597:29613  uint256 leftover */\n      0x00\n        /* \"contracts/REC20Stacking.sol\":29616:29641  remaining.mul(rewardRate) */\n      tag_164\n        /* \"contracts/REC20Stacking.sol\":29630:29640  rewardRate */\n      sload(0x09)\n        /* \"contracts/REC20Stacking.sol\":29616:29625  remaining */\n      dup4\n        /* \"contracts/REC20Stacking.sol\":29616:29629  remaining.mul */\n      tag_121\n      swap1\n        /* \"contracts/REC20Stacking.sol\":29616:29641  remaining.mul(rewardRate) */\n      swap2\n      swap1\n      0xffffffff\n      and\n      jump\t// in\n    tag_164:\n        /* \"contracts/REC20Stacking.sol\":29597:29641  uint256 leftover = remaining.mul(rewardRate) */\n      swap1\n      pop\n        /* \"contracts/REC20Stacking.sol\":29751:29785  reward.add(leftover).div(DURATION) */\n      tag_165\n        /* \"contracts/REC20Stacking.sol\":29776:29784  DURATION */\n      sload(0x06)\n        /* \"contracts/REC20Stacking.sol\":29751:29771  reward.add(leftover) */\n      tag_166\n        /* \"contracts/REC20Stacking.sol\":29762:29770  leftover */\n      dup4\n        /* \"contracts/REC20Stacking.sol\":29751:29757  reward */\n      dup8\n        /* \"contracts/REC20Stacking.sol\":29751:29761  reward.add */\n      tag_123\n      swap1\n        /* \"contracts/REC20Stacking.sol\":29751:29771  reward.add(leftover) */\n      swap2\n      swap1\n      0xffffffff\n      and\n      jump\t// in\n    tag_166:\n        /* \"contracts/REC20Stacking.sol\":29751:29775  reward.add(leftover).div */\n      tag_122\n      swap1\n        /* \"contracts/REC20Stacking.sol\":29751:29785  reward.add(leftover).div(DURATION) */\n      swap2\n      swap1\n      0xffffffff\n      and\n      jump\t// in\n    tag_165:\n        /* \"contracts/REC20Stacking.sol\":29738:29748  rewardRate */\n      0x09\n        /* \"contracts/REC20Stacking.sol\":29738:29785  rewardRate = reward.add(leftover).div(DURATION) */\n      dup2\n      swap1\n      sstore\n      pop\n        /* \"contracts/REC20Stacking.sol\":29356:29800  {... */\n      pop\n      pop\n        /* \"contracts/REC20Stacking.sol\":29191:29800  if (block.timestamp >= periodFinish) {... */\n    tag_162:\n        /* \"contracts/REC20Stacking.sol\":29878:29893  block.timestamp */\n      timestamp\n        /* \"contracts/REC20Stacking.sol\":29861:29875  lastUpdateTime */\n      0x0a\n        /* \"contracts/REC20Stacking.sol\":29861:29893  lastUpdateTime = block.timestamp */\n      dup2\n      swap1\n      sstore\n      pop\n        /* \"contracts/REC20Stacking.sol\":29974:30003  block.timestamp.add(DURATION) */\n      tag_167\n        /* \"contracts/REC20Stacking.sol\":29994:30002  DURATION */\n      sload(0x06)\n        /* \"contracts/REC20Stacking.sol\":29974:29989  block.timestamp */\n      timestamp\n        /* \"contracts/REC20Stacking.sol\":29974:29993  block.timestamp.add */\n      tag_123\n      swap1\n        /* \"contracts/REC20Stacking.sol\":29974:30003  block.timestamp.add(DURATION) */\n      swap2\n      swap1\n      0xffffffff\n      and\n      jump\t// in\n    tag_167:\n        /* \"contracts/REC20Stacking.sol\":29959:29971  periodFinish */\n      0x08\n        /* \"contracts/REC20Stacking.sol\":29959:30003  periodFinish = block.timestamp.add(DURATION) */\n      dup2\n      swap1\n      sstore\n      pop\n        /* \"contracts/REC20Stacking.sol\":30062:30081  RewardAdded(reward) */\n      0xde88a922e0d3b88b24e9623efeb464919c6bf9f66857a65e2bfcf2ce87a9433d\n        /* \"contracts/REC20Stacking.sol\":30074:30080  reward */\n      dup3\n        /* \"contracts/REC20Stacking.sol\":30062:30081  RewardAdded(reward) */\n      mload(0x40)\n      tag_168\n      swap2\n      swap1\n      tag_37\n      jump\t// in\n    tag_168:\n      mload(0x40)\n      dup1\n      swap2\n      sub\n      swap1\n      log1\n        /* \"contracts/REC20Stacking.sol\":29094:30479  if (block.timestamp > starttime) {... */\n      jump(tag_169)\n    tag_159:\n        /* \"contracts/REC20Stacking.sol\":30177:30197  reward.div(DURATION) */\n      tag_170\n        /* \"contracts/REC20Stacking.sol\":30188:30196  DURATION */\n      sload(0x06)\n        /* \"contracts/REC20Stacking.sol\":30177:30183  reward */\n      dup4\n        /* \"contracts/REC20Stacking.sol\":30177:30187  reward.div */\n      tag_122\n      swap1\n        /* \"contracts/REC20Stacking.sol\":30177:30197  reward.div(DURATION) */\n      swap2\n      swap1\n      0xffffffff\n      and\n      jump\t// in\n    tag_170:\n        /* \"contracts/REC20Stacking.sol\":30164:30174  rewardRate */\n      0x09\n        /* \"contracts/REC20Stacking.sol\":30164:30197  rewardRate = reward.div(DURATION) */\n      dup2\n      swap1\n      sstore\n      pop\n        /* \"contracts/REC20Stacking.sol\":30277:30286  starttime */\n      sload(0x07)\n        /* \"contracts/REC20Stacking.sol\":30260:30274  lastUpdateTime */\n      0x0a\n        /* \"contracts/REC20Stacking.sol\":30260:30286  lastUpdateTime = starttime */\n      dup2\n      swap1\n      sstore\n      pop\n        /* \"contracts/REC20Stacking.sol\":30367:30390  starttime.add(DURATION) */\n      tag_171\n        /* \"contracts/REC20Stacking.sol\":30381:30389  DURATION */\n      sload(0x06)\n        /* \"contracts/REC20Stacking.sol\":30367:30376  starttime */\n      sload(0x07)\n        /* \"contracts/REC20Stacking.sol\":30367:30380  starttime.add */\n      tag_123\n      swap1\n        /* \"contracts/REC20Stacking.sol\":30367:30390  starttime.add(DURATION) */\n      swap2\n      swap1\n      0xffffffff\n      and\n      jump\t// in\n    tag_171:\n        /* \"contracts/REC20Stacking.sol\":30352:30364  periodFinish */\n      0x08\n        /* \"contracts/REC20Stacking.sol\":30352:30390  periodFinish = starttime.add(DURATION) */\n      dup2\n      swap1\n      sstore\n      pop\n        /* \"contracts/REC20Stacking.sol\":30449:30468  RewardAdded(reward) */\n      0xde88a922e0d3b88b24e9623efeb464919c6bf9f66857a65e2bfcf2ce87a9433d\n        /* \"contracts/REC20Stacking.sol\":30461:30467  reward */\n      dup3\n        /* \"contracts/REC20Stacking.sol\":30449:30468  RewardAdded(reward) */\n      mload(0x40)\n      tag_172\n      swap2\n      swap1\n      tag_37\n      jump\t// in\n    tag_172:\n      mload(0x40)\n      dup1\n      swap2\n      sub\n      swap1\n      log1\n        /* \"contracts/REC20Stacking.sol\":29094:30479  if (block.timestamp > starttime) {... */\n    tag_169:\n        /* \"contracts/REC20Stacking.sol\":20966:20967  _ */\n      pop\n        /* \"contracts/REC20Stacking.sol\":28917:30485  function notifyRewardAmount(... */\n      pop\n      jump\t// out\n        /* \"contracts/REC20Stacking.sol\":28339:28830  function getReward() public updateReward(msg.sender) checkStart {... */\n    tag_63:\n        /* \"contracts/REC20Stacking.sol\":28380:28390  msg.sender */\n      caller\n        /* \"contracts/REC20Stacking.sol\":25189:25205  rewardPerToken() */\n      tag_174\n        /* \"contracts/REC20Stacking.sol\":25189:25203  rewardPerToken */\n      tag_93\n        /* \"contracts/REC20Stacking.sol\":25189:25205  rewardPerToken() */\n      jump\t// in\n    tag_174:\n        /* \"contracts/REC20Stacking.sol\":25166:25186  rewardPerTokenStored */\n      0x0b\n        /* \"contracts/REC20Stacking.sol\":25166:25205  rewardPerTokenStored = rewardPerToken() */\n      dup2\n      swap1\n      sstore\n      pop\n        /* \"contracts/REC20Stacking.sol\":25295:25321  lastTimeRewardApplicable() */\n      tag_175\n        /* \"contracts/REC20Stacking.sol\":25295:25319  lastTimeRewardApplicable */\n      tag_74\n        /* \"contracts/REC20Stacking.sol\":25295:25321  lastTimeRewardApplicable() */\n      jump\t// in\n    tag_175:\n        /* \"contracts/REC20Stacking.sol\":25278:25292  lastUpdateTime */\n      0x0a\n        /* \"contracts/REC20Stacking.sol\":25278:25321  lastUpdateTime = lastTimeRewardApplicable() */\n      dup2\n      swap1\n      sstore\n      pop\n        /* \"contracts/REC20Stacking.sol\":25393:25394  0 */\n      0x00\n        /* \"contracts/REC20Stacking.sol\":25374:25395  account != address(0) */\n      0xffffffffffffffffffffffffffffffffffffffff\n      and\n        /* \"contracts/REC20Stacking.sol\":25374:25381  account */\n      dup2\n        /* \"contracts/REC20Stacking.sol\":25374:25395  account != address(0) */\n      0xffffffffffffffffffffffffffffffffffffffff\n      and\n      eq\n        /* \"contracts/REC20Stacking.sol\":25370:25663  if (account != address(0)) {... */\n      tag_176\n      jumpi\n        /* \"contracts/REC20Stacking.sol\":25497:25512  earned(account) */\n      tag_177\n        /* \"contracts/REC20Stacking.sol\":25504:25511  account */\n      dup2\n        /* \"contracts/REC20Stacking.sol\":25497:25503  earned */\n      tag_35\n        /* \"contracts/REC20Stacking.sol\":25497:25512  earned(account) */\n      jump\t// in\n    tag_177:\n        /* \"contracts/REC20Stacking.sol\":25478:25485  rewards */\n      0x0d\n        /* \"contracts/REC20Stacking.sol\":25478:25494  rewards[account] */\n      0x00\n        /* \"contracts/REC20Stacking.sol\":25486:25493  account */\n      dup4\n        /* \"contracts/REC20Stacking.sol\":25478:25494  rewards[account] */\n      0xffffffffffffffffffffffffffffffffffffffff\n      and\n      0xffffffffffffffffffffffffffffffffffffffff\n      and\n      dup2\n      mstore\n      0x20\n      add\n      swap1\n      dup2\n      mstore\n      0x20\n      add\n      0x00\n      keccak256\n        /* \"contracts/REC20Stacking.sol\":25478:25512  rewards[account] = earned(account) */\n      dup2\n      swap1\n      sstore\n      pop\n        /* \"contracts/REC20Stacking.sol\":25632:25652  rewardPerTokenStored */\n      sload(0x0b)\n        /* \"contracts/REC20Stacking.sol\":25598:25620  userRewardPerTokenPaid */\n      0x0c\n        /* \"contracts/REC20Stacking.sol\":25598:25629  userRewardPerTokenPaid[account] */\n      0x00\n        /* \"contracts/REC20Stacking.sol\":25621:25628  account */\n      dup4\n        /* \"contracts/REC20Stacking.sol\":25598:25629  userRewardPerTokenPaid[account] */\n      0xffffffffffffffffffffffffffffffffffffffff\n      and\n      0xffffffffffffffffffffffffffffffffffffffff\n      and\n      dup2\n      mstore\n      0x20\n      add\n      swap1\n      dup2\n      mstore\n      0x20\n      add\n      0x00\n      keccak256\n        /* \"contracts/REC20Stacking.sol\":25598:25652  userRewardPerTokenPaid[account] = rewardPerTokenStored */\n      dup2\n      swap1\n      sstore\n      pop\n        /* \"contracts/REC20Stacking.sol\":25370:25663  if (account != address(0)) {... */\n    tag_176:\n        /* \"contracts/REC20Stacking.sol\":24920:24929  starttime */\n      sload(0x07)\n        /* \"contracts/REC20Stacking.sol\":24901:24916  block.timestamp */\n      timestamp\n        /* \"contracts/REC20Stacking.sol\":24901:24929  block.timestamp >= starttime */\n      lt\n      iszero\n        /* \"contracts/REC20Stacking.sol\":24893:24961  require(block.timestamp >= starttime, 'LPTokenSharePool: not start') */\n      tag_179\n      jumpi\n      mload(0x40)\n      0x08c379a000000000000000000000000000000000000000000000000000000000\n      dup2\n      mstore\n      0x04\n      add\n      tag_180\n      swap1\n      tag_140\n      jump\t// in\n    tag_180:\n      mload(0x40)\n      dup1\n      swap2\n      sub\n      swap1\n      revert\n    tag_179:\n        /* \"contracts/REC20Stacking.sol\":28464:28478  uint256 reward */\n      0x00\n        /* \"contracts/REC20Stacking.sol\":28481:28499  earned(msg.sender) */\n      tag_182\n        /* \"contracts/REC20Stacking.sol\":28488:28498  msg.sender */\n      caller\n        /* \"contracts/REC20Stacking.sol\":28481:28487  earned */\n      tag_35\n        /* \"contracts/REC20Stacking.sol\":28481:28499  earned(msg.sender) */\n      jump\t// in\n    tag_182:\n        /* \"contracts/REC20Stacking.sol\":28464:28499  uint256 reward = earned(msg.sender) */\n      swap1\n      pop\n        /* \"contracts/REC20Stacking.sol\":28554:28555  0 */\n      0x00\n        /* \"contracts/REC20Stacking.sol\":28545:28551  reward */\n      dup2\n        /* \"contracts/REC20Stacking.sol\":28545:28555  reward > 0 */\n      gt\n        /* \"contracts/REC20Stacking.sol\":28541:28824  if (reward > 0) {... */\n      iszero\n      tag_183\n      jumpi\n        /* \"contracts/REC20Stacking.sol\":28643:28644  0 */\n      0x00\n        /* \"contracts/REC20Stacking.sol\":28621:28628  rewards */\n      0x0d\n        /* \"contracts/REC20Stacking.sol\":28621:28640  rewards[msg.sender] */\n      0x00\n        /* \"contracts/REC20Stacking.sol\":28629:28639  msg.sender */\n      caller\n        /* \"contracts/REC20Stacking.sol\":28621:28640  rewards[msg.sender] */\n      0xffffffffffffffffffffffffffffffffffffffff\n      and\n      0xffffffffffffffffffffffffffffffffffffffff\n      and\n      dup2\n      mstore\n      0x20\n      add\n      swap1\n      dup2\n      mstore\n      0x20\n      add\n      0x00\n      keccak256\n        /* \"contracts/REC20Stacking.sol\":28621:28644  rewards[msg.sender] = 0 */\n      dup2\n      swap1\n      sstore\n      pop\n        /* \"contracts/REC20Stacking.sol\":28686:28724  token.safeTransfer(msg.sender, reward) */\n      tag_184\n        /* \"contracts/REC20Stacking.sol\":28705:28715  msg.sender */\n      caller\n        /* \"contracts/REC20Stacking.sol\":28717:28723  reward */\n      dup3\n        /* \"contracts/REC20Stacking.sol\":28686:28691  token */\n      0x05\n      0x00\n      swap1\n      sload\n      swap1\n      0x0100\n      exp\n      swap1\n      div\n      0xffffffffffffffffffffffffffffffffffffffff\n      and\n        /* \"contracts/REC20Stacking.sol\":28686:28704  token.safeTransfer */\n      0xffffffffffffffffffffffffffffffffffffffff\n      and\n      tag_185\n      swap1\n        /* \"contracts/REC20Stacking.sol\":28686:28724  token.safeTransfer(msg.sender, reward) */\n      swap3\n      swap2\n      swap1\n      0xffffffff\n      and\n      jump\t// in\n    tag_184:\n        /* \"contracts/REC20Stacking.sol\":28794:28804  msg.sender */\n      caller\n        /* \"contracts/REC20Stacking.sol\":28783:28813  RewardPaid(msg.sender, reward) */\n      0xffffffffffffffffffffffffffffffffffffffff\n      and\n      0xe2403640ba68fed3a2f88b7557551d1993f84b99bb10ff833f0cf8db0c5e0486\n        /* \"contracts/REC20Stacking.sol\":28806:28812  reward */\n      dup3\n        /* \"contracts/REC20Stacking.sol\":28783:28813  RewardPaid(msg.sender, reward) */\n      mload(0x40)\n      tag_186\n      swap2\n      swap1\n      tag_37\n      jump\t// in\n    tag_186:\n      mload(0x40)\n      dup1\n      swap2\n      sub\n      swap1\n      log2\n        /* \"contracts/REC20Stacking.sol\":28541:28824  if (reward > 0) {... */\n    tag_183:\n        /* \"contracts/REC20Stacking.sol\":28403:28830  {... */\n      pop\n        /* \"contracts/REC20Stacking.sol\":28339:28830  function getReward() public updateReward(msg.sender) checkStart {... */\n      pop\n      jump\t// out\n        /* \"contracts/REC20Stacking.sol\":19404:19512  function balanceOf(address account) public view returns (uint256) {... */\n    tag_66:\n        /* \"contracts/REC20Stacking.sol\":19461:19468  uint256 */\n      0x00\n        /* \"contracts/REC20Stacking.sol\":19487:19496  _balances */\n      0x02\n        /* \"contracts/REC20Stacking.sol\":19487:19505  _balances[account] */\n      0x00\n        /* \"contracts/REC20Stacking.sol\":19497:19504  account */\n      dup4\n        /* \"contracts/REC20Stacking.sol\":19487:19505  _balances[account] */\n      0xffffffffffffffffffffffffffffffffffffffff\n      and\n      0xffffffffffffffffffffffffffffffffffffffff\n      and\n      dup2\n      mstore\n      0x20\n      add\n      swap1\n      dup2\n      mstore\n      0x20\n      add\n      0x00\n      keccak256\n      sload\n        /* \"contracts/REC20Stacking.sol\":19480:19505  return _balances[account] */\n      swap1\n      pop\n        /* \"contracts/REC20Stacking.sol\":19404:19512  function balanceOf(address account) public view returns (uint256) {... */\n      swap2\n      swap1\n      pop\n      jump\t// out\n        /* \"contracts/REC20Stacking.sol\":15166:15311  function renounceOwnership() public virtual onlyOwner {... */\n    tag_69:\n        /* \"contracts/REC20Stacking.sol\":14757:14769  _msgSender() */\n      tag_189\n        /* \"contracts/REC20Stacking.sol\":14757:14767  _msgSender */\n      tag_126\n        /* \"contracts/REC20Stacking.sol\":14757:14769  _msgSender() */\n      jump\t// in\n    tag_189:\n        /* \"contracts/REC20Stacking.sol\":14747:14769  _owner == _msgSender() */\n      0xffffffffffffffffffffffffffffffffffffffff\n      and\n        /* \"contracts/REC20Stacking.sol\":14747:14753  _owner */\n      0x03\n      0x00\n      swap1\n      sload\n      swap1\n      0x0100\n      exp\n      swap1\n      div\n      0xffffffffffffffffffffffffffffffffffffffff\n      and\n        /* \"contracts/REC20Stacking.sol\":14747:14769  _owner == _msgSender() */\n      0xffffffffffffffffffffffffffffffffffffffff\n      and\n      eq\n        /* \"contracts/REC20Stacking.sol\":14739:14806  require(_owner == _msgSender(), \"Ownable: caller is not the owner\") */\n      tag_190\n      jumpi\n      mload(0x40)\n      0x08c379a000000000000000000000000000000000000000000000000000000000\n      dup2\n      mstore\n      0x04\n      add\n      tag_191\n      swap1\n      tag_129\n      jump\t// in\n    tag_191:\n      mload(0x40)\n      dup1\n      swap2\n      sub\n      swap1\n      revert\n    tag_190:\n        /* \"contracts/REC20Stacking.sol\":15272:15273  0 */\n      0x00\n        /* \"contracts/REC20Stacking.sol\":15235:15275  OwnershipTransferred(_owner, address(0)) */\n      0xffffffffffffffffffffffffffffffffffffffff\n      and\n        /* \"contracts/REC20Stacking.sol\":15256:15262  _owner */\n      0x03\n      0x00\n      swap1\n      sload\n      swap1\n      0x0100\n      exp\n      swap1\n      div\n      0xffffffffffffffffffffffffffffffffffffffff\n      and\n        /* \"contracts/REC20Stacking.sol\":15235:15275  OwnershipTransferred(_owner, address(0)) */\n      0xffffffffffffffffffffffffffffffffffffffff\n      and\n      0x8be0079c531659141344cd1fd0a4f28419497f9722a3daafe3b4186f6b6457e0\n      mload(0x40)\n      mload(0x40)\n      dup1\n      swap2\n      sub\n      swap1\n      log3\n        /* \"contracts/REC20Stacking.sol\":15302:15303  0 */\n      0x00\n        /* \"contracts/REC20Stacking.sol\":15285:15291  _owner */\n      0x03\n      0x00\n        /* \"contracts/REC20Stacking.sol\":15285:15304  _owner = address(0) */\n      0x0100\n      exp\n      dup2\n      sload\n      dup2\n      0xffffffffffffffffffffffffffffffffffffffff\n      mul\n      not\n      and\n      swap1\n      dup4\n      0xffffffffffffffffffffffffffffffffffffffff\n      and\n      mul\n      or\n      swap1\n      sstore\n      pop\n        /* \"contracts/REC20Stacking.sol\":15166:15311  function renounceOwnership() public virtual onlyOwner {... */\n      jump\t// out\n        /* \"contracts/REC20Stacking.sol\":23873:23902  uint256 public rewardRate = 0 */\n    tag_71:\n      sload(0x09)\n      dup2\n      jump\t// out\n        /* \"contracts/REC20Stacking.sol\":25835:26012  function lastTimeRewardApplicable() public view returns (uint256) {... */\n    tag_74:\n        /* \"contracts/REC20Stacking.sol\":25892:25899  uint256 */\n      0x00\n        /* \"contracts/REC20Stacking.sol\":25966:26005  Math.min(block.timestamp, periodFinish) */\n      tag_194\n        /* \"contracts/REC20Stacking.sol\":25975:25990  block.timestamp */\n      timestamp\n        /* \"contracts/REC20Stacking.sol\":25992:26004  periodFinish */\n      sload(0x08)\n        /* \"contracts/REC20Stacking.sol\":25966:25974  Math.min */\n      tag_195\n        /* \"contracts/REC20Stacking.sol\":25966:26005  Math.min(block.timestamp, periodFinish) */\n      jump\t// in\n    tag_194:\n        /* \"contracts/REC20Stacking.sol\":25959:26005  return Math.min(block.timestamp, periodFinish) */\n      swap1\n      pop\n        /* \"contracts/REC20Stacking.sol\":25835:26012  function lastTimeRewardApplicable() public view returns (uint256) {... */\n      swap1\n      jump\t// out\n        /* \"contracts/REC20Stacking.sol\":24109:24166  mapping(address => uint256) public userRewardPerTokenPaid */\n    tag_78:\n      mstore(0x20, 0x0c)\n      dup1\n      0x00\n      mstore\n      keccak256(0x00, 0x40)\n      0x00\n      swap2\n      pop\n      swap1\n      pop\n      sload\n      dup2\n      jump\t// out\n        /* \"contracts/REC20Stacking.sol\":23725:23749  uint256 public starttime */\n    tag_81:\n      sload(0x07)\n      dup2\n      jump\t// out\n        /* \"contracts/REC20Stacking.sol\":14543:14620  function owner() public view returns (address) {... */\n    tag_84:\n        /* \"contracts/REC20Stacking.sol\":14581:14588  address */\n      0x00\n        /* \"contracts/REC20Stacking.sol\":14607:14613  _owner */\n      0x03\n      0x00\n      swap1\n      sload\n      swap1\n      0x0100\n      exp\n      swap1\n      div\n      0xffffffffffffffffffffffffffffffffffffffff\n      and\n        /* \"contracts/REC20Stacking.sol\":14600:14613  return _owner */\n      swap1\n      pop\n        /* \"contracts/REC20Stacking.sol\":14543:14620  function owner() public view returns (address) {... */\n      swap1\n      jump\t// out\n        /* \"contracts/REC20Stacking.sol\":27323:27649  function stake(... */\n    tag_88:\n        /* \"contracts/REC20Stacking.sol\":27397:27407  msg.sender */\n      caller\n        /* \"contracts/REC20Stacking.sol\":25189:25205  rewardPerToken() */\n      tag_198\n        /* \"contracts/REC20Stacking.sol\":25189:25203  rewardPerToken */\n      tag_93\n        /* \"contracts/REC20Stacking.sol\":25189:25205  rewardPerToken() */\n      jump\t// in\n    tag_198:\n        /* \"contracts/REC20Stacking.sol\":25166:25186  rewardPerTokenStored */\n      0x0b\n        /* \"contracts/REC20Stacking.sol\":25166:25205  rewardPerTokenStored = rewardPerToken() */\n      dup2\n      swap1\n      sstore\n      pop\n        /* \"contracts/REC20Stacking.sol\":25295:25321  lastTimeRewardApplicable() */\n      tag_199\n        /* \"contracts/REC20Stacking.sol\":25295:25319  lastTimeRewardApplicable */\n      tag_74\n        /* \"contracts/REC20Stacking.sol\":25295:25321  lastTimeRewardApplicable() */\n      jump\t// in\n    tag_199:\n        /* \"contracts/REC20Stacking.sol\":25278:25292  lastUpdateTime */\n      0x0a\n        /* \"contracts/REC20Stacking.sol\":25278:25321  lastUpdateTime = lastTimeRewardApplicable() */\n      dup2\n      swap1\n      sstore\n      pop\n        /* \"contracts/REC20Stacking.sol\":25393:25394  0 */\n      0x00\n        /* \"contracts/REC20Stacking.sol\":25374:25395  account != address(0) */\n      0xffffffffffffffffffffffffffffffffffffffff\n      and\n        /* \"contracts/REC20Stacking.sol\":25374:25381  account */\n      dup2\n        /* \"contracts/REC20Stacking.sol\":25374:25395  account != address(0) */\n      0xffffffffffffffffffffffffffffffffffffffff\n      and\n      eq\n        /* \"contracts/REC20Stacking.sol\":25370:25663  if (account != address(0)) {... */\n      tag_200\n      jumpi\n        /* \"contracts/REC20Stacking.sol\":25497:25512  earned(account) */\n      tag_201\n        /* \"contracts/REC20Stacking.sol\":25504:25511  account */\n      dup2\n        /* \"contracts/REC20Stacking.sol\":25497:25503  earned */\n      tag_35\n        /* \"contracts/REC20Stacking.sol\":25497:25512  earned(account) */\n      jump\t// in\n    tag_201:\n        /* \"contracts/REC20Stacking.sol\":25478:25485  rewards */\n      0x0d\n        /* \"contracts/REC20Stacking.sol\":25478:25494  rewards[account] */\n      0x00\n        /* \"contracts/REC20Stacking.sol\":25486:25493  account */\n      dup4\n        /* \"contracts/REC20Stacking.sol\":25478:25494  rewards[account] */\n      0xffffffffffffffffffffffffffffffffffffffff\n      and\n      0xffffffffffffffffffffffffffffffffffffffff\n      and\n      dup2\n      mstore\n      0x20\n      add\n      swap1\n      dup2\n      mstore\n      0x20\n      add\n      0x00\n      keccak256\n        /* \"contracts/REC20Stacking.sol\":25478:25512  rewards[account] = earned(account) */\n      dup2\n      swap1\n      sstore\n      pop\n        /* \"contracts/REC20Stacking.sol\":25632:25652  rewardPerTokenStored */\n      sload(0x0b)\n        /* \"contracts/REC20Stacking.sol\":25598:25620  userRewardPerTokenPaid */\n      0x0c\n        /* \"contracts/REC20Stacking.sol\":25598:25629  userRewardPerTokenPaid[account] */\n      0x00\n        /* \"contracts/REC20Stacking.sol\":25621:25628  account */\n      dup4\n        /* \"contracts/REC20Stacking.sol\":25598:25629  userRewardPerTokenPaid[account] */\n      0xffffffffffffffffffffffffffffffffffffffff\n      and\n      0xffffffffffffffffffffffffffffffffffffffff\n      and\n      dup2\n      mstore\n      0x20\n      add\n      swap1\n      dup2\n      mstore\n      0x20\n      add\n      0x00\n      keccak256\n        /* \"contracts/REC20Stacking.sol\":25598:25652  userRewardPerTokenPaid[account] = rewardPerTokenStored */\n      dup2\n      swap1\n      sstore\n      pop\n        /* \"contracts/REC20Stacking.sol\":25370:25663  if (account != address(0)) {... */\n    tag_200:\n        /* \"contracts/REC20Stacking.sol\":24920:24929  starttime */\n      sload(0x07)\n        /* \"contracts/REC20Stacking.sol\":24901:24916  block.timestamp */\n      timestamp\n        /* \"contracts/REC20Stacking.sol\":24901:24929  block.timestamp >= starttime */\n      lt\n      iszero\n        /* \"contracts/REC20Stacking.sol\":24893:24961  require(block.timestamp >= starttime, 'LPTokenSharePool: not start') */\n      tag_203\n      jumpi\n      mload(0x40)\n      0x08c379a000000000000000000000000000000000000000000000000000000000\n      dup2\n      mstore\n      0x04\n      add\n      tag_204\n      swap1\n      tag_140\n      jump\t// in\n    tag_204:\n      mload(0x40)\n      dup1\n      swap2\n      sub\n      swap1\n      revert\n    tag_203:\n        /* \"contracts/REC20Stacking.sol\":27473:27474  0 */\n      0x00\n        /* \"contracts/REC20Stacking.sol\":27464:27470  amount */\n      dup3\n        /* \"contracts/REC20Stacking.sol\":27464:27474  amount > 0 */\n      gt\n        /* \"contracts/REC20Stacking.sol\":27456:27518  require(amount > 0, 'HUSDGOCLPTokenSharePool: Cannot stake 0') */\n      tag_206\n      jumpi\n      mload(0x40)\n      0x08c379a000000000000000000000000000000000000000000000000000000000\n      dup2\n      mstore\n      0x04\n      add\n      tag_207\n      swap1\n      tag_208\n      jump\t// in\n    tag_207:\n      mload(0x40)\n      dup1\n      swap2\n      sub\n      swap1\n      revert\n    tag_206:\n        /* \"contracts/REC20Stacking.sol\":27552:27571  super.stake(amount) */\n      tag_209\n        /* \"contracts/REC20Stacking.sol\":27564:27570  amount */\n      dup3\n        /* \"contracts/REC20Stacking.sol\":27552:27563  super.stake */\n      tag_210\n        /* \"contracts/REC20Stacking.sol\":27552:27571  super.stake(amount) */\n      jump\t// in\n    tag_209:\n        /* \"contracts/REC20Stacking.sol\":27623:27633  msg.sender */\n      caller\n        /* \"contracts/REC20Stacking.sol\":27616:27642  Staked(msg.sender, amount) */\n      0xffffffffffffffffffffffffffffffffffffffff\n      and\n      0x9e71bc8eea02a63969f509818f2dafb9254532904319f9dbda79b67bd34a5f3d\n        /* \"contracts/REC20Stacking.sol\":27635:27641  amount */\n      dup4\n        /* \"contracts/REC20Stacking.sol\":27616:27642  Staked(msg.sender, amount) */\n      mload(0x40)\n      tag_211\n      swap2\n      swap1\n      tag_37\n      jump\t// in\n    tag_211:\n      mload(0x40)\n      dup1\n      swap2\n      sub\n      swap1\n      log2\n        /* \"contracts/REC20Stacking.sol\":27323:27649  function stake(... */\n      pop\n      pop\n      jump\t// out\n        /* \"contracts/REC20Stacking.sol\":23943:23972  uint256 public lastUpdateTime */\n    tag_90:\n      sload(0x0a)\n      dup2\n      jump\t// out\n        /* \"contracts/REC20Stacking.sol\":26101:26648  function rewardPerToken() public view returns (uint256) {... */\n    tag_93:\n        /* \"contracts/REC20Stacking.sol\":26148:26155  uint256 */\n      0x00\n        /* \"contracts/REC20Stacking.sol\":26207:26208  0 */\n      dup1\n        /* \"contracts/REC20Stacking.sol\":26190:26203  totalSupply() */\n      tag_213\n        /* \"contracts/REC20Stacking.sol\":26190:26201  totalSupply */\n      tag_50\n        /* \"contracts/REC20Stacking.sol\":26190:26203  totalSupply() */\n      jump\t// in\n    tag_213:\n        /* \"contracts/REC20Stacking.sol\":26190:26208  totalSupply() == 0 */\n      sub\n        /* \"contracts/REC20Stacking.sol\":26186:26262  if (totalSupply() == 0) {... */\n      tag_214\n      jumpi\n        /* \"contracts/REC20Stacking.sol\":26231:26251  rewardPerTokenStored */\n      sload(0x0b)\n        /* \"contracts/REC20Stacking.sol\":26224:26251  return rewardPerTokenStored */\n      swap1\n      pop\n      jump(tag_212)\n        /* \"contracts/REC20Stacking.sol\":26186:26262  if (totalSupply() == 0) {... */\n    tag_214:\n        /* \"contracts/REC20Stacking.sol\":26410:26641  rewardPerTokenStored.add(... */\n      tag_215\n        /* \"contracts/REC20Stacking.sol\":26452:26627  lastTimeRewardApplicable()... */\n      tag_216\n        /* \"contracts/REC20Stacking.sol\":26613:26626  totalSupply() */\n      tag_217\n        /* \"contracts/REC20Stacking.sol\":26613:26624  totalSupply */\n      tag_50\n        /* \"contracts/REC20Stacking.sol\":26613:26626  totalSupply() */\n      jump\t// in\n    tag_217:\n        /* \"contracts/REC20Stacking.sol\":26452:26587  lastTimeRewardApplicable()... */\n      tag_218\n        /* \"contracts/REC20Stacking.sol\":26582:26586  1e18 */\n      0x0de0b6b3a7640000\n        /* \"contracts/REC20Stacking.sol\":26452:26556  lastTimeRewardApplicable()... */\n      tag_219\n        /* \"contracts/REC20Stacking.sol\":26545:26555  rewardRate */\n      sload(0x09)\n        /* \"contracts/REC20Stacking.sol\":26452:26519  lastTimeRewardApplicable()... */\n      tag_220\n        /* \"contracts/REC20Stacking.sol\":26504:26518  lastUpdateTime */\n      sload(0x0a)\n        /* \"contracts/REC20Stacking.sol\":26452:26478  lastTimeRewardApplicable() */\n      tag_221\n        /* \"contracts/REC20Stacking.sol\":26452:26476  lastTimeRewardApplicable */\n      tag_74\n        /* \"contracts/REC20Stacking.sol\":26452:26478  lastTimeRewardApplicable() */\n      jump\t// in\n    tag_221:\n        /* \"contracts/REC20Stacking.sol\":26452:26503  lastTimeRewardApplicable()... */\n      tag_119\n      swap1\n        /* \"contracts/REC20Stacking.sol\":26452:26519  lastTimeRewardApplicable()... */\n      swap2\n      swap1\n      0xffffffff\n      and\n      jump\t// in\n    tag_220:\n        /* \"contracts/REC20Stacking.sol\":26452:26544  lastTimeRewardApplicable()... */\n      tag_121\n      swap1\n        /* \"contracts/REC20Stacking.sol\":26452:26556  lastTimeRewardApplicable()... */\n      swap2\n      swap1\n      0xffffffff\n      and\n      jump\t// in\n    tag_219:\n        /* \"contracts/REC20Stacking.sol\":26452:26581  lastTimeRewardApplicable()... */\n      tag_121\n      swap1\n        /* \"contracts/REC20Stacking.sol\":26452:26587  lastTimeRewardApplicable()... */\n      swap2\n      swap1\n      0xffffffff\n      and\n      jump\t// in\n    tag_218:\n        /* \"contracts/REC20Stacking.sol\":26452:26612  lastTimeRewardApplicable()... */\n      tag_122\n      swap1\n        /* \"contracts/REC20Stacking.sol\":26452:26627  lastTimeRewardApplicable()... */\n      swap2\n      swap1\n      0xffffffff\n      and\n      jump\t// in\n    tag_216:\n        /* \"contracts/REC20Stacking.sol\":26410:26430  rewardPerTokenStored */\n      sload(0x0b)\n        /* \"contracts/REC20Stacking.sol\":26410:26434  rewardPerTokenStored.add */\n      tag_123\n      swap1\n        /* \"contracts/REC20Stacking.sol\":26410:26641  rewardPerTokenStored.add(... */\n      swap2\n      swap1\n      0xffffffff\n      and\n      jump\t// in\n    tag_215:\n        /* \"contracts/REC20Stacking.sol\":26391:26641  return... */\n      swap1\n      pop\n        /* \"contracts/REC20Stacking.sol\":26101:26648  function rewardPerToken() public view returns (uint256) {... */\n    tag_212:\n      swap1\n      jump\t// out\n        /* \"contracts/REC20Stacking.sol\":18980:18997  IERC20 public lpt */\n    tag_96:\n      0x00\n      dup1\n      sload\n      swap1\n      0x0100\n      exp\n      swap1\n      div\n      0xffffffffffffffffffffffffffffffffffffffff\n      and\n      dup2\n      jump\t// out\n        /* \"contracts/REC20Stacking.sol\":24013:24048  uint256 public rewardPerTokenStored */\n    tag_100:\n      sload(0x0b)\n      dup2\n      jump\t// out\n        /* \"contracts/REC20Stacking.sol\":28129:28292  function exit() external {... */\n    tag_103:\n        /* \"contracts/REC20Stacking.sol\":28209:28240  withdraw(balanceOf(msg.sender)) */\n      tag_223\n        /* \"contracts/REC20Stacking.sol\":28218:28239  balanceOf(msg.sender) */\n      tag_224\n        /* \"contracts/REC20Stacking.sol\":28228:28238  msg.sender */\n      caller\n        /* \"contracts/REC20Stacking.sol\":28218:28227  balanceOf */\n      tag_66\n        /* \"contracts/REC20Stacking.sol\":28218:28239  balanceOf(msg.sender) */\n      jump\t// in\n    tag_224:\n        /* \"contracts/REC20Stacking.sol\":28209:28217  withdraw */\n      tag_58\n        /* \"contracts/REC20Stacking.sol\":28209:28240  withdraw(balanceOf(msg.sender)) */\n      jump\t// in\n    tag_223:\n        /* \"contracts/REC20Stacking.sol\":28274:28285  getReward() */\n      tag_225\n        /* \"contracts/REC20Stacking.sol\":28274:28283  getReward */\n      tag_63\n        /* \"contracts/REC20Stacking.sol\":28274:28285  getReward() */\n      jump\t// in\n    tag_225:\n        /* \"contracts/REC20Stacking.sol\":28129:28292  function exit() external {... */\n      jump\t// out\n        /* \"contracts/REC20Stacking.sol\":23801:23832  uint256 public periodFinish = 0 */\n    tag_105:\n      sload(0x08)\n      dup2\n      jump\t// out\n        /* \"contracts/REC20Stacking.sol\":15460:15700  function transferOwnership(address newOwner) public virtual onlyOwner {... */\n    tag_109:\n        /* \"contracts/REC20Stacking.sol\":14757:14769  _msgSender() */\n      tag_227\n        /* \"contracts/REC20Stacking.sol\":14757:14767  _msgSender */\n      tag_126\n        /* \"contracts/REC20Stacking.sol\":14757:14769  _msgSender() */\n      jump\t// in\n    tag_227:\n        /* \"contracts/REC20Stacking.sol\":14747:14769  _owner == _msgSender() */\n      0xffffffffffffffffffffffffffffffffffffffff\n      and\n        /* \"contracts/REC20Stacking.sol\":14747:14753  _owner */\n      0x03\n      0x00\n      swap1\n      sload\n      swap1\n      0x0100\n      exp\n      swap1\n      div\n      0xffffffffffffffffffffffffffffffffffffffff\n      and\n        /* \"contracts/REC20Stacking.sol\":14747:14769  _owner == _msgSender() */\n      0xffffffffffffffffffffffffffffffffffffffff\n      and\n      eq\n        /* \"contracts/REC20Stacking.sol\":14739:14806  require(_owner == _msgSender(), \"Ownable: caller is not the owner\") */\n      tag_228\n      jumpi\n      mload(0x40)\n      0x08c379a000000000000000000000000000000000000000000000000000000000\n      dup2\n      mstore\n      0x04\n      add\n      tag_229\n      swap1\n      tag_129\n      jump\t// in\n    tag_229:\n      mload(0x40)\n      dup1\n      swap2\n      sub\n      swap1\n      revert\n    tag_228:\n        /* \"contracts/REC20Stacking.sol\":15568:15569  0 */\n      0x00\n        /* \"contracts/REC20Stacking.sol\":15548:15570  newOwner != address(0) */\n      0xffffffffffffffffffffffffffffffffffffffff\n      and\n        /* \"contracts/REC20Stacking.sol\":15548:15556  newOwner */\n      dup2\n        /* \"contracts/REC20Stacking.sol\":15548:15570  newOwner != address(0) */\n      0xffffffffffffffffffffffffffffffffffffffff\n      and\n      sub\n        /* \"contracts/REC20Stacking.sol\":15540:15613  require(newOwner != address(0), \"Ownable: new owner is the zero address\") */\n      tag_231\n      jumpi\n      mload(0x40)\n      0x08c379a000000000000000000000000000000000000000000000000000000000\n      dup2\n      mstore\n      0x04\n      add\n      tag_232\n      swap1\n      tag_233\n      jump\t// in\n    tag_232:\n      mload(0x40)\n      dup1\n      swap2\n      sub\n      swap1\n      revert\n    tag_231:\n        /* \"contracts/REC20Stacking.sol\":15657:15665  newOwner */\n      dup1\n        /* \"contracts/REC20Stacking.sol\":15628:15666  OwnershipTransferred(_owner, newOwner) */\n      0xffffffffffffffffffffffffffffffffffffffff\n      and\n        /* \"contracts/REC20Stacking.sol\":15649:15655  _owner */\n      0x03\n      0x00\n      swap1\n      sload\n      swap1\n      0x0100\n      exp\n      swap1\n      div\n      0xffffffffffffffffffffffffffffffffffffffff\n      and\n        /* \"contracts/REC20Stacking.sol\":15628:15666  OwnershipTransferred(_owner, newOwner) */\n      0xffffffffffffffffffffffffffffffffffffffff\n      and\n      0x8be0079c531659141344cd1fd0a4f28419497f9722a3daafe3b4186f6b6457e0\n      mload(0x40)\n      mload(0x40)\n      dup1\n      swap2\n      sub\n      swap1\n      log3\n        /* \"contracts/REC20Stacking.sol\":15685:15693  newOwner */\n      dup1\n        /* \"contracts/REC20Stacking.sol\":15676:15682  _owner */\n      0x03\n      0x00\n        /* \"contracts/REC20Stacking.sol\":15676:15693  _owner = newOwner */\n      0x0100\n      exp\n      dup2\n      sload\n      dup2\n      0xffffffffffffffffffffffffffffffffffffffff\n      mul\n      not\n      and\n      swap1\n      dup4\n      0xffffffffffffffffffffffffffffffffffffffff\n      and\n      mul\n      or\n      swap1\n      sstore\n      pop\n        /* \"contracts/REC20Stacking.sol\":15460:15700  function transferOwnership(address newOwner) public virtual onlyOwner {... */\n      pop\n      jump\t// out\n        /* \"contracts/REC20Stacking.sol\":23593:23612  IERC20 public token */\n    tag_111:\n      0x05\n      0x00\n      swap1\n      sload\n      swap1\n      0x0100\n      exp\n      swap1\n      div\n      0xffffffffffffffffffffffffffffffffffffffff\n      and\n      dup2\n      jump\t// out\n        /* \"contracts/REC20Stacking.sol\":3395:3529  function sub(uint256 a, uint256 b) internal pure returns (uint256) {... */\n    tag_119:\n        /* \"contracts/REC20Stacking.sol\":3453:3460  uint256 */\n      0x00\n        /* \"contracts/REC20Stacking.sol\":3479:3522  sub(a, b, \"SafeMath: subtraction overflow\") */\n      tag_235\n        /* \"contracts/REC20Stacking.sol\":3483:3484  a */\n      dup4\n        /* \"contracts/REC20Stacking.sol\":3486:3487  b */\n      dup4\n        /* \"contracts/REC20Stacking.sol\":3479:3522  sub(a, b, \"SafeMath: subtraction overflow\") */\n      mload(0x40)\n      dup1\n      0x40\n      add\n      0x40\n      mstore\n      dup1\n      0x1e\n      dup2\n      mstore\n      0x20\n      add\n      0x536166654d6174683a207375627472616374696f6e206f766572666c6f770000\n      dup2\n      mstore\n      pop\n        /* \"contracts/REC20Stacking.sol\":3479:3482  sub */\n      tag_236\n        /* \"contracts/REC20Stacking.sol\":3479:3522  sub(a, b, \"SafeMath: subtraction overflow\") */\n      jump\t// in\n    tag_235:\n        /* \"contracts/REC20Stacking.sol\":3472:3522  return sub(a, b, \"SafeMath: subtraction overflow\") */\n      swap1\n      pop\n        /* \"contracts/REC20Stacking.sol\":3395:3529  function sub(uint256 a, uint256 b) internal pure returns (uint256) {... */\n      swap3\n      swap2\n      pop\n      pop\n      jump\t// out\n        /* \"contracts/REC20Stacking.sol\":4254:4713  function mul(uint256 a, uint256 b) internal pure returns (uint256) {... */\n    tag_121:\n        /* \"contracts/REC20Stacking.sol\":4312:4319  uint256 */\n      0x00\n        /* \"contracts/REC20Stacking.sol\":4558:4559  0 */\n      dup1\n        /* \"contracts/REC20Stacking.sol\":4553:4554  a */\n      dup4\n        /* \"contracts/REC20Stacking.sol\":4553:4559  a == 0 */\n      sub\n        /* \"contracts/REC20Stacking.sol\":4549:4594  if (a == 0) {... */\n      tag_238\n      jumpi\n        /* \"contracts/REC20Stacking.sol\":4582:4583  0 */\n      0x00\n        /* \"contracts/REC20Stacking.sol\":4575:4583  return 0 */\n      swap1\n      pop\n      jump(tag_237)\n        /* \"contracts/REC20Stacking.sol\":4549:4594  if (a == 0) {... */\n    tag_238:\n        /* \"contracts/REC20Stacking.sol\":4604:4613  uint256 c */\n      0x00\n        /* \"contracts/REC20Stacking.sol\":4620:4621  b */\n      dup3\n        /* \"contracts/REC20Stacking.sol\":4616:4617  a */\n      dup5\n        /* \"contracts/REC20Stacking.sol\":4616:4621  a * b */\n      tag_239\n      swap2\n      swap1\n      tag_240\n      jump\t// in\n    tag_239:\n        /* \"contracts/REC20Stacking.sol\":4604:4621  uint256 c = a * b */\n      swap1\n      pop\n        /* \"contracts/REC20Stacking.sol\":4648:4649  b */\n      dup3\n        /* \"contracts/REC20Stacking.sol\":4643:4644  a */\n      dup5\n        /* \"contracts/REC20Stacking.sol\":4639:4640  c */\n      dup3\n        /* \"contracts/REC20Stacking.sol\":4639:4644  c / a */\n      tag_241\n      swap2\n      swap1\n      tag_242\n      jump\t// in\n    tag_241:\n        /* \"contracts/REC20Stacking.sol\":4639:4649  c / a == b */\n      eq\n        /* \"contracts/REC20Stacking.sol\":4631:4687  require(c / a == b, \"SafeMath: multiplication overflow\") */\n      tag_243\n      jumpi\n      mload(0x40)\n      0x08c379a000000000000000000000000000000000000000000000000000000000\n      dup2\n      mstore\n      0x04\n      add\n      tag_244\n      swap1\n      tag_245\n      jump\t// in\n    tag_244:\n      mload(0x40)\n      dup1\n      swap2\n      sub\n      swap1\n      revert\n    tag_243:\n        /* \"contracts/REC20Stacking.sol\":4705:4706  c */\n      dup1\n        /* \"contracts/REC20Stacking.sol\":4698:4706  return c */\n      swap2\n      pop\n      pop\n        /* \"contracts/REC20Stacking.sol\":4254:4713  function mul(uint256 a, uint256 b) internal pure returns (uint256) {... */\n    tag_237:\n      swap3\n      swap2\n      pop\n      pop\n      jump\t// out\n        /* \"contracts/REC20Stacking.sol\":5175:5305  function div(uint256 a, uint256 b) internal pure returns (uint256) {... */\n    tag_122:\n        /* \"contracts/REC20Stacking.sol\":5233:5240  uint256 */\n      0x00\n        /* \"contracts/REC20Stacking.sol\":5259:5298  div(a, b, \"SafeMath: division by zero\") */\n      tag_247\n        /* \"contracts/REC20Stacking.sol\":5263:5264  a */\n      dup4\n        /* \"contracts/REC20Stacking.sol\":5266:5267  b */\n      dup4\n        /* \"contracts/REC20Stacking.sol\":5259:5298  div(a, b, \"SafeMath: division by zero\") */\n      mload(0x40)\n      dup1\n      0x40\n      add\n      0x40\n      mstore\n      dup1\n      0x1a\n      dup2\n      mstore\n      0x20\n      add\n      0x536166654d6174683a206469766973696f6e206279207a65726f000000000000\n      dup2\n      mstore\n      pop\n        /* \"contracts/REC20Stacking.sol\":5259:5262  div */\n      tag_248\n        /* \"contracts/REC20Stacking.sol\":5259:5298  div(a, b, \"SafeMath: division by zero\") */\n      jump\t// in\n    tag_247:\n        /* \"contracts/REC20Stacking.sol\":5252:5298  return div(a, b, \"SafeMath: division by zero\") */\n      swap1\n      pop\n        /* \"contracts/REC20Stacking.sol\":5175:5305  function div(uint256 a, uint256 b) internal pure returns (uint256) {... */\n      swap3\n      swap2\n      pop\n      pop\n      jump\t// out\n        /* \"contracts/REC20Stacking.sol\":2948:3124  function add(uint256 a, uint256 b) internal pure returns (uint256) {... */\n    tag_123:\n        /* \"contracts/REC20Stacking.sol\":3006:3013  uint256 */\n      0x00\n        /* \"contracts/REC20Stacking.sol\":3025:3034  uint256 c */\n      dup1\n        /* \"contracts/REC20Stacking.sol\":3041:3042  b */\n      dup3\n        /* \"contracts/REC20Stacking.sol\":3037:3038  a */\n      dup5\n        /* \"contracts/REC20Stacking.sol\":3037:3042  a + b */\n      tag_250\n      swap2\n      swap1\n      tag_251\n      jump\t// in\n    tag_250:\n        /* \"contracts/REC20Stacking.sol\":3025:3042  uint256 c = a + b */\n      swap1\n      pop\n        /* \"contracts/REC20Stacking.sol\":3065:3066  a */\n      dup4\n        /* \"contracts/REC20Stacking.sol\":3060:3061  c */\n      dup2\n        /* \"contracts/REC20Stacking.sol\":3060:3066  c >= a */\n      lt\n      iszero\n        /* \"contracts/REC20Stacking.sol\":3052:3098  require(c >= a, \"SafeMath: addition overflow\") */\n      tag_252\n      jumpi\n      mload(0x40)\n      0x08c379a000000000000000000000000000000000000000000000000000000000\n      dup2\n      mstore\n      0x04\n      add\n      tag_253\n      swap1\n      tag_254\n      jump\t// in\n    tag_253:\n      mload(0x40)\n      dup1\n      swap2\n      sub\n      swap1\n      revert\n    tag_252:\n        /* \"contracts/REC20Stacking.sol\":3116:3117  c */\n      dup1\n        /* \"contracts/REC20Stacking.sol\":3109:3117  return c */\n      swap2\n      pop\n      pop\n        /* \"contracts/REC20Stacking.sol\":2948:3124  function add(uint256 a, uint256 b) internal pure returns (uint256) {... */\n      swap3\n      swap2\n      pop\n      pop\n      jump\t// out\n        /* \"contracts/REC20Stacking.sol\":13731:13827  function _msgSender() internal view virtual returns (address) {... */\n    tag_126:\n        /* \"contracts/REC20Stacking.sol\":13784:13791  address */\n      0x00\n        /* \"contracts/REC20Stacking.sol\":13810:13820  msg.sender */\n      caller\n        /* \"contracts/REC20Stacking.sol\":13803:13820  return msg.sender */\n      swap1\n      pop\n        /* \"contracts/REC20Stacking.sol\":13731:13827  function _msgSender() internal view virtual returns (address) {... */\n      swap1\n      jump\t// out\n        /* \"contracts/REC20Stacking.sol\":20021:20555  function withdraw(uint256 amount) public virtual {... */\n    tag_146:\n        /* \"contracts/REC20Stacking.sol\":20116:20137  uint256 directorShare */\n      0x00\n        /* \"contracts/REC20Stacking.sol\":20140:20149  _balances */\n      0x02\n        /* \"contracts/REC20Stacking.sol\":20140:20161  _balances[msg.sender] */\n      0x00\n        /* \"contracts/REC20Stacking.sol\":20150:20160  msg.sender */\n      caller\n        /* \"contracts/REC20Stacking.sol\":20140:20161  _balances[msg.sender] */\n      0xffffffffffffffffffffffffffffffffffffffff\n      and\n      0xffffffffffffffffffffffffffffffffffffffff\n      and\n      dup2\n      mstore\n      0x20\n      add\n      swap1\n      dup2\n      mstore\n      0x20\n      add\n      0x00\n      keccak256\n      sload\n        /* \"contracts/REC20Stacking.sol\":20116:20161  uint256 directorShare = _balances[msg.sender] */\n      swap1\n      pop\n        /* \"contracts/REC20Stacking.sol\":20247:20253  amount */\n      dup2\n        /* \"contracts/REC20Stacking.sol\":20230:20243  directorShare */\n      dup2\n        /* \"contracts/REC20Stacking.sol\":20230:20253  directorShare >= amount */\n      lt\n      iszero\n        /* \"contracts/REC20Stacking.sol\":20222:20301  require(directorShare >= amount, 'withdraw request greater than staked amount') */\n      tag_257\n      jumpi\n      mload(0x40)\n      0x08c379a000000000000000000000000000000000000000000000000000000000\n      dup2\n      mstore\n      0x04\n      add\n      tag_258\n      swap1\n      tag_259\n      jump\t// in\n    tag_258:\n      mload(0x40)\n      dup1\n      swap2\n      sub\n      swap1\n      revert\n    tag_257:\n        /* \"contracts/REC20Stacking.sol\":20350:20374  _totalSupply.sub(amount) */\n      tag_260\n        /* \"contracts/REC20Stacking.sol\":20367:20373  amount */\n      dup3\n        /* \"contracts/REC20Stacking.sol\":20350:20362  _totalSupply */\n      sload(0x01)\n        /* \"contracts/REC20Stacking.sol\":20350:20366  _totalSupply.sub */\n      tag_119\n      swap1\n        /* \"contracts/REC20Stacking.sol\":20350:20374  _totalSupply.sub(amount) */\n      swap2\n      swap1\n      0xffffffff\n      and\n      jump\t// in\n    tag_260:\n        /* \"contracts/REC20Stacking.sol\":20335:20347  _totalSupply */\n      0x01\n        /* \"contracts/REC20Stacking.sol\":20335:20374  _totalSupply = _totalSupply.sub(amount) */\n      dup2\n      swap1\n      sstore\n      pop\n        /* \"contracts/REC20Stacking.sol\":20432:20465  _balances[msg.sender].sub(amount) */\n      tag_261\n        /* \"contracts/REC20Stacking.sol\":20458:20464  amount */\n      dup3\n        /* \"contracts/REC20Stacking.sol\":20432:20441  _balances */\n      0x02\n        /* \"contracts/REC20Stacking.sol\":20432:20453  _balances[msg.sender] */\n      0x00\n        /* \"contracts/REC20Stacking.sol\":20442:20452  msg.sender */\n      caller\n        /* \"contracts/REC20Stacking.sol\":20432:20453  _balances[msg.sender] */\n      0xffffffffffffffffffffffffffffffffffffffff\n      and\n      0xffffffffffffffffffffffffffffffffffffffff\n      and\n      dup2\n      mstore\n      0x20\n      add\n      swap1\n      dup2\n      mstore\n      0x20\n      add\n      0x00\n      keccak256\n      sload\n        /* \"contracts/REC20Stacking.sol\":20432:20457  _balances[msg.sender].sub */\n      tag_119\n      swap1\n        /* \"contracts/REC20Stacking.sol\":20432:20465  _balances[msg.sender].sub(amount) */\n      swap2\n      swap1\n      0xffffffff\n      and\n      jump\t// in\n    tag_261:\n        /* \"contracts/REC20Stacking.sol\":20408:20417  _balances */\n      0x02\n        /* \"contracts/REC20Stacking.sol\":20408:20429  _balances[msg.sender] */\n      0x00\n        /* \"contracts/REC20Stacking.sol\":20418:20428  msg.sender */\n      caller\n        /* \"contracts/REC20Stacking.sol\":20408:20429  _balances[msg.sender] */\n      0xffffffffffffffffffffffffffffffffffffffff\n      and\n      0xffffffffffffffffffffffffffffffffffffffff\n      and\n      dup2\n      mstore\n      0x20\n      add\n      swap1\n      dup2\n      mstore\n      0x20\n      add\n      0x00\n      keccak256\n        /* \"contracts/REC20Stacking.sol\":20408:20465  _balances[msg.sender] = _balances[msg.sender].sub(amount) */\n      dup2\n      swap1\n      sstore\n      pop\n        /* \"contracts/REC20Stacking.sol\":20512:20548  lpt.safeTransfer(msg.sender, amount) */\n      tag_262\n        /* \"contracts/REC20Stacking.sol\":20529:20539  msg.sender */\n      caller\n        /* \"contracts/REC20Stacking.sol\":20541:20547  amount */\n      dup4\n        /* \"contracts/REC20Stacking.sol\":20512:20515  lpt */\n      0x00\n      dup1\n      sload\n      swap1\n      0x0100\n      exp\n      swap1\n      div\n      0xffffffffffffffffffffffffffffffffffffffff\n      and\n        /* \"contracts/REC20Stacking.sol\":20512:20528  lpt.safeTransfer */\n      0xffffffffffffffffffffffffffffffffffffffff\n      and\n      tag_185\n      swap1\n        /* \"contracts/REC20Stacking.sol\":20512:20548  lpt.safeTransfer(msg.sender, amount) */\n      swap3\n      swap2\n      swap1\n      0xffffffff\n      and\n      jump\t// in\n    tag_262:\n        /* \"contracts/REC20Stacking.sol\":20070:20555  {... */\n      pop\n        /* \"contracts/REC20Stacking.sol\":20021:20555  function withdraw(uint256 amount) public virtual {... */\n      pop\n      jump\t// out\n        /* \"contracts/REC20Stacking.sol\":15791:15966  function safeTransfer(IERC20 token, address to, uint256 value) internal {... */\n    tag_185:\n        /* \"contracts/REC20Stacking.sol\":15873:15959  _callOptionalReturn(token, abi.encodeWithSelector(token.transfer.selector, to, value)) */\n      tag_264\n        /* \"contracts/REC20Stacking.sol\":15893:15898  token */\n      dup4\n        /* \"contracts/REC20Stacking.sol\":15923:15946  token.transfer.selector */\n      shl(0xe0, 0xa9059cbb)\n        /* \"contracts/REC20Stacking.sol\":15948:15950  to */\n      dup5\n        /* \"contracts/REC20Stacking.sol\":15952:15957  value */\n      dup5\n        /* \"contracts/REC20Stacking.sol\":15900:15958  abi.encodeWithSelector(token.transfer.selector, to, value) */\n      add(0x24, mload(0x40))\n      tag_265\n      swap3\n      swap2\n      swap1\n      tag_266\n      jump\t// in\n    tag_265:\n      mload(0x40)\n      0x20\n      dup2\n      dup4\n      sub\n      sub\n      dup2\n      mstore\n      swap1\n      0x40\n      mstore\n      swap1\n      not(0xffffffffffffffffffffffffffffffffffffffffffffffffffffffff)\n      and\n      0x20\n      dup3\n      add\n      dup1\n      mload\n      0xffffffffffffffffffffffffffffffffffffffffffffffffffffffff\n      dup4\n      dup2\n      dup4\n      and\n      or\n      dup4\n      mstore\n      pop\n      pop\n      pop\n      pop\n        /* \"contracts/REC20Stacking.sol\":15873:15892  _callOptionalReturn */\n      tag_267\n        /* \"contracts/REC20Stacking.sol\":15873:15959  _callOptionalReturn(token, abi.encodeWithSelector(token.transfer.selector, to, value)) */\n      jump\t// in\n    tag_264:\n        /* \"contracts/REC20Stacking.sol\":15791:15966  function safeTransfer(IERC20 token, address to, uint256 value) internal {... */\n      pop\n      pop\n      pop\n      jump\t// out\n        /* \"contracts/REC20Stacking.sol\":7534:7638  function min(uint256 a, uint256 b) internal pure returns (uint256) {... */\n    tag_195:\n        /* \"contracts/REC20Stacking.sol\":7592:7599  uint256 */\n      0x00\n        /* \"contracts/REC20Stacking.sol\":7622:7623  b */\n      dup2\n        /* \"contracts/REC20Stacking.sol\":7618:7619  a */\n      dup4\n        /* \"contracts/REC20Stacking.sol\":7618:7623  a < b */\n      lt\n        /* \"contracts/REC20Stacking.sol\":7618:7631  a < b ? a : b */\n      tag_269\n      jumpi\n        /* \"contracts/REC20Stacking.sol\":7630:7631  b */\n      dup2\n        /* \"contracts/REC20Stacking.sol\":7618:7631  a < b ? a : b */\n      jump(tag_270)\n    tag_269:\n        /* \"contracts/REC20Stacking.sol\":7626:7627  a */\n      dup3\n        /* \"contracts/REC20Stacking.sol\":7618:7631  a < b ? a : b */\n    tag_270:\n        /* \"contracts/REC20Stacking.sol\":7611:7631  return a < b ? a : b */\n      swap1\n      pop\n        /* \"contracts/REC20Stacking.sol\":7534:7638  function min(uint256 a, uint256 b) internal pure returns (uint256) {... */\n      swap3\n      swap2\n      pop\n      pop\n      jump\t// out\n        /* \"contracts/REC20Stacking.sol\":19608:19939  function stake(uint256 amount) public virtual {... */\n    tag_210:\n        /* \"contracts/REC20Stacking.sol\":19703:19727  _totalSupply.add(amount) */\n      tag_272\n        /* \"contracts/REC20Stacking.sol\":19720:19726  amount */\n      dup2\n        /* \"contracts/REC20Stacking.sol\":19703:19715  _totalSupply */\n      sload(0x01)\n        /* \"contracts/REC20Stacking.sol\":19703:19719  _totalSupply.add */\n      tag_123\n      swap1\n        /* \"contracts/REC20Stacking.sol\":19703:19727  _totalSupply.add(amount) */\n      swap2\n      swap1\n      0xffffffff\n      and\n      jump\t// in\n    tag_272:\n        /* \"contracts/REC20Stacking.sol\":19688:19700  _totalSupply */\n      0x01\n        /* \"contracts/REC20Stacking.sol\":19688:19727  _totalSupply = _totalSupply.add(amount) */\n      dup2\n      swap1\n      sstore\n      pop\n        /* \"contracts/REC20Stacking.sol\":19791:19824  _balances[msg.sender].add(amount) */\n      tag_273\n        /* \"contracts/REC20Stacking.sol\":19817:19823  amount */\n      dup2\n        /* \"contracts/REC20Stacking.sol\":19791:19800  _balances */\n      0x02\n        /* \"contracts/REC20Stacking.sol\":19791:19812  _balances[msg.sender] */\n      0x00\n        /* \"contracts/REC20Stacking.sol\":19801:19811  msg.sender */\n      caller\n        /* \"contracts/REC20Stacking.sol\":19791:19812  _balances[msg.sender] */\n      0xffffffffffffffffffffffffffffffffffffffff\n      and\n      0xffffffffffffffffffffffffffffffffffffffff\n      and\n      dup2\n      mstore\n      0x20\n      add\n      swap1\n      dup2\n      mstore\n      0x20\n      add\n      0x00\n      keccak256\n      sload\n        /* \"contracts/REC20Stacking.sol\":19791:19816  _balances[msg.sender].add */\n      tag_123\n      swap1\n        /* \"contracts/REC20Stacking.sol\":19791:19824  _balances[msg.sender].add(amount) */\n      swap2\n      swap1\n      0xffffffff\n      and\n      jump\t// in\n    tag_273:\n        /* \"contracts/REC20Stacking.sol\":19767:19776  _balances */\n      0x02\n        /* \"contracts/REC20Stacking.sol\":19767:19788  _balances[msg.sender] */\n      0x00\n        /* \"contracts/REC20Stacking.sol\":19777:19787  msg.sender */\n      caller\n        /* \"contracts/REC20Stacking.sol\":19767:19788  _balances[msg.sender] */\n      0xffffffffffffffffffffffffffffffffffffffff\n      and\n      0xffffffffffffffffffffffffffffffffffffffff\n      and\n      dup2\n      mstore\n      0x20\n      add\n      swap1\n      dup2\n      mstore\n      0x20\n      add\n      0x00\n      keccak256\n        /* \"contracts/REC20Stacking.sol\":19767:19824  _balances[msg.sender] = _balances[msg.sender].add(amount) */\n      dup2\n      swap1\n      sstore\n      pop\n        /* \"contracts/REC20Stacking.sol\":19877:19932  lpt.safeTransferFrom(msg.sender, address(this), amount) */\n      tag_274\n        /* \"contracts/REC20Stacking.sol\":19898:19908  msg.sender */\n      caller\n        /* \"contracts/REC20Stacking.sol\":19918:19922  this */\n      address\n        /* \"contracts/REC20Stacking.sol\":19925:19931  amount */\n      dup4\n        /* \"contracts/REC20Stacking.sol\":19877:19880  lpt */\n      0x00\n      dup1\n      sload\n      swap1\n      0x0100\n      exp\n      swap1\n      div\n      0xffffffffffffffffffffffffffffffffffffffff\n      and\n        /* \"contracts/REC20Stacking.sol\":19877:19897  lpt.safeTransferFrom */\n      0xffffffffffffffffffffffffffffffffffffffff\n      and\n      tag_275\n      swap1\n        /* \"contracts/REC20Stacking.sol\":19877:19932  lpt.safeTransferFrom(msg.sender, address(this), amount) */\n      swap4\n      swap3\n      swap2\n      swap1\n      0xffffffff\n      and\n      jump\t// in\n    tag_274:\n        /* \"contracts/REC20Stacking.sol\":19608:19939  function stake(uint256 amount) public virtual {... */\n      pop\n      jump\t// out\n        /* \"contracts/REC20Stacking.sol\":3820:4007  function sub(uint256 a, uint256 b, string memory errorMessage) internal pure returns (uint256) {... */\n    tag_236:\n        /* \"contracts/REC20Stacking.sol\":3906:3913  uint256 */\n      0x00\n        /* \"contracts/REC20Stacking.sol\":3938:3939  a */\n      dup4\n        /* \"contracts/REC20Stacking.sol\":3933:3934  b */\n      dup4\n        /* \"contracts/REC20Stacking.sol\":3933:3939  b <= a */\n      gt\n      iszero\n        /* \"contracts/REC20Stacking.sol\":3941:3953  errorMessage */\n      dup3\n        /* \"contracts/REC20Stacking.sol\":3925:3954  require(b <= a, errorMessage) */\n      swap1\n      tag_277\n      jumpi\n      mload(0x40)\n      0x08c379a000000000000000000000000000000000000000000000000000000000\n      dup2\n      mstore\n      0x04\n      add\n      tag_278\n      swap2\n      swap1\n      tag_279\n      jump\t// in\n    tag_278:\n      mload(0x40)\n      dup1\n      swap2\n      sub\n      swap1\n      revert\n    tag_277:\n      pop\n        /* \"contracts/REC20Stacking.sol\":3964:3973  uint256 c */\n      0x00\n        /* \"contracts/REC20Stacking.sol\":3980:3981  b */\n      dup4\n        /* \"contracts/REC20Stacking.sol\":3976:3977  a */\n      dup6\n        /* \"contracts/REC20Stacking.sol\":3976:3981  a - b */\n      tag_280\n      swap2\n      swap1\n      tag_281\n      jump\t// in\n    tag_280:\n        /* \"contracts/REC20Stacking.sol\":3964:3981  uint256 c = a - b */\n      swap1\n      pop\n        /* \"contracts/REC20Stacking.sol\":3999:4000  c */\n      dup1\n        /* \"contracts/REC20Stacking.sol\":3992:4000  return c */\n      swap2\n      pop\n      pop\n        /* \"contracts/REC20Stacking.sol\":3820:4007  function sub(uint256 a, uint256 b, string memory errorMessage) internal pure returns (uint256) {... */\n      swap4\n      swap3\n      pop\n      pop\n      pop\n      jump\t// out\n        /* \"contracts/REC20Stacking.sol\":5787:6059  function div(uint256 a, uint256 b, string memory errorMessage) internal pure returns (uint256) {... */\n    tag_248:\n        /* \"contracts/REC20Stacking.sol\":5873:5880  uint256 */\n      0x00\n        /* \"contracts/REC20Stacking.sol\":5904:5905  0 */\n      dup1\n        /* \"contracts/REC20Stacking.sol\":5900:5901  b */\n      dup4\n        /* \"contracts/REC20Stacking.sol\":5900:5905  b > 0 */\n      gt\n        /* \"contracts/REC20Stacking.sol\":5907:5919  errorMessage */\n      dup3\n        /* \"contracts/REC20Stacking.sol\":5892:5920  require(b > 0, errorMessage) */\n      swap1\n      tag_283\n      jumpi\n      mload(0x40)\n      0x08c379a000000000000000000000000000000000000000000000000000000000\n      dup2\n      mstore\n      0x04\n      add\n      tag_284\n      swap2\n      swap1\n      tag_279\n      jump\t// in\n    tag_284:\n      mload(0x40)\n      dup1\n      swap2\n      sub\n      swap1\n      revert\n    tag_283:\n      pop\n        /* \"contracts/REC20Stacking.sol\":5930:5939  uint256 c */\n      0x00\n        /* \"contracts/REC20Stacking.sol\":5946:5947  b */\n      dup4\n        /* \"contracts/REC20Stacking.sol\":5942:5943  a */\n      dup6\n        /* \"contracts/REC20Stacking.sol\":5942:5947  a / b */\n      tag_285\n      swap2\n      swap1\n      tag_242\n      jump\t// in\n    tag_285:\n        /* \"contracts/REC20Stacking.sol\":5930:5947  uint256 c = a / b */\n      swap1\n      pop\n        /* \"contracts/REC20Stacking.sol\":6051:6052  c */\n      dup1\n        /* \"contracts/REC20Stacking.sol\":6044:6052  return c */\n      swap2\n      pop\n      pop\n        /* \"contracts/REC20Stacking.sol\":5787:6059  function div(uint256 a, uint256 b, string memory errorMessage) internal pure returns (uint256) {... */\n      swap4\n      swap3\n      pop\n      pop\n      pop\n      jump\t// out\n        /* \"contracts/REC20Stacking.sol\":18054:18805  function _callOptionalReturn(IERC20 token, bytes memory data) private {... */\n    tag_267:\n        /* \"contracts/REC20Stacking.sol\":18473:18496  bytes memory returndata */\n      0x00\n        /* \"contracts/REC20Stacking.sol\":18499:18568  address(token).functionCall(data, \"SafeERC20: low-level call failed\") */\n      tag_287\n        /* \"contracts/REC20Stacking.sol\":18527:18531  data */\n      dup3\n        /* \"contracts/REC20Stacking.sol\":18499:18568  address(token).functionCall(data, \"SafeERC20: low-level call failed\") */\n      mload(0x40)\n      dup1\n      0x40\n      add\n      0x40\n      mstore\n      dup1\n      0x20\n      dup2\n      mstore\n      0x20\n      add\n      0x5361666545524332303a206c6f772d6c6576656c2063616c6c206661696c6564\n      dup2\n      mstore\n      pop\n        /* \"contracts/REC20Stacking.sol\":18507:18512  token */\n      dup6\n        /* \"contracts/REC20Stacking.sol\":18499:18526  address(token).functionCall */\n      0xffffffffffffffffffffffffffffffffffffffff\n      and\n      tag_288\n      swap1\n        /* \"contracts/REC20Stacking.sol\":18499:18568  address(token).functionCall(data, \"SafeERC20: low-level call failed\") */\n      swap3\n      swap2\n      swap1\n      0xffffffff\n      and\n      jump\t// in\n    tag_287:\n        /* \"contracts/REC20Stacking.sol\":18473:18568  bytes memory returndata = address(token).functionCall(data, \"SafeERC20: low-level call failed\") */\n      swap1\n      pop\n        /* \"contracts/REC20Stacking.sol\":18602:18603  0 */\n      0x00\n        /* \"contracts/REC20Stacking.sol\":18582:18592  returndata */\n      dup2\n        /* \"contracts/REC20Stacking.sol\":18582:18599  returndata.length */\n      mload\n        /* \"contracts/REC20Stacking.sol\":18582:18603  returndata.length > 0 */\n      gt\n        /* \"contracts/REC20Stacking.sol\":18578:18799  if (returndata.length > 0) { // Return data is optional... */\n      iszero\n      tag_289\n      jumpi\n        /* \"contracts/REC20Stacking.sol\":18722:18732  returndata */\n      dup1\n        /* \"contracts/REC20Stacking.sol\":18711:18741  abi.decode(returndata, (bool)) */\n      dup1\n      0x20\n      add\n      swap1\n      mload\n      dup2\n      add\n      swap1\n      tag_290\n      swap2\n      swap1\n      tag_291\n      jump\t// in\n    tag_290:\n        /* \"contracts/REC20Stacking.sol\":18703:18788  require(abi.decode(returndata, (bool)), \"SafeERC20: ERC20 operation did not succeed\") */\n      tag_292\n      jumpi\n      mload(0x40)\n      0x08c379a000000000000000000000000000000000000000000000000000000000\n      dup2\n      mstore\n      0x04\n      add\n      tag_293\n      swap1\n      tag_294\n      jump\t// in\n    tag_293:\n      mload(0x40)\n      dup1\n      swap2\n      sub\n      swap1\n      revert\n    tag_292:\n        /* \"contracts/REC20Stacking.sol\":18578:18799  if (returndata.length > 0) { // Return data is optional... */\n    tag_289:\n        /* \"contracts/REC20Stacking.sol\":18124:18805  {... */\n      pop\n        /* \"contracts/REC20Stacking.sol\":18054:18805  function _callOptionalReturn(IERC20 token, bytes memory data) private {... */\n      pop\n      pop\n      jump\t// out\n        /* \"contracts/REC20Stacking.sol\":15972:16175  function safeTransferFrom(IERC20 token, address from, address to, uint256 value) internal {... */\n    tag_275:\n        /* \"contracts/REC20Stacking.sol\":16072:16168  _callOptionalReturn(token, abi.encodeWithSelector(token.transferFrom.selector, from, to, value)) */\n      tag_296\n        /* \"contracts/REC20Stacking.sol\":16092:16097  token */\n      dup5\n        /* \"contracts/REC20Stacking.sol\":16122:16149  token.transferFrom.selector */\n      shl(0xe0, 0x23b872dd)\n        /* \"contracts/REC20Stacking.sol\":16151:16155  from */\n      dup6\n        /* \"contracts/REC20Stacking.sol\":16157:16159  to */\n      dup6\n        /* \"contracts/REC20Stacking.sol\":16161:16166  value */\n      dup6\n        /* \"contracts/REC20Stacking.sol\":16099:16167  abi.encodeWithSelector(token.transferFrom.selector, from, to, value) */\n      add(0x24, mload(0x40))\n      tag_297\n      swap4\n      swap3\n      swap2\n      swap1\n      tag_298\n      jump\t// in\n    tag_297:\n      mload(0x40)\n      0x20\n      dup2\n      dup4\n      sub\n      sub\n      dup2\n      mstore\n      swap1\n      0x40\n      mstore\n      swap1\n      not(0xffffffffffffffffffffffffffffffffffffffffffffffffffffffff)\n      and\n      0x20\n      dup3\n      add\n      dup1\n      mload\n      0xffffffffffffffffffffffffffffffffffffffffffffffffffffffff\n      dup4\n      dup2\n      dup4\n      and\n      or\n      dup4\n      mstore\n      pop\n      pop\n      pop\n      pop\n        /* \"contracts/REC20Stacking.sol\":16072:16091  _callOptionalReturn */\n      tag_267\n        /* \"contracts/REC20Stacking.sol\":16072:16168  _callOptionalReturn(token, abi.encodeWithSelector(token.transferFrom.selector, from, to, value)) */\n      jump\t// in\n    tag_296:\n        /* \"contracts/REC20Stacking.sol\":15972:16175  function safeTransferFrom(IERC20 token, address from, address to, uint256 value) internal {... */\n      pop\n      pop\n      pop\n      pop\n      jump\t// out\n        /* \"contracts/REC20Stacking.sol\":11391:11585  function functionCall(address target, bytes memory data, string memory errorMessage) internal returns (bytes memory) {... */\n    tag_288:\n        /* \"contracts/REC20Stacking.sol\":11494:11506  bytes memory */\n      0x60\n        /* \"contracts/REC20Stacking.sol\":11525:11578  _functionCallWithValue(target, data, 0, errorMessage) */\n      tag_300\n        /* \"contracts/REC20Stacking.sol\":11548:11554  target */\n      dup5\n        /* \"contracts/REC20Stacking.sol\":11556:11560  data */\n      dup5\n        /* \"contracts/REC20Stacking.sol\":11562:11563  0 */\n      0x00\n        /* \"contracts/REC20Stacking.sol\":11565:11577  errorMessage */\n      dup6\n        /* \"contracts/REC20Stacking.sol\":11525:11547  _functionCallWithValue */\n      tag_301\n        /* \"contracts/REC20Stacking.sol\":11525:11578  _functionCallWithValue(target, data, 0, errorMessage) */\n      jump\t// in\n    tag_300:\n        /* \"contracts/REC20Stacking.sol\":11518:11578  return _functionCallWithValue(target, data, 0, errorMessage) */\n      swap1\n      pop\n        /* \"contracts/REC20Stacking.sol\":11391:11585  function functionCall(address target, bytes memory data, string memory errorMessage) internal returns (bytes memory) {... */\n      swap4\n      swap3\n      pop\n      pop\n      pop\n      jump\t// out\n        /* \"contracts/REC20Stacking.sol\":12738:13696  function _functionCallWithValue(address target, bytes memory data, uint256 weiValue, string memory errorMessage) private returns (bytes memory) {... */\n    tag_301:\n        /* \"contracts/REC20Stacking.sol\":12868:12880  bytes memory */\n      0x60\n        /* \"contracts/REC20Stacking.sol\":12900:12918  isContract(target) */\n      tag_303\n        /* \"contracts/REC20Stacking.sol\":12911:12917  target */\n      dup6\n        /* \"contracts/REC20Stacking.sol\":12900:12910  isContract */\n      tag_304\n        /* \"contracts/REC20Stacking.sol\":12900:12918  isContract(target) */\n      jump\t// in\n    tag_303:\n        /* \"contracts/REC20Stacking.sol\":12892:12952  require(isContract(target), \"Address: call to non-contract\") */\n      tag_305\n      jumpi\n      mload(0x40)\n      0x08c379a000000000000000000000000000000000000000000000000000000000\n      dup2\n      mstore\n      0x04\n      add\n      tag_306\n      swap1\n      tag_307\n      jump\t// in\n    tag_306:\n      mload(0x40)\n      dup1\n      swap2\n      sub\n      swap1\n      revert\n    tag_305:\n        /* \"contracts/REC20Stacking.sol\":13023:13035  bool success */\n      0x00\n        /* \"contracts/REC20Stacking.sol\":13037:13060  bytes memory returndata */\n      dup1\n        /* \"contracts/REC20Stacking.sol\":13064:13070  target */\n      dup7\n        /* \"contracts/REC20Stacking.sol\":13064:13075  target.call */\n      0xffffffffffffffffffffffffffffffffffffffff\n      and\n        /* \"contracts/REC20Stacking.sol\":13084:13092  weiValue */\n      dup6\n        /* \"contracts/REC20Stacking.sol\":13095:13099  data */\n      dup8\n        /* \"contracts/REC20Stacking.sol\":13064:13100  target.call{ value: weiValue }(data) */\n      mload(0x40)\n      tag_308\n      swap2\n      swap1\n      tag_309\n      jump\t// in\n    tag_308:\n      0x00\n      mload(0x40)\n      dup1\n      dup4\n      sub\n      dup2\n      dup6\n      dup8\n      gas\n      call\n      swap3\n      pop\n      pop\n      pop\n      returndatasize\n      dup1\n      0x00\n      dup2\n      eq\n      tag_312\n      jumpi\n      mload(0x40)\n      swap2\n      pop\n      and(add(returndatasize, 0x3f), not(0x1f))\n      dup3\n      add\n      0x40\n      mstore\n      returndatasize\n      dup3\n      mstore\n      returndatasize\n      0x00\n      0x20\n      dup5\n      add\n      returndatacopy\n      jump(tag_311)\n    tag_312:\n      0x60\n      swap2\n      pop\n    tag_311:\n      pop\n        /* \"contracts/REC20Stacking.sol\":13022:13100  (bool success, bytes memory returndata) = target.call{ value: weiValue }(data) */\n      swap2\n      pop\n      swap2\n      pop\n        /* \"contracts/REC20Stacking.sol\":13114:13121  success */\n      dup2\n        /* \"contracts/REC20Stacking.sol\":13110:13690  if (success) {... */\n      iszero\n      tag_313\n      jumpi\n        /* \"contracts/REC20Stacking.sol\":13144:13154  returndata */\n      dup1\n        /* \"contracts/REC20Stacking.sol\":13137:13154  return returndata */\n      swap3\n      pop\n      pop\n      pop\n      jump(tag_302)\n        /* \"contracts/REC20Stacking.sol\":13110:13690  if (success) {... */\n    tag_313:\n        /* \"contracts/REC20Stacking.sol\":13275:13276  0 */\n      0x00\n        /* \"contracts/REC20Stacking.sol\":13255:13265  returndata */\n      dup2\n        /* \"contracts/REC20Stacking.sol\":13255:13272  returndata.length */\n      mload\n        /* \"contracts/REC20Stacking.sol\":13255:13276  returndata.length > 0 */\n      gt\n        /* \"contracts/REC20Stacking.sol\":13251:13680  if (returndata.length > 0) {... */\n      iszero\n      tag_315\n      jumpi\n        /* \"contracts/REC20Stacking.sol\":13513:13523  returndata */\n      dup1\n        /* \"contracts/REC20Stacking.sol\":13507:13524  mload(returndata) */\n      mload\n        /* \"contracts/REC20Stacking.sol\":13573:13588  returndata_size */\n      dup1\n        /* \"contracts/REC20Stacking.sol\":13560:13570  returndata */\n      dup3\n        /* \"contracts/REC20Stacking.sol\":13556:13558  32 */\n      0x20\n        /* \"contracts/REC20Stacking.sol\":13552:13571  add(32, returndata) */\n      add\n        /* \"contracts/REC20Stacking.sol\":13545:13589  revert(add(32, returndata), returndata_size) */\n      revert\n        /* \"contracts/REC20Stacking.sol\":13251:13680  if (returndata.length > 0) {... */\n    tag_315:\n        /* \"contracts/REC20Stacking.sol\":13652:13664  errorMessage */\n      dup4\n        /* \"contracts/REC20Stacking.sol\":13645:13665  revert(errorMessage) */\n      mload(0x40)\n      0x08c379a000000000000000000000000000000000000000000000000000000000\n      dup2\n      mstore\n      0x04\n      add\n      tag_317\n      swap2\n      swap1\n      tag_279\n      jump\t// in\n    tag_317:\n      mload(0x40)\n      dup1\n      swap2\n      sub\n      swap1\n      revert\n        /* \"contracts/REC20Stacking.sol\":12738:13696  function _functionCallWithValue(address target, bytes memory data, uint256 weiValue, string memory errorMessage) private returns (bytes memory) {... */\n    tag_302:\n      swap5\n      swap4\n      pop\n      pop\n      pop\n      pop\n      jump\t// out\n        /* \"contracts/REC20Stacking.sol\":8536:8949  function isContract(address account) internal view returns (bool) {... */\n    tag_304:\n        /* \"contracts/REC20Stacking.sol\":8596:8600  bool */\n      0x00\n        /* \"contracts/REC20Stacking.sol\":8799:8811  uint256 size */\n      dup1\n        /* \"contracts/REC20Stacking.sol\":8908:8915  account */\n      dup3\n        /* \"contracts/REC20Stacking.sol\":8896:8916  extcodesize(account) */\n      extcodesize\n        /* \"contracts/REC20Stacking.sol\":8888:8916  size := extcodesize(account) */\n      swap1\n      pop\n        /* \"contracts/REC20Stacking.sol\":8941:8942  0 */\n      0x00\n        /* \"contracts/REC20Stacking.sol\":8934:8938  size */\n      dup2\n        /* \"contracts/REC20Stacking.sol\":8934:8942  size > 0 */\n      gt\n        /* \"contracts/REC20Stacking.sol\":8927:8942  return size > 0 */\n      swap2\n      pop\n      pop\n        /* \"contracts/REC20Stacking.sol\":8536:8949  function isContract(address account) internal view returns (bool) {... */\n      swap2\n      swap1\n      pop\n      jump\t// out\n        /* \"#utility.yul\":88:205   */\n    tag_320:\n        /* \"#utility.yul\":197:198   */\n      0x00\n        /* \"#utility.yul\":194:195   */\n      dup1\n        /* \"#utility.yul\":187:199   */\n      revert\n        /* \"#utility.yul\":334:460   */\n    tag_322:\n        /* \"#utility.yul\":371:378   */\n      0x00\n        /* \"#utility.yul\":411:453   */\n      0xffffffffffffffffffffffffffffffffffffffff\n        /* \"#utility.yul\":404:409   */\n      dup3\n        /* \"#utility.yul\":400:454   */\n      and\n        /* \"#utility.yul\":389:454   */\n      swap1\n      pop\n        /* \"#utility.yul\":334:460   */\n      swap2\n      swap1\n      pop\n      jump\t// out\n        /* \"#utility.yul\":466:562   */\n    tag_323:\n        /* \"#utility.yul\":503:510   */\n      0x00\n        /* \"#utility.yul\":532:556   */\n      tag_377\n        /* \"#utility.yul\":550:555   */\n      dup3\n        /* \"#utility.yul\":532:556   */\n      tag_322\n      jump\t// in\n    tag_377:\n        /* \"#utility.yul\":521:556   */\n      swap1\n      pop\n        /* \"#utility.yul\":466:562   */\n      swap2\n      swap1\n      pop\n      jump\t// out\n        /* \"#utility.yul\":568:690   */\n    tag_324:\n        /* \"#utility.yul\":641:665   */\n      tag_379\n        /* \"#utility.yul\":659:664   */\n      dup2\n        /* \"#utility.yul\":641:665   */\n      tag_323\n      jump\t// in\n    tag_379:\n        /* \"#utility.yul\":634:639   */\n      dup2\n        /* \"#utility.yul\":631:666   */\n      eq\n        /* \"#utility.yul\":621:684   */\n      tag_380\n      jumpi\n        /* \"#utility.yul\":680:681   */\n      0x00\n        /* \"#utility.yul\":677:678   */\n      dup1\n        /* \"#utility.yul\":670:682   */\n      revert\n        /* \"#utility.yul\":621:684   */\n    tag_380:\n        /* \"#utility.yul\":568:690   */\n      pop\n      jump\t// out\n        /* \"#utility.yul\":696:835   */\n    tag_325:\n        /* \"#utility.yul\":742:747   */\n      0x00\n        /* \"#utility.yul\":780:786   */\n      dup2\n        /* \"#utility.yul\":767:787   */\n      calldataload\n        /* \"#utility.yul\":758:787   */\n      swap1\n      pop\n        /* \"#utility.yul\":796:829   */\n      tag_382\n        /* \"#utility.yul\":823:828   */\n      dup2\n        /* \"#utility.yul\":796:829   */\n      tag_324\n      jump\t// in\n    tag_382:\n        /* \"#utility.yul\":696:835   */\n      swap3\n      swap2\n      pop\n      pop\n      jump\t// out\n        /* \"#utility.yul\":841:1170   */\n    tag_34:\n        /* \"#utility.yul\":900:906   */\n      0x00\n        /* \"#utility.yul\":949:951   */\n      0x20\n        /* \"#utility.yul\":937:946   */\n      dup3\n        /* \"#utility.yul\":928:935   */\n      dup5\n        /* \"#utility.yul\":924:947   */\n      sub\n        /* \"#utility.yul\":920:952   */\n      slt\n        /* \"#utility.yul\":917:1036   */\n      iszero\n      tag_384\n      jumpi\n        /* \"#utility.yul\":955:1034   */\n      tag_385\n      tag_320\n      jump\t// in\n    tag_385:\n        /* \"#utility.yul\":917:1036   */\n    tag_384:\n        /* \"#utility.yul\":1075:1076   */\n      0x00\n        /* \"#utility.yul\":1100:1153   */\n      tag_386\n        /* \"#utility.yul\":1145:1152   */\n      dup5\n        /* \"#utility.yul\":1136:1142   */\n      dup3\n        /* \"#utility.yul\":1125:1134   */\n      dup6\n        /* \"#utility.yul\":1121:1143   */\n      add\n        /* \"#utility.yul\":1100:1153   */\n      tag_325\n      jump\t// in\n    tag_386:\n        /* \"#utility.yul\":1090:1153   */\n      swap2\n      pop\n        /* \"#utility.yul\":1046:1163   */\n      pop\n        /* \"#utility.yul\":841:1170   */\n      swap3\n      swap2\n      pop\n      pop\n      jump\t// out\n        /* \"#utility.yul\":1176:1253   */\n    tag_326:\n        /* \"#utility.yul\":1213:1220   */\n      0x00\n        /* \"#utility.yul\":1242:1247   */\n      dup2\n        /* \"#utility.yul\":1231:1247   */\n      swap1\n      pop\n        /* \"#utility.yul\":1176:1253   */\n      swap2\n      swap1\n      pop\n      jump\t// out\n        /* \"#utility.yul\":1259:1377   */\n    tag_327:\n        /* \"#utility.yul\":1346:1370   */\n      tag_389\n        /* \"#utility.yul\":1364:1369   */\n      dup2\n        /* \"#utility.yul\":1346:1370   */\n      tag_326\n      jump\t// in\n    tag_389:\n        /* \"#utility.yul\":1341:1344   */\n      dup3\n        /* \"#utility.yul\":1334:1371   */\n      mstore\n        /* \"#utility.yul\":1259:1377   */\n      pop\n      pop\n      jump\t// out\n        /* \"#utility.yul\":1383:1605   */\n    tag_37:\n        /* \"#utility.yul\":1476:1480   */\n      0x00\n        /* \"#utility.yul\":1514:1516   */\n      0x20\n        /* \"#utility.yul\":1503:1512   */\n      dup3\n        /* \"#utility.yul\":1499:1517   */\n      add\n        /* \"#utility.yul\":1491:1517   */\n      swap1\n      pop\n        /* \"#utility.yul\":1527:1598   */\n      tag_391\n        /* \"#utility.yul\":1595:1596   */\n      0x00\n        /* \"#utility.yul\":1584:1593   */\n      dup4\n        /* \"#utility.yul\":1580:1597   */\n      add\n        /* \"#utility.yul\":1571:1577   */\n      dup5\n        /* \"#utility.yul\":1527:1598   */\n      tag_327\n      jump\t// in\n    tag_391:\n        /* \"#utility.yul\":1383:1605   */\n      swap3\n      swap2\n      pop\n      pop\n      jump\t// out\n        /* \"#utility.yul\":1611:1729   */\n    tag_328:\n        /* \"#utility.yul\":1698:1722   */\n      tag_393\n        /* \"#utility.yul\":1716:1721   */\n      dup2\n        /* \"#utility.yul\":1698:1722   */\n      tag_323\n      jump\t// in\n    tag_393:\n        /* \"#utility.yul\":1693:1696   */\n      dup3\n        /* \"#utility.yul\":1686:1723   */\n      mstore\n        /* \"#utility.yul\":1611:1729   */\n      pop\n      pop\n      jump\t// out\n        /* \"#utility.yul\":1735:1957   */\n    tag_48:\n        /* \"#utility.yul\":1828:1832   */\n      0x00\n        /* \"#utility.yul\":1866:1868   */\n      0x20\n        /* \"#utility.yul\":1855:1864   */\n      dup3\n        /* \"#utility.yul\":1851:1869   */\n      add\n        /* \"#utility.yul\":1843:1869   */\n      swap1\n      pop\n        /* \"#utility.yul\":1879:1950   */\n      tag_395\n        /* \"#utility.yul\":1947:1948   */\n      0x00\n        /* \"#utility.yul\":1936:1945   */\n      dup4\n        /* \"#utility.yul\":1932:1949   */\n      add\n        /* \"#utility.yul\":1923:1929   */\n      dup5\n        /* \"#utility.yul\":1879:1950   */\n      tag_328\n      jump\t// in\n    tag_395:\n        /* \"#utility.yul\":1735:1957   */\n      swap3\n      swap2\n      pop\n      pop\n      jump\t// out\n        /* \"#utility.yul\":1963:2085   */\n    tag_329:\n        /* \"#utility.yul\":2036:2060   */\n      tag_397\n        /* \"#utility.yul\":2054:2059   */\n      dup2\n        /* \"#utility.yul\":2036:2060   */\n      tag_326\n      jump\t// in\n    tag_397:\n        /* \"#utility.yul\":2029:2034   */\n      dup2\n        /* \"#utility.yul\":2026:2061   */\n      eq\n        /* \"#utility.yul\":2016:2079   */\n      tag_398\n      jumpi\n        /* \"#utility.yul\":2075:2076   */\n      0x00\n        /* \"#utility.yul\":2072:2073   */\n      dup1\n        /* \"#utility.yul\":2065:2077   */\n      revert\n        /* \"#utility.yul\":2016:2079   */\n    tag_398:\n        /* \"#utility.yul\":1963:2085   */\n      pop\n      jump\t// out\n        /* \"#utility.yul\":2091:2230   */\n    tag_330:\n        /* \"#utility.yul\":2137:2142   */\n      0x00\n        /* \"#utility.yul\":2175:2181   */\n      dup2\n        /* \"#utility.yul\":2162:2182   */\n      calldataload\n        /* \"#utility.yul\":2153:2182   */\n      swap1\n      pop\n        /* \"#utility.yul\":2191:2224   */\n      tag_400\n        /* \"#utility.yul\":2218:2223   */\n      dup2\n        /* \"#utility.yul\":2191:2224   */\n      tag_329\n      jump\t// in\n    tag_400:\n        /* \"#utility.yul\":2091:2230   */\n      swap3\n      swap2\n      pop\n      pop\n      jump\t// out\n        /* \"#utility.yul\":2236:2565   */\n    tag_57:\n        /* \"#utility.yul\":2295:2301   */\n      0x00\n        /* \"#utility.yul\":2344:2346   */\n      0x20\n        /* \"#utility.yul\":2332:2341   */\n      dup3\n        /* \"#utility.yul\":2323:2330   */\n      dup5\n        /* \"#utility.yul\":2319:2342   */\n      sub\n        /* \"#utility.yul\":2315:2347   */\n      slt\n        /* \"#utility.yul\":2312:2431   */\n      iszero\n      tag_402\n      jumpi\n        /* \"#utility.yul\":2350:2429   */\n      tag_403\n      tag_320\n      jump\t// in\n    tag_403:\n        /* \"#utility.yul\":2312:2431   */\n    tag_402:\n        /* \"#utility.yul\":2470:2471   */\n      0x00\n        /* \"#utility.yul\":2495:2548   */\n      tag_404\n        /* \"#utility.yul\":2540:2547   */\n      dup5\n        /* \"#utility.yul\":2531:2537   */\n      dup3\n        /* \"#utility.yul\":2520:2529   */\n      dup6\n        /* \"#utility.yul\":2516:2538   */\n      add\n        /* \"#utility.yul\":2495:2548   */\n      tag_330\n      jump\t// in\n    tag_404:\n        /* \"#utility.yul\":2485:2548   */\n      swap2\n      pop\n        /* \"#utility.yul\":2441:2558   */\n      pop\n        /* \"#utility.yul\":2236:2565   */\n      swap3\n      swap2\n      pop\n      pop\n      jump\t// out\n        /* \"#utility.yul\":2571:2631   */\n    tag_331:\n        /* \"#utility.yul\":2599:2602   */\n      0x00\n        /* \"#utility.yul\":2620:2625   */\n      dup2\n        /* \"#utility.yul\":2613:2625   */\n      swap1\n      pop\n        /* \"#utility.yul\":2571:2631   */\n      swap2\n      swap1\n      pop\n      jump\t// out\n        /* \"#utility.yul\":2637:2779   */\n    tag_332:\n        /* \"#utility.yul\":2687:2696   */\n      0x00\n        /* \"#utility.yul\":2720:2773   */\n      tag_407\n        /* \"#utility.yul\":2738:2772   */\n      tag_408\n        /* \"#utility.yul\":2747:2771   */\n      tag_409\n        /* \"#utility.yul\":2765:2770   */\n      dup5\n        /* \"#utility.yul\":2747:2771   */\n      tag_322\n      jump\t// in\n    tag_409:\n        /* \"#utility.yul\":2738:2772   */\n      tag_331\n      jump\t// in\n    tag_408:\n        /* \"#utility.yul\":2720:2773   */\n      tag_322\n      jump\t// in\n    tag_407:\n        /* \"#utility.yul\":2707:2773   */\n      swap1\n      pop\n        /* \"#utility.yul\":2637:2779   */\n      swap2\n      swap1\n      pop\n      jump\t// out\n        /* \"#utility.yul\":2785:2911   */\n    tag_333:\n        /* \"#utility.yul\":2835:2844   */\n      0x00\n        /* \"#utility.yul\":2868:2905   */\n      tag_411\n        /* \"#utility.yul\":2899:2904   */\n      dup3\n        /* \"#utility.yul\":2868:2905   */\n      tag_332\n      jump\t// in\n    tag_411:\n        /* \"#utility.yul\":2855:2905   */\n      swap1\n      pop\n        /* \"#utility.yul\":2785:2911   */\n      swap2\n      swap1\n      pop\n      jump\t// out\n        /* \"#utility.yul\":2917:3056   */\n    tag_334:\n        /* \"#utility.yul\":2980:2989   */\n      0x00\n        /* \"#utility.yul\":3013:3050   */\n      tag_413\n        /* \"#utility.yul\":3044:3049   */\n      dup3\n        /* \"#utility.yul\":3013:3050   */\n      tag_333\n      jump\t// in\n    tag_413:\n        /* \"#utility.yul\":3000:3050   */\n      swap1\n      pop\n        /* \"#utility.yul\":2917:3056   */\n      swap2\n      swap1\n      pop\n      jump\t// out\n        /* \"#utility.yul\":3062:3219   */\n    tag_335:\n        /* \"#utility.yul\":3162:3212   */\n      tag_415\n        /* \"#utility.yul\":3206:3211   */\n      dup2\n        /* \"#utility.yul\":3162:3212   */\n      tag_334\n      jump\t// in\n    tag_415:\n        /* \"#utility.yul\":3157:3160   */\n      dup3\n        /* \"#utility.yul\":3150:3213   */\n      mstore\n        /* \"#utility.yul\":3062:3219   */\n      pop\n      pop\n      jump\t// out\n        /* \"#utility.yul\":3225:3473   */\n    tag_98:\n        /* \"#utility.yul\":3331:3335   */\n      0x00\n        /* \"#utility.yul\":3369:3371   */\n      0x20\n        /* \"#utility.yul\":3358:3367   */\n      dup3\n        /* \"#utility.yul\":3354:3372   */\n      add\n        /* \"#utility.yul\":3346:3372   */\n      swap1\n      pop\n        /* \"#utility.yul\":3382:3466   */\n      tag_417\n        /* \"#utility.yul\":3463:3464   */\n      0x00\n        /* \"#utility.yul\":3452:3461   */\n      dup4\n        /* \"#utility.yul\":3448:3465   */\n      add\n        /* \"#utility.yul\":3439:3445   */\n      dup5\n        /* \"#utility.yul\":3382:3466   */\n      tag_335\n      jump\t// in\n    tag_417:\n        /* \"#utility.yul\":3225:3473   */\n      swap3\n      swap2\n      pop\n      pop\n      jump\t// out\n        /* \"#utility.yul\":3479:3648   */\n    tag_336:\n        /* \"#utility.yul\":3563:3574   */\n      0x00\n        /* \"#utility.yul\":3597:3603   */\n      dup3\n        /* \"#utility.yul\":3592:3595   */\n      dup3\n        /* \"#utility.yul\":3585:3604   */\n      mstore\n        /* \"#utility.yul\":3637:3641   */\n      0x20\n        /* \"#utility.yul\":3632:3635   */\n      dup3\n        /* \"#utility.yul\":3628:3642   */\n      add\n        /* \"#utility.yul\":3613:3642   */\n      swap1\n      pop\n        /* \"#utility.yul\":3479:3648   */\n      swap3\n      swap2\n      pop\n      pop\n      jump\t// out\n        /* \"#utility.yul\":3654:3836   */\n    tag_337:\n        /* \"#utility.yul\":3794:3828   */\n      0x4f776e61626c653a2063616c6c6572206973206e6f7420746865206f776e6572\n        /* \"#utility.yul\":3790:3791   */\n      0x00\n        /* \"#utility.yul\":3782:3788   */\n      dup3\n        /* \"#utility.yul\":3778:3792   */\n      add\n        /* \"#utility.yul\":3771:3829   */\n      mstore\n        /* \"#utility.yul\":3654:3836   */\n      pop\n      jump\t// out\n        /* \"#utility.yul\":3842:4208   */\n    tag_338:\n        /* \"#utility.yul\":3984:3987   */\n      0x00\n        /* \"#utility.yul\":4005:4072   */\n      tag_421\n        /* \"#utility.yul\":4069:4071   */\n      0x20\n        /* \"#utility.yul\":4064:4067   */\n      dup4\n        /* \"#utility.yul\":4005:4072   */\n      tag_336\n      jump\t// in\n    tag_421:\n        /* \"#utility.yul\":3998:4072   */\n      swap2\n      pop\n        /* \"#utility.yul\":4081:4174   */\n      tag_422\n        /* \"#utility.yul\":4170:4173   */\n      dup3\n        /* \"#utility.yul\":4081:4174   */\n      tag_337\n      jump\t// in\n    tag_422:\n        /* \"#utility.yul\":4199:4201   */\n      0x20\n        /* \"#utility.yul\":4194:4197   */\n      dup3\n        /* \"#utility.yul\":4190:4202   */\n      add\n        /* \"#utility.yul\":4183:4202   */\n      swap1\n      pop\n        /* \"#utility.yul\":3842:4208   */\n      swap2\n      swap1\n      pop\n      jump\t// out\n        /* \"#utility.yul\":4214:4633   */\n    tag_129:\n        /* \"#utility.yul\":4380:4384   */\n      0x00\n        /* \"#utility.yul\":4418:4420   */\n      0x20\n        /* \"#utility.yul\":4407:4416   */\n      dup3\n        /* \"#utility.yul\":4403:4421   */\n      add\n        /* \"#utility.yul\":4395:4421   */\n      swap1\n      pop\n        /* \"#utility.yul\":4467:4476   */\n      dup2\n        /* \"#utility.yul\":4461:4465   */\n      dup2\n        /* \"#utility.yul\":4457:4477   */\n      sub\n        /* \"#utility.yul\":4453:4454   */\n      0x00\n        /* \"#utility.yul\":4442:4451   */\n      dup4\n        /* \"#utility.yul\":4438:4455   */\n      add\n        /* \"#utility.yul\":4431:4478   */\n      mstore\n        /* \"#utility.yul\":4495:4626   */\n      tag_424\n        /* \"#utility.yul\":4621:4625   */\n      dup2\n        /* \"#utility.yul\":4495:4626   */\n      tag_338\n      jump\t// in\n    tag_424:\n        /* \"#utility.yul\":4487:4626   */\n      swap1\n      pop\n        /* \"#utility.yul\":4214:4633   */\n      swap2\n      swap1\n      pop\n      jump\t// out\n        /* \"#utility.yul\":4639:4816   */\n    tag_339:\n        /* \"#utility.yul\":4779:4808   */\n      0x4c50546f6b656e5368617265506f6f6c3a206e6f742073746172740000000000\n        /* \"#utility.yul\":4775:4776   */\n      0x00\n        /* \"#utility.yul\":4767:4773   */\n      dup3\n        /* \"#utility.yul\":4763:4777   */\n      add\n        /* \"#utility.yul\":4756:4809   */\n      mstore\n        /* \"#utility.yul\":4639:4816   */\n      pop\n      jump\t// out\n        /* \"#utility.yul\":4822:5188   */\n    tag_340:\n        /* \"#utility.yul\":4964:4967   */\n      0x00\n        /* \"#utility.yul\":4985:5052   */\n      tag_427\n        /* \"#utility.yul\":5049:5051   */\n      0x1b\n        /* \"#utility.yul\":5044:5047   */\n      dup4\n        /* \"#utility.yul\":4985:5052   */\n      tag_336\n      jump\t// in\n    tag_427:\n        /* \"#utility.yul\":4978:5052   */\n      swap2\n      pop\n        /* \"#utility.yul\":5061:5154   */\n      tag_428\n        /* \"#utility.yul\":5150:5153   */\n      dup3\n        /* \"#utility.yul\":5061:5154   */\n      tag_339\n      jump\t// in\n    tag_428:\n        /* \"#utility.yul\":5179:5181   */\n      0x20\n        /* \"#utility.yul\":5174:5177   */\n      dup3\n        /* \"#utility.yul\":5170:5182   */\n      add\n        /* \"#utility.yul\":5163:5182   */\n      swap1\n      pop\n        /* \"#utility.yul\":4822:5188   */\n      swap2\n      swap1\n      pop\n      jump\t// out\n        /* \"#utility.yul\":5194:5613   */\n    tag_140:\n        /* \"#utility.yul\":5360:5364   */\n      0x00\n        /* \"#utility.yul\":5398:5400   */\n      0x20\n        /* \"#utility.yul\":5387:5396   */\n      dup3\n        /* \"#utility.yul\":5383:5401   */\n      add\n        /* \"#utility.yul\":5375:5401   */\n      swap1\n      pop\n        /* \"#utility.yul\":5447:5456   */\n      dup2\n        /* \"#utility.yul\":5441:5445   */\n      dup2\n        /* \"#utility.yul\":5437:5457   */\n      sub\n        /* \"#utility.yul\":5433:5434   */\n      0x00\n        /* \"#utility.yul\":5422:5431   */\n      dup4\n        /* \"#utility.yul\":5418:5435   */\n      add\n        /* \"#utility.yul\":5411:5458   */\n      mstore\n        /* \"#utility.yul\":5475:5606   */\n      tag_430\n        /* \"#utility.yul\":5601:5605   */\n      dup2\n        /* \"#utility.yul\":5475:5606   */\n      tag_340\n      jump\t// in\n    tag_430:\n        /* \"#utility.yul\":5467:5606   */\n      swap1\n      pop\n        /* \"#utility.yul\":5194:5613   */\n      swap2\n      swap1\n      pop\n      jump\t// out\n        /* \"#utility.yul\":5619:5848   */\n    tag_341:\n        /* \"#utility.yul\":5759:5793   */\n      0x48555344474f434c50546f6b656e5368617265506f6f6c3a2043616e6e6f7420\n        /* \"#utility.yul\":5755:5756   */\n      0x00\n        /* \"#utility.yul\":5747:5753   */\n      dup3\n        /* \"#utility.yul\":5743:5757   */\n      add\n        /* \"#utility.yul\":5736:5794   */\n      mstore\n        /* \"#utility.yul\":5828:5840   */\n      0x7769746864726177203000000000000000000000000000000000000000000000\n        /* \"#utility.yul\":5823:5825   */\n      0x20\n        /* \"#utility.yul\":5815:5821   */\n      dup3\n        /* \"#utility.yul\":5811:5826   */\n      add\n        /* \"#utility.yul\":5804:5841   */\n      mstore\n        /* \"#utility.yul\":5619:5848   */\n      pop\n      jump\t// out\n        /* \"#utility.yul\":5854:6220   */\n    tag_342:\n        /* \"#utility.yul\":5996:5999   */\n      0x00\n        /* \"#utility.yul\":6017:6084   */\n      tag_433\n        /* \"#utility.yul\":6081:6083   */\n      0x2a\n        /* \"#utility.yul\":6076:6079   */\n      dup4\n        /* \"#utility.yul\":6017:6084   */\n      tag_336\n      jump\t// in\n    tag_433:\n        /* \"#utility.yul\":6010:6084   */\n      swap2\n      pop\n        /* \"#utility.yul\":6093:6186   */\n      tag_434\n        /* \"#utility.yul\":6182:6185   */\n      dup3\n        /* \"#utility.yul\":6093:6186   */\n      tag_341\n      jump\t// in\n    tag_434:\n        /* \"#utility.yul\":6211:6213   */\n      0x40\n        /* \"#utility.yul\":6206:6209   */\n      dup3\n        /* \"#utility.yul\":6202:6214   */\n      add\n        /* \"#utility.yul\":6195:6214   */\n      swap1\n      pop\n        /* \"#utility.yul\":5854:6220   */\n      swap2\n      swap1\n      pop\n      jump\t// out\n        /* \"#utility.yul\":6226:6645   */\n    tag_144:\n        /* \"#utility.yul\":6392:6396   */\n      0x00\n        /* \"#utility.yul\":6430:6432   */\n      0x20\n        /* \"#utility.yul\":6419:6428   */\n      dup3\n        /* \"#utility.yul\":6415:6433   */\n      add\n        /* \"#utility.yul\":6407:6433   */\n      swap1\n      pop\n        /* \"#utility.yul\":6479:6488   */\n      dup2\n        /* \"#utility.yul\":6473:6477   */\n      dup2\n        /* \"#utility.yul\":6469:6489   */\n      sub\n        /* \"#utility.yul\":6465:6466   */\n      0x00\n        /* \"#utility.yul\":6454:6463   */\n      dup4\n        /* \"#utility.yul\":6450:6467   */\n      add\n        /* \"#utility.yul\":6443:6490   */\n      mstore\n        /* \"#utility.yul\":6507:6638   */\n      tag_436\n        /* \"#utility.yul\":6633:6637   */\n      dup2\n        /* \"#utility.yul\":6507:6638   */\n      tag_342\n      jump\t// in\n    tag_436:\n        /* \"#utility.yul\":6499:6638   */\n      swap1\n      pop\n        /* \"#utility.yul\":6226:6645   */\n      swap2\n      swap1\n      pop\n      jump\t// out\n        /* \"#utility.yul\":6651:6871   */\n    tag_343:\n        /* \"#utility.yul\":6791:6825   */\n      0x43616c6c6572206973206e6f742072657761726420646973747269627574696f\n        /* \"#utility.yul\":6787:6788   */\n      0x00\n        /* \"#utility.yul\":6779:6785   */\n      dup3\n        /* \"#utility.yul\":6775:6789   */\n      add\n        /* \"#utility.yul\":6768:6826   */\n      mstore\n        /* \"#utility.yul\":6860:6863   */\n      0x6e00000000000000000000000000000000000000000000000000000000000000\n        /* \"#utility.yul\":6855:6857   */\n      0x20\n        /* \"#utility.yul\":6847:6853   */\n      dup3\n        /* \"#utility.yul\":6843:6858   */\n      add\n        /* \"#utility.yul\":6836:6864   */\n      mstore\n        /* \"#utility.yul\":6651:6871   */\n      pop\n      jump\t// out\n        /* \"#utility.yul\":6877:7243   */\n    tag_344:\n        /* \"#utility.yul\":7019:7022   */\n      0x00\n        /* \"#utility.yul\":7040:7107   */\n      tag_439\n        /* \"#utility.yul\":7104:7106   */\n      0x21\n        /* \"#utility.yul\":7099:7102   */\n      dup4\n        /* \"#utility.yul\":7040:7107   */\n      tag_336\n      jump\t// in\n    tag_439:\n        /* \"#utility.yul\":7033:7107   */\n      swap2\n      pop\n        /* \"#utility.yul\":7116:7209   */\n      tag_440\n        /* \"#utility.yul\":7205:7208   */\n      dup3\n        /* \"#utility.yul\":7116:7209   */\n      tag_343\n      jump\t// in\n    tag_440:\n        /* \"#utility.yul\":7234:7236   */\n      0x40\n        /* \"#utility.yul\":7229:7232   */\n      dup3\n        /* \"#utility.yul\":7225:7237   */\n      add\n        /* \"#utility.yul\":7218:7237   */\n      swap1\n      pop\n        /* \"#utility.yul\":6877:7243   */\n      swap2\n      swap1\n      pop\n      jump\t// out\n        /* \"#utility.yul\":7249:7668   */\n    tag_152:\n        /* \"#utility.yul\":7415:7419   */\n      0x00\n        /* \"#utility.yul\":7453:7455   */\n      0x20\n        /* \"#utility.yul\":7442:7451   */\n      dup3\n        /* \"#utility.yul\":7438:7456   */\n      add\n        /* \"#utility.yul\":7430:7456   */\n      swap1\n      pop\n        /* \"#utility.yul\":7502:7511   */\n      dup2\n        /* \"#utility.yul\":7496:7500   */\n      dup2\n        /* \"#utility.yul\":7492:7512   */\n      sub\n        /* \"#utility.yul\":7488:7489   */\n      0x00\n        /* \"#utility.yul\":7477:7486   */\n      dup4\n        /* \"#utility.yul\":7473:7490   */\n      add\n        /* \"#utility.yul\":7466:7513   */\n      mstore\n        /* \"#utility.yul\":7530:7661   */\n      tag_442\n        /* \"#utility.yul\":7656:7660   */\n      dup2\n        /* \"#utility.yul\":7530:7661   */\n      tag_344\n      jump\t// in\n    tag_442:\n        /* \"#utility.yul\":7522:7661   */\n      swap1\n      pop\n        /* \"#utility.yul\":7249:7668   */\n      swap2\n      swap1\n      pop\n      jump\t// out\n        /* \"#utility.yul\":7674:7900   */\n    tag_345:\n        /* \"#utility.yul\":7814:7848   */\n      0x48555344474f434c50546f6b656e5368617265506f6f6c3a2043616e6e6f7420\n        /* \"#utility.yul\":7810:7811   */\n      0x00\n        /* \"#utility.yul\":7802:7808   */\n      dup3\n        /* \"#utility.yul\":7798:7812   */\n      add\n        /* \"#utility.yul\":7791:7849   */\n      mstore\n        /* \"#utility.yul\":7883:7892   */\n      0x7374616b65203000000000000000000000000000000000000000000000000000\n        /* \"#utility.yul\":7878:7880   */\n      0x20\n        /* \"#utility.yul\":7870:7876   */\n      dup3\n        /* \"#utility.yul\":7866:7881   */\n      add\n        /* \"#utility.yul\":7859:7893   */\n      mstore\n        /* \"#utility.yul\":7674:7900   */\n      pop\n      jump\t// out\n        /* \"#utility.yul\":7906:8272   */\n    tag_346:\n        /* \"#utility.yul\":8048:8051   */\n      0x00\n        /* \"#utility.yul\":8069:8136   */\n      tag_445\n        /* \"#utility.yul\":8133:8135   */\n      0x27\n        /* \"#utility.yul\":8128:8131   */\n      dup4\n        /* \"#utility.yul\":8069:8136   */\n      tag_336\n      jump\t// in\n    tag_445:\n        /* \"#utility.yul\":8062:8136   */\n      swap2\n      pop\n        /* \"#utility.yul\":8145:8238   */\n      tag_446\n        /* \"#utility.yul\":8234:8237   */\n      dup3\n        /* \"#utility.yul\":8145:8238   */\n      tag_345\n      jump\t// in\n    tag_446:\n        /* \"#utility.yul\":8263:8265   */\n      0x40\n        /* \"#utility.yul\":8258:8261   */\n      dup3\n        /* \"#utility.yul\":8254:8266   */\n      add\n        /* \"#utility.yul\":8247:8266   */\n      swap1\n      pop\n        /* \"#utility.yul\":7906:8272   */\n      swap2\n      swap1\n      pop\n      jump\t// out\n        /* \"#utility.yul\":8278:8697   */\n    tag_208:\n        /* \"#utility.yul\":8444:8448   */\n      0x00\n        /* \"#utility.yul\":8482:8484   */\n      0x20\n        /* \"#utility.yul\":8471:8480   */\n      dup3\n        /* \"#utility.yul\":8467:8485   */\n      add\n        /* \"#utility.yul\":8459:8485   */\n      swap1\n      pop\n        /* \"#utility.yul\":8531:8540   */\n      dup2\n        /* \"#utility.yul\":8525:8529   */\n      dup2\n        /* \"#utility.yul\":8521:8541   */\n      sub\n        /* \"#utility.yul\":8517:8518   */\n      0x00\n        /* \"#utility.yul\":8506:8515   */\n      dup4\n        /* \"#utility.yul\":8502:8519   */\n      add\n        /* \"#utility.yul\":8495:8542   */\n      mstore\n        /* \"#utility.yul\":8559:8690   */\n      tag_448\n        /* \"#utility.yul\":8685:8689   */\n      dup2\n        /* \"#utility.yul\":8559:8690   */\n      tag_346\n      jump\t// in\n    tag_448:\n        /* \"#utility.yul\":8551:8690   */\n      swap1\n      pop\n        /* \"#utility.yul\":8278:8697   */\n      swap2\n      swap1\n      pop\n      jump\t// out\n        /* \"#utility.yul\":8703:8928   */\n    tag_347:\n        /* \"#utility.yul\":8843:8877   */\n      0x4f776e61626c653a206e6577206f776e657220697320746865207a65726f2061\n        /* \"#utility.yul\":8839:8840   */\n      0x00\n        /* \"#utility.yul\":8831:8837   */\n      dup3\n        /* \"#utility.yul\":8827:8841   */\n      add\n        /* \"#utility.yul\":8820:8878   */\n      mstore\n        /* \"#utility.yul\":8912:8920   */\n      0x6464726573730000000000000000000000000000000000000000000000000000\n        /* \"#utility.yul\":8907:8909   */\n      0x20\n        /* \"#utility.yul\":8899:8905   */\n      dup3\n        /* \"#utility.yul\":8895:8910   */\n      add\n        /* \"#utility.yul\":8888:8921   */\n      mstore\n        /* \"#utility.yul\":8703:8928   */\n      pop\n      jump\t// out\n        /* \"#utility.yul\":8934:9300   */\n    tag_348:\n        /* \"#utility.yul\":9076:9079   */\n      0x00\n        /* \"#utility.yul\":9097:9164   */\n      tag_451\n        /* \"#utility.yul\":9161:9163   */\n      0x26\n        /* \"#utility.yul\":9156:9159   */\n      dup4\n        /* \"#utility.yul\":9097:9164   */\n      tag_336\n      jump\t// in\n    tag_451:\n        /* \"#utility.yul\":9090:9164   */\n      swap2\n      pop\n        /* \"#utility.yul\":9173:9266   */\n      tag_452\n        /* \"#utility.yul\":9262:9265   */\n      dup3\n        /* \"#utility.yul\":9173:9266   */\n      tag_347\n      jump\t// in\n    tag_452:\n        /* \"#utility.yul\":9291:9293   */\n      0x40\n        /* \"#utility.yul\":9286:9289   */\n      dup3\n        /* \"#utility.yul\":9282:9294   */\n      add\n        /* \"#utility.yul\":9275:9294   */\n      swap1\n      pop\n        /* \"#utility.yul\":8934:9300   */\n      swap2\n      swap1\n      pop\n      jump\t// out\n        /* \"#utility.yul\":9306:9725   */\n    tag_233:\n        /* \"#utility.yul\":9472:9476   */\n      0x00\n        /* \"#utility.yul\":9510:9512   */\n      0x20\n        /* \"#utility.yul\":9499:9508   */\n      dup3\n        /* \"#utility.yul\":9495:9513   */\n      add\n        /* \"#utility.yul\":9487:9513   */\n      swap1\n      pop\n        /* \"#utility.yul\":9559:9568   */\n      dup2\n        /* \"#utility.yul\":9553:9557   */\n      dup2\n        /* \"#utility.yul\":9549:9569   */\n      sub\n        /* \"#utility.yul\":9545:9546   */\n      0x00\n        /* \"#utility.yul\":9534:9543   */\n      dup4\n        /* \"#utility.yul\":9530:9547   */\n      add\n        /* \"#utility.yul\":9523:9570   */\n      mstore\n        /* \"#utility.yul\":9587:9718   */\n      tag_454\n        /* \"#utility.yul\":9713:9717   */\n      dup2\n        /* \"#utility.yul\":9587:9718   */\n      tag_348\n      jump\t// in\n    tag_454:\n        /* \"#utility.yul\":9579:9718   */\n      swap1\n      pop\n        /* \"#utility.yul\":9306:9725   */\n      swap2\n      swap1\n      pop\n      jump\t// out\n        /* \"#utility.yul\":9731:9911   */\n    tag_349:\n        /* \"#utility.yul\":9779:9856   */\n      0x4e487b7100000000000000000000000000000000000000000000000000000000\n        /* \"#utility.yul\":9776:9777   */\n      0x00\n        /* \"#utility.yul\":9769:9857   */\n      mstore\n        /* \"#utility.yul\":9876:9880   */\n      0x11\n        /* \"#utility.yul\":9873:9874   */\n      0x04\n        /* \"#utility.yul\":9866:9881   */\n      mstore\n        /* \"#utility.yul\":9900:9904   */\n      0x24\n        /* \"#utility.yul\":9897:9898   */\n      0x00\n        /* \"#utility.yul\":9890:9905   */\n      revert\n        /* \"#utility.yul\":9917:10327   */\n    tag_240:\n        /* \"#utility.yul\":9957:9964   */\n      0x00\n        /* \"#utility.yul\":9980:10000   */\n      tag_457\n        /* \"#utility.yul\":9998:9999   */\n      dup3\n        /* \"#utility.yul\":9980:10000   */\n      tag_326\n      jump\t// in\n    tag_457:\n        /* \"#utility.yul\":9975:10000   */\n      swap2\n      pop\n        /* \"#utility.yul\":10014:10034   */\n      tag_458\n        /* \"#utility.yul\":10032:10033   */\n      dup4\n        /* \"#utility.yul\":10014:10034   */\n      tag_326\n      jump\t// in\n    tag_458:\n        /* \"#utility.yul\":10009:10034   */\n      swap3\n      pop\n        /* \"#utility.yul\":10069:10070   */\n      dup3\n        /* \"#utility.yul\":10066:10067   */\n      dup3\n        /* \"#utility.yul\":10062:10071   */\n      mul\n        /* \"#utility.yul\":10091:10121   */\n      tag_459\n        /* \"#utility.yul\":10109:10120   */\n      dup2\n        /* \"#utility.yul\":10091:10121   */\n      tag_326\n      jump\t// in\n    tag_459:\n        /* \"#utility.yul\":10080:10121   */\n      swap2\n      pop\n        /* \"#utility.yul\":10270:10271   */\n      dup3\n        /* \"#utility.yul\":10261:10268   */\n      dup3\n        /* \"#utility.yul\":10257:10272   */\n      div\n        /* \"#utility.yul\":10254:10255   */\n      dup5\n        /* \"#utility.yul\":10251:10273   */\n      eq\n        /* \"#utility.yul\":10231:10232   */\n      dup4\n        /* \"#utility.yul\":10224:10233   */\n      iszero\n        /* \"#utility.yul\":10204:10287   */\n      or\n        /* \"#utility.yul\":10181:10320   */\n      tag_460\n      jumpi\n        /* \"#utility.yul\":10300:10318   */\n      tag_461\n      tag_349\n      jump\t// in\n    tag_461:\n        /* \"#utility.yul\":10181:10320   */\n    tag_460:\n        /* \"#utility.yul\":9965:10327   */\n      pop\n        /* \"#utility.yul\":9917:10327   */\n      swap3\n      swap2\n      pop\n      pop\n      jump\t// out\n        /* \"#utility.yul\":10333:10513   */\n    tag_350:\n        /* \"#utility.yul\":10381:10458   */\n      0x4e487b7100000000000000000000000000000000000000000000000000000000\n        /* \"#utility.yul\":10378:10379   */\n      0x00\n        /* \"#utility.yul\":10371:10459   */\n      mstore\n        /* \"#utility.yul\":10478:10482   */\n      0x12\n        /* \"#utility.yul\":10475:10476   */\n      0x04\n        /* \"#utility.yul\":10468:10483   */\n      mstore\n        /* \"#utility.yul\":10502:10506   */\n      0x24\n        /* \"#utility.yul\":10499:10500   */\n      0x00\n        /* \"#utility.yul\":10492:10507   */\n      revert\n        /* \"#utility.yul\":10519:10704   */\n    tag_242:\n        /* \"#utility.yul\":10559:10560   */\n      0x00\n        /* \"#utility.yul\":10576:10596   */\n      tag_464\n        /* \"#utility.yul\":10594:10595   */\n      dup3\n        /* \"#utility.yul\":10576:10596   */\n      tag_326\n      jump\t// in\n    tag_464:\n        /* \"#utility.yul\":10571:10596   */\n      swap2\n      pop\n        /* \"#utility.yul\":10610:10630   */\n      tag_465\n        /* \"#utility.yul\":10628:10629   */\n      dup4\n        /* \"#utility.yul\":10610:10630   */\n      tag_326\n      jump\t// in\n    tag_465:\n        /* \"#utility.yul\":10605:10630   */\n      swap3\n      pop\n        /* \"#utility.yul\":10649:10650   */\n      dup3\n        /* \"#utility.yul\":10639:10674   */\n      tag_466\n      jumpi\n        /* \"#utility.yul\":10654:10672   */\n      tag_467\n      tag_350\n      jump\t// in\n    tag_467:\n        /* \"#utility.yul\":10639:10674   */\n    tag_466:\n        /* \"#utility.yul\":10696:10697   */\n      dup3\n        /* \"#utility.yul\":10693:10694   */\n      dup3\n        /* \"#utility.yul\":10689:10698   */\n      div\n        /* \"#utility.yul\":10684:10698   */\n      swap1\n      pop\n        /* \"#utility.yul\":10519:10704   */\n      swap3\n      swap2\n      pop\n      pop\n      jump\t// out\n        /* \"#utility.yul\":10710:10930   */\n    tag_351:\n        /* \"#utility.yul\":10850:10884   */\n      0x536166654d6174683a206d756c7469706c69636174696f6e206f766572666c6f\n        /* \"#utility.yul\":10846:10847   */\n      0x00\n        /* \"#utility.yul\":10838:10844   */\n      dup3\n        /* \"#utility.yul\":10834:10848   */\n      add\n        /* \"#utility.yul\":10827:10885   */\n      mstore\n        /* \"#utility.yul\":10919:10922   */\n      0x7700000000000000000000000000000000000000000000000000000000000000\n        /* \"#utility.yul\":10914:10916   */\n      0x20\n        /* \"#utility.yul\":10906:10912   */\n      dup3\n        /* \"#utility.yul\":10902:10917   */\n      add\n        /* \"#utility.yul\":10895:10923   */\n      mstore\n        /* \"#utility.yul\":10710:10930   */\n      pop\n      jump\t// out\n        /* \"#utility.yul\":10936:11302   */\n    tag_352:\n        /* \"#utility.yul\":11078:11081   */\n      0x00\n        /* \"#utility.yul\":11099:11166   */\n      tag_470\n        /* \"#utility.yul\":11163:11165   */\n      0x21\n        /* \"#utility.yul\":11158:11161   */\n      dup4\n        /* \"#utility.yul\":11099:11166   */\n      tag_336\n      jump\t// in\n    tag_470:\n        /* \"#utility.yul\":11092:11166   */\n      swap2\n      pop\n        /* \"#utility.yul\":11175:11268   */\n      tag_471\n        /* \"#utility.yul\":11264:11267   */\n      dup3\n        /* \"#utility.yul\":11175:11268   */\n      tag_351\n      jump\t// in\n    tag_471:\n        /* \"#utility.yul\":11293:11295   */\n      0x40\n        /* \"#utility.yul\":11288:11291   */\n      dup3\n        /* \"#utility.yul\":11284:11296   */\n      add\n        /* \"#utility.yul\":11277:11296   */\n      swap1\n      pop\n        /* \"#utility.yul\":10936:11302   */\n      swap2\n      swap1\n      pop\n      jump\t// out\n        /* \"#utility.yul\":11308:11727   */\n    tag_245:\n        /* \"#utility.yul\":11474:11478   */\n      0x00\n        /* \"#utility.yul\":11512:11514   */\n      0x20\n        /* \"#utility.yul\":11501:11510   */\n      dup3\n        /* \"#utility.yul\":11497:11515   */\n      add\n        /* \"#utility.yul\":11489:11515   */\n      swap1\n      pop\n        /* \"#utility.yul\":11561:11570   */\n      dup2\n        /* \"#utility.yul\":11555:11559   */\n      dup2\n        /* \"#utility.yul\":11551:11571   */\n      sub\n        /* \"#utility.yul\":11547:11548   */\n      0x00\n        /* \"#utility.yul\":11536:11545   */\n      dup4\n        /* \"#utility.yul\":11532:11549   */\n      add\n        /* \"#utility.yul\":11525:11572   */\n      mstore\n        /* \"#utility.yul\":11589:11720   */\n      tag_473\n        /* \"#utility.yul\":11715:11719   */\n      dup2\n        /* \"#utility.yul\":11589:11720   */\n      tag_352\n      jump\t// in\n    tag_473:\n        /* \"#utility.yul\":11581:11720   */\n      swap1\n      pop\n        /* \"#utility.yul\":11308:11727   */\n      swap2\n      swap1\n      pop\n      jump\t// out\n        /* \"#utility.yul\":11733:11924   */\n    tag_251:\n        /* \"#utility.yul\":11773:11776   */\n      0x00\n        /* \"#utility.yul\":11792:11812   */\n      tag_475\n        /* \"#utility.yul\":11810:11811   */\n      dup3\n        /* \"#utility.yul\":11792:11812   */\n      tag_326\n      jump\t// in\n    tag_475:\n        /* \"#utility.yul\":11787:11812   */\n      swap2\n      pop\n        /* \"#utility.yul\":11826:11846   */\n      tag_476\n        /* \"#utility.yul\":11844:11845   */\n      dup4\n        /* \"#utility.yul\":11826:11846   */\n      tag_326\n      jump\t// in\n    tag_476:\n        /* \"#utility.yul\":11821:11846   */\n      swap3\n      pop\n        /* \"#utility.yul\":11869:11870   */\n      dup3\n        /* \"#utility.yul\":11866:11867   */\n      dup3\n        /* \"#utility.yul\":11862:11871   */\n      add\n        /* \"#utility.yul\":11855:11871   */\n      swap1\n      pop\n        /* \"#utility.yul\":11890:11893   */\n      dup1\n        /* \"#utility.yul\":11887:11888   */\n      dup3\n        /* \"#utility.yul\":11884:11894   */\n      gt\n        /* \"#utility.yul\":11881:11917   */\n      iszero\n      tag_477\n      jumpi\n        /* \"#utility.yul\":11897:11915   */\n      tag_478\n      tag_349\n      jump\t// in\n    tag_478:\n        /* \"#utility.yul\":11881:11917   */\n    tag_477:\n        /* \"#utility.yul\":11733:11924   */\n      swap3\n      swap2\n      pop\n      pop\n      jump\t// out\n        /* \"#utility.yul\":11930:12107   */\n    tag_353:\n        /* \"#utility.yul\":12070:12099   */\n      0x536166654d6174683a206164646974696f6e206f766572666c6f770000000000\n        /* \"#utility.yul\":12066:12067   */\n      0x00\n        /* \"#utility.yul\":12058:12064   */\n      dup3\n        /* \"#utility.yul\":12054:12068   */\n      add\n        /* \"#utility.yul\":12047:12100   */\n      mstore\n        /* \"#utility.yul\":11930:12107   */\n      pop\n      jump\t// out\n        /* \"#utility.yul\":12113:12479   */\n    tag_354:\n        /* \"#utility.yul\":12255:12258   */\n      0x00\n        /* \"#utility.yul\":12276:12343   */\n      tag_481\n        /* \"#utility.yul\":12340:12342   */\n      0x1b\n        /* \"#utility.yul\":12335:12338   */\n      dup4\n        /* \"#utility.yul\":12276:12343   */\n      tag_336\n      jump\t// in\n    tag_481:\n        /* \"#utility.yul\":12269:12343   */\n      swap2\n      pop\n        /* \"#utility.yul\":12352:12445   */\n      tag_482\n        /* \"#utility.yul\":12441:12444   */\n      dup3\n        /* \"#utility.yul\":12352:12445   */\n      tag_353\n      jump\t// in\n    tag_482:\n        /* \"#utility.yul\":12470:12472   */\n      0x20\n        /* \"#utility.yul\":12465:12468   */\n      dup3\n        /* \"#utility.yul\":12461:12473   */\n      add\n        /* \"#utility.yul\":12454:12473   */\n      swap1\n      pop\n        /* \"#utility.yul\":12113:12479   */\n      swap2\n      swap1\n      pop\n      jump\t// out\n        /* \"#utility.yul\":12485:12904   */\n    tag_254:\n        /* \"#utility.yul\":12651:12655   */\n      0x00\n        /* \"#utility.yul\":12689:12691   */\n      0x20\n        /* \"#utility.yul\":12678:12687   */\n      dup3\n        /* \"#utility.yul\":12674:12692   */\n      add\n        /* \"#utility.yul\":12666:12692   */\n      swap1\n      pop\n        /* \"#utility.yul\":12738:12747   */\n      dup2\n        /* \"#utility.yul\":12732:12736   */\n      dup2\n        /* \"#utility.yul\":12728:12748   */\n      sub\n        /* \"#utility.yul\":12724:12725   */\n      0x00\n        /* \"#utility.yul\":12713:12722   */\n      dup4\n        /* \"#utility.yul\":12709:12726   */\n      add\n        /* \"#utility.yul\":12702:12749   */\n      mstore\n        /* \"#utility.yul\":12766:12897   */\n      tag_484\n        /* \"#utility.yul\":12892:12896   */\n      dup2\n        /* \"#utility.yul\":12766:12897   */\n      tag_354\n      jump\t// in\n    tag_484:\n        /* \"#utility.yul\":12758:12897   */\n      swap1\n      pop\n        /* \"#utility.yul\":12485:12904   */\n      swap2\n      swap1\n      pop\n      jump\t// out\n        /* \"#utility.yul\":12910:13140   */\n    tag_355:\n        /* \"#utility.yul\":13050:13084   */\n      0x776974686472617720726571756573742067726561746572207468616e207374\n        /* \"#utility.yul\":13046:13047   */\n      0x00\n        /* \"#utility.yul\":13038:13044   */\n      dup3\n        /* \"#utility.yul\":13034:13048   */\n      add\n        /* \"#utility.yul\":13027:13085   */\n      mstore\n        /* \"#utility.yul\":13119:13132   */\n      0x616b656420616d6f756e74000000000000000000000000000000000000000000\n        /* \"#utility.yul\":13114:13116   */\n      0x20\n        /* \"#utility.yul\":13106:13112   */\n      dup3\n        /* \"#utility.yul\":13102:13117   */\n      add\n        /* \"#utility.yul\":13095:13133   */\n      mstore\n        /* \"#utility.yul\":12910:13140   */\n      pop\n      jump\t// out\n        /* \"#utility.yul\":13146:13512   */\n    tag_356:\n        /* \"#utility.yul\":13288:13291   */\n      0x00\n        /* \"#utility.yul\":13309:13376   */\n      tag_487\n        /* \"#utility.yul\":13373:13375   */\n      0x2b\n        /* \"#utility.yul\":13368:13371   */\n      dup4\n        /* \"#utility.yul\":13309:13376   */\n      tag_336\n      jump\t// in\n    tag_487:\n        /* \"#utility.yul\":13302:13376   */\n      swap2\n      pop\n        /* \"#utility.yul\":13385:13478   */\n      tag_488\n        /* \"#utility.yul\":13474:13477   */\n      dup3\n        /* \"#utility.yul\":13385:13478   */\n      tag_355\n      jump\t// in\n    tag_488:\n        /* \"#utility.yul\":13503:13505   */\n      0x40\n        /* \"#utility.yul\":13498:13501   */\n      dup3\n        /* \"#utility.yul\":13494:13506   */\n      add\n        /* \"#utility.yul\":13487:13506   */\n      swap1\n      pop\n        /* \"#utility.yul\":13146:13512   */\n      swap2\n      swap1\n      pop\n      jump\t// out\n        /* \"#utility.yul\":13518:13937   */\n    tag_259:\n        /* \"#utility.yul\":13684:13688   */\n      0x00\n        /* \"#utility.yul\":13722:13724   */\n      0x20\n        /* \"#utility.yul\":13711:13720   */\n      dup3\n        /* \"#utility.yul\":13707:13725   */\n      add\n        /* \"#utility.yul\":13699:13725   */\n      swap1\n      pop\n        /* \"#utility.yul\":13771:13780   */\n      dup2\n        /* \"#utility.yul\":13765:13769   */\n      dup2\n        /* \"#utility.yul\":13761:13781   */\n      sub\n        /* \"#utility.yul\":13757:13758   */\n      0x00\n        /* \"#utility.yul\":13746:13755   */\n      dup4\n        /* \"#utility.yul\":13742:13759   */\n      add\n        /* \"#utility.yul\":13735:13782   */\n      mstore\n        /* \"#utility.yul\":13799:13930   */\n      tag_490\n        /* \"#utility.yul\":13925:13929   */\n      dup2\n        /* \"#utility.yul\":13799:13930   */\n      tag_356\n      jump\t// in\n    tag_490:\n        /* \"#utility.yul\":13791:13930   */\n      swap1\n      pop\n        /* \"#utility.yul\":13518:13937   */\n      swap2\n      swap1\n      pop\n      jump\t// out\n        /* \"#utility.yul\":13943:14275   */\n    tag_266:\n        /* \"#utility.yul\":14064:14068   */\n      0x00\n        /* \"#utility.yul\":14102:14104   */\n      0x40\n        /* \"#utility.yul\":14091:14100   */\n      dup3\n        /* \"#utility.yul\":14087:14105   */\n      add\n        /* \"#utility.yul\":14079:14105   */\n      swap1\n      pop\n        /* \"#utility.yul\":14115:14186   */\n      tag_492\n        /* \"#utility.yul\":14183:14184   */\n      0x00\n        /* \"#utility.yul\":14172:14181   */\n      dup4\n        /* \"#utility.yul\":14168:14185   */\n      add\n        /* \"#utility.yul\":14159:14165   */\n      dup6\n        /* \"#utility.yul\":14115:14186   */\n      tag_328\n      jump\t// in\n    tag_492:\n        /* \"#utility.yul\":14196:14268   */\n      tag_493\n        /* \"#utility.yul\":14264:14266   */\n      0x20\n        /* \"#utility.yul\":14253:14262   */\n      dup4\n        /* \"#utility.yul\":14249:14267   */\n      add\n        /* \"#utility.yul\":14240:14246   */\n      dup5\n        /* \"#utility.yul\":14196:14268   */\n      tag_327\n      jump\t// in\n    tag_493:\n        /* \"#utility.yul\":13943:14275   */\n      swap4\n      swap3\n      pop\n      pop\n      pop\n      jump\t// out\n        /* \"#utility.yul\":14281:14380   */\n    tag_357:\n        /* \"#utility.yul\":14333:14339   */\n      0x00\n        /* \"#utility.yul\":14367:14372   */\n      dup2\n        /* \"#utility.yul\":14361:14373   */\n      mload\n        /* \"#utility.yul\":14351:14373   */\n      swap1\n      pop\n        /* \"#utility.yul\":14281:14380   */\n      swap2\n      swap1\n      pop\n      jump\t// out\n        /* \"#utility.yul\":14386:14632   */\n    tag_358:\n        /* \"#utility.yul\":14467:14468   */\n      0x00\n        /* \"#utility.yul\":14477:14590   */\n    tag_496:\n        /* \"#utility.yul\":14491:14497   */\n      dup4\n        /* \"#utility.yul\":14488:14489   */\n      dup2\n        /* \"#utility.yul\":14485:14498   */\n      lt\n        /* \"#utility.yul\":14477:14590   */\n      iszero\n      tag_498\n      jumpi\n        /* \"#utility.yul\":14576:14577   */\n      dup1\n        /* \"#utility.yul\":14571:14574   */\n      dup3\n        /* \"#utility.yul\":14567:14578   */\n      add\n        /* \"#utility.yul\":14561:14579   */\n      mload\n        /* \"#utility.yul\":14557:14558   */\n      dup2\n        /* \"#utility.yul\":14552:14555   */\n      dup5\n        /* \"#utility.yul\":14548:14559   */\n      add\n        /* \"#utility.yul\":14541:14580   */\n      mstore\n        /* \"#utility.yul\":14513:14515   */\n      0x20\n        /* \"#utility.yul\":14510:14511   */\n      dup2\n        /* \"#utility.yul\":14506:14516   */\n      add\n        /* \"#utility.yul\":14501:14516   */\n      swap1\n      pop\n        /* \"#utility.yul\":14477:14590   */\n      jump(tag_496)\n    tag_498:\n        /* \"#utility.yul\":14624:14625   */\n      0x00\n        /* \"#utility.yul\":14615:14621   */\n      dup5\n        /* \"#utility.yul\":14610:14613   */\n      dup5\n        /* \"#utility.yul\":14606:14622   */\n      add\n        /* \"#utility.yul\":14599:14626   */\n      mstore\n        /* \"#utility.yul\":14448:14632   */\n      pop\n        /* \"#utility.yul\":14386:14632   */\n      pop\n      pop\n      pop\n      jump\t// out\n        /* \"#utility.yul\":14638:14740   */\n    tag_359:\n        /* \"#utility.yul\":14679:14685   */\n      0x00\n        /* \"#utility.yul\":14730:14732   */\n      0x1f\n        /* \"#utility.yul\":14726:14733   */\n      not\n        /* \"#utility.yul\":14721:14723   */\n      0x1f\n        /* \"#utility.yul\":14714:14719   */\n      dup4\n        /* \"#utility.yul\":14710:14724   */\n      add\n        /* \"#utility.yul\":14706:14734   */\n      and\n        /* \"#utility.yul\":14696:14734   */\n      swap1\n      pop\n        /* \"#utility.yul\":14638:14740   */\n      swap2\n      swap1\n      pop\n      jump\t// out\n        /* \"#utility.yul\":14746:15123   */\n    tag_360:\n        /* \"#utility.yul\":14834:14837   */\n      0x00\n        /* \"#utility.yul\":14862:14901   */\n      tag_501\n        /* \"#utility.yul\":14895:14900   */\n      dup3\n        /* \"#utility.yul\":14862:14901   */\n      tag_357\n      jump\t// in\n    tag_501:\n        /* \"#utility.yul\":14917:14988   */\n      tag_502\n        /* \"#utility.yul\":14981:14987   */\n      dup2\n        /* \"#utility.yul\":14976:14979   */\n      dup6\n        /* \"#utility.yul\":14917:14988   */\n      tag_336\n      jump\t// in\n    tag_502:\n        /* \"#utility.yul\":14910:14988   */\n      swap4\n      pop\n        /* \"#utility.yul\":14997:15062   */\n      tag_503\n        /* \"#utility.yul\":15055:15061   */\n      dup2\n        /* \"#utility.yul\":15050:15053   */\n      dup6\n        /* \"#utility.yul\":15043:15047   */\n      0x20\n        /* \"#utility.yul\":15036:15041   */\n      dup7\n        /* \"#utility.yul\":15032:15048   */\n      add\n        /* \"#utility.yul\":14997:15062   */\n      tag_358\n      jump\t// in\n    tag_503:\n        /* \"#utility.yul\":15087:15116   */\n      tag_504\n        /* \"#utility.yul\":15109:15115   */\n      dup2\n        /* \"#utility.yul\":15087:15116   */\n      tag_359\n      jump\t// in\n    tag_504:\n        /* \"#utility.yul\":15082:15085   */\n      dup5\n        /* \"#utility.yul\":15078:15117   */\n      add\n        /* \"#utility.yul\":15071:15117   */\n      swap2\n      pop\n        /* \"#utility.yul\":14838:15123   */\n      pop\n        /* \"#utility.yul\":14746:15123   */\n      swap3\n      swap2\n      pop\n      pop\n      jump\t// out\n        /* \"#utility.yul\":15129:15442   */\n    tag_279:\n        /* \"#utility.yul\":15242:15246   */\n      0x00\n        /* \"#utility.yul\":15280:15282   */\n      0x20\n        /* \"#utility.yul\":15269:15278   */\n      dup3\n        /* \"#utility.yul\":15265:15283   */\n      add\n        /* \"#utility.yul\":15257:15283   */\n      swap1\n      pop\n        /* \"#utility.yul\":15329:15338   */\n      dup2\n        /* \"#utility.yul\":15323:15327   */\n      dup2\n        /* \"#utility.yul\":15319:15339   */\n      sub\n        /* \"#utility.yul\":15315:15316   */\n      0x00\n        /* \"#utility.yul\":15304:15313   */\n      dup4\n        /* \"#utility.yul\":15300:15317   */\n      add\n        /* \"#utility.yul\":15293:15340   */\n      mstore\n        /* \"#utility.yul\":15357:15435   */\n      tag_506\n        /* \"#utility.yul\":15430:15434   */\n      dup2\n        /* \"#utility.yul\":15421:15427   */\n      dup5\n        /* \"#utility.yul\":15357:15435   */\n      tag_360\n      jump\t// in\n    tag_506:\n        /* \"#utility.yul\":15349:15435   */\n      swap1\n      pop\n        /* \"#utility.yul\":15129:15442   */\n      swap3\n      swap2\n      pop\n      pop\n      jump\t// out\n        /* \"#utility.yul\":15448:15642   */\n    tag_281:\n        /* \"#utility.yul\":15488:15492   */\n      0x00\n        /* \"#utility.yul\":15508:15528   */\n      tag_508\n        /* \"#utility.yul\":15526:15527   */\n      dup3\n        /* \"#utility.yul\":15508:15528   */\n      tag_326\n      jump\t// in\n    tag_508:\n        /* \"#utility.yul\":15503:15528   */\n      swap2\n      pop\n        /* \"#utility.yul\":15542:15562   */\n      tag_509\n        /* \"#utility.yul\":15560:15561   */\n      dup4\n        /* \"#utility.yul\":15542:15562   */\n      tag_326\n      jump\t// in\n    tag_509:\n        /* \"#utility.yul\":15537:15562   */\n      swap3\n      pop\n        /* \"#utility.yul\":15586:15587   */\n      dup3\n        /* \"#utility.yul\":15583:15584   */\n      dup3\n        /* \"#utility.yul\":15579:15588   */\n      sub\n        /* \"#utility.yul\":15571:15588   */\n      swap1\n      pop\n        /* \"#utility.yul\":15610:15611   */\n      dup2\n        /* \"#utility.yul\":15604:15608   */\n      dup2\n        /* \"#utility.yul\":15601:15612   */\n      gt\n        /* \"#utility.yul\":15598:15635   */\n      iszero\n      tag_510\n      jumpi\n        /* \"#utility.yul\":15615:15633   */\n      tag_511\n      tag_349\n      jump\t// in\n    tag_511:\n        /* \"#utility.yul\":15598:15635   */\n    tag_510:\n        /* \"#utility.yul\":15448:15642   */\n      swap3\n      swap2\n      pop\n      pop\n      jump\t// out\n        /* \"#utility.yul\":15648:15738   */\n    tag_361:\n        /* \"#utility.yul\":15682:15689   */\n      0x00\n        /* \"#utility.yul\":15725:15730   */\n      dup2\n        /* \"#utility.yul\":15718:15731   */\n      iszero\n        /* \"#utility.yul\":15711:15732   */\n      iszero\n        /* \"#utility.yul\":15700:15732   */\n      swap1\n      pop\n        /* \"#utility.yul\":15648:15738   */\n      swap2\n      swap1\n      pop\n      jump\t// out\n        /* \"#utility.yul\":15744:15860   */\n    tag_362:\n        /* \"#utility.yul\":15814:15835   */\n      tag_514\n        /* \"#utility.yul\":15829:15834   */\n      dup2\n        /* \"#utility.yul\":15814:15835   */\n      tag_361\n      jump\t// in\n    tag_514:\n        /* \"#utility.yul\":15807:15812   */\n      dup2\n        /* \"#utility.yul\":15804:15836   */\n      eq\n        /* \"#utility.yul\":15794:15854   */\n      tag_515\n      jumpi\n        /* \"#utility.yul\":15850:15851   */\n      0x00\n        /* \"#utility.yul\":15847:15848   */\n      dup1\n        /* \"#utility.yul\":15840:15852   */\n      revert\n        /* \"#utility.yul\":15794:15854   */\n    tag_515:\n        /* \"#utility.yul\":15744:15860   */\n      pop\n      jump\t// out\n        /* \"#utility.yul\":15866:16003   */\n    tag_363:\n        /* \"#utility.yul\":15920:15925   */\n      0x00\n        /* \"#utility.yul\":15951:15957   */\n      dup2\n        /* \"#utility.yul\":15945:15958   */\n      mload\n        /* \"#utility.yul\":15936:15958   */\n      swap1\n      pop\n        /* \"#utility.yul\":15967:15997   */\n      tag_517\n        /* \"#utility.yul\":15991:15996   */\n      dup2\n        /* \"#utility.yul\":15967:15997   */\n      tag_362\n      jump\t// in\n    tag_517:\n        /* \"#utility.yul\":15866:16003   */\n      swap3\n      swap2\n      pop\n      pop\n      jump\t// out\n        /* \"#utility.yul\":16009:16354   */\n    tag_291:\n        /* \"#utility.yul\":16076:16082   */\n      0x00\n        /* \"#utility.yul\":16125:16127   */\n      0x20\n        /* \"#utility.yul\":16113:16122   */\n      dup3\n        /* \"#utility.yul\":16104:16111   */\n      dup5\n        /* \"#utility.yul\":16100:16123   */\n      sub\n        /* \"#utility.yul\":16096:16128   */\n      slt\n        /* \"#utility.yul\":16093:16212   */\n      iszero\n      tag_519\n      jumpi\n        /* \"#utility.yul\":16131:16210   */\n      tag_520\n      tag_320\n      jump\t// in\n    tag_520:\n        /* \"#utility.yul\":16093:16212   */\n    tag_519:\n        /* \"#utility.yul\":16251:16252   */\n      0x00\n        /* \"#utility.yul\":16276:16337   */\n      tag_521\n        /* \"#utility.yul\":16329:16336   */\n      dup5\n        /* \"#utility.yul\":16320:16326   */\n      dup3\n        /* \"#utility.yul\":16309:16318   */\n      dup6\n        /* \"#utility.yul\":16305:16327   */\n      add\n        /* \"#utility.yul\":16276:16337   */\n      tag_363\n      jump\t// in\n    tag_521:\n        /* \"#utility.yul\":16266:16337   */\n      swap2\n      pop\n        /* \"#utility.yul\":16222:16347   */\n      pop\n        /* \"#utility.yul\":16009:16354   */\n      swap3\n      swap2\n      pop\n      pop\n      jump\t// out\n        /* \"#utility.yul\":16360:16589   */\n    tag_364:\n        /* \"#utility.yul\":16500:16534   */\n      0x5361666545524332303a204552433230206f7065726174696f6e20646964206e\n        /* \"#utility.yul\":16496:16497   */\n      0x00\n        /* \"#utility.yul\":16488:16494   */\n      dup3\n        /* \"#utility.yul\":16484:16498   */\n      add\n        /* \"#utility.yul\":16477:16535   */\n      mstore\n        /* \"#utility.yul\":16569:16581   */\n      0x6f74207375636365656400000000000000000000000000000000000000000000\n        /* \"#utility.yul\":16564:16566   */\n      0x20\n        /* \"#utility.yul\":16556:16562   */\n      dup3\n        /* \"#utility.yul\":16552:16567   */\n      add\n        /* \"#utility.yul\":16545:16582   */\n      mstore\n        /* \"#utility.yul\":16360:16589   */\n      pop\n      jump\t// out\n        /* \"#utility.yul\":16595:16961   */\n    tag_365:\n        /* \"#utility.yul\":16737:16740   */\n      0x00\n        /* \"#utility.yul\":16758:16825   */\n      tag_524\n        /* \"#utility.yul\":16822:16824   */\n      0x2a\n        /* \"#utility.yul\":16817:16820   */\n      dup4\n        /* \"#utility.yul\":16758:16825   */\n      tag_336\n      jump\t// in\n    tag_524:\n        /* \"#utility.yul\":16751:16825   */\n      swap2\n      pop\n        /* \"#utility.yul\":16834:16927   */\n      tag_525\n        /* \"#utility.yul\":16923:16926   */\n      dup3\n        /* \"#utility.yul\":16834:16927   */\n      tag_364\n      jump\t// in\n    tag_525:\n        /* \"#utility.yul\":16952:16954   */\n      0x40\n        /* \"#utility.yul\":16947:16950   */\n      dup3\n        /* \"#utility.yul\":16943:16955   */\n      add\n        /* \"#utility.yul\":16936:16955   */\n      swap1\n      pop\n        /* \"#utility.yul\":16595:16961   */\n      swap2\n      swap1\n      pop\n      jump\t// out\n        /* \"#utility.yul\":16967:17386   */\n    tag_294:\n        /* \"#utility.yul\":17133:17137   */\n      0x00\n        /* \"#utility.yul\":17171:17173   */\n      0x20\n        /* \"#utility.yul\":17160:17169   */\n      dup3\n        /* \"#utility.yul\":17156:17174   */\n      add\n        /* \"#utility.yul\":17148:17174   */\n      swap1\n      pop\n        /* \"#utility.yul\":17220:17229   */\n      dup2\n        /* \"#utility.yul\":17214:17218   */\n      dup2\n        /* \"#utility.yul\":17210:17230   */\n      sub\n        /* \"#utility.yul\":17206:17207   */\n      0x00\n        /* \"#utility.yul\":17195:17204   */\n      dup4\n        /* \"#utility.yul\":17191:17208   */\n      add\n        /* \"#utility.yul\":17184:17231   */\n      mstore\n        /* \"#utility.yul\":17248:17379   */\n      tag_527\n        /* \"#utility.yul\":17374:17378   */\n      dup2\n        /* \"#utility.yul\":17248:17379   */\n      tag_365\n      jump\t// in\n    tag_527:\n        /* \"#utility.yul\":17240:17379   */\n      swap1\n      pop\n        /* \"#utility.yul\":16967:17386   */\n      swap2\n      swap1\n      pop\n      jump\t// out\n        /* \"#utility.yul\":17392:17834   */\n    tag_298:\n        /* \"#utility.yul\":17541:17545   */\n      0x00\n        /* \"#utility.yul\":17579:17581   */\n      0x60\n        /* \"#utility.yul\":17568:17577   */\n      dup3\n        /* \"#utility.yul\":17564:17582   */\n      add\n        /* \"#utility.yul\":17556:17582   */\n      swap1\n      pop\n        /* \"#utility.yul\":17592:17663   */\n      tag_529\n        /* \"#utility.yul\":17660:17661   */\n      0x00\n        /* \"#utility.yul\":17649:17658   */\n      dup4\n        /* \"#utility.yul\":17645:17662   */\n      add\n        /* \"#utility.yul\":17636:17642   */\n      dup7\n        /* \"#utility.yul\":17592:17663   */\n      tag_328\n      jump\t// in\n    tag_529:\n        /* \"#utility.yul\":17673:17745   */\n      tag_530\n        /* \"#utility.yul\":17741:17743   */\n      0x20\n        /* \"#utility.yul\":17730:17739   */\n      dup4\n        /* \"#utility.yul\":17726:17744   */\n      add\n        /* \"#utility.yul\":17717:17723   */\n      dup6\n        /* \"#utility.yul\":17673:17745   */\n      tag_328\n      jump\t// in\n    tag_530:\n        /* \"#utility.yul\":17755:17827   */\n      tag_531\n        /* \"#utility.yul\":17823:17825   */\n      0x40\n        /* \"#utility.yul\":17812:17821   */\n      dup4\n        /* \"#utility.yul\":17808:17826   */\n      add\n        /* \"#utility.yul\":17799:17805   */\n      dup5\n        /* \"#utility.yul\":17755:17827   */\n      tag_327\n      jump\t// in\n    tag_531:\n        /* \"#utility.yul\":17392:17834   */\n      swap5\n      swap4\n      pop\n      pop\n      pop\n      pop\n      jump\t// out\n        /* \"#utility.yul\":17840:18019   */\n    tag_366:\n        /* \"#utility.yul\":17980:18011   */\n      0x416464726573733a2063616c6c20746f206e6f6e2d636f6e7472616374000000\n        /* \"#utility.yul\":17976:17977   */\n      0x00\n        /* \"#utility.yul\":17968:17974   */\n      dup3\n        /* \"#utility.yul\":17964:17978   */\n      add\n        /* \"#utility.yul\":17957:18012   */\n      mstore\n        /* \"#utility.yul\":17840:18019   */\n      pop\n      jump\t// out\n        /* \"#utility.yul\":18025:18391   */\n    tag_367:\n        /* \"#utility.yul\":18167:18170   */\n      0x00\n        /* \"#utility.yul\":18188:18255   */\n      tag_534\n        /* \"#utility.yul\":18252:18254   */\n      0x1d\n        /* \"#utility.yul\":18247:18250   */\n      dup4\n        /* \"#utility.yul\":18188:18255   */\n      tag_336\n      jump\t// in\n    tag_534:\n        /* \"#utility.yul\":18181:18255   */\n      swap2\n      pop\n        /* \"#utility.yul\":18264:18357   */\n      tag_535\n        /* \"#utility.yul\":18353:18356   */\n      dup3\n        /* \"#utility.yul\":18264:18357   */\n      tag_366\n      jump\t// in\n    tag_535:\n        /* \"#utility.yul\":18382:18384   */\n      0x20\n        /* \"#utility.yul\":18377:18380   */\n      dup3\n        /* \"#utility.yul\":18373:18385   */\n      add\n        /* \"#utility.yul\":18366:18385   */\n      swap1\n      pop\n        /* \"#utility.yul\":18025:18391   */\n      swap2\n      swap1\n      pop\n      jump\t// out\n        /* \"#utility.yul\":18397:18816   */\n    tag_307:\n        /* \"#utility.yul\":18563:18567   */\n      0x00\n        /* \"#utility.yul\":18601:18603   */\n      0x20\n        /* \"#utility.yul\":18590:18599   */\n      dup3\n        /* \"#utility.yul\":18586:18604   */\n      add\n        /* \"#utility.yul\":18578:18604   */\n      swap1\n      pop\n        /* \"#utility.yul\":18650:18659   */\n      dup2\n        /* \"#utility.yul\":18644:18648   */\n      dup2\n        /* \"#utility.yul\":18640:18660   */\n      sub\n        /* \"#utility.yul\":18636:18637   */\n      0x00\n        /* \"#utility.yul\":18625:18634   */\n      dup4\n        /* \"#utility.yul\":18621:18638   */\n      add\n        /* \"#utility.yul\":18614:18661   */\n      mstore\n        /* \"#utility.yul\":18678:18809   */\n      tag_537\n        /* \"#utility.yul\":18804:18808   */\n      dup2\n        /* \"#utility.yul\":18678:18809   */\n      tag_367\n      jump\t// in\n    tag_537:\n        /* \"#utility.yul\":18670:18809   */\n      swap1\n      pop\n        /* \"#utility.yul\":18397:18816   */\n      swap2\n      swap1\n      pop\n      jump\t// out\n        /* \"#utility.yul\":18822:18920   */\n    tag_368:\n        /* \"#utility.yul\":18873:18879   */\n      0x00\n        /* \"#utility.yul\":18907:18912   */\n      dup2\n        /* \"#utility.yul\":18901:18913   */\n      mload\n        /* \"#utility.yul\":18891:18913   */\n      swap1\n      pop\n        /* \"#utility.yul\":18822:18920   */\n      swap2\n      swap1\n      pop\n      jump\t// out\n        /* \"#utility.yul\":18926:19073   */\n    tag_369:\n        /* \"#utility.yul\":19027:19038   */\n      0x00\n        /* \"#utility.yul\":19064:19067   */\n      dup2\n        /* \"#utility.yul\":19049:19067   */\n      swap1\n      pop\n        /* \"#utility.yul\":18926:19073   */\n      swap3\n      swap2\n      pop\n      pop\n      jump\t// out\n        /* \"#utility.yul\":19079:19465   */\n    tag_370:\n        /* \"#utility.yul\":19183:19186   */\n      0x00\n        /* \"#utility.yul\":19211:19249   */\n      tag_541\n        /* \"#utility.yul\":19243:19248   */\n      dup3\n        /* \"#utility.yul\":19211:19249   */\n      tag_368\n      jump\t// in\n    tag_541:\n        /* \"#utility.yul\":19265:19353   */\n      tag_542\n        /* \"#utility.yul\":19346:19352   */\n      dup2\n        /* \"#utility.yul\":19341:19344   */\n      dup6\n        /* \"#utility.yul\":19265:19353   */\n      tag_369\n      jump\t// in\n    tag_542:\n        /* \"#utility.yul\":19258:19353   */\n      swap4\n      pop\n        /* \"#utility.yul\":19362:19427   */\n      tag_543\n        /* \"#utility.yul\":19420:19426   */\n      dup2\n        /* \"#utility.yul\":19415:19418   */\n      dup6\n        /* \"#utility.yul\":19408:19412   */\n      0x20\n        /* \"#utility.yul\":19401:19406   */\n      dup7\n        /* \"#utility.yul\":19397:19413   */\n      add\n        /* \"#utility.yul\":19362:19427   */\n      tag_358\n      jump\t// in\n    tag_543:\n        /* \"#utility.yul\":19452:19458   */\n      dup1\n        /* \"#utility.yul\":19447:19450   */\n      dup5\n        /* \"#utility.yul\":19443:19459   */\n      add\n        /* \"#utility.yul\":19436:19459   */\n      swap2\n      pop\n        /* \"#utility.yul\":19187:19465   */\n      pop\n        /* \"#utility.yul\":19079:19465   */\n      swap3\n      swap2\n      pop\n      pop\n      jump\t// out\n        /* \"#utility.yul\":19471:19742   */\n    tag_309:\n        /* \"#utility.yul\":19601:19604   */\n      0x00\n        /* \"#utility.yul\":19623:19716   */\n      tag_545\n        /* \"#utility.yul\":19712:19715   */\n      dup3\n        /* \"#utility.yul\":19703:19709   */\n      dup5\n        /* \"#utility.yul\":19623:19716   */\n      tag_370\n      jump\t// in\n    tag_545:\n        /* \"#utility.yul\":19616:19716   */\n      swap2\n      pop\n        /* \"#utility.yul\":19733:19736   */\n      dup2\n        /* \"#utility.yul\":19726:19736   */\n      swap1\n      pop\n        /* \"#utility.yul\":19471:19742   */\n      swap3\n      swap2\n      pop\n      pop\n      jump\t// out\n\n    auxdata: 0xa2646970667358221220b05651e822f539bf85387a0c728b37da79d72070211fde0875e30bc67b96e06d64736f6c63430008120033\n}\n",
				"bytecode": {
					"linkReferences": {},
					"object": "608060405262ed4e00600655600060085560006009553480156200002257600080fd5b506040516200293e3803806200293e833981810160405281019062000048919062000237565b60006200005a6200018a60201b60201c565b905080600360006101000a81548173ffffffffffffffffffffffffffffffffffffffff021916908373ffffffffffffffffffffffffffffffffffffffff1602179055508073ffffffffffffffffffffffffffffffffffffffff16600073ffffffffffffffffffffffffffffffffffffffff167f8be0079c531659141344cd1fd0a4f28419497f9722a3daafe3b4186f6b6457e060405160405180910390a35082600560006101000a81548173ffffffffffffffffffffffffffffffffffffffff021916908373ffffffffffffffffffffffffffffffffffffffff160217905550816000806101000a81548173ffffffffffffffffffffffffffffffffffffffff021916908373ffffffffffffffffffffffffffffffffffffffff1602179055508060078190555050505062000293565b600033905090565b600080fd5b600073ffffffffffffffffffffffffffffffffffffffff82169050919050565b6000620001c48262000197565b9050919050565b620001d681620001b7565b8114620001e257600080fd5b50565b600081519050620001f681620001cb565b92915050565b6000819050919050565b6200021181620001fc565b81146200021d57600080fd5b50565b600081519050620002318162000206565b92915050565b60008060006060848603121562000253576200025262000192565b5b60006200026386828701620001e5565b93505060206200027686828701620001e5565b9250506040620002898682870162000220565b9150509250925092565b61269b80620002a36000396000f3fe608060405234801561001057600080fd5b50600436106101725760003560e01c806380faa57d116100de578063cd3daf9d11610097578063e9fad8ee11610071578063e9fad8ee14610405578063ebe2b12b1461040f578063f2fde38b1461042d578063fc0c546a1461044957610172565b8063cd3daf9d146103ab578063ce5fc8d0146103c9578063df136d65146103e757610172565b806380faa57d146102e75780638b876347146103055780638da58897146103355780638da5cb5b14610353578063a694fc3a14610371578063c8f33c911461038d57610172565b80632e1a7d4d116101305780632e1a7d4d1461024d5780633c6b16ab146102695780633d18b9121461028557806370a082311461028f578063715018a6146102bf5780637b0a47ee146102c957610172565b80628cc262146101775780630700037d146101a75780630d68b761146101d7578063101114cf146101f357806318160ddd146102115780631be052891461022f575b600080fd5b610191600480360381019061018c9190611c4b565b610467565b60405161019e9190611c91565b60405180910390f35b6101c160048036038101906101bc9190611c4b565b61054e565b6040516101ce9190611c91565b60405180910390f35b6101f160048036038101906101ec9190611c4b565b610566565b005b6101fb610641565b6040516102089190611cbb565b60405180910390f35b610219610667565b6040516102269190611c91565b60405180910390f35b610237610671565b6040516102449190611c91565b60405180910390f35b61026760048036038101906102629190611d02565b610677565b005b610283600480360381019061027e9190611d02565b61083e565b005b61028d610b2a565b005b6102a960048036038101906102a49190611c4b565b610d4e565b6040516102b69190611c91565b60405180910390f35b6102c7610d97565b005b6102d1610eef565b6040516102de9190611c91565b60405180910390f35b6102ef610ef5565b6040516102fc9190611c91565b60405180910390f35b61031f600480360381019061031a9190611c4b565b610f08565b60405161032c9190611c91565b60405180910390f35b61033d610f20565b60405161034a9190611c91565b60405180910390f35b61035b610f26565b6040516103689190611cbb565b60405180910390f35b61038b60048036038101906103869190611d02565b610f50565b005b610395611117565b6040516103a29190611c91565b60405180910390f35b6103b361111d565b6040516103c09190611c91565b60405180910390f35b6103d16111b4565b6040516103de9190611d8e565b60405180910390f35b6103ef6111d8565b6040516103fc9190611c91565b60405180910390f35b61040d6111de565b005b6104176111f9565b6040516104249190611c91565b60405180910390f35b61044760048036038101906104429190611c4b565b6111ff565b005b6104516113c5565b60405161045e9190611d8e565b60405180910390f35b6000610547600d60008473ffffffffffffffffffffffffffffffffffffffff1673ffffffffffffffffffffffffffffffffffffffff16815260200190815260200160002054610539670de0b6b3a764000061052b610514600c60008973ffffffffffffffffffffffffffffffffffffffff1673ffffffffffffffffffffffffffffffffffffffff1681526020019081526020016000205461050661111d565b6113eb90919063ffffffff16565b61051d88610d4e565b61143590919063ffffffff16565b6114af90919063ffffffff16565b6114f990919063ffffffff16565b9050919050565b600d6020528060005260406000206000915090505481565b61056e611557565b73ffffffffffffffffffffffffffffffffffffffff16600360009054906101000a900473ffffffffffffffffffffffffffffffffffffffff1673ffffffffffffffffffffffffffffffffffffffff16146105fd576040517f08c379a00000000000000000000000000000000000000000000000000000000081526004016105f490611e06565b60405180910390fd5b80600460006101000a81548173ffffffffffffffffffffffffffffffffffffffff021916908373ffffffffffffffffffffffffffffffffffffffff16021790555050565b600460009054906101000a900473ffffffffffffffffffffffffffffffffffffffff1681565b6000600154905090565b60065481565b3361068061111d565b600b8190555061068e610ef5565b600a81905550600073ffffffffffffffffffffffffffffffffffffffff168173ffffffffffffffffffffffffffffffffffffffff161461075b576106d181610467565b600d60008373ffffffffffffffffffffffffffffffffffffffff1673ffffffffffffffffffffffffffffffffffffffff16815260200190815260200160002081905550600b54600c60008373ffffffffffffffffffffffffffffffffffffffff1673ffffffffffffffffffffffffffffffffffffffff168152602001908152602001600020819055505b6007544210156107a0576040517f08c379a000000000000000000000000000000000000000000000000000000000815260040161079790611e72565b60405180910390fd5b600082116107e3576040517f08c379a00000000000000000000000000000000000000000000000000000000081526004016107da90611f04565b60405180910390fd5b6107ec8261155f565b3373ffffffffffffffffffffffffffffffffffffffff167f7084f5476618d8e60b11ef0d7d3f06914655adb8793e28ff7f018d4c76d505d5836040516108329190611c91565b60405180910390a25050565b600460009054906101000a900473ffffffffffffffffffffffffffffffffffffffff1673ffffffffffffffffffffffffffffffffffffffff1661087f611557565b73ffffffffffffffffffffffffffffffffffffffff16146108d5576040517f08c379a00000000000000000000000000000000000000000000000000000000081526004016108cc90611f96565b60405180910390fd5b60006108df61111d565b600b819055506108ed610ef5565b600a81905550600073ffffffffffffffffffffffffffffffffffffffff168173ffffffffffffffffffffffffffffffffffffffff16146109ba5761093081610467565b600d60008373ffffffffffffffffffffffffffffffffffffffff1673ffffffffffffffffffffffffffffffffffffffff16815260200190815260200160002081905550600b54600c60008373ffffffffffffffffffffffffffffffffffffffff1673ffffffffffffffffffffffffffffffffffffffff168152602001908152602001600020819055505b600754421115610aad5760085442106109ed576109e2600654836114af90919063ffffffff16565b600981905550610a4f565b6000610a04426008546113eb90919063ffffffff16565b90506000610a1d6009548361143590919063ffffffff16565b9050610a46600654610a3883876114f990919063ffffffff16565b6114af90919063ffffffff16565b60098190555050505b42600a81905550610a6b600654426114f990919063ffffffff16565b6008819055507fde88a922e0d3b88b24e9623efeb464919c6bf9f66857a65e2bfcf2ce87a9433d82604051610aa09190611c91565b60405180910390a1610b26565b610ac2600654836114af90919063ffffffff16565b600981905550600754600a81905550610ae86006546007546114f990919063ffffffff16565b6008819055507fde88a922e0d3b88b24e9623efeb464919c6bf9f66857a65e2bfcf2ce87a9433d82604051610b1d9190611c91565b60405180910390a15b5050565b33610b3361111d565b600b81905550610b41610ef5565b600a81905550600073ffffffffffffffffffffffffffffffffffffffff168173ffffffffffffffffffffffffffffffffffffffff1614610c0e57610b8481610467565b600d60008373ffffffffffffffffffffffffffffffffffffffff1673ffffffffffffffffffffffffffffffffffffffff16815260200190815260200160002081905550600b54600c60008373ffffffffffffffffffffffffffffffffffffffff1673ffffffffffffffffffffffffffffffffffffffff168152602001908152602001600020819055505b600754421015610c53576040517f08c379a0000000000000000000000000000000000000000000000000000000008152600401610c4a90611e72565b60405180910390fd5b6000610c5e33610467565b90506000811115610d4a576000600d60003373ffffffffffffffffffffffffffffffffffffffff1673ffffffffffffffffffffffffffffffffffffffff16815260200190815260200160002081905550610cfb3382600560009054906101000a900473ffffffffffffffffffffffffffffffffffffffff1673ffffffffffffffffffffffffffffffffffffffff166116e59092919063ffffffff16565b3373ffffffffffffffffffffffffffffffffffffffff167fe2403640ba68fed3a2f88b7557551d1993f84b99bb10ff833f0cf8db0c5e048682604051610d419190611c91565b60405180910390a25b5050565b6000600260008373ffffffffffffffffffffffffffffffffffffffff1673ffffffffffffffffffffffffffffffffffffffff168152602001908152602001600020549050919050565b610d9f611557565b73ffffffffffffffffffffffffffffffffffffffff16600360009054906101000a900473ffffffffffffffffffffffffffffffffffffffff1673ffffffffffffffffffffffffffffffffffffffff1614610e2e576040517f08c379a0000000000000000000000000000000000000000000000000000000008152600401610e2590611e06565b60405180910390fd5b600073ffffffffffffffffffffffffffffffffffffffff16600360009054906101000a900473ffffffffffffffffffffffffffffffffffffffff1673ffffffffffffffffffffffffffffffffffffffff167f8be0079c531659141344cd1fd0a4f28419497f9722a3daafe3b4186f6b6457e060405160405180910390a36000600360006101000a81548173ffffffffffffffffffffffffffffffffffffffff021916908373ffffffffffffffffffffffffffffffffffffffff160217905550565b60095481565b6000610f034260085461176b565b905090565b600c6020528060005260406000206000915090505481565b60075481565b6000600360009054906101000a900473ffffffffffffffffffffffffffffffffffffffff16905090565b33610f5961111d565b600b81905550610f67610ef5565b600a81905550600073ffffffffffffffffffffffffffffffffffffffff168173ffffffffffffffffffffffffffffffffffffffff161461103457610faa81610467565b600d60008373ffffffffffffffffffffffffffffffffffffffff1673ffffffffffffffffffffffffffffffffffffffff16815260200190815260200160002081905550600b54600c60008373ffffffffffffffffffffffffffffffffffffffff1673ffffffffffffffffffffffffffffffffffffffff168152602001908152602001600020819055505b600754421015611079576040517f08c379a000000000000000000000000000000000000000000000000000000000815260040161107090611e72565b60405180910390fd5b600082116110bc576040517f08c379a00000000000000000000000000000000000000000000000000000000081526004016110b390612028565b60405180910390fd5b6110c582611784565b3373ffffffffffffffffffffffffffffffffffffffff167f9e71bc8eea02a63969f509818f2dafb9254532904319f9dbda79b67bd34a5f3d8360405161110b9190611c91565b60405180910390a25050565b600a5481565b600080611128610667565b0361113757600b5490506111b1565b6111ae61119d611145610667565b61118f670de0b6b3a7640000611181600954611173600a54611165610ef5565b6113eb90919063ffffffff16565b61143590919063ffffffff16565b61143590919063ffffffff16565b6114af90919063ffffffff16565b600b546114f990919063ffffffff16565b90505b90565b60008054906101000a900473ffffffffffffffffffffffffffffffffffffffff1681565b600b5481565b6111ef6111ea33610d4e565b610677565b6111f7610b2a565b565b60085481565b611207611557565b73ffffffffffffffffffffffffffffffffffffffff16600360009054906101000a900473ffffffffffffffffffffffffffffffffffffffff1673ffffffffffffffffffffffffffffffffffffffff1614611296576040517f08c379a000000000000000000000000000000000000000000000000000000000815260040161128d90611e06565b60405180910390fd5b600073ffffffffffffffffffffffffffffffffffffffff168173ffffffffffffffffffffffffffffffffffffffff1603611305576040517f08c379a00000000000000000000000000000000000000000000000000000000081526004016112fc906120ba565b60405180910390fd5b8073ffffffffffffffffffffffffffffffffffffffff16600360009054906101000a900473ffffffffffffffffffffffffffffffffffffffff1673ffffffffffffffffffffffffffffffffffffffff167f8be0079c531659141344cd1fd0a4f28419497f9722a3daafe3b4186f6b6457e060405160405180910390a380600360006101000a81548173ffffffffffffffffffffffffffffffffffffffff021916908373ffffffffffffffffffffffffffffffffffffffff16021790555050565b600560009054906101000a900473ffffffffffffffffffffffffffffffffffffffff1681565b600061142d83836040518060400160405280601e81526020017f536166654d6174683a207375627472616374696f6e206f766572666c6f770000815250611884565b905092915050565b600080830361144757600090506114a9565b600082846114559190612109565b9050828482611464919061217a565b146114a4576040517f08c379a000000000000000000000000000000000000000000000000000000000815260040161149b9061221d565b60405180910390fd5b809150505b92915050565b60006114f183836040518060400160405280601a81526020017f536166654d6174683a206469766973696f6e206279207a65726f0000000000008152506118e8565b905092915050565b6000808284611508919061223d565b90508381101561154d576040517f08c379a0000000000000000000000000000000000000000000000000000000008152600401611544906122bd565b60405180910390fd5b8091505092915050565b600033905090565b6000600260003373ffffffffffffffffffffffffffffffffffffffff1673ffffffffffffffffffffffffffffffffffffffff168152602001908152602001600020549050818110156115e6576040517f08c379a00000000000000000000000000000000000000000000000000000000081526004016115dd9061234f565b60405180910390fd5b6115fb826001546113eb90919063ffffffff16565b60018190555061165382600260003373ffffffffffffffffffffffffffffffffffffffff1673ffffffffffffffffffffffffffffffffffffffff168152602001908152602001600020546113eb90919063ffffffff16565b600260003373ffffffffffffffffffffffffffffffffffffffff1673ffffffffffffffffffffffffffffffffffffffff168152602001908152602001600020819055506116e1338360008054906101000a900473ffffffffffffffffffffffffffffffffffffffff1673ffffffffffffffffffffffffffffffffffffffff166116e59092919063ffffffff16565b5050565b6117668363a9059cbb60e01b848460405160240161170492919061236f565b604051602081830303815290604052907bffffffffffffffffffffffffffffffffffffffffffffffffffffffff19166020820180517bffffffffffffffffffffffffffffffffffffffffffffffffffffffff838183161783525050505061194b565b505050565b600081831061177a578161177c565b825b905092915050565b611799816001546114f990919063ffffffff16565b6001819055506117f181600260003373ffffffffffffffffffffffffffffffffffffffff1673ffffffffffffffffffffffffffffffffffffffff168152602001908152602001600020546114f990919063ffffffff16565b600260003373ffffffffffffffffffffffffffffffffffffffff1673ffffffffffffffffffffffffffffffffffffffff1681526020019081526020016000208190555061188133308360008054906101000a900473ffffffffffffffffffffffffffffffffffffffff1673ffffffffffffffffffffffffffffffffffffffff16611a12909392919063ffffffff16565b50565b60008383111582906118cc576040517f08c379a00000000000000000000000000000000000000000000000000000000081526004016118c39190612417565b60405180910390fd5b50600083856118db9190612439565b9050809150509392505050565b6000808311829061192f576040517f08c379a00000000000000000000000000000000000000000000000000000000081526004016119269190612417565b60405180910390fd5b506000838561193e919061217a565b9050809150509392505050565b60006119ad826040518060400160405280602081526020017f5361666545524332303a206c6f772d6c6576656c2063616c6c206661696c65648152508573ffffffffffffffffffffffffffffffffffffffff16611a9b9092919063ffffffff16565b9050600081511115611a0d57808060200190518101906119cd91906124a5565b611a0c576040517f08c379a0000000000000000000000000000000000000000000000000000000008152600401611a0390612544565b60405180910390fd5b5b505050565b611a95846323b872dd60e01b858585604051602401611a3393929190612564565b604051602081830303815290604052907bffffffffffffffffffffffffffffffffffffffffffffffffffffffff19166020820180517bffffffffffffffffffffffffffffffffffffffffffffffffffffffff838183161783525050505061194b565b50505050565b6060611aaa8484600085611ab3565b90509392505050565b6060611abe85611bd5565b611afd576040517f08c379a0000000000000000000000000000000000000000000000000000000008152600401611af4906125e7565b60405180910390fd5b6000808673ffffffffffffffffffffffffffffffffffffffff168587604051611b26919061264e565b60006040518083038185875af1925050503d8060008114611b63576040519150601f19603f3d011682016040523d82523d6000602084013e611b68565b606091505b50915091508115611b7d578092505050611bcd565b600081511115611b905780518082602001fd5b836040517f08c379a0000000000000000000000000000000000000000000000000000000008152600401611bc49190612417565b60405180910390fd5b949350505050565b600080823b905060008111915050919050565b600080fd5b600073ffffffffffffffffffffffffffffffffffffffff82169050919050565b6000611c1882611bed565b9050919050565b611c2881611c0d565b8114611c3357600080fd5b50565b600081359050611c4581611c1f565b92915050565b600060208284031215611c6157611c60611be8565b5b6000611c6f84828501611c36565b91505092915050565b6000819050919050565b611c8b81611c78565b82525050565b6000602082019050611ca66000830184611c82565b92915050565b611cb581611c0d565b82525050565b6000602082019050611cd06000830184611cac565b92915050565b611cdf81611c78565b8114611cea57600080fd5b50565b600081359050611cfc81611cd6565b92915050565b600060208284031215611d1857611d17611be8565b5b6000611d2684828501611ced565b91505092915050565b6000819050919050565b6000611d54611d4f611d4a84611bed565b611d2f565b611bed565b9050919050565b6000611d6682611d39565b9050919050565b6000611d7882611d5b565b9050919050565b611d8881611d6d565b82525050565b6000602082019050611da36000830184611d7f565b92915050565b600082825260208201905092915050565b7f4f776e61626c653a2063616c6c6572206973206e6f7420746865206f776e6572600082015250565b6000611df0602083611da9565b9150611dfb82611dba565b602082019050919050565b60006020820190508181036000830152611e1f81611de3565b9050919050565b7f4c50546f6b656e5368617265506f6f6c3a206e6f742073746172740000000000600082015250565b6000611e5c601b83611da9565b9150611e6782611e26565b602082019050919050565b60006020820190508181036000830152611e8b81611e4f565b9050919050565b7f48555344474f434c50546f6b656e5368617265506f6f6c3a2043616e6e6f742060008201527f7769746864726177203000000000000000000000000000000000000000000000602082015250565b6000611eee602a83611da9565b9150611ef982611e92565b604082019050919050565b60006020820190508181036000830152611f1d81611ee1565b9050919050565b7f43616c6c6572206973206e6f742072657761726420646973747269627574696f60008201527f6e00000000000000000000000000000000000000000000000000000000000000602082015250565b6000611f80602183611da9565b9150611f8b82611f24565b604082019050919050565b60006020820190508181036000830152611faf81611f73565b9050919050565b7f48555344474f434c50546f6b656e5368617265506f6f6c3a2043616e6e6f742060008201527f7374616b65203000000000000000000000000000000000000000000000000000602082015250565b6000612012602783611da9565b915061201d82611fb6565b604082019050919050565b6000602082019050818103600083015261204181612005565b9050919050565b7f4f776e61626c653a206e6577206f776e657220697320746865207a65726f206160008201527f6464726573730000000000000000000000000000000000000000000000000000602082015250565b60006120a4602683611da9565b91506120af82612048565b604082019050919050565b600060208201905081810360008301526120d381612097565b9050919050565b7f4e487b7100000000000000000000000000000000000000000000000000000000600052601160045260246000fd5b600061211482611c78565b915061211f83611c78565b925082820261212d81611c78565b91508282048414831517612144576121436120da565b5b5092915050565b7f4e487b7100000000000000000000000000000000000000000000000000000000600052601260045260246000fd5b600061218582611c78565b915061219083611c78565b9250826121a05761219f61214b565b5b828204905092915050565b7f536166654d6174683a206d756c7469706c69636174696f6e206f766572666c6f60008201527f7700000000000000000000000000000000000000000000000000000000000000602082015250565b6000612207602183611da9565b9150612212826121ab565b604082019050919050565b60006020820190508181036000830152612236816121fa565b9050919050565b600061224882611c78565b915061225383611c78565b925082820190508082111561226b5761226a6120da565b5b92915050565b7f536166654d6174683a206164646974696f6e206f766572666c6f770000000000600082015250565b60006122a7601b83611da9565b91506122b282612271565b602082019050919050565b600060208201905081810360008301526122d68161229a565b9050919050565b7f776974686472617720726571756573742067726561746572207468616e20737460008201527f616b656420616d6f756e74000000000000000000000000000000000000000000602082015250565b6000612339602b83611da9565b9150612344826122dd565b604082019050919050565b600060208201905081810360008301526123688161232c565b9050919050565b60006040820190506123846000830185611cac565b6123916020830184611c82565b9392505050565b600081519050919050565b60005b838110156123c15780820151818401526020810190506123a6565b60008484015250505050565b6000601f19601f8301169050919050565b60006123e982612398565b6123f38185611da9565b93506124038185602086016123a3565b61240c816123cd565b840191505092915050565b6000602082019050818103600083015261243181846123de565b905092915050565b600061244482611c78565b915061244f83611c78565b9250828203905081811115612467576124666120da565b5b92915050565b60008115159050919050565b6124828161246d565b811461248d57600080fd5b50565b60008151905061249f81612479565b92915050565b6000602082840312156124bb576124ba611be8565b5b60006124c984828501612490565b91505092915050565b7f5361666545524332303a204552433230206f7065726174696f6e20646964206e60008201527f6f74207375636365656400000000000000000000000000000000000000000000602082015250565b600061252e602a83611da9565b9150612539826124d2565b604082019050919050565b6000602082019050818103600083015261255d81612521565b9050919050565b60006060820190506125796000830186611cac565b6125866020830185611cac565b6125936040830184611c82565b949350505050565b7f416464726573733a2063616c6c20746f206e6f6e2d636f6e7472616374000000600082015250565b60006125d1601d83611da9565b91506125dc8261259b565b602082019050919050565b60006020820190508181036000830152612600816125c4565b9050919050565b600081519050919050565b600081905092915050565b600061262882612607565b6126328185612612565b93506126428185602086016123a3565b80840191505092915050565b600061265a828461261d565b91508190509291505056fea2646970667358221220b05651e822f539bf85387a0c728b37da79d72070211fde0875e30bc67b96e06d64736f6c63430008120033",
					"opcodes": "PUSH1 0x80 PUSH1 0x40 MSTORE PUSH3 0xED4E00 PUSH1 0x6 SSTORE PUSH1 0x0 PUSH1 0x8 SSTORE PUSH1 0x0 PUSH1 0x9 SSTORE CALLVALUE DUP1 ISZERO PUSH3 0x22 JUMPI PUSH1 0x0 DUP1 REVERT JUMPDEST POP PUSH1 0x40 MLOAD PUSH3 0x293E CODESIZE SUB DUP1 PUSH3 0x293E DUP4 CODECOPY DUP2 DUP2 ADD PUSH1 0x40 MSTORE DUP2 ADD SWAP1 PUSH3 0x48 SWAP2 SWAP1 PUSH3 0x237 JUMP JUMPDEST PUSH1 0x0 PUSH3 0x5A PUSH3 0x18A PUSH1 0x20 SHL PUSH1 0x20 SHR JUMP JUMPDEST SWAP1 POP DUP1 PUSH1 0x3 PUSH1 0x0 PUSH2 0x100 EXP DUP2 SLOAD DUP2 PUSH20 0xFFFFFFFFFFFFFFFFFFFFFFFFFFFFFFFFFFFFFFFF MUL NOT AND SWAP1 DUP4 PUSH20 0xFFFFFFFFFFFFFFFFFFFFFFFFFFFFFFFFFFFFFFFF AND MUL OR SWAP1 SSTORE POP DUP1 PUSH20 0xFFFFFFFFFFFFFFFFFFFFFFFFFFFFFFFFFFFFFFFF AND PUSH1 0x0 PUSH20 0xFFFFFFFFFFFFFFFFFFFFFFFFFFFFFFFFFFFFFFFF AND PUSH32 0x8BE0079C531659141344CD1FD0A4F28419497F9722A3DAAFE3B4186F6B6457E0 PUSH1 0x40 MLOAD PUSH1 0x40 MLOAD DUP1 SWAP2 SUB SWAP1 LOG3 POP DUP3 PUSH1 0x5 PUSH1 0x0 PUSH2 0x100 EXP DUP2 SLOAD DUP2 PUSH20 0xFFFFFFFFFFFFFFFFFFFFFFFFFFFFFFFFFFFFFFFF MUL NOT AND SWAP1 DUP4 PUSH20 0xFFFFFFFFFFFFFFFFFFFFFFFFFFFFFFFFFFFFFFFF AND MUL OR SWAP1 SSTORE POP DUP2 PUSH1 0x0 DUP1 PUSH2 0x100 EXP DUP2 SLOAD DUP2 PUSH20 0xFFFFFFFFFFFFFFFFFFFFFFFFFFFFFFFFFFFFFFFF MUL NOT AND SWAP1 DUP4 PUSH20 0xFFFFFFFFFFFFFFFFFFFFFFFFFFFFFFFFFFFFFFFF AND MUL OR SWAP1 SSTORE POP DUP1 PUSH1 0x7 DUP2 SWAP1 SSTORE POP POP POP POP PUSH3 0x293 JUMP JUMPDEST PUSH1 0x0 CALLER SWAP1 POP SWAP1 JUMP JUMPDEST PUSH1 0x0 DUP1 REVERT JUMPDEST PUSH1 0x0 PUSH20 0xFFFFFFFFFFFFFFFFFFFFFFFFFFFFFFFFFFFFFFFF DUP3 AND SWAP1 POP SWAP2 SWAP1 POP JUMP JUMPDEST PUSH1 0x0 PUSH3 0x1C4 DUP3 PUSH3 0x197 JUMP JUMPDEST SWAP1 POP SWAP2 SWAP1 POP JUMP JUMPDEST PUSH3 0x1D6 DUP2 PUSH3 0x1B7 JUMP JUMPDEST DUP2 EQ PUSH3 0x1E2 JUMPI PUSH1 0x0 DUP1 REVERT JUMPDEST POP JUMP JUMPDEST PUSH1 0x0 DUP2 MLOAD SWAP1 POP PUSH3 0x1F6 DUP2 PUSH3 0x1CB JUMP JUMPDEST SWAP3 SWAP2 POP POP JUMP JUMPDEST PUSH1 0x0 DUP2 SWAP1 POP SWAP2 SWAP1 POP JUMP JUMPDEST PUSH3 0x211 DUP2 PUSH3 0x1FC JUMP JUMPDEST DUP2 EQ PUSH3 0x21D JUMPI PUSH1 0x0 DUP1 REVERT JUMPDEST POP JUMP JUMPDEST PUSH1 0x0 DUP2 MLOAD SWAP1 POP PUSH3 0x231 DUP2 PUSH3 0x206 JUMP JUMPDEST SWAP3 SWAP2 POP POP JUMP JUMPDEST PUSH1 0x0 DUP1 PUSH1 0x0 PUSH1 0x60 DUP5 DUP7 SUB SLT ISZERO PUSH3 0x253 JUMPI PUSH3 0x252 PUSH3 0x192 JUMP JUMPDEST JUMPDEST PUSH1 0x0 PUSH3 0x263 DUP7 DUP3 DUP8 ADD PUSH3 0x1E5 JUMP JUMPDEST SWAP4 POP POP PUSH1 0x20 PUSH3 0x276 DUP7 DUP3 DUP8 ADD PUSH3 0x1E5 JUMP JUMPDEST SWAP3 POP POP PUSH1 0x40 PUSH3 0x289 DUP7 DUP3 DUP8 ADD PUSH3 0x220 JUMP JUMPDEST SWAP2 POP POP SWAP3 POP SWAP3 POP SWAP3 JUMP JUMPDEST PUSH2 0x269B DUP1 PUSH3 0x2A3 PUSH1 0x0 CODECOPY PUSH1 0x0 RETURN INVALID PUSH1 0x80 PUSH1 0x40 MSTORE CALLVALUE DUP1 ISZERO PUSH2 0x10 JUMPI PUSH1 0x0 DUP1 REVERT JUMPDEST POP PUSH1 0x4 CALLDATASIZE LT PUSH2 0x172 JUMPI PUSH1 0x0 CALLDATALOAD PUSH1 0xE0 SHR DUP1 PUSH4 0x80FAA57D GT PUSH2 0xDE JUMPI DUP1 PUSH4 0xCD3DAF9D GT PUSH2 0x97 JUMPI DUP1 PUSH4 0xE9FAD8EE GT PUSH2 0x71 JUMPI DUP1 PUSH4 0xE9FAD8EE EQ PUSH2 0x405 JUMPI DUP1 PUSH4 0xEBE2B12B EQ PUSH2 0x40F JUMPI DUP1 PUSH4 0xF2FDE38B EQ PUSH2 0x42D JUMPI DUP1 PUSH4 0xFC0C546A EQ PUSH2 0x449 JUMPI PUSH2 0x172 JUMP JUMPDEST DUP1 PUSH4 0xCD3DAF9D EQ PUSH2 0x3AB JUMPI DUP1 PUSH4 0xCE5FC8D0 EQ PUSH2 0x3C9 JUMPI DUP1 PUSH4 0xDF136D65 EQ PUSH2 0x3E7 JUMPI PUSH2 0x172 JUMP JUMPDEST DUP1 PUSH4 0x80FAA57D EQ PUSH2 0x2E7 JUMPI DUP1 PUSH4 0x8B876347 EQ PUSH2 0x305 JUMPI DUP1 PUSH4 0x8DA58897 EQ PUSH2 0x335 JUMPI DUP1 PUSH4 0x8DA5CB5B EQ PUSH2 0x353 JUMPI DUP1 PUSH4 0xA694FC3A EQ PUSH2 0x371 JUMPI DUP1 PUSH4 0xC8F33C91 EQ PUSH2 0x38D JUMPI PUSH2 0x172 JUMP JUMPDEST DUP1 PUSH4 0x2E1A7D4D GT PUSH2 0x130 JUMPI DUP1 PUSH4 0x2E1A7D4D EQ PUSH2 0x24D JUMPI DUP1 PUSH4 0x3C6B16AB EQ PUSH2 0x269 JUMPI DUP1 PUSH4 0x3D18B912 EQ PUSH2 0x285 JUMPI DUP1 PUSH4 0x70A08231 EQ PUSH2 0x28F JUMPI DUP1 PUSH4 0x715018A6 EQ PUSH2 0x2BF JUMPI DUP1 PUSH4 0x7B0A47EE EQ PUSH2 0x2C9 JUMPI PUSH2 0x172 JUMP JUMPDEST DUP1 PUSH3 0x8CC262 EQ PUSH2 0x177 JUMPI DUP1 PUSH4 0x700037D EQ PUSH2 0x1A7 JUMPI DUP1 PUSH4 0xD68B761 EQ PUSH2 0x1D7 JUMPI DUP1 PUSH4 0x101114CF EQ PUSH2 0x1F3 JUMPI DUP1 PUSH4 0x18160DDD EQ PUSH2 0x211 JUMPI DUP1 PUSH4 0x1BE05289 EQ PUSH2 0x22F JUMPI JUMPDEST PUSH1 0x0 DUP1 REVERT JUMPDEST PUSH2 0x191 PUSH1 0x4 DUP1 CALLDATASIZE SUB DUP2 ADD SWAP1 PUSH2 0x18C SWAP2 SWAP1 PUSH2 0x1C4B JUMP JUMPDEST PUSH2 0x467 JUMP JUMPDEST PUSH1 0x40 MLOAD PUSH2 0x19E SWAP2 SWAP1 PUSH2 0x1C91 JUMP JUMPDEST PUSH1 0x40 MLOAD DUP1 SWAP2 SUB SWAP1 RETURN JUMPDEST PUSH2 0x1C1 PUSH1 0x4 DUP1 CALLDATASIZE SUB DUP2 ADD SWAP1 PUSH2 0x1BC SWAP2 SWAP1 PUSH2 0x1C4B JUMP JUMPDEST PUSH2 0x54E JUMP JUMPDEST PUSH1 0x40 MLOAD PUSH2 0x1CE SWAP2 SWAP1 PUSH2 0x1C91 JUMP JUMPDEST PUSH1 0x40 MLOAD DUP1 SWAP2 SUB SWAP1 RETURN JUMPDEST PUSH2 0x1F1 PUSH1 0x4 DUP1 CALLDATASIZE SUB DUP2 ADD SWAP1 PUSH2 0x1EC SWAP2 SWAP1 PUSH2 0x1C4B JUMP JUMPDEST PUSH2 0x566 JUMP JUMPDEST STOP JUMPDEST PUSH2 0x1FB PUSH2 0x641 JUMP JUMPDEST PUSH1 0x40 MLOAD PUSH2 0x208 SWAP2 SWAP1 PUSH2 0x1CBB JUMP JUMPDEST PUSH1 0x40 MLOAD DUP1 SWAP2 SUB SWAP1 RETURN JUMPDEST PUSH2 0x219 PUSH2 0x667 JUMP JUMPDEST PUSH1 0x40 MLOAD PUSH2 0x226 SWAP2 SWAP1 PUSH2 0x1C91 JUMP JUMPDEST PUSH1 0x40 MLOAD DUP1 SWAP2 SUB SWAP1 RETURN JUMPDEST PUSH2 0x237 PUSH2 0x671 JUMP JUMPDEST PUSH1 0x40 MLOAD PUSH2 0x244 SWAP2 SWAP1 PUSH2 0x1C91 JUMP JUMPDEST PUSH1 0x40 MLOAD DUP1 SWAP2 SUB SWAP1 RETURN JUMPDEST PUSH2 0x267 PUSH1 0x4 DUP1 CALLDATASIZE SUB DUP2 ADD SWAP1 PUSH2 0x262 SWAP2 SWAP1 PUSH2 0x1D02 JUMP JUMPDEST PUSH2 0x677 JUMP JUMPDEST STOP JUMPDEST PUSH2 0x283 PUSH1 0x4 DUP1 CALLDATASIZE SUB DUP2 ADD SWAP1 PUSH2 0x27E SWAP2 SWAP1 PUSH2 0x1D02 JUMP JUMPDEST PUSH2 0x83E JUMP JUMPDEST STOP JUMPDEST PUSH2 0x28D PUSH2 0xB2A JUMP JUMPDEST STOP JUMPDEST PUSH2 0x2A9 PUSH1 0x4 DUP1 CALLDATASIZE SUB DUP2 ADD SWAP1 PUSH2 0x2A4 SWAP2 SWAP1 PUSH2 0x1C4B JUMP JUMPDEST PUSH2 0xD4E JUMP JUMPDEST PUSH1 0x40 MLOAD PUSH2 0x2B6 SWAP2 SWAP1 PUSH2 0x1C91 JUMP JUMPDEST PUSH1 0x40 MLOAD DUP1 SWAP2 SUB SWAP1 RETURN JUMPDEST PUSH2 0x2C7 PUSH2 0xD97 JUMP JUMPDEST STOP JUMPDEST PUSH2 0x2D1 PUSH2 0xEEF JUMP JUMPDEST PUSH1 0x40 MLOAD PUSH2 0x2DE SWAP2 SWAP1 PUSH2 0x1C91 JUMP JUMPDEST PUSH1 0x40 MLOAD DUP1 SWAP2 SUB SWAP1 RETURN JUMPDEST PUSH2 0x2EF PUSH2 0xEF5 JUMP JUMPDEST PUSH1 0x40 MLOAD PUSH2 0x2FC SWAP2 SWAP1 PUSH2 0x1C91 JUMP JUMPDEST PUSH1 0x40 MLOAD DUP1 SWAP2 SUB SWAP1 RETURN JUMPDEST PUSH2 0x31F PUSH1 0x4 DUP1 CALLDATASIZE SUB DUP2 ADD SWAP1 PUSH2 0x31A SWAP2 SWAP1 PUSH2 0x1C4B JUMP JUMPDEST PUSH2 0xF08 JUMP JUMPDEST PUSH1 0x40 MLOAD PUSH2 0x32C SWAP2 SWAP1 PUSH2 0x1C91 JUMP JUMPDEST PUSH1 0x40 MLOAD DUP1 SWAP2 SUB SWAP1 RETURN JUMPDEST PUSH2 0x33D PUSH2 0xF20 JUMP JUMPDEST PUSH1 0x40 MLOAD PUSH2 0x34A SWAP2 SWAP1 PUSH2 0x1C91 JUMP JUMPDEST PUSH1 0x40 MLOAD DUP1 SWAP2 SUB SWAP1 RETURN JUMPDEST PUSH2 0x35B PUSH2 0xF26 JUMP JUMPDEST PUSH1 0x40 MLOAD PUSH2 0x368 SWAP2 SWAP1 PUSH2 0x1CBB JUMP JUMPDEST PUSH1 0x40 MLOAD DUP1 SWAP2 SUB SWAP1 RETURN JUMPDEST PUSH2 0x38B PUSH1 0x4 DUP1 CALLDATASIZE SUB DUP2 ADD SWAP1 PUSH2 0x386 SWAP2 SWAP1 PUSH2 0x1D02 JUMP JUMPDEST PUSH2 0xF50 JUMP JUMPDEST STOP JUMPDEST PUSH2 0x395 PUSH2 0x1117 JUMP JUMPDEST PUSH1 0x40 MLOAD PUSH2 0x3A2 SWAP2 SWAP1 PUSH2 0x1C91 JUMP JUMPDEST PUSH1 0x40 MLOAD DUP1 SWAP2 SUB SWAP1 RETURN JUMPDEST PUSH2 0x3B3 PUSH2 0x111D JUMP JUMPDEST PUSH1 0x40 MLOAD PUSH2 0x3C0 SWAP2 SWAP1 PUSH2 0x1C91 JUMP JUMPDEST PUSH1 0x40 MLOAD DUP1 SWAP2 SUB SWAP1 RETURN JUMPDEST PUSH2 0x3D1 PUSH2 0x11B4 JUMP JUMPDEST PUSH1 0x40 MLOAD PUSH2 0x3DE SWAP2 SWAP1 PUSH2 0x1D8E JUMP JUMPDEST PUSH1 0x40 MLOAD DUP1 SWAP2 SUB SWAP1 RETURN JUMPDEST PUSH2 0x3EF PUSH2 0x11D8 JUMP JUMPDEST PUSH1 0x40 MLOAD PUSH2 0x3FC SWAP2 SWAP1 PUSH2 0x1C91 JUMP JUMPDEST PUSH1 0x40 MLOAD DUP1 SWAP2 SUB SWAP1 RETURN JUMPDEST PUSH2 0x40D PUSH2 0x11DE JUMP JUMPDEST STOP JUMPDEST PUSH2 0x417 PUSH2 0x11F9 JUMP JUMPDEST PUSH1 0x40 MLOAD PUSH2 0x424 SWAP2 SWAP1 PUSH2 0x1C91 JUMP JUMPDEST PUSH1 0x40 MLOAD DUP1 SWAP2 SUB SWAP1 RETURN JUMPDEST PUSH2 0x447 PUSH1 0x4 DUP1 CALLDATASIZE SUB DUP2 ADD SWAP1 PUSH2 0x442 SWAP2 SWAP1 PUSH2 0x1C4B JUMP JUMPDEST PUSH2 0x11FF JUMP JUMPDEST STOP JUMPDEST PUSH2 0x451 PUSH2 0x13C5 JUMP JUMPDEST PUSH1 0x40 MLOAD PUSH2 0x45E SWAP2 SWAP1 PUSH2 0x1D8E JUMP JUMPDEST PUSH1 0x40 MLOAD DUP1 SWAP2 SUB SWAP1 RETURN JUMPDEST PUSH1 0x0 PUSH2 0x547 PUSH1 0xD PUSH1 0x0 DUP5 PUSH20 0xFFFFFFFFFFFFFFFFFFFFFFFFFFFFFFFFFFFFFFFF AND PUSH20 0xFFFFFFFFFFFFFFFFFFFFFFFFFFFFFFFFFFFFFFFF AND DUP2 MSTORE PUSH1 0x20 ADD SWAP1 DUP2 MSTORE PUSH1 0x20 ADD PUSH1 0x0 KECCAK256 SLOAD PUSH2 0x539 PUSH8 0xDE0B6B3A7640000 PUSH2 0x52B PUSH2 0x514 PUSH1 0xC PUSH1 0x0 DUP10 PUSH20 0xFFFFFFFFFFFFFFFFFFFFFFFFFFFFFFFFFFFFFFFF AND PUSH20 0xFFFFFFFFFFFFFFFFFFFFFFFFFFFFFFFFFFFFFFFF AND DUP2 MSTORE PUSH1 0x20 ADD SWAP1 DUP2 MSTORE PUSH1 0x20 ADD PUSH1 0x0 KECCAK256 SLOAD PUSH2 0x506 PUSH2 0x111D JUMP JUMPDEST PUSH2 0x13EB SWAP1 SWAP2 SWAP1 PUSH4 0xFFFFFFFF AND JUMP JUMPDEST PUSH2 0x51D DUP9 PUSH2 0xD4E JUMP JUMPDEST PUSH2 0x1435 SWAP1 SWAP2 SWAP1 PUSH4 0xFFFFFFFF AND JUMP JUMPDEST PUSH2 0x14AF SWAP1 SWAP2 SWAP1 PUSH4 0xFFFFFFFF AND JUMP JUMPDEST PUSH2 0x14F9 SWAP1 SWAP2 SWAP1 PUSH4 0xFFFFFFFF AND JUMP JUMPDEST SWAP1 POP SWAP2 SWAP1 POP JUMP JUMPDEST PUSH1 0xD PUSH1 0x20 MSTORE DUP1 PUSH1 0x0 MSTORE PUSH1 0x40 PUSH1 0x0 KECCAK256 PUSH1 0x0 SWAP2 POP SWAP1 POP SLOAD DUP2 JUMP JUMPDEST PUSH2 0x56E PUSH2 0x1557 JUMP JUMPDEST PUSH20 0xFFFFFFFFFFFFFFFFFFFFFFFFFFFFFFFFFFFFFFFF AND PUSH1 0x3 PUSH1 0x0 SWAP1 SLOAD SWAP1 PUSH2 0x100 EXP SWAP1 DIV PUSH20 0xFFFFFFFFFFFFFFFFFFFFFFFFFFFFFFFFFFFFFFFF AND PUSH20 0xFFFFFFFFFFFFFFFFFFFFFFFFFFFFFFFFFFFFFFFF AND EQ PUSH2 0x5FD JUMPI PUSH1 0x40 MLOAD PUSH32 0x8C379A000000000000000000000000000000000000000000000000000000000 DUP2 MSTORE PUSH1 0x4 ADD PUSH2 0x5F4 SWAP1 PUSH2 0x1E06 JUMP JUMPDEST PUSH1 0x40 MLOAD DUP1 SWAP2 SUB SWAP1 REVERT JUMPDEST DUP1 PUSH1 0x4 PUSH1 0x0 PUSH2 0x100 EXP DUP2 SLOAD DUP2 PUSH20 0xFFFFFFFFFFFFFFFFFFFFFFFFFFFFFFFFFFFFFFFF MUL NOT AND SWAP1 DUP4 PUSH20 0xFFFFFFFFFFFFFFFFFFFFFFFFFFFFFFFFFFFFFFFF AND MUL OR SWAP1 SSTORE POP POP JUMP JUMPDEST PUSH1 0x4 PUSH1 0x0 SWAP1 SLOAD SWAP1 PUSH2 0x100 EXP SWAP1 DIV PUSH20 0xFFFFFFFFFFFFFFFFFFFFFFFFFFFFFFFFFFFFFFFF AND DUP2 JUMP JUMPDEST PUSH1 0x0 PUSH1 0x1 SLOAD SWAP1 POP SWAP1 JUMP JUMPDEST PUSH1 0x6 SLOAD DUP2 JUMP JUMPDEST CALLER PUSH2 0x680 PUSH2 0x111D JUMP JUMPDEST PUSH1 0xB DUP2 SWAP1 SSTORE POP PUSH2 0x68E PUSH2 0xEF5 JUMP JUMPDEST PUSH1 0xA DUP2 SWAP1 SSTORE POP PUSH1 0x0 PUSH20 0xFFFFFFFFFFFFFFFFFFFFFFFFFFFFFFFFFFFFFFFF AND DUP2 PUSH20 0xFFFFFFFFFFFFFFFFFFFFFFFFFFFFFFFFFFFFFFFF AND EQ PUSH2 0x75B JUMPI PUSH2 0x6D1 DUP2 PUSH2 0x467 JUMP JUMPDEST PUSH1 0xD PUSH1 0x0 DUP4 PUSH20 0xFFFFFFFFFFFFFFFFFFFFFFFFFFFFFFFFFFFFFFFF AND PUSH20 0xFFFFFFFFFFFFFFFFFFFFFFFFFFFFFFFFFFFFFFFF AND DUP2 MSTORE PUSH1 0x20 ADD SWAP1 DUP2 MSTORE PUSH1 0x20 ADD PUSH1 0x0 KECCAK256 DUP2 SWAP1 SSTORE POP PUSH1 0xB SLOAD PUSH1 0xC PUSH1 0x0 DUP4 PUSH20 0xFFFFFFFFFFFFFFFFFFFFFFFFFFFFFFFFFFFFFFFF AND PUSH20 0xFFFFFFFFFFFFFFFFFFFFFFFFFFFFFFFFFFFFFFFF AND DUP2 MSTORE PUSH1 0x20 ADD SWAP1 DUP2 MSTORE PUSH1 0x20 ADD PUSH1 0x0 KECCAK256 DUP2 SWAP1 SSTORE POP JUMPDEST PUSH1 0x7 SLOAD TIMESTAMP LT ISZERO PUSH2 0x7A0 JUMPI PUSH1 0x40 MLOAD PUSH32 0x8C379A000000000000000000000000000000000000000000000000000000000 DUP2 MSTORE PUSH1 0x4 ADD PUSH2 0x797 SWAP1 PUSH2 0x1E72 JUMP JUMPDEST PUSH1 0x40 MLOAD DUP1 SWAP2 SUB SWAP1 REVERT JUMPDEST PUSH1 0x0 DUP3 GT PUSH2 0x7E3 JUMPI PUSH1 0x40 MLOAD PUSH32 0x8C379A000000000000000000000000000000000000000000000000000000000 DUP2 MSTORE PUSH1 0x4 ADD PUSH2 0x7DA SWAP1 PUSH2 0x1F04 JUMP JUMPDEST PUSH1 0x40 MLOAD DUP1 SWAP2 SUB SWAP1 REVERT JUMPDEST PUSH2 0x7EC DUP3 PUSH2 0x155F JUMP JUMPDEST CALLER PUSH20 0xFFFFFFFFFFFFFFFFFFFFFFFFFFFFFFFFFFFFFFFF AND PUSH32 0x7084F5476618D8E60B11EF0D7D3F06914655ADB8793E28FF7F018D4C76D505D5 DUP4 PUSH1 0x40 MLOAD PUSH2 0x832 SWAP2 SWAP1 PUSH2 0x1C91 JUMP JUMPDEST PUSH1 0x40 MLOAD DUP1 SWAP2 SUB SWAP1 LOG2 POP POP JUMP JUMPDEST PUSH1 0x4 PUSH1 0x0 SWAP1 SLOAD SWAP1 PUSH2 0x100 EXP SWAP1 DIV PUSH20 0xFFFFFFFFFFFFFFFFFFFFFFFFFFFFFFFFFFFFFFFF AND PUSH20 0xFFFFFFFFFFFFFFFFFFFFFFFFFFFFFFFFFFFFFFFF AND PUSH2 0x87F PUSH2 0x1557 JUMP JUMPDEST PUSH20 0xFFFFFFFFFFFFFFFFFFFFFFFFFFFFFFFFFFFFFFFF AND EQ PUSH2 0x8D5 JUMPI PUSH1 0x40 MLOAD PUSH32 0x8C379A000000000000000000000000000000000000000000000000000000000 DUP2 MSTORE PUSH1 0x4 ADD PUSH2 0x8CC SWAP1 PUSH2 0x1F96 JUMP JUMPDEST PUSH1 0x40 MLOAD DUP1 SWAP2 SUB SWAP1 REVERT JUMPDEST PUSH1 0x0 PUSH2 0x8DF PUSH2 0x111D JUMP JUMPDEST PUSH1 0xB DUP2 SWAP1 SSTORE POP PUSH2 0x8ED PUSH2 0xEF5 JUMP JUMPDEST PUSH1 0xA DUP2 SWAP1 SSTORE POP PUSH1 0x0 PUSH20 0xFFFFFFFFFFFFFFFFFFFFFFFFFFFFFFFFFFFFFFFF AND DUP2 PUSH20 0xFFFFFFFFFFFFFFFFFFFFFFFFFFFFFFFFFFFFFFFF AND EQ PUSH2 0x9BA JUMPI PUSH2 0x930 DUP2 PUSH2 0x467 JUMP JUMPDEST PUSH1 0xD PUSH1 0x0 DUP4 PUSH20 0xFFFFFFFFFFFFFFFFFFFFFFFFFFFFFFFFFFFFFFFF AND PUSH20 0xFFFFFFFFFFFFFFFFFFFFFFFFFFFFFFFFFFFFFFFF AND DUP2 MSTORE PUSH1 0x20 ADD SWAP1 DUP2 MSTORE PUSH1 0x20 ADD PUSH1 0x0 KECCAK256 DUP2 SWAP1 SSTORE POP PUSH1 0xB SLOAD PUSH1 0xC PUSH1 0x0 DUP4 PUSH20 0xFFFFFFFFFFFFFFFFFFFFFFFFFFFFFFFFFFFFFFFF AND PUSH20 0xFFFFFFFFFFFFFFFFFFFFFFFFFFFFFFFFFFFFFFFF AND DUP2 MSTORE PUSH1 0x20 ADD SWAP1 DUP2 MSTORE PUSH1 0x20 ADD PUSH1 0x0 KECCAK256 DUP2 SWAP1 SSTORE POP JUMPDEST PUSH1 0x7 SLOAD TIMESTAMP GT ISZERO PUSH2 0xAAD JUMPI PUSH1 0x8 SLOAD TIMESTAMP LT PUSH2 0x9ED JUMPI PUSH2 0x9E2 PUSH1 0x6 SLOAD DUP4 PUSH2 0x14AF SWAP1 SWAP2 SWAP1 PUSH4 0xFFFFFFFF AND JUMP JUMPDEST PUSH1 0x9 DUP2 SWAP1 SSTORE POP PUSH2 0xA4F JUMP JUMPDEST PUSH1 0x0 PUSH2 0xA04 TIMESTAMP PUSH1 0x8 SLOAD PUSH2 0x13EB SWAP1 SWAP2 SWAP1 PUSH4 0xFFFFFFFF AND JUMP JUMPDEST SWAP1 POP PUSH1 0x0 PUSH2 0xA1D PUSH1 0x9 SLOAD DUP4 PUSH2 0x1435 SWAP1 SWAP2 SWAP1 PUSH4 0xFFFFFFFF AND JUMP JUMPDEST SWAP1 POP PUSH2 0xA46 PUSH1 0x6 SLOAD PUSH2 0xA38 DUP4 DUP8 PUSH2 0x14F9 SWAP1 SWAP2 SWAP1 PUSH4 0xFFFFFFFF AND JUMP JUMPDEST PUSH2 0x14AF SWAP1 SWAP2 SWAP1 PUSH4 0xFFFFFFFF AND JUMP JUMPDEST PUSH1 0x9 DUP2 SWAP1 SSTORE POP POP POP JUMPDEST TIMESTAMP PUSH1 0xA DUP2 SWAP1 SSTORE POP PUSH2 0xA6B PUSH1 0x6 SLOAD TIMESTAMP PUSH2 0x14F9 SWAP1 SWAP2 SWAP1 PUSH4 0xFFFFFFFF AND JUMP JUMPDEST PUSH1 0x8 DUP2 SWAP1 SSTORE POP PUSH32 0xDE88A922E0D3B88B24E9623EFEB464919C6BF9F66857A65E2BFCF2CE87A9433D DUP3 PUSH1 0x40 MLOAD PUSH2 0xAA0 SWAP2 SWAP1 PUSH2 0x1C91 JUMP JUMPDEST PUSH1 0x40 MLOAD DUP1 SWAP2 SUB SWAP1 LOG1 PUSH2 0xB26 JUMP JUMPDEST PUSH2 0xAC2 PUSH1 0x6 SLOAD DUP4 PUSH2 0x14AF SWAP1 SWAP2 SWAP1 PUSH4 0xFFFFFFFF AND JUMP JUMPDEST PUSH1 0x9 DUP2 SWAP1 SSTORE POP PUSH1 0x7 SLOAD PUSH1 0xA DUP2 SWAP1 SSTORE POP PUSH2 0xAE8 PUSH1 0x6 SLOAD PUSH1 0x7 SLOAD PUSH2 0x14F9 SWAP1 SWAP2 SWAP1 PUSH4 0xFFFFFFFF AND JUMP JUMPDEST PUSH1 0x8 DUP2 SWAP1 SSTORE POP PUSH32 0xDE88A922E0D3B88B24E9623EFEB464919C6BF9F66857A65E2BFCF2CE87A9433D DUP3 PUSH1 0x40 MLOAD PUSH2 0xB1D SWAP2 SWAP1 PUSH2 0x1C91 JUMP JUMPDEST PUSH1 0x40 MLOAD DUP1 SWAP2 SUB SWAP1 LOG1 JUMPDEST POP POP JUMP JUMPDEST CALLER PUSH2 0xB33 PUSH2 0x111D JUMP JUMPDEST PUSH1 0xB DUP2 SWAP1 SSTORE POP PUSH2 0xB41 PUSH2 0xEF5 JUMP JUMPDEST PUSH1 0xA DUP2 SWAP1 SSTORE POP PUSH1 0x0 PUSH20 0xFFFFFFFFFFFFFFFFFFFFFFFFFFFFFFFFFFFFFFFF AND DUP2 PUSH20 0xFFFFFFFFFFFFFFFFFFFFFFFFFFFFFFFFFFFFFFFF AND EQ PUSH2 0xC0E JUMPI PUSH2 0xB84 DUP2 PUSH2 0x467 JUMP JUMPDEST PUSH1 0xD PUSH1 0x0 DUP4 PUSH20 0xFFFFFFFFFFFFFFFFFFFFFFFFFFFFFFFFFFFFFFFF AND PUSH20 0xFFFFFFFFFFFFFFFFFFFFFFFFFFFFFFFFFFFFFFFF AND DUP2 MSTORE PUSH1 0x20 ADD SWAP1 DUP2 MSTORE PUSH1 0x20 ADD PUSH1 0x0 KECCAK256 DUP2 SWAP1 SSTORE POP PUSH1 0xB SLOAD PUSH1 0xC PUSH1 0x0 DUP4 PUSH20 0xFFFFFFFFFFFFFFFFFFFFFFFFFFFFFFFFFFFFFFFF AND PUSH20 0xFFFFFFFFFFFFFFFFFFFFFFFFFFFFFFFFFFFFFFFF AND DUP2 MSTORE PUSH1 0x20 ADD SWAP1 DUP2 MSTORE PUSH1 0x20 ADD PUSH1 0x0 KECCAK256 DUP2 SWAP1 SSTORE POP JUMPDEST PUSH1 0x7 SLOAD TIMESTAMP LT ISZERO PUSH2 0xC53 JUMPI PUSH1 0x40 MLOAD PUSH32 0x8C379A000000000000000000000000000000000000000000000000000000000 DUP2 MSTORE PUSH1 0x4 ADD PUSH2 0xC4A SWAP1 PUSH2 0x1E72 JUMP JUMPDEST PUSH1 0x40 MLOAD DUP1 SWAP2 SUB SWAP1 REVERT JUMPDEST PUSH1 0x0 PUSH2 0xC5E CALLER PUSH2 0x467 JUMP JUMPDEST SWAP1 POP PUSH1 0x0 DUP2 GT ISZERO PUSH2 0xD4A JUMPI PUSH1 0x0 PUSH1 0xD PUSH1 0x0 CALLER PUSH20 0xFFFFFFFFFFFFFFFFFFFFFFFFFFFFFFFFFFFFFFFF AND PUSH20 0xFFFFFFFFFFFFFFFFFFFFFFFFFFFFFFFFFFFFFFFF AND DUP2 MSTORE PUSH1 0x20 ADD SWAP1 DUP2 MSTORE PUSH1 0x20 ADD PUSH1 0x0 KECCAK256 DUP2 SWAP1 SSTORE POP PUSH2 0xCFB CALLER DUP3 PUSH1 0x5 PUSH1 0x0 SWAP1 SLOAD SWAP1 PUSH2 0x100 EXP SWAP1 DIV PUSH20 0xFFFFFFFFFFFFFFFFFFFFFFFFFFFFFFFFFFFFFFFF AND PUSH20 0xFFFFFFFFFFFFFFFFFFFFFFFFFFFFFFFFFFFFFFFF AND PUSH2 0x16E5 SWAP1 SWAP3 SWAP2 SWAP1 PUSH4 0xFFFFFFFF AND JUMP JUMPDEST CALLER PUSH20 0xFFFFFFFFFFFFFFFFFFFFFFFFFFFFFFFFFFFFFFFF AND PUSH32 0xE2403640BA68FED3A2F88B7557551D1993F84B99BB10FF833F0CF8DB0C5E0486 DUP3 PUSH1 0x40 MLOAD PUSH2 0xD41 SWAP2 SWAP1 PUSH2 0x1C91 JUMP JUMPDEST PUSH1 0x40 MLOAD DUP1 SWAP2 SUB SWAP1 LOG2 JUMPDEST POP POP JUMP JUMPDEST PUSH1 0x0 PUSH1 0x2 PUSH1 0x0 DUP4 PUSH20 0xFFFFFFFFFFFFFFFFFFFFFFFFFFFFFFFFFFFFFFFF AND PUSH20 0xFFFFFFFFFFFFFFFFFFFFFFFFFFFFFFFFFFFFFFFF AND DUP2 MSTORE PUSH1 0x20 ADD SWAP1 DUP2 MSTORE PUSH1 0x20 ADD PUSH1 0x0 KECCAK256 SLOAD SWAP1 POP SWAP2 SWAP1 POP JUMP JUMPDEST PUSH2 0xD9F PUSH2 0x1557 JUMP JUMPDEST PUSH20 0xFFFFFFFFFFFFFFFFFFFFFFFFFFFFFFFFFFFFFFFF AND PUSH1 0x3 PUSH1 0x0 SWAP1 SLOAD SWAP1 PUSH2 0x100 EXP SWAP1 DIV PUSH20 0xFFFFFFFFFFFFFFFFFFFFFFFFFFFFFFFFFFFFFFFF AND PUSH20 0xFFFFFFFFFFFFFFFFFFFFFFFFFFFFFFFFFFFFFFFF AND EQ PUSH2 0xE2E JUMPI PUSH1 0x40 MLOAD PUSH32 0x8C379A000000000000000000000000000000000000000000000000000000000 DUP2 MSTORE PUSH1 0x4 ADD PUSH2 0xE25 SWAP1 PUSH2 0x1E06 JUMP JUMPDEST PUSH1 0x40 MLOAD DUP1 SWAP2 SUB SWAP1 REVERT JUMPDEST PUSH1 0x0 PUSH20 0xFFFFFFFFFFFFFFFFFFFFFFFFFFFFFFFFFFFFFFFF AND PUSH1 0x3 PUSH1 0x0 SWAP1 SLOAD SWAP1 PUSH2 0x100 EXP SWAP1 DIV PUSH20 0xFFFFFFFFFFFFFFFFFFFFFFFFFFFFFFFFFFFFFFFF AND PUSH20 0xFFFFFFFFFFFFFFFFFFFFFFFFFFFFFFFFFFFFFFFF AND PUSH32 0x8BE0079C531659141344CD1FD0A4F28419497F9722A3DAAFE3B4186F6B6457E0 PUSH1 0x40 MLOAD PUSH1 0x40 MLOAD DUP1 SWAP2 SUB SWAP1 LOG3 PUSH1 0x0 PUSH1 0x3 PUSH1 0x0 PUSH2 0x100 EXP DUP2 SLOAD DUP2 PUSH20 0xFFFFFFFFFFFFFFFFFFFFFFFFFFFFFFFFFFFFFFFF MUL NOT AND SWAP1 DUP4 PUSH20 0xFFFFFFFFFFFFFFFFFFFFFFFFFFFFFFFFFFFFFFFF AND MUL OR SWAP1 SSTORE POP JUMP JUMPDEST PUSH1 0x9 SLOAD DUP2 JUMP JUMPDEST PUSH1 0x0 PUSH2 0xF03 TIMESTAMP PUSH1 0x8 SLOAD PUSH2 0x176B JUMP JUMPDEST SWAP1 POP SWAP1 JUMP JUMPDEST PUSH1 0xC PUSH1 0x20 MSTORE DUP1 PUSH1 0x0 MSTORE PUSH1 0x40 PUSH1 0x0 KECCAK256 PUSH1 0x0 SWAP2 POP SWAP1 POP SLOAD DUP2 JUMP JUMPDEST PUSH1 0x7 SLOAD DUP2 JUMP JUMPDEST PUSH1 0x0 PUSH1 0x3 PUSH1 0x0 SWAP1 SLOAD SWAP1 PUSH2 0x100 EXP SWAP1 DIV PUSH20 0xFFFFFFFFFFFFFFFFFFFFFFFFFFFFFFFFFFFFFFFF AND SWAP1 POP SWAP1 JUMP JUMPDEST CALLER PUSH2 0xF59 PUSH2 0x111D JUMP JUMPDEST PUSH1 0xB DUP2 SWAP1 SSTORE POP PUSH2 0xF67 PUSH2 0xEF5 JUMP JUMPDEST PUSH1 0xA DUP2 SWAP1 SSTORE POP PUSH1 0x0 PUSH20 0xFFFFFFFFFFFFFFFFFFFFFFFFFFFFFFFFFFFFFFFF AND DUP2 PUSH20 0xFFFFFFFFFFFFFFFFFFFFFFFFFFFFFFFFFFFFFFFF AND EQ PUSH2 0x1034 JUMPI PUSH2 0xFAA DUP2 PUSH2 0x467 JUMP JUMPDEST PUSH1 0xD PUSH1 0x0 DUP4 PUSH20 0xFFFFFFFFFFFFFFFFFFFFFFFFFFFFFFFFFFFFFFFF AND PUSH20 0xFFFFFFFFFFFFFFFFFFFFFFFFFFFFFFFFFFFFFFFF AND DUP2 MSTORE PUSH1 0x20 ADD SWAP1 DUP2 MSTORE PUSH1 0x20 ADD PUSH1 0x0 KECCAK256 DUP2 SWAP1 SSTORE POP PUSH1 0xB SLOAD PUSH1 0xC PUSH1 0x0 DUP4 PUSH20 0xFFFFFFFFFFFFFFFFFFFFFFFFFFFFFFFFFFFFFFFF AND PUSH20 0xFFFFFFFFFFFFFFFFFFFFFFFFFFFFFFFFFFFFFFFF AND DUP2 MSTORE PUSH1 0x20 ADD SWAP1 DUP2 MSTORE PUSH1 0x20 ADD PUSH1 0x0 KECCAK256 DUP2 SWAP1 SSTORE POP JUMPDEST PUSH1 0x7 SLOAD TIMESTAMP LT ISZERO PUSH2 0x1079 JUMPI PUSH1 0x40 MLOAD PUSH32 0x8C379A000000000000000000000000000000000000000000000000000000000 DUP2 MSTORE PUSH1 0x4 ADD PUSH2 0x1070 SWAP1 PUSH2 0x1E72 JUMP JUMPDEST PUSH1 0x40 MLOAD DUP1 SWAP2 SUB SWAP1 REVERT JUMPDEST PUSH1 0x0 DUP3 GT PUSH2 0x10BC JUMPI PUSH1 0x40 MLOAD PUSH32 0x8C379A000000000000000000000000000000000000000000000000000000000 DUP2 MSTORE PUSH1 0x4 ADD PUSH2 0x10B3 SWAP1 PUSH2 0x2028 JUMP JUMPDEST PUSH1 0x40 MLOAD DUP1 SWAP2 SUB SWAP1 REVERT JUMPDEST PUSH2 0x10C5 DUP3 PUSH2 0x1784 JUMP JUMPDEST CALLER PUSH20 0xFFFFFFFFFFFFFFFFFFFFFFFFFFFFFFFFFFFFFFFF AND PUSH32 0x9E71BC8EEA02A63969F509818F2DAFB9254532904319F9DBDA79B67BD34A5F3D DUP4 PUSH1 0x40 MLOAD PUSH2 0x110B SWAP2 SWAP1 PUSH2 0x1C91 JUMP JUMPDEST PUSH1 0x40 MLOAD DUP1 SWAP2 SUB SWAP1 LOG2 POP POP JUMP JUMPDEST PUSH1 0xA SLOAD DUP2 JUMP JUMPDEST PUSH1 0x0 DUP1 PUSH2 0x1128 PUSH2 0x667 JUMP JUMPDEST SUB PUSH2 0x1137 JUMPI PUSH1 0xB SLOAD SWAP1 POP PUSH2 0x11B1 JUMP JUMPDEST PUSH2 0x11AE PUSH2 0x119D PUSH2 0x1145 PUSH2 0x667 JUMP JUMPDEST PUSH2 0x118F PUSH8 0xDE0B6B3A7640000 PUSH2 0x1181 PUSH1 0x9 SLOAD PUSH2 0x1173 PUSH1 0xA SLOAD PUSH2 0x1165 PUSH2 0xEF5 JUMP JUMPDEST PUSH2 0x13EB SWAP1 SWAP2 SWAP1 PUSH4 0xFFFFFFFF AND JUMP JUMPDEST PUSH2 0x1435 SWAP1 SWAP2 SWAP1 PUSH4 0xFFFFFFFF AND JUMP JUMPDEST PUSH2 0x1435 SWAP1 SWAP2 SWAP1 PUSH4 0xFFFFFFFF AND JUMP JUMPDEST PUSH2 0x14AF SWAP1 SWAP2 SWAP1 PUSH4 0xFFFFFFFF AND JUMP JUMPDEST PUSH1 0xB SLOAD PUSH2 0x14F9 SWAP1 SWAP2 SWAP1 PUSH4 0xFFFFFFFF AND JUMP JUMPDEST SWAP1 POP JUMPDEST SWAP1 JUMP JUMPDEST PUSH1 0x0 DUP1 SLOAD SWAP1 PUSH2 0x100 EXP SWAP1 DIV PUSH20 0xFFFFFFFFFFFFFFFFFFFFFFFFFFFFFFFFFFFFFFFF AND DUP2 JUMP JUMPDEST PUSH1 0xB SLOAD DUP2 JUMP JUMPDEST PUSH2 0x11EF PUSH2 0x11EA CALLER PUSH2 0xD4E JUMP JUMPDEST PUSH2 0x677 JUMP JUMPDEST PUSH2 0x11F7 PUSH2 0xB2A JUMP JUMPDEST JUMP JUMPDEST PUSH1 0x8 SLOAD DUP2 JUMP JUMPDEST PUSH2 0x1207 PUSH2 0x1557 JUMP JUMPDEST PUSH20 0xFFFFFFFFFFFFFFFFFFFFFFFFFFFFFFFFFFFFFFFF AND PUSH1 0x3 PUSH1 0x0 SWAP1 SLOAD SWAP1 PUSH2 0x100 EXP SWAP1 DIV PUSH20 0xFFFFFFFFFFFFFFFFFFFFFFFFFFFFFFFFFFFFFFFF AND PUSH20 0xFFFFFFFFFFFFFFFFFFFFFFFFFFFFFFFFFFFFFFFF AND EQ PUSH2 0x1296 JUMPI PUSH1 0x40 MLOAD PUSH32 0x8C379A000000000000000000000000000000000000000000000000000000000 DUP2 MSTORE PUSH1 0x4 ADD PUSH2 0x128D SWAP1 PUSH2 0x1E06 JUMP JUMPDEST PUSH1 0x40 MLOAD DUP1 SWAP2 SUB SWAP1 REVERT JUMPDEST PUSH1 0x0 PUSH20 0xFFFFFFFFFFFFFFFFFFFFFFFFFFFFFFFFFFFFFFFF AND DUP2 PUSH20 0xFFFFFFFFFFFFFFFFFFFFFFFFFFFFFFFFFFFFFFFF AND SUB PUSH2 0x1305 JUMPI PUSH1 0x40 MLOAD PUSH32 0x8C379A000000000000000000000000000000000000000000000000000000000 DUP2 MSTORE PUSH1 0x4 ADD PUSH2 0x12FC SWAP1 PUSH2 0x20BA JUMP JUMPDEST PUSH1 0x40 MLOAD DUP1 SWAP2 SUB SWAP1 REVERT JUMPDEST DUP1 PUSH20 0xFFFFFFFFFFFFFFFFFFFFFFFFFFFFFFFFFFFFFFFF AND PUSH1 0x3 PUSH1 0x0 SWAP1 SLOAD SWAP1 PUSH2 0x100 EXP SWAP1 DIV PUSH20 0xFFFFFFFFFFFFFFFFFFFFFFFFFFFFFFFFFFFFFFFF AND PUSH20 0xFFFFFFFFFFFFFFFFFFFFFFFFFFFFFFFFFFFFFFFF AND PUSH32 0x8BE0079C531659141344CD1FD0A4F28419497F9722A3DAAFE3B4186F6B6457E0 PUSH1 0x40 MLOAD PUSH1 0x40 MLOAD DUP1 SWAP2 SUB SWAP1 LOG3 DUP1 PUSH1 0x3 PUSH1 0x0 PUSH2 0x100 EXP DUP2 SLOAD DUP2 PUSH20 0xFFFFFFFFFFFFFFFFFFFFFFFFFFFFFFFFFFFFFFFF MUL NOT AND SWAP1 DUP4 PUSH20 0xFFFFFFFFFFFFFFFFFFFFFFFFFFFFFFFFFFFFFFFF AND MUL OR SWAP1 SSTORE POP POP JUMP JUMPDEST PUSH1 0x5 PUSH1 0x0 SWAP1 SLOAD SWAP1 PUSH2 0x100 EXP SWAP1 DIV PUSH20 0xFFFFFFFFFFFFFFFFFFFFFFFFFFFFFFFFFFFFFFFF AND DUP2 JUMP JUMPDEST PUSH1 0x0 PUSH2 0x142D DUP4 DUP4 PUSH1 0x40 MLOAD DUP1 PUSH1 0x40 ADD PUSH1 0x40 MSTORE DUP1 PUSH1 0x1E DUP2 MSTORE PUSH1 0x20 ADD PUSH32 0x536166654D6174683A207375627472616374696F6E206F766572666C6F770000 DUP2 MSTORE POP PUSH2 0x1884 JUMP JUMPDEST SWAP1 POP SWAP3 SWAP2 POP POP JUMP JUMPDEST PUSH1 0x0 DUP1 DUP4 SUB PUSH2 0x1447 JUMPI PUSH1 0x0 SWAP1 POP PUSH2 0x14A9 JUMP JUMPDEST PUSH1 0x0 DUP3 DUP5 PUSH2 0x1455 SWAP2 SWAP1 PUSH2 0x2109 JUMP JUMPDEST SWAP1 POP DUP3 DUP5 DUP3 PUSH2 0x1464 SWAP2 SWAP1 PUSH2 0x217A JUMP JUMPDEST EQ PUSH2 0x14A4 JUMPI PUSH1 0x40 MLOAD PUSH32 0x8C379A000000000000000000000000000000000000000000000000000000000 DUP2 MSTORE PUSH1 0x4 ADD PUSH2 0x149B SWAP1 PUSH2 0x221D JUMP JUMPDEST PUSH1 0x40 MLOAD DUP1 SWAP2 SUB SWAP1 REVERT JUMPDEST DUP1 SWAP2 POP POP JUMPDEST SWAP3 SWAP2 POP POP JUMP JUMPDEST PUSH1 0x0 PUSH2 0x14F1 DUP4 DUP4 PUSH1 0x40 MLOAD DUP1 PUSH1 0x40 ADD PUSH1 0x40 MSTORE DUP1 PUSH1 0x1A DUP2 MSTORE PUSH1 0x20 ADD PUSH32 0x536166654D6174683A206469766973696F6E206279207A65726F000000000000 DUP2 MSTORE POP PUSH2 0x18E8 JUMP JUMPDEST SWAP1 POP SWAP3 SWAP2 POP POP JUMP JUMPDEST PUSH1 0x0 DUP1 DUP3 DUP5 PUSH2 0x1508 SWAP2 SWAP1 PUSH2 0x223D JUMP JUMPDEST SWAP1 POP DUP4 DUP2 LT ISZERO PUSH2 0x154D JUMPI PUSH1 0x40 MLOAD PUSH32 0x8C379A000000000000000000000000000000000000000000000000000000000 DUP2 MSTORE PUSH1 0x4 ADD PUSH2 0x1544 SWAP1 PUSH2 0x22BD JUMP JUMPDEST PUSH1 0x40 MLOAD DUP1 SWAP2 SUB SWAP1 REVERT JUMPDEST DUP1 SWAP2 POP POP SWAP3 SWAP2 POP POP JUMP JUMPDEST PUSH1 0x0 CALLER SWAP1 POP SWAP1 JUMP JUMPDEST PUSH1 0x0 PUSH1 0x2 PUSH1 0x0 CALLER PUSH20 0xFFFFFFFFFFFFFFFFFFFFFFFFFFFFFFFFFFFFFFFF AND PUSH20 0xFFFFFFFFFFFFFFFFFFFFFFFFFFFFFFFFFFFFFFFF AND DUP2 MSTORE PUSH1 0x20 ADD SWAP1 DUP2 MSTORE PUSH1 0x20 ADD PUSH1 0x0 KECCAK256 SLOAD SWAP1 POP DUP2 DUP2 LT ISZERO PUSH2 0x15E6 JUMPI PUSH1 0x40 MLOAD PUSH32 0x8C379A000000000000000000000000000000000000000000000000000000000 DUP2 MSTORE PUSH1 0x4 ADD PUSH2 0x15DD SWAP1 PUSH2 0x234F JUMP JUMPDEST PUSH1 0x40 MLOAD DUP1 SWAP2 SUB SWAP1 REVERT JUMPDEST PUSH2 0x15FB DUP3 PUSH1 0x1 SLOAD PUSH2 0x13EB SWAP1 SWAP2 SWAP1 PUSH4 0xFFFFFFFF AND JUMP JUMPDEST PUSH1 0x1 DUP2 SWAP1 SSTORE POP PUSH2 0x1653 DUP3 PUSH1 0x2 PUSH1 0x0 CALLER PUSH20 0xFFFFFFFFFFFFFFFFFFFFFFFFFFFFFFFFFFFFFFFF AND PUSH20 0xFFFFFFFFFFFFFFFFFFFFFFFFFFFFFFFFFFFFFFFF AND DUP2 MSTORE PUSH1 0x20 ADD SWAP1 DUP2 MSTORE PUSH1 0x20 ADD PUSH1 0x0 KECCAK256 SLOAD PUSH2 0x13EB SWAP1 SWAP2 SWAP1 PUSH4 0xFFFFFFFF AND JUMP JUMPDEST PUSH1 0x2 PUSH1 0x0 CALLER PUSH20 0xFFFFFFFFFFFFFFFFFFFFFFFFFFFFFFFFFFFFFFFF AND PUSH20 0xFFFFFFFFFFFFFFFFFFFFFFFFFFFFFFFFFFFFFFFF AND DUP2 MSTORE PUSH1 0x20 ADD SWAP1 DUP2 MSTORE PUSH1 0x20 ADD PUSH1 0x0 KECCAK256 DUP2 SWAP1 SSTORE POP PUSH2 0x16E1 CALLER DUP4 PUSH1 0x0 DUP1 SLOAD SWAP1 PUSH2 0x100 EXP SWAP1 DIV PUSH20 0xFFFFFFFFFFFFFFFFFFFFFFFFFFFFFFFFFFFFFFFF AND PUSH20 0xFFFFFFFFFFFFFFFFFFFFFFFFFFFFFFFFFFFFFFFF AND PUSH2 0x16E5 SWAP1 SWAP3 SWAP2 SWAP1 PUSH4 0xFFFFFFFF AND JUMP JUMPDEST POP POP JUMP JUMPDEST PUSH2 0x1766 DUP4 PUSH4 0xA9059CBB PUSH1 0xE0 SHL DUP5 DUP5 PUSH1 0x40 MLOAD PUSH1 0x24 ADD PUSH2 0x1704 SWAP3 SWAP2 SWAP1 PUSH2 0x236F JUMP JUMPDEST PUSH1 0x40 MLOAD PUSH1 0x20 DUP2 DUP4 SUB SUB DUP2 MSTORE SWAP1 PUSH1 0x40 MSTORE SWAP1 PUSH28 0xFFFFFFFFFFFFFFFFFFFFFFFFFFFFFFFFFFFFFFFFFFFFFFFFFFFFFFFF NOT AND PUSH1 0x20 DUP3 ADD DUP1 MLOAD PUSH28 0xFFFFFFFFFFFFFFFFFFFFFFFFFFFFFFFFFFFFFFFFFFFFFFFFFFFFFFFF DUP4 DUP2 DUP4 AND OR DUP4 MSTORE POP POP POP POP PUSH2 0x194B JUMP JUMPDEST POP POP POP JUMP JUMPDEST PUSH1 0x0 DUP2 DUP4 LT PUSH2 0x177A JUMPI DUP2 PUSH2 0x177C JUMP JUMPDEST DUP3 JUMPDEST SWAP1 POP SWAP3 SWAP2 POP POP JUMP JUMPDEST PUSH2 0x1799 DUP2 PUSH1 0x1 SLOAD PUSH2 0x14F9 SWAP1 SWAP2 SWAP1 PUSH4 0xFFFFFFFF AND JUMP JUMPDEST PUSH1 0x1 DUP2 SWAP1 SSTORE POP PUSH2 0x17F1 DUP2 PUSH1 0x2 PUSH1 0x0 CALLER PUSH20 0xFFFFFFFFFFFFFFFFFFFFFFFFFFFFFFFFFFFFFFFF AND PUSH20 0xFFFFFFFFFFFFFFFFFFFFFFFFFFFFFFFFFFFFFFFF AND DUP2 MSTORE PUSH1 0x20 ADD SWAP1 DUP2 MSTORE PUSH1 0x20 ADD PUSH1 0x0 KECCAK256 SLOAD PUSH2 0x14F9 SWAP1 SWAP2 SWAP1 PUSH4 0xFFFFFFFF AND JUMP JUMPDEST PUSH1 0x2 PUSH1 0x0 CALLER PUSH20 0xFFFFFFFFFFFFFFFFFFFFFFFFFFFFFFFFFFFFFFFF AND PUSH20 0xFFFFFFFFFFFFFFFFFFFFFFFFFFFFFFFFFFFFFFFF AND DUP2 MSTORE PUSH1 0x20 ADD SWAP1 DUP2 MSTORE PUSH1 0x20 ADD PUSH1 0x0 KECCAK256 DUP2 SWAP1 SSTORE POP PUSH2 0x1881 CALLER ADDRESS DUP4 PUSH1 0x0 DUP1 SLOAD SWAP1 PUSH2 0x100 EXP SWAP1 DIV PUSH20 0xFFFFFFFFFFFFFFFFFFFFFFFFFFFFFFFFFFFFFFFF AND PUSH20 0xFFFFFFFFFFFFFFFFFFFFFFFFFFFFFFFFFFFFFFFF AND PUSH2 0x1A12 SWAP1 SWAP4 SWAP3 SWAP2 SWAP1 PUSH4 0xFFFFFFFF AND JUMP JUMPDEST POP JUMP JUMPDEST PUSH1 0x0 DUP4 DUP4 GT ISZERO DUP3 SWAP1 PUSH2 0x18CC JUMPI PUSH1 0x40 MLOAD PUSH32 0x8C379A000000000000000000000000000000000000000000000000000000000 DUP2 MSTORE PUSH1 0x4 ADD PUSH2 0x18C3 SWAP2 SWAP1 PUSH2 0x2417 JUMP JUMPDEST PUSH1 0x40 MLOAD DUP1 SWAP2 SUB SWAP1 REVERT JUMPDEST POP PUSH1 0x0 DUP4 DUP6 PUSH2 0x18DB SWAP2 SWAP1 PUSH2 0x2439 JUMP JUMPDEST SWAP1 POP DUP1 SWAP2 POP POP SWAP4 SWAP3 POP POP POP JUMP JUMPDEST PUSH1 0x0 DUP1 DUP4 GT DUP3 SWAP1 PUSH2 0x192F JUMPI PUSH1 0x40 MLOAD PUSH32 0x8C379A000000000000000000000000000000000000000000000000000000000 DUP2 MSTORE PUSH1 0x4 ADD PUSH2 0x1926 SWAP2 SWAP1 PUSH2 0x2417 JUMP JUMPDEST PUSH1 0x40 MLOAD DUP1 SWAP2 SUB SWAP1 REVERT JUMPDEST POP PUSH1 0x0 DUP4 DUP6 PUSH2 0x193E SWAP2 SWAP1 PUSH2 0x217A JUMP JUMPDEST SWAP1 POP DUP1 SWAP2 POP POP SWAP4 SWAP3 POP POP POP JUMP JUMPDEST PUSH1 0x0 PUSH2 0x19AD DUP3 PUSH1 0x40 MLOAD DUP1 PUSH1 0x40 ADD PUSH1 0x40 MSTORE DUP1 PUSH1 0x20 DUP2 MSTORE PUSH1 0x20 ADD PUSH32 0x5361666545524332303A206C6F772D6C6576656C2063616C6C206661696C6564 DUP2 MSTORE POP DUP6 PUSH20 0xFFFFFFFFFFFFFFFFFFFFFFFFFFFFFFFFFFFFFFFF AND PUSH2 0x1A9B SWAP1 SWAP3 SWAP2 SWAP1 PUSH4 0xFFFFFFFF AND JUMP JUMPDEST SWAP1 POP PUSH1 0x0 DUP2 MLOAD GT ISZERO PUSH2 0x1A0D JUMPI DUP1 DUP1 PUSH1 0x20 ADD SWAP1 MLOAD DUP2 ADD SWAP1 PUSH2 0x19CD SWAP2 SWAP1 PUSH2 0x24A5 JUMP JUMPDEST PUSH2 0x1A0C JUMPI PUSH1 0x40 MLOAD PUSH32 0x8C379A000000000000000000000000000000000000000000000000000000000 DUP2 MSTORE PUSH1 0x4 ADD PUSH2 0x1A03 SWAP1 PUSH2 0x2544 JUMP JUMPDEST PUSH1 0x40 MLOAD DUP1 SWAP2 SUB SWAP1 REVERT JUMPDEST JUMPDEST POP POP POP JUMP JUMPDEST PUSH2 0x1A95 DUP5 PUSH4 0x23B872DD PUSH1 0xE0 SHL DUP6 DUP6 DUP6 PUSH1 0x40 MLOAD PUSH1 0x24 ADD PUSH2 0x1A33 SWAP4 SWAP3 SWAP2 SWAP1 PUSH2 0x2564 JUMP JUMPDEST PUSH1 0x40 MLOAD PUSH1 0x20 DUP2 DUP4 SUB SUB DUP2 MSTORE SWAP1 PUSH1 0x40 MSTORE SWAP1 PUSH28 0xFFFFFFFFFFFFFFFFFFFFFFFFFFFFFFFFFFFFFFFFFFFFFFFFFFFFFFFF NOT AND PUSH1 0x20 DUP3 ADD DUP1 MLOAD PUSH28 0xFFFFFFFFFFFFFFFFFFFFFFFFFFFFFFFFFFFFFFFFFFFFFFFFFFFFFFFF DUP4 DUP2 DUP4 AND OR DUP4 MSTORE POP POP POP POP PUSH2 0x194B JUMP JUMPDEST POP POP POP POP JUMP JUMPDEST PUSH1 0x60 PUSH2 0x1AAA DUP5 DUP5 PUSH1 0x0 DUP6 PUSH2 0x1AB3 JUMP JUMPDEST SWAP1 POP SWAP4 SWAP3 POP POP POP JUMP JUMPDEST PUSH1 0x60 PUSH2 0x1ABE DUP6 PUSH2 0x1BD5 JUMP JUMPDEST PUSH2 0x1AFD JUMPI PUSH1 0x40 MLOAD PUSH32 0x8C379A000000000000000000000000000000000000000000000000000000000 DUP2 MSTORE PUSH1 0x4 ADD PUSH2 0x1AF4 SWAP1 PUSH2 0x25E7 JUMP JUMPDEST PUSH1 0x40 MLOAD DUP1 SWAP2 SUB SWAP1 REVERT JUMPDEST PUSH1 0x0 DUP1 DUP7 PUSH20 0xFFFFFFFFFFFFFFFFFFFFFFFFFFFFFFFFFFFFFFFF AND DUP6 DUP8 PUSH1 0x40 MLOAD PUSH2 0x1B26 SWAP2 SWAP1 PUSH2 0x264E JUMP JUMPDEST PUSH1 0x0 PUSH1 0x40 MLOAD DUP1 DUP4 SUB DUP2 DUP6 DUP8 GAS CALL SWAP3 POP POP POP RETURNDATASIZE DUP1 PUSH1 0x0 DUP2 EQ PUSH2 0x1B63 JUMPI PUSH1 0x40 MLOAD SWAP2 POP PUSH1 0x1F NOT PUSH1 0x3F RETURNDATASIZE ADD AND DUP3 ADD PUSH1 0x40 MSTORE RETURNDATASIZE DUP3 MSTORE RETURNDATASIZE PUSH1 0x0 PUSH1 0x20 DUP5 ADD RETURNDATACOPY PUSH2 0x1B68 JUMP JUMPDEST PUSH1 0x60 SWAP2 POP JUMPDEST POP SWAP2 POP SWAP2 POP DUP2 ISZERO PUSH2 0x1B7D JUMPI DUP1 SWAP3 POP POP POP PUSH2 0x1BCD JUMP JUMPDEST PUSH1 0x0 DUP2 MLOAD GT ISZERO PUSH2 0x1B90 JUMPI DUP1 MLOAD DUP1 DUP3 PUSH1 0x20 ADD REVERT JUMPDEST DUP4 PUSH1 0x40 MLOAD PUSH32 0x8C379A000000000000000000000000000000000000000000000000000000000 DUP2 MSTORE PUSH1 0x4 ADD PUSH2 0x1BC4 SWAP2 SWAP1 PUSH2 0x2417 JUMP JUMPDEST PUSH1 0x40 MLOAD DUP1 SWAP2 SUB SWAP1 REVERT JUMPDEST SWAP5 SWAP4 POP POP POP POP JUMP JUMPDEST PUSH1 0x0 DUP1 DUP3 EXTCODESIZE SWAP1 POP PUSH1 0x0 DUP2 GT SWAP2 POP POP SWAP2 SWAP1 POP JUMP JUMPDEST PUSH1 0x0 DUP1 REVERT JUMPDEST PUSH1 0x0 PUSH20 0xFFFFFFFFFFFFFFFFFFFFFFFFFFFFFFFFFFFFFFFF DUP3 AND SWAP1 POP SWAP2 SWAP1 POP JUMP JUMPDEST PUSH1 0x0 PUSH2 0x1C18 DUP3 PUSH2 0x1BED JUMP JUMPDEST SWAP1 POP SWAP2 SWAP1 POP JUMP JUMPDEST PUSH2 0x1C28 DUP2 PUSH2 0x1C0D JUMP JUMPDEST DUP2 EQ PUSH2 0x1C33 JUMPI PUSH1 0x0 DUP1 REVERT JUMPDEST POP JUMP JUMPDEST PUSH1 0x0 DUP2 CALLDATALOAD SWAP1 POP PUSH2 0x1C45 DUP2 PUSH2 0x1C1F JUMP JUMPDEST SWAP3 SWAP2 POP POP JUMP JUMPDEST PUSH1 0x0 PUSH1 0x20 DUP3 DUP5 SUB SLT ISZERO PUSH2 0x1C61 JUMPI PUSH2 0x1C60 PUSH2 0x1BE8 JUMP JUMPDEST JUMPDEST PUSH1 0x0 PUSH2 0x1C6F DUP5 DUP3 DUP6 ADD PUSH2 0x1C36 JUMP JUMPDEST SWAP2 POP POP SWAP3 SWAP2 POP POP JUMP JUMPDEST PUSH1 0x0 DUP2 SWAP1 POP SWAP2 SWAP1 POP JUMP JUMPDEST PUSH2 0x1C8B DUP2 PUSH2 0x1C78 JUMP JUMPDEST DUP3 MSTORE POP POP JUMP JUMPDEST PUSH1 0x0 PUSH1 0x20 DUP3 ADD SWAP1 POP PUSH2 0x1CA6 PUSH1 0x0 DUP4 ADD DUP5 PUSH2 0x1C82 JUMP JUMPDEST SWAP3 SWAP2 POP POP JUMP JUMPDEST PUSH2 0x1CB5 DUP2 PUSH2 0x1C0D JUMP JUMPDEST DUP3 MSTORE POP POP JUMP JUMPDEST PUSH1 0x0 PUSH1 0x20 DUP3 ADD SWAP1 POP PUSH2 0x1CD0 PUSH1 0x0 DUP4 ADD DUP5 PUSH2 0x1CAC JUMP JUMPDEST SWAP3 SWAP2 POP POP JUMP JUMPDEST PUSH2 0x1CDF DUP2 PUSH2 0x1C78 JUMP JUMPDEST DUP2 EQ PUSH2 0x1CEA JUMPI PUSH1 0x0 DUP1 REVERT JUMPDEST POP JUMP JUMPDEST PUSH1 0x0 DUP2 CALLDATALOAD SWAP1 POP PUSH2 0x1CFC DUP2 PUSH2 0x1CD6 JUMP JUMPDEST SWAP3 SWAP2 POP POP JUMP JUMPDEST PUSH1 0x0 PUSH1 0x20 DUP3 DUP5 SUB SLT ISZERO PUSH2 0x1D18 JUMPI PUSH2 0x1D17 PUSH2 0x1BE8 JUMP JUMPDEST JUMPDEST PUSH1 0x0 PUSH2 0x1D26 DUP5 DUP3 DUP6 ADD PUSH2 0x1CED JUMP JUMPDEST SWAP2 POP POP SWAP3 SWAP2 POP POP JUMP JUMPDEST PUSH1 0x0 DUP2 SWAP1 POP SWAP2 SWAP1 POP JUMP JUMPDEST PUSH1 0x0 PUSH2 0x1D54 PUSH2 0x1D4F PUSH2 0x1D4A DUP5 PUSH2 0x1BED JUMP JUMPDEST PUSH2 0x1D2F JUMP JUMPDEST PUSH2 0x1BED JUMP JUMPDEST SWAP1 POP SWAP2 SWAP1 POP JUMP JUMPDEST PUSH1 0x0 PUSH2 0x1D66 DUP3 PUSH2 0x1D39 JUMP JUMPDEST SWAP1 POP SWAP2 SWAP1 POP JUMP JUMPDEST PUSH1 0x0 PUSH2 0x1D78 DUP3 PUSH2 0x1D5B JUMP JUMPDEST SWAP1 POP SWAP2 SWAP1 POP JUMP JUMPDEST PUSH2 0x1D88 DUP2 PUSH2 0x1D6D JUMP JUMPDEST DUP3 MSTORE POP POP JUMP JUMPDEST PUSH1 0x0 PUSH1 0x20 DUP3 ADD SWAP1 POP PUSH2 0x1DA3 PUSH1 0x0 DUP4 ADD DUP5 PUSH2 0x1D7F JUMP JUMPDEST SWAP3 SWAP2 POP POP JUMP JUMPDEST PUSH1 0x0 DUP3 DUP3 MSTORE PUSH1 0x20 DUP3 ADD SWAP1 POP SWAP3 SWAP2 POP POP JUMP JUMPDEST PUSH32 0x4F776E61626C653A2063616C6C6572206973206E6F7420746865206F776E6572 PUSH1 0x0 DUP3 ADD MSTORE POP JUMP JUMPDEST PUSH1 0x0 PUSH2 0x1DF0 PUSH1 0x20 DUP4 PUSH2 0x1DA9 JUMP JUMPDEST SWAP2 POP PUSH2 0x1DFB DUP3 PUSH2 0x1DBA JUMP JUMPDEST PUSH1 0x20 DUP3 ADD SWAP1 POP SWAP2 SWAP1 POP JUMP JUMPDEST PUSH1 0x0 PUSH1 0x20 DUP3 ADD SWAP1 POP DUP2 DUP2 SUB PUSH1 0x0 DUP4 ADD MSTORE PUSH2 0x1E1F DUP2 PUSH2 0x1DE3 JUMP JUMPDEST SWAP1 POP SWAP2 SWAP1 POP JUMP JUMPDEST PUSH32 0x4C50546F6B656E5368617265506F6F6C3A206E6F742073746172740000000000 PUSH1 0x0 DUP3 ADD MSTORE POP JUMP JUMPDEST PUSH1 0x0 PUSH2 0x1E5C PUSH1 0x1B DUP4 PUSH2 0x1DA9 JUMP JUMPDEST SWAP2 POP PUSH2 0x1E67 DUP3 PUSH2 0x1E26 JUMP JUMPDEST PUSH1 0x20 DUP3 ADD SWAP1 POP SWAP2 SWAP1 POP JUMP JUMPDEST PUSH1 0x0 PUSH1 0x20 DUP3 ADD SWAP1 POP DUP2 DUP2 SUB PUSH1 0x0 DUP4 ADD MSTORE PUSH2 0x1E8B DUP2 PUSH2 0x1E4F JUMP JUMPDEST SWAP1 POP SWAP2 SWAP1 POP JUMP JUMPDEST PUSH32 0x48555344474F434C50546F6B656E5368617265506F6F6C3A2043616E6E6F7420 PUSH1 0x0 DUP3 ADD MSTORE PUSH32 0x7769746864726177203000000000000000000000000000000000000000000000 PUSH1 0x20 DUP3 ADD MSTORE POP JUMP JUMPDEST PUSH1 0x0 PUSH2 0x1EEE PUSH1 0x2A DUP4 PUSH2 0x1DA9 JUMP JUMPDEST SWAP2 POP PUSH2 0x1EF9 DUP3 PUSH2 0x1E92 JUMP JUMPDEST PUSH1 0x40 DUP3 ADD SWAP1 POP SWAP2 SWAP1 POP JUMP JUMPDEST PUSH1 0x0 PUSH1 0x20 DUP3 ADD SWAP1 POP DUP2 DUP2 SUB PUSH1 0x0 DUP4 ADD MSTORE PUSH2 0x1F1D DUP2 PUSH2 0x1EE1 JUMP JUMPDEST SWAP1 POP SWAP2 SWAP1 POP JUMP JUMPDEST PUSH32 0x43616C6C6572206973206E6F742072657761726420646973747269627574696F PUSH1 0x0 DUP3 ADD MSTORE PUSH32 0x6E00000000000000000000000000000000000000000000000000000000000000 PUSH1 0x20 DUP3 ADD MSTORE POP JUMP JUMPDEST PUSH1 0x0 PUSH2 0x1F80 PUSH1 0x21 DUP4 PUSH2 0x1DA9 JUMP JUMPDEST SWAP2 POP PUSH2 0x1F8B DUP3 PUSH2 0x1F24 JUMP JUMPDEST PUSH1 0x40 DUP3 ADD SWAP1 POP SWAP2 SWAP1 POP JUMP JUMPDEST PUSH1 0x0 PUSH1 0x20 DUP3 ADD SWAP1 POP DUP2 DUP2 SUB PUSH1 0x0 DUP4 ADD MSTORE PUSH2 0x1FAF DUP2 PUSH2 0x1F73 JUMP JUMPDEST SWAP1 POP SWAP2 SWAP1 POP JUMP JUMPDEST PUSH32 0x48555344474F434C50546F6B656E5368617265506F6F6C3A2043616E6E6F7420 PUSH1 0x0 DUP3 ADD MSTORE PUSH32 0x7374616B65203000000000000000000000000000000000000000000000000000 PUSH1 0x20 DUP3 ADD MSTORE POP JUMP JUMPDEST PUSH1 0x0 PUSH2 0x2012 PUSH1 0x27 DUP4 PUSH2 0x1DA9 JUMP JUMPDEST SWAP2 POP PUSH2 0x201D DUP3 PUSH2 0x1FB6 JUMP JUMPDEST PUSH1 0x40 DUP3 ADD SWAP1 POP SWAP2 SWAP1 POP JUMP JUMPDEST PUSH1 0x0 PUSH1 0x20 DUP3 ADD SWAP1 POP DUP2 DUP2 SUB PUSH1 0x0 DUP4 ADD MSTORE PUSH2 0x2041 DUP2 PUSH2 0x2005 JUMP JUMPDEST SWAP1 POP SWAP2 SWAP1 POP JUMP JUMPDEST PUSH32 0x4F776E61626C653A206E6577206F776E657220697320746865207A65726F2061 PUSH1 0x0 DUP3 ADD MSTORE PUSH32 0x6464726573730000000000000000000000000000000000000000000000000000 PUSH1 0x20 DUP3 ADD MSTORE POP JUMP JUMPDEST PUSH1 0x0 PUSH2 0x20A4 PUSH1 0x26 DUP4 PUSH2 0x1DA9 JUMP JUMPDEST SWAP2 POP PUSH2 0x20AF DUP3 PUSH2 0x2048 JUMP JUMPDEST PUSH1 0x40 DUP3 ADD SWAP1 POP SWAP2 SWAP1 POP JUMP JUMPDEST PUSH1 0x0 PUSH1 0x20 DUP3 ADD SWAP1 POP DUP2 DUP2 SUB PUSH1 0x0 DUP4 ADD MSTORE PUSH2 0x20D3 DUP2 PUSH2 0x2097 JUMP JUMPDEST SWAP1 POP SWAP2 SWAP1 POP JUMP JUMPDEST PUSH32 0x4E487B7100000000000000000000000000000000000000000000000000000000 PUSH1 0x0 MSTORE PUSH1 0x11 PUSH1 0x4 MSTORE PUSH1 0x24 PUSH1 0x0 REVERT JUMPDEST PUSH1 0x0 PUSH2 0x2114 DUP3 PUSH2 0x1C78 JUMP JUMPDEST SWAP2 POP PUSH2 0x211F DUP4 PUSH2 0x1C78 JUMP JUMPDEST SWAP3 POP DUP3 DUP3 MUL PUSH2 0x212D DUP2 PUSH2 0x1C78 JUMP JUMPDEST SWAP2 POP DUP3 DUP3 DIV DUP5 EQ DUP4 ISZERO OR PUSH2 0x2144 JUMPI PUSH2 0x2143 PUSH2 0x20DA JUMP JUMPDEST JUMPDEST POP SWAP3 SWAP2 POP POP JUMP JUMPDEST PUSH32 0x4E487B7100000000000000000000000000000000000000000000000000000000 PUSH1 0x0 MSTORE PUSH1 0x12 PUSH1 0x4 MSTORE PUSH1 0x24 PUSH1 0x0 REVERT JUMPDEST PUSH1 0x0 PUSH2 0x2185 DUP3 PUSH2 0x1C78 JUMP JUMPDEST SWAP2 POP PUSH2 0x2190 DUP4 PUSH2 0x1C78 JUMP JUMPDEST SWAP3 POP DUP3 PUSH2 0x21A0 JUMPI PUSH2 0x219F PUSH2 0x214B JUMP JUMPDEST JUMPDEST DUP3 DUP3 DIV SWAP1 POP SWAP3 SWAP2 POP POP JUMP JUMPDEST PUSH32 0x536166654D6174683A206D756C7469706C69636174696F6E206F766572666C6F PUSH1 0x0 DUP3 ADD MSTORE PUSH32 0x7700000000000000000000000000000000000000000000000000000000000000 PUSH1 0x20 DUP3 ADD MSTORE POP JUMP JUMPDEST PUSH1 0x0 PUSH2 0x2207 PUSH1 0x21 DUP4 PUSH2 0x1DA9 JUMP JUMPDEST SWAP2 POP PUSH2 0x2212 DUP3 PUSH2 0x21AB JUMP JUMPDEST PUSH1 0x40 DUP3 ADD SWAP1 POP SWAP2 SWAP1 POP JUMP JUMPDEST PUSH1 0x0 PUSH1 0x20 DUP3 ADD SWAP1 POP DUP2 DUP2 SUB PUSH1 0x0 DUP4 ADD MSTORE PUSH2 0x2236 DUP2 PUSH2 0x21FA JUMP JUMPDEST SWAP1 POP SWAP2 SWAP1 POP JUMP JUMPDEST PUSH1 0x0 PUSH2 0x2248 DUP3 PUSH2 0x1C78 JUMP JUMPDEST SWAP2 POP PUSH2 0x2253 DUP4 PUSH2 0x1C78 JUMP JUMPDEST SWAP3 POP DUP3 DUP3 ADD SWAP1 POP DUP1 DUP3 GT ISZERO PUSH2 0x226B JUMPI PUSH2 0x226A PUSH2 0x20DA JUMP JUMPDEST JUMPDEST SWAP3 SWAP2 POP POP JUMP JUMPDEST PUSH32 0x536166654D6174683A206164646974696F6E206F766572666C6F770000000000 PUSH1 0x0 DUP3 ADD MSTORE POP JUMP JUMPDEST PUSH1 0x0 PUSH2 0x22A7 PUSH1 0x1B DUP4 PUSH2 0x1DA9 JUMP JUMPDEST SWAP2 POP PUSH2 0x22B2 DUP3 PUSH2 0x2271 JUMP JUMPDEST PUSH1 0x20 DUP3 ADD SWAP1 POP SWAP2 SWAP1 POP JUMP JUMPDEST PUSH1 0x0 PUSH1 0x20 DUP3 ADD SWAP1 POP DUP2 DUP2 SUB PUSH1 0x0 DUP4 ADD MSTORE PUSH2 0x22D6 DUP2 PUSH2 0x229A JUMP JUMPDEST SWAP1 POP SWAP2 SWAP1 POP JUMP JUMPDEST PUSH32 0x776974686472617720726571756573742067726561746572207468616E207374 PUSH1 0x0 DUP3 ADD MSTORE PUSH32 0x616B656420616D6F756E74000000000000000000000000000000000000000000 PUSH1 0x20 DUP3 ADD MSTORE POP JUMP JUMPDEST PUSH1 0x0 PUSH2 0x2339 PUSH1 0x2B DUP4 PUSH2 0x1DA9 JUMP JUMPDEST SWAP2 POP PUSH2 0x2344 DUP3 PUSH2 0x22DD JUMP JUMPDEST PUSH1 0x40 DUP3 ADD SWAP1 POP SWAP2 SWAP1 POP JUMP JUMPDEST PUSH1 0x0 PUSH1 0x20 DUP3 ADD SWAP1 POP DUP2 DUP2 SUB PUSH1 0x0 DUP4 ADD MSTORE PUSH2 0x2368 DUP2 PUSH2 0x232C JUMP JUMPDEST SWAP1 POP SWAP2 SWAP1 POP JUMP JUMPDEST PUSH1 0x0 PUSH1 0x40 DUP3 ADD SWAP1 POP PUSH2 0x2384 PUSH1 0x0 DUP4 ADD DUP6 PUSH2 0x1CAC JUMP JUMPDEST PUSH2 0x2391 PUSH1 0x20 DUP4 ADD DUP5 PUSH2 0x1C82 JUMP JUMPDEST SWAP4 SWAP3 POP POP POP JUMP JUMPDEST PUSH1 0x0 DUP2 MLOAD SWAP1 POP SWAP2 SWAP1 POP JUMP JUMPDEST PUSH1 0x0 JUMPDEST DUP4 DUP2 LT ISZERO PUSH2 0x23C1 JUMPI DUP1 DUP3 ADD MLOAD DUP2 DUP5 ADD MSTORE PUSH1 0x20 DUP2 ADD SWAP1 POP PUSH2 0x23A6 JUMP JUMPDEST PUSH1 0x0 DUP5 DUP5 ADD MSTORE POP POP POP POP JUMP JUMPDEST PUSH1 0x0 PUSH1 0x1F NOT PUSH1 0x1F DUP4 ADD AND SWAP1 POP SWAP2 SWAP1 POP JUMP JUMPDEST PUSH1 0x0 PUSH2 0x23E9 DUP3 PUSH2 0x2398 JUMP JUMPDEST PUSH2 0x23F3 DUP2 DUP6 PUSH2 0x1DA9 JUMP JUMPDEST SWAP4 POP PUSH2 0x2403 DUP2 DUP6 PUSH1 0x20 DUP7 ADD PUSH2 0x23A3 JUMP JUMPDEST PUSH2 0x240C DUP2 PUSH2 0x23CD JUMP JUMPDEST DUP5 ADD SWAP2 POP POP SWAP3 SWAP2 POP POP JUMP JUMPDEST PUSH1 0x0 PUSH1 0x20 DUP3 ADD SWAP1 POP DUP2 DUP2 SUB PUSH1 0x0 DUP4 ADD MSTORE PUSH2 0x2431 DUP2 DUP5 PUSH2 0x23DE JUMP JUMPDEST SWAP1 POP SWAP3 SWAP2 POP POP JUMP JUMPDEST PUSH1 0x0 PUSH2 0x2444 DUP3 PUSH2 0x1C78 JUMP JUMPDEST SWAP2 POP PUSH2 0x244F DUP4 PUSH2 0x1C78 JUMP JUMPDEST SWAP3 POP DUP3 DUP3 SUB SWAP1 POP DUP2 DUP2 GT ISZERO PUSH2 0x2467 JUMPI PUSH2 0x2466 PUSH2 0x20DA JUMP JUMPDEST JUMPDEST SWAP3 SWAP2 POP POP JUMP JUMPDEST PUSH1 0x0 DUP2 ISZERO ISZERO SWAP1 POP SWAP2 SWAP1 POP JUMP JUMPDEST PUSH2 0x2482 DUP2 PUSH2 0x246D JUMP JUMPDEST DUP2 EQ PUSH2 0x248D JUMPI PUSH1 0x0 DUP1 REVERT JUMPDEST POP JUMP JUMPDEST PUSH1 0x0 DUP2 MLOAD SWAP1 POP PUSH2 0x249F DUP2 PUSH2 0x2479 JUMP JUMPDEST SWAP3 SWAP2 POP POP JUMP JUMPDEST PUSH1 0x0 PUSH1 0x20 DUP3 DUP5 SUB SLT ISZERO PUSH2 0x24BB JUMPI PUSH2 0x24BA PUSH2 0x1BE8 JUMP JUMPDEST JUMPDEST PUSH1 0x0 PUSH2 0x24C9 DUP5 DUP3 DUP6 ADD PUSH2 0x2490 JUMP JUMPDEST SWAP2 POP POP SWAP3 SWAP2 POP POP JUMP JUMPDEST PUSH32 0x5361666545524332303A204552433230206F7065726174696F6E20646964206E PUSH1 0x0 DUP3 ADD MSTORE PUSH32 0x6F74207375636365656400000000000000000000000000000000000000000000 PUSH1 0x20 DUP3 ADD MSTORE POP JUMP JUMPDEST PUSH1 0x0 PUSH2 0x252E PUSH1 0x2A DUP4 PUSH2 0x1DA9 JUMP JUMPDEST SWAP2 POP PUSH2 0x2539 DUP3 PUSH2 0x24D2 JUMP JUMPDEST PUSH1 0x40 DUP3 ADD SWAP1 POP SWAP2 SWAP1 POP JUMP JUMPDEST PUSH1 0x0 PUSH1 0x20 DUP3 ADD SWAP1 POP DUP2 DUP2 SUB PUSH1 0x0 DUP4 ADD MSTORE PUSH2 0x255D DUP2 PUSH2 0x2521 JUMP JUMPDEST SWAP1 POP SWAP2 SWAP1 POP JUMP JUMPDEST PUSH1 0x0 PUSH1 0x60 DUP3 ADD SWAP1 POP PUSH2 0x2579 PUSH1 0x0 DUP4 ADD DUP7 PUSH2 0x1CAC JUMP JUMPDEST PUSH2 0x2586 PUSH1 0x20 DUP4 ADD DUP6 PUSH2 0x1CAC JUMP JUMPDEST PUSH2 0x2593 PUSH1 0x40 DUP4 ADD DUP5 PUSH2 0x1C82 JUMP JUMPDEST SWAP5 SWAP4 POP POP POP POP JUMP JUMPDEST PUSH32 0x416464726573733A2063616C6C20746F206E6F6E2D636F6E7472616374000000 PUSH1 0x0 DUP3 ADD MSTORE POP JUMP JUMPDEST PUSH1 0x0 PUSH2 0x25D1 PUSH1 0x1D DUP4 PUSH2 0x1DA9 JUMP JUMPDEST SWAP2 POP PUSH2 0x25DC DUP3 PUSH2 0x259B JUMP JUMPDEST PUSH1 0x20 DUP3 ADD SWAP1 POP SWAP2 SWAP1 POP JUMP JUMPDEST PUSH1 0x0 PUSH1 0x20 DUP3 ADD SWAP1 POP DUP2 DUP2 SUB PUSH1 0x0 DUP4 ADD MSTORE PUSH2 0x2600 DUP2 PUSH2 0x25C4 JUMP JUMPDEST SWAP1 POP SWAP2 SWAP1 POP JUMP JUMPDEST PUSH1 0x0 DUP2 MLOAD SWAP1 POP SWAP2 SWAP1 POP JUMP JUMPDEST PUSH1 0x0 DUP2 SWAP1 POP SWAP3 SWAP2 POP POP JUMP JUMPDEST PUSH1 0x0 PUSH2 0x2628 DUP3 PUSH2 0x2607 JUMP JUMPDEST PUSH2 0x2632 DUP2 DUP6 PUSH2 0x2612 JUMP JUMPDEST SWAP4 POP PUSH2 0x2642 DUP2 DUP6 PUSH1 0x20 DUP7 ADD PUSH2 0x23A3 JUMP JUMPDEST DUP1 DUP5 ADD SWAP2 POP POP SWAP3 SWAP2 POP POP JUMP JUMPDEST PUSH1 0x0 PUSH2 0x265A DUP3 DUP5 PUSH2 0x261D JUMP JUMPDEST SWAP2 POP DUP2 SWAP1 POP SWAP3 SWAP2 POP POP JUMP INVALID LOG2 PUSH5 0x6970667358 0x22 SLT KECCAK256 0xB0 JUMP MLOAD 0xE8 0x22 CREATE2 CODECOPY 0xBF DUP6 CODESIZE PUSH27 0xC728B37DA79D72070211FDE0875E30BC67B96E06D64736F6C6343 STOP ADDMOD SLT STOP CALLER "
				},
				"gasEstimates": {
					"creation": {
						"codeDepositCost": "1976600",
						"executionCost": "infinite",
						"totalCost": "infinite"
					},
					"external": {
						"DURATION()": "2563",
						"balanceOf(address)": "2930",
						"earned(address)": "infinite",
						"exit()": "infinite",
						"getReward()": "infinite",
						"lastTimeRewardApplicable()": "2541",
						"lastUpdateTime()": "2562",
						"lpt()": "infinite",
						"notifyRewardAmount(uint256)": "infinite",
						"owner()": "2611",
						"periodFinish()": "2495",
						"renounceOwnership()": "30408",
						"rewardDistribution()": "2604",
						"rewardPerToken()": "infinite",
						"rewardPerTokenStored()": "2518",
						"rewardRate()": "2562",
						"rewards(address)": "2860",
						"setRewardDistribution(address)": "26995",
						"stake(uint256)": "infinite",
						"starttime()": "2496",
						"token()": "infinite",
						"totalSupply()": "2549",
						"transferOwnership(address)": "30731",
						"userRewardPerTokenPaid(address)": "2859",
						"withdraw(uint256)": "infinite"
					}
				},
				"methodIdentifiers": {
					"DURATION()": "1be05289",
					"balanceOf(address)": "70a08231",
					"earned(address)": "008cc262",
					"exit()": "e9fad8ee",
					"getReward()": "3d18b912",
					"lastTimeRewardApplicable()": "80faa57d",
					"lastUpdateTime()": "c8f33c91",
					"lpt()": "ce5fc8d0",
					"notifyRewardAmount(uint256)": "3c6b16ab",
					"owner()": "8da5cb5b",
					"periodFinish()": "ebe2b12b",
					"renounceOwnership()": "715018a6",
					"rewardDistribution()": "101114cf",
					"rewardPerToken()": "cd3daf9d",
					"rewardPerTokenStored()": "df136d65",
					"rewardRate()": "7b0a47ee",
					"rewards(address)": "0700037d",
					"setRewardDistribution(address)": "0d68b761",
					"stake(uint256)": "a694fc3a",
					"starttime()": "8da58897",
					"token()": "fc0c546a",
					"totalSupply()": "18160ddd",
					"transferOwnership(address)": "f2fde38b",
					"userRewardPerTokenPaid(address)": "8b876347",
					"withdraw(uint256)": "2e1a7d4d"
				}
			},
			"storageLayout": {
				"storage": [
					{
						"astId": 882,
						"contract": "contracts/REC20Stacking.sol:LPTokenPool",
						"label": "lpt",
						"offset": 0,
						"slot": "0",
						"type": "t_contract(IERC20)76"
					},
					{
						"astId": 885,
						"contract": "contracts/REC20Stacking.sol:LPTokenPool",
						"label": "_totalSupply",
						"offset": 0,
						"slot": "1",
						"type": "t_uint256"
					},
					{
						"astId": 890,
						"contract": "contracts/REC20Stacking.sol:LPTokenPool",
						"label": "_balances",
						"offset": 0,
						"slot": "2",
						"type": "t_mapping(t_address,t_uint256)"
					},
					{
						"astId": 556,
						"contract": "contracts/REC20Stacking.sol:LPTokenPool",
						"label": "_owner",
						"offset": 0,
						"slot": "3",
						"type": "t_address"
					},
					{
						"astId": 1005,
						"contract": "contracts/REC20Stacking.sol:LPTokenPool",
						"label": "rewardDistribution",
						"offset": 0,
						"slot": "4",
						"type": "t_address"
					},
					{
						"astId": 1050,
						"contract": "contracts/REC20Stacking.sol:LPTokenPool",
						"label": "token",
						"offset": 0,
						"slot": "5",
						"type": "t_contract(IERC20)76"
					},
					{
						"astId": 1054,
						"contract": "contracts/REC20Stacking.sol:LPTokenPool",
						"label": "DURATION",
						"offset": 0,
						"slot": "6",
						"type": "t_uint256"
					},
					{
						"astId": 1057,
						"contract": "contracts/REC20Stacking.sol:LPTokenPool",
						"label": "starttime",
						"offset": 0,
						"slot": "7",
						"type": "t_uint256"
					},
					{
						"astId": 1061,
						"contract": "contracts/REC20Stacking.sol:LPTokenPool",
						"label": "periodFinish",
						"offset": 0,
						"slot": "8",
						"type": "t_uint256"
					},
					{
						"astId": 1065,
						"contract": "contracts/REC20Stacking.sol:LPTokenPool",
						"label": "rewardRate",
						"offset": 0,
						"slot": "9",
						"type": "t_uint256"
					},
					{
						"astId": 1068,
						"contract": "contracts/REC20Stacking.sol:LPTokenPool",
						"label": "lastUpdateTime",
						"offset": 0,
						"slot": "10",
						"type": "t_uint256"
					},
					{
						"astId": 1071,
						"contract": "contracts/REC20Stacking.sol:LPTokenPool",
						"label": "rewardPerTokenStored",
						"offset": 0,
						"slot": "11",
						"type": "t_uint256"
					},
					{
						"astId": 1076,
						"contract": "contracts/REC20Stacking.sol:LPTokenPool",
						"label": "userRewardPerTokenPaid",
						"offset": 0,
						"slot": "12",
						"type": "t_mapping(t_address,t_uint256)"
					},
					{
						"astId": 1081,
						"contract": "contracts/REC20Stacking.sol:LPTokenPool",
						"label": "rewards",
						"offset": 0,
						"slot": "13",
						"type": "t_mapping(t_address,t_uint256)"
					}
				],
				"types": {
					"t_address": {
						"encoding": "inplace",
						"label": "address",
						"numberOfBytes": "20"
					},
					"t_contract(IERC20)76": {
						"encoding": "inplace",
						"label": "contract IERC20",
						"numberOfBytes": "20"
					},
					"t_mapping(t_address,t_uint256)": {
						"encoding": "mapping",
						"key": "t_address",
						"label": "mapping(address => uint256)",
						"numberOfBytes": "32",
						"value": "t_uint256"
					},
					"t_uint256": {
						"encoding": "inplace",
						"label": "uint256",
						"numberOfBytes": "32"
					}
				}
			},
			"userdoc": {
				"kind": "user",
				"methods": {
					"DURATION()": {
						"notice": "时间周期 = 180天"
					},
					"lastTimeRewardApplicable()": {
						"notice": "如果没有到达结束时间,返回当前时间"
					},
					"lastUpdateTime()": {
						"notice": "最后更新时间"
					},
					"lpt()": {
						"notice": "GoCash LP Token合约地址"
					},
					"periodFinish()": {
						"notice": "结束时间"
					},
					"rewardPerTokenStored()": {
						"notice": "储存奖励数量"
					},
					"rewardRate()": {
						"notice": "每秒奖励数量"
					},
					"rewards(address)": {
						"notice": "用户未发放的奖励数量"
					},
					"starttime()": {
						"notice": "开始时间"
					},
					"userRewardPerTokenPaid(address)": {
						"notice": "每个质押Token支付用户的奖励"
					}
				},
				"notice": "周期180天",
				"version": 1
			}
		}
	}
}